:10000000F84F0020F15F0000ED5F0000ED5F0000A1
:1000100000000000000000000000000000000000E0
:10002000000000000000000000000000ED5F000084
:100030000000000000000000ED5F0000ED5F000028
:10004000ED5F0000ED5F0000ED5F00008D1A000025
:1000500091130000ED5F0000ED5F0000ED5F000018
:10006000ED5F000095490000A5490000B54900007A
:10007000C54900000000000000000000ED5F000026
:10008000ED5F0000ED5F0000B55A0000C55A0000AA
:10009000D55A00000000000000000000AD3A00004A
:1000A000ED5F0000ED5F0000ED5F0000ED5F000020
:1000B00010B5064C2378002B07D1054B002B02D03E
:1000C000044800E000BF0123237010BDAC010020F4
:1000D0000000000084FC000008B5084B002B03D092
:1000E0000748084900E000BF07480368002B03D019
:1000F000064B002B00D0984708BDC046000000000A
:1001000084FC0000B001002084FC0000000000001E
:10011000F0B55F4656464D464446F0B485B0584962
:1001200088464C690F6A0888564EB047564D211CC8
:10013000A847564C391CA047414688608B699946B0
:100140004F6A4888B0474946A847391CA0474146EE
:10015000C860CB6999468F6A8888B0474946A847E6
:10016000391CA047041C41460861494B9A46C8689F
:1001700098470090019141468868D047061C0F1CA3
:10018000201CD047041C0D1C424B9946221C2B1CE2
:10019000C8470290039140498B46201C291C221C11
:1001A0002B1CC847041C0D1C301C391C321C3B1C6A
:1001B000C847021C0B1C201C291CD847374CA047E1
:1001C000021C0B1C00980199354CA047354CA047E8
:1001D000284B274AC847284A284B314CA047324C65
:1001E000A0474146C8628868D047009001914346C5
:1001F000D868D047061C0F1C44462069D047041C11
:100200000D1C301C391C321C3B1CC847029003914A
:10021000301C391C321C3B1CC847061C0F1C201C00
:10022000291C221C2B1CC847021C0B1C301C391C0F
:10023000D8471A4CA047021C0B1C00980199184C77
:10024000A047184CA0470B4B094AC8470A4A0B4B1A
:10025000134CA047144CA0474146086305B03CBC72
:1002600090469946A246AB46F0BDC046C046C04641
:10027000000000000080664000000060FB21094093
:1002800050070020D904000095B7000079B10000A4
:1002900005D8000031CB000019BC000059660000F1
:1002A0005DC2000001630000A9D80000C046C0463E
:1002B000F0B55F4656464D464446F0B491B0041C36
:1002C0000F1C3248324B9847381C324EB047324BE5
:1002D0009847381CB0476088304DA847A061A08877
:1002E000A847E0612088A84782462D4B9847381CD4
:1002F000B0472088A8476061A088A847294B9B4643
:10030000E1699847284B9846FC2189059847E061A8
:100310006088A8478146254B9847381CB0472088FD
:10032000A8476169D847FC218905C047606160889A
:10033000A847A169D847FC218905C047A061A088CA
:10034000A847061C1A4D50466169A84720624846D6
:10035000A169A8476062301CE169A847A06201ADAD
:10036000AA232B7068460530211C3422114B984774
:100370000020291C104B9847104B984711B03CBCEB
:1003800090469946A246AB46F0BDC046003C1C468E
:10039000C1310000C51D00001D1B0000D904000074
:1003A0002D1B0000A1AE000041B500003D1B000068
:1003B00095B70000B9690000555E0000295E000095
:1003C00010B5074B9847162803D1064C0120A047CB
:1003D000FCE7002803D0044B9847014B984710BD19
:1003E000055C000065310000E55C000030B59DB0A3
:1003F000051C134B9847C820124B98470DAC0020A2
:10040000211C114B984724786846694635313422BF
:100410000E4B9847AA2C0DD1281C0D4B984700284D
:1004200008D10C4869463422084B984705200A4BEE
:10043000984703E00748291C084B98471DB030BD7A
:10044000C103000001360000C15D0000B969000071
:10045000A91D00005007002065310000B102000016
:1004600010B5144C2278144B1B689200134908886D
:10047000D358984720780130C0B2114B1978114BEE
:100480009847C9B22170104B595C104B1B685A7EBB
:1004900052B2002AFBDB1A691F2082430A431A6109
:1004A0005A7E52B2002AFBDB084804490122084B5D
:1004B000984710BDC8010020AC2E0020FC0200208F
:1004C0000000002021AC0000FCD900003C2E0020E0
:1004D0007D3B00000000000010B5094B984709491A
:1004E000094B9847094B9847044B034A084CA047CF
:1004F000084B984710BDC0466666666666660A4049
:1005000079BB000000FF7F4779B1000005D80000EB
:1005100031CB0000A9D80000F0B58FB0051C0E1C2F
:1005200002AC201C324B98470023A360E022D2008B
:100530006280032262702373102323712D4F381CB5
:100540002D49221C2D4B98473B685A7E52B2002AF7
:10055000FBDB802109042A4A1160197802220A4330
:100560001A70244B1A68537E5BB2002BFBDB214CC4
:10057000201C24490022244B9847E27E0123134388
:10058000E37601A900224A70CA708A7001220A70BB
:1005900003201E4B9847032D13D002D8022D16D0EE
:1005A0001BE0042D07D0052D17D101A901230B70E5
:1005B0000420164B984701A901230B700620134B0A
:1005C000984701A901230B700520104B984701A9FA
:1005D00001230B7004200D4B98470D4B1D700D4BE4
:1005E0001E6004480C4901220C4B98470FB0F0BD27
:1005F0002D3600003C2E00200040004275360000E1
:1006000000E100E061040000693B0000ED560000DD
:1006100000000020AC2E0020FC0200207D3B0000EA
:10062000F0B583B06F46F87107370B4C0B4E201CAA
:10063000311C01220A4DA8478022D203094B5A617E
:10064000201C391C0122084B9847201C311C002219
:10065000A84703B0F0BDC046B02E0020EC2E00200D
:10066000254400000044004111450000F0B591B060
:10067000644B98470020644B98476449644B984703
:1006800083001818400080221204624B5A6100282F
:1006900000D1A3E0604B586000229A60191C8022B0
:1006A00052020B681342FCD09DE00B681342FCD051
:1006B0005A4C1823237000236370A37002A90122EF
:1006C0004A708B700A701820554B98472378D909C7
:1006D0000022002903D15A09D2014E4952181F277E
:1006E0003B400124211C9940916102AA147000230F
:1006F0005360936080214902D160137453749474E1
:10070000D47413752421535409930A933F4B936176
:10071000444B9362444BD362444B1363444B536347
:10072000444E301C4449454B98473568281C444B7F
:1007300098470740BC40434B1C603268D369002B8C
:10074000FCD12A68022313432B6001AC01236370A0
:100750000022A27023701620211C314DA8471720BB
:10076000211CA847802212042A4B9A61D520364CBE
:10077000A0478020A047A820A0473F20A047D32023
:10078000A0470020A0474020A0478D20A04714206C
:10079000A0472020A0470020A047A120A047C820B4
:1007A000A047DA20A0471220A0478120A047FF20C1
:1007B000A047A420A047A620A047DB20A0474020B8
:1007C000A047D920A047F120A0472048002180223F
:1007D000D2001F4B9847AF20A04710E080221204A0
:1007E0000C4B9A6164E7802212040A4B9A610A4B0F
:1007F000586000229A60191C8022520255E711B0FD
:10080000F0BDC046C5350000F954000040420F005D
:1008100099AB00000044004110E000E0EC2E002005
:10082000753E0000020010000200110002001200DC
:1008300002001300B02E0020000C00420D42000008
:100840006949000000E100E02106000040030020AB
:10085000CB690000F0B583B06F46F87107370B4CD9
:100860000B4E201C311C01220A4DA8478022D203C6
:10087000094B9A61201C391C0122084B9847201C07
:10088000311C0022A84703B0F0BDC046B02E0020A6
:10089000EC2E0020254400000044004111450000DA
:1008A00070B50E480E4901220E4B984721200E4C80
:1008B000A0470020A0477F20A0472220A04700207B
:1008C000A0470720A047094C8023DB00E618084D0D
:1008D0002078A8470134B442FAD170BDB02E002070
:1008E000EC2E00202544000021060000B80700205F
:1008F0005508000038B50E480E4901220E4B9847A6
:1009000021200E4CA0470020A0477F20A047222096
:10091000A0470020A0470720A0478024E400084DFE
:100920000020A847013CA4B2002CF9D138BDC04634
:10093000B02E0020EC2E00202544000021060000EF
:100940005508000038B5051C081C5038C0B2064CCC
:10095000A047280910231843A0470E200540012373
:10096000281C1843A04738BD21060000F0B55F469B
:1009700056464D464446F0B485B083460191141C5A
:10098000632A00D96324E4B2201C0A21244B98472F
:10099000C9B203AB5970092C2CD800221A702FE071
:1009A000584651461F4B98474D46002403ABF35C15
:1009B0001A01D2181201D31843441B19585DB847C5
:1009C0000134272CF2D153460133DBB29A46272358
:1009D00099441223FF339945E2D15B463433DBB2AD
:1009E0009B460136009B9B4513D0019B9A460023F2
:1009F0009946D5E7601A0A210B4B984703AB18704C
:100A00005B466833DBB200930026084B9846084FDC
:100A1000EBE705B03CBC90469946A246AB46F0BD1C
:100A200021AC00004509000035AC000000DA0000F0
:100A300055080000014B18607047C046CC010020EB
:100A400010B5C9018A18064909688A185C1EE4B203
:100A500001340023C15CD1540133A342FAD110BD4B
:100A6000CC010020024B1B68C0014118CA547047DA
:100A7000CC010020024B1B68C0014018185C704775
:100A8000CC010020F0B5474680B4041C151C43B2CD
:100A9000002B22DB3F2920D8CE08F700C91B0127F5
:100AA0008F40FBB29846301C211C0D4B9847021C0E
:100AB000012D04D0002D06D0022D07D009E04346B9
:100AC0001843C2B205E0B843C2B202E04346584000
:100AD000C2B2301C211C034B984704BC9046F0BDA9
:100AE000750A0000650A0000F0B5474680B4061C90
:100AF0000D1C90461C1C0E4FB847021C012C04D044
:100B0000002C06D0022C08D00AE043461843C2B29B
:100B100006E043469843C2B202E043465840C2B2A0
:100B2000301C291C034B984704BC9046F0BDC046BE
:100B3000750A0000650A0000F0B557464E46454666
:100B4000E0B48418802C03DD80225242121AD2B203
:100B5000002A53D0CC08E500491B01258D40A8464A
:100B6000EFB2012B0BD0002B11D0022B46D1151C5C
:100B700001388246244B9946244988462FE0151CAB
:100B800001388246204B99462049884606E0151CCC
:100B9000013882461C4B99461C4F0FE051466E1897
:100BA000F6B2201C311CC8473843C2B2201C311C8D
:100BB000C047013DEDB2002DF0D11FE05346EE18C5
:100BC000F6B2201C311CC84741468843C2B2201CE3
:100BD000311CB847013DEDB2002DEFD10EE0534678
:100BE000EE18F6B2201C311CC8477840C2B2201C57
:100BF000311CC047013DEDB2002DF0D11CBC904628
:100C00009946A246F0BDC046750A0000650A00007C
:100C1000F8B54F464646C0B4061C1D1C002A3FD0FE
:100C20004B1ED318DBB2994203D12A1C1E4B9847A6
:100C300036E03E2B00D93F23CA089046DF08072242
:100C40000C1C1440FF20011CA140CCB21340D31A4D
:100C50001841C0B28146B84507D1221C0240404627
:100C6000311C2B1C114CA0471AE04046311C221CA1
:100C70002B1C0E4CA04744460134A7420AD90B490D
:100C80008846201C311CFF222B1CC0470134E4B2D3
:100C9000A742F6D8381C311C4A462B1C034CA047EF
:100CA0000CBC90469946F8BD850A0000E90A000090
:100CB000F0B557464E464546E0B4061C0D1C90461E
:100CC0009A4608AB1C78231C0E4FB8475146013991
:100CD0006918C9B2301C4246231CB847301C291C75
:100CE0005246231C084FB847404601383618F0B228
:100CF000291C5246231CB8471CBC90469946A24664
:100D0000F0BDC046390B0000110C0000F8B54F468D
:100D10004646C0B4051C161C08AA1778002B0FD035
:100D20001C1C01398946084B98464B46E118C9B24C
:100D3000281C321C3B1CC047013CE4B2002CF4D1FF
:100D40000CBC90469946F8BD390B0000F0B55F46E3
:100D500056464D464446F0B487B081468A46141C38
:100D60009B4610AB1B789846002A03D15A464F4B3E
:100D7000984793E0D703BF1A7F000337BFB200261E
:100D8000012342461A400092022342461A40019231
:100D9000042342461A400292082342461A40039214
:100DA000102342461A400492202342461A400592DC
:100DB000F5B2009B002B08D04A46A018C0B253469B
:100DC000591BC9B25A46394B9847019A002A08D094
:100DD0004B465819C0B25246111BC9B25A46334B42
:100DE0009847029B002B08D04A46501BC0B253467E
:100DF000191BC9B25A462D4B9847039A002A08D0AE
:100E00004B46181BC0B25246511BC9B25A46274B1B
:100E10009847049B002B08D04A46101BC0B253468B
:100E20005919C9B25A46214B9847059A002A08D049
:100E30004B46581BC0B25246A118C9B25A461B4B6A
:100E4000984743465B0608D54A465019C0B25346F8
:100E5000E118C9B25A46154B9847424653B2002B87
:100E600008DA4B46E018C0B252465119C9B25A4688
:100E70000E4B98473BB2002B04DA0637AB00FF1845
:100E8000BFB206E00A372B1B9B00FF18BFB2013C24
:100E9000E4B201360135EDB2A54289D907B03CBCB8
:100EA00090469946A246AB46F0BDC046850A000072
:100EB000F8B55F4656464D464446F0B4051C0F1C37
:100EC0004378DB089A46D20893468378002B08D0F3
:100ED000012B34D15046002831D000261B498946C9
:100EE00015E000245246002A1AD128E0E119C9B2BF
:100EF000734368680219D25C4046C8470134E4B2C3
:100F00002B78A342F2D80136F3B2534517D22B788F
:100F1000002BF8D0002459468A19D2B29046E5E752
:100F20000B4E2B78181C60436A6810185A4611192A
:100F3000C9B23A1CB0470134E3B29A45F1D83CBC7F
:100F400090469946A246AB46F8BDC046650A0000E9
:100F5000410A0000F0B54F464646C0B483B0061CB7
:100F60000C1C407C03212A4B9847C7B2B37CBB4280
:100F700001D1002C0AD000230093002010218022F0
:100F80003023244CA0470122234B1A70B77400234E
:100F9000009300201021062230231E4CA047707CB5
:100FA00003211E4B9847CAB201321201D2B21C482B
:100FB00000211C4B9847184B1B78002B22D07C003B
:100FC0003C19E4B201377B00DF19BC4217DA337AEF
:100FD000A34214D91025144A9146144B9846A300F5
:100FE0007268985807212A1C4B46C0470134E4B266
:100FF000BC4204DA1035EDB2337AA342EFD80022B6
:10100000054B1A7003B00CBC90469946F0BDC04623
:1010100099AB00000D0D0000D001002021AC0000B4
:1010200004000020B10E00000C000020ED110000B3
:1010300030B583B0041C00230093002000218022DF
:101040004023074DA847206800210022054B064D8C
:10105000A847201C0121054B984703B030BDC0466E
:101060000D0D00000C000020ED110000550F0000D8
:1010700008B50D2925D003D8FE20082924D022E068
:10108000262910D028291ED1437C027A013A9342A6
:1010900002D10023437401E00133437400210B4B60
:1010A0009847FF2010E0437C002B02D0013B4374A3
:1010B00002E0037A013B43740021044B9847FF2070
:1010C00002E0407C00E0FF2008BDC046550F000054
:1010D00008B50248024B984708BDC046B807002033
:1010E000350A0000F0B55F4656464D464446F0B41A
:1010F00085B0061C8846141C03931A7A5B7A00217B
:1011000000914046211C234DA84703990B78002BE2
:1011100039D10A7AD308510700D00133039A527AA1
:10112000934603998A7AB61A5A4656435E43B6B234
:101130004B689E19A24607218946039A177A002F09
:1011400017D000240025E3B241465818C0B24A46E1
:101150001A4201D1357801366BB2002B03DA5146C1
:1011600001220D4B98476D00EDB20134E3B29F426E
:10117000E9D853460133DBB29A465B46013BDBB20A
:101180009B46002BD9D105B03CBC90469946A2465F
:10119000AB46F0BD0D0D0000850A0000F8B54F46C6
:1011A0004646C0B4041C884691461F1C0E1C20787D
:1011B0000A2806D17B7A01334B44DBB29946464676
:1011C00009E00D2807D0311C4A463B1C064DA847B4
:1011D0003B7AF618F6B2013420780028E7D10CBC2F
:1011E00090469946F8BDC046E5100000F8B54F4658
:1011F0004646C0B4041C884691461F1C007800284F
:1012000017D00D1C0A2806D17B7A01334B44DBB280
:101210009946454609E00D2807D0291C4A463B1C43
:10122000064EB0473B7AED18EDB201342078002825
:10123000E8D10CBC90469946F8BDC046E5100000C8
:10124000054B197802220A431A701A1C53785BB2B4
:10125000002BFBDB7047C0460018004000B583B090
:10126000124B996940220A439A6101A900230B702D
:1012700005200F4B984705200E4B98470E4B1978C9
:1012800001220A431A701A1C53785BB2002BFBDB55
:101290000A4B191C4031002204C38B42FCD110229E
:1012A000074B1A60074B984703B000BD000400408D
:1012B000115600008555000000180040F02E002057
:1012C00000E100E041120000F0B583B0051C0C1CE9
:1012D00001A900234B70CB7063680B70237A8B706D
:1012E0002078154B984700231F2D00D8134B07215A
:1012F00029408900E07AA27A002A01D0082210430E
:10130000EA0892009A18966988400F278F40BE43DA
:10131000311C01439161627A002A06D05A69012189
:10132000A9400D1C15435D6104E05A690121A940E3
:101330008A435A6103B0F0BDED560000001800402A
:101340001723002A0FD18B00084A9A58002A04D18B
:10135000191C064BC850002305E01D23121A501E0D
:10136000824152421340181C7047C046F02E0020A4
:101370001723002907D100231F2800D8034B01227F
:101380008240DA600023181C7047C04600180040F5
:1013900070B50022164B1A7000231F26154D144CF1
:1013A0001F2B10D919E0144900E000210A619B00AD
:1013B0005B59002B00D0984723780133DBB22370B0
:1013C0000F2B14D8ECE7321C1A40012191400A1C63
:1013D000094909691142E6D1EEE7321C1A400121A0
:1013E00091400A1C002109691142DED1E4E770BD79
:1013F000302F0020F02E00200018004000B585B0EE
:1014000001A901230B724B7200238B720223CB7252
:1014100007230193E023DB024B600720064B98472C
:10142000064807210022064B984707200021054B5C
:10143000984705B000BDC046C9120000591500000C
:10144000411300007113000010B50D4B9B88C11AA9
:1014500089B20C480C4B98470C4B9847074B064AEF
:101460000B4CA0470B4B984783B2181CFF2B00D99D
:10147000FF20C0B210BDC046000000000000E03FE9
:10148000B80C002060EA000035AC000021D7000055
:1014900019BC000061AE000038B51748174B9847DB
:1014A00084B2174B9988611A5A888BB29A421CD21F
:1014B000134B1D78002D05D1201C124B9847104B63
:1014C000187010E0201C0F4B98472D18E80F451995
:1014D00068100D4B9847074B054A0C4DA8470C4B1D
:1014E0009847074B1870064B9C8038BDC046C046D5
:1014F000000000000000E03F902E0020F5590000A1
:10150000B80C00204914000021D7000019BC0000CD
:1015100061AE0000C046C04610B5094C00232370E0
:101520000848094B9847A08096235B006380074BCF
:101530009847FA204000064B9847064B984710BD45
:10154000B80C0020902E0020F5590000FD1300007B
:10155000013600009914000008B5014B984708BDFA
:10156000991400000000000030B583B0002823D19A
:101570001F4B984701250095002000218022402321
:101580001C4CA0470095012001217E223E23A0474C
:10159000194B9847194B1878194B5870194B9847A5
:1015A000124B114A184CA047184B9847C2B20F2053
:1015B0000121174B984714E0104B1878104B5B78BB
:1015C00083420ED00E4B58700E4B9847074B064A7D
:1015D0000D4CA0470D4B9847C2B20F2001210C4B78
:1015E000984703B030BDC046000000000000E03F57
:1015F00049310000B10C0000A1080000B80C002027
:10160000342E002021D7000019BC000061AE00007C
:101610006D090000C046C04610B582B000281BD13D
:101620001B4B9847FF2300937020082106220123BB
:10163000184CA047184B9847184BD86A184B984736
:10164000124B114A174CA047174B9847C2B20F20B4
:101650000121164B984714E0104BD86A104B98475D
:101660000A4B094A0F4CA0470F4B9847C2B2104B88
:101670005B79934205D00E4B5A710F2001210B4B21
:10168000984702B010BDC046000000000000E03FD7
:10169000493100004D0D0000A10800005007002056
:1016A00005D8000019BC000061AE00006D09000003
:1016B000342E0020C046C04608B501280ED00028B0
:1016C00004D002280ED0032804D00EE0081C074BDB
:1016D00098470AE0081C064B984706E0081C054B93
:1016E000984702E0081C044B984708BDB917000052
:1016F00061170000691500001916000010B5041CE0
:10170000054B1978054A11701870054B9847201C35
:101710000021044B984710BD3D030020B80B00206A
:10172000F5080000B916000010B50A4A10780A4AF8
:101730009047002809D0074B1B78032B05D0022BBC
:1017400002D00133DCB200E00024201C034B984798
:1017500010BDC0463D03002081230000FD1600009F
:1017600038B50C4B1B7B412B02D100200A4B98470C
:101770000A4B98470A4D0B480A2112222B1C0A4C8F
:10178000A0470A481E2120222B1CA047084B98473F
:1017900038BDC046F80B0020FD160000493100009E
:1017A0000C00002088F100009D11000094F1000061
:1017B000A10800000000000010B5214B1B7B412B4D
:1017C00003D003201F4B984735E0002814D11C4B51
:1017D000D8691D4B9847C0B21C4B18701C4B9847DA
:1017E000164B154A1B4CA0471B4B9847C2B20F2003
:1017F00001211A4B98471EE0114BDC69134B1878F6
:10180000174B9847011C201C164B9847002812D1F3
:10181000201C0D4B9847C0B20C4B18700C4B9847CE
:10182000064B054A0B4CA0470B4B9847C2B20F2002
:1018300001210A4B984710BD000000000000E03F66
:10184000F80B0020FD1600002DAE0000342E002005
:1018500021D7000019BC000061AE00006D09000036
:10186000C1BA00008DAD000008B5034B1878012106
:10187000024B984708BDC0463D030020B916000042
:1018800010B5CA88C388D21A92060C7964044B79C1
:101890009B0523438C782403234313430279002AB6
:1018A00005D1CA78002A02D0802252021343487818
:1018B00080010A781043184310BDC04610B58C0E45
:1018C000C388E318D3808B011B0F53718B02DB0E8F
:1018D00013710379002B03D0CB03DB0E937005E06B
:1018E0000B041B0F9370CB03DB0FD3700B059B0E08
:1018F00053703F231940117010BDC04610B50268E7
:10190000082480230B49CC5001688B7A5BB2002BF2
:10191000FBDB138802218B43138000230374437481
:1019200001688B7A5BB2002BFBDB118801230B4330
:10193000138010BD00E100E010B50468034B984728
:10194000A37A5BB2002BFBDB206110BD8118000085
:1019500010B50A1C03684179002906D10549598050
:101960000468A17A49B20029FBDB1969024B984748
:1019700010BDC0460080FFFFBD18000070B50E1CF2
:10198000141C05681723012A0DD8084B9847AB7A19
:101990005BB2002BFBDBE4002D19A861327A002337
:1019A000062A00D82A77181C70BDC046811800008E
:1019B00030B583B0041C151C01601C4B99692022B2
:1019C0000A439A6101A902230B700420184B98471F
:1019D0000420184B9847201C174B98472B792371EC
:1019E000EB786371EB88E380144B1C6023682A88D2
:1019F0002979002902D008210A4301E048210A433D
:101A0000A978002901D080210A431A80EA78002AA7
:101A100004D059888022D2010A435A80291C0831F7
:101A2000201C0022064B984703B030BD0004004044
:101A30001156000085550000FD180000342F0020CD
:101A40007D190000012A01D917200AE0931C9B0090
:101A50001950037C012191400A1C1A43D2B202742E
:101A60000020704710B50368012902D18022DA7185
:101A700004E001228A4001242240DA71437C0122E1
:101A80008A40111C1943C9B2417410BD10B50E4BE8
:101A90001B681C685A7C197C081C1040227AE1796A
:101AA0000A40D10906D0810701D5DB689847802319
:101AB000237207E0D10705D5C20701D59B68984777
:101AC0000123237210BDC046342F002030B583B0EF
:101AD000021C68460A490B4B98470B4B98470B4D25
:101AE0000B4812210B222B1C0A4CA04768462521CB
:101AF00020222B1CA047084B984703B030BDC0469E
:101B00009CF10000316B0000493100000C00002006
:101B1000A4F100009D110000A108000008B55820A4
:101B2000014B984708BDC046CD1A000008B55920A2
:101B3000014B984708BDC046CD1A000008B55A2091
:101B4000014B984708BDC046CD1A000038B5084B78
:101B50009847084D0848172112222B1C074CA04714
:101B600007482C2120222B1CA047064B984738BD44
:101B7000493100000C000020B0F100009D11000070
:101B8000BCF10000A108000008B50020014B9847F7
:101B900008BDC046FD16000082B000226B46DA7117
:101BA00002B0704730B583B03A483B4B98470028A5
:101BB00019D03A4B18783A4B9847002806D0374B43
:101BC0001B78032B0FD0374B98470CE0334B1B7817
:101BD000043B9800C3189B003348C0182821334B9E
:101BE0009847334B984733482B4B984700284FD0A2
:101BF0002A4B18782A4B9847002805D02E4B984737
:101C000004202E4B984743E0274C244D2B78043B6F
:101C10009800C018800020180D21244B98476A4670
:101C2000D07107322B78043B1278D2B29900C918D0
:101C300089006418E168885C0B2827D11A4A99004A
:101C4000C81880001018002484744474CB189B00BA
:101C5000D218107C124B984700280BD00F4B1B78E2
:101C6000043B9A00D3189B000F4AD318187C144BDE
:101C700098470DE0094B1B78043B9A00D3189B0052
:101C8000094AD318187C0D4B984701E00B4B984735
:101C900003B030BDAC2D0020A91D00003D03002085
:101CA0008123000029170000880000207110000027
:101CB000A108000000030020F508000049230000EF
:101CC000FD16000038B513480E21134CA0471348E9
:101CD0000F21A047124BFF221A705A71114B9847DF
:101CE000114B9847114B9847114B9847114B984708
:101CF000114D1248012112222B1C114CA0471148F2
:101D0000252120222B1CA0470F4B984700220F4B68
:101D10001A7038BD00030020791D0000AC2D002092
:101D2000342E0020D11000006D0600009934000010
:101D300019150000493100000C000020C4F100001A
:101D40009D110000D4F10000A10800003D03002017
:101D500008B5014B984708BD6918000010B5034845
:101D6000034CA0470348A04710BDC0460003002015
:101D7000D91D0000AC2D002030B583B0051C01AB8F
:101D800080221A7000245C7001229A70DC708170CD
:101D9000081C191C034B98472C706C70AC72AC80FB
:101DA00003B030BDED560000031C0078C0B200281F
:101DB00006D05A78002A02D101225A7000E0002091
:101DC0007047C04638B5051C024C281CA0470028A7
:101DD000FBD038BDA91D00008378D9090022002955
:101DE00003D15A09D20112495218126A1F210B401D
:101DF000012199400B1C13405A1E9341827A9A424A
:101E00000DD1838801339BB28380222B0ED90378B6
:101E1000002B0BD1012303700023437006E04378AD
:101E2000002B01D000230370002383807047C0463D
:101E300000440041F8B5061C0C1C171C1D1C06AB09
:101E40001B78012B07D00888431C0B8030180F49E2
:101E500002220F4B9847208830180E493A1C0E4B2F
:101E60009847381C0D4B984723880333181880B2C5
:101E70002080002D09D03018291C094B9847281CB8
:101E8000064B98472388C0182080F8BD98F20000C0
:101E9000B96900009CF20000316B0000B16B0000DA
:101EA000A16B00002C22FF32074BC2520023074ACD
:101EB0008352074A8352074A83520122064BC25477
:101EC0008423C3607047C046E0200000E420000087
:101ED000E6200000E2200000E820000084B0F0B519
:101EE00005900691079208930C990E4D4C5BE0000B
:101EF000001B800008181030031C05AAC1CAC1C30A
:101F0000C1CAC1C312681A600134A4B24C53064B53
:101F1000CB5AA34201D100224A53F0BC08BC04B002
:101F20001847C046E2200000E0200000F0B50D4A4E
:101F300094468C5AE200121B92008A181032031C3D
:101F4000E0CAE0C3E0CAE0C312681A600134A4B278
:101F500062468C52044BCB5AA34202D10022634604
:101F6000CA52F0BDE4200000E0200000F0B55F465A
:101F700056464D464446F0B4944CA544944B954A7D
:101F80009A5A95495B5A92B29A4200D115E10027BC
:101F9000924B1F708E4D924BEF541CAC201C0021B5
:101FA000904A914B9847012290466B469A827B2338
:101FB0002380EA6806A88D498D4B984742460092D7
:101FC000201C05A98B4A06AB8B4EB0470097201CFE
:101FD00005A98A4A0023B0476A46908A431C938227
:101FE000201887490222874B98477A4BEA5A7A4B46
:101FF000EB5A92B29A4200D0D6E0A0E015A87449FC
:10200000814B9847039E002E09D06A46908A431C54
:1020100093821CAA10187D4902227A4B984705AF7B
:102020003888431C3B801CAB181879490222754E36
:10203000B04715AE06A85146159A6D4DA847012325
:1020400000931CA805A9734A06AB6B4CA047724AC3
:102050009346724B994670689847021C0B1C06A861
:102060005946A8470022904600921CA805A96C4A30
:1020700006ABA047B068C847021C0B1C06A859460F
:10208000A847424600921CA805A9664A06ABA0478D
:10209000654B9B46F068C847021C0B1C06A85946B6
:1020A000A847424600921CA805A9604A06ABA04773
:1020B000327C06A85146A847434600931CA805A9B0
:1020C0005B4A06ABA047727C06A85146A847424629
:1020D00000921CA805A9574A06ABA0477069C847DB
:1020E000021C0B1C06A85946A847434600931CA88F
:1020F00005A9514A06ABA047328B06A85146A8470E
:10210000464600961CA805A94C4A06ABA04738884D
:10211000431C3B801CAA101849490222394EB04783
:10212000039B0133DBB20393282B08D0284B294AA9
:102130009A5A29495B5A92B29A4200D05EE76A469F
:10214000948A1CAB18193F4902222E4DA847A31CA4
:102150006E46B382601C80B21CAA10183849022255
:10216000A8471CA8384CA04780B2F0821CA8A04702
:10217000021C0EA835491E4B98470AAB00221A7262
:102180000EA833490C9A0D9B324CA047C820324B05
:1021900098471CA8314B9847314B324A5A6001226C
:1021A0001A72314ADA6008E015A80949164B9847B7
:1021B000002603960D4A924631E72C4B9D443CBCC9
:1021C00090469946A246AB46F0BDC04694F2FFFF4A
:1021D000C00C0020E2200000E42000009407002052
:1021E000E8200000F80C0000CB690000A4F2000019
:1021F000316B0000A8F20000351E0000B0F20000B4
:10220000B8F20000B96900002D1F000098F200002C
:10221000BCF20000C0F20000C4F2000005D80000CB
:10222000CCF20000D0F20000D4F20000DCF200009A
:10223000E0F20000E4F20000E8F20000ECF200003E
:10224000F0F20000F4F20000B16B0000F8F20000C0
:1022500010F300006D2A000001360000DD69000067
:10226000A80700201CF300008D2300006C0D000067
:1022700070B58CB005AB0F4A90681169069154692E
:102280000794D26908920C4A51795974FE21890544
:102290000A915021198352781A74084A039209AAA4
:1022A000694670CA70C10699079A089B044CA047FA
:1022B0000CB070BDF80B0020342E0020C00C0020A4
:1022C000DD1E000000000000F0B583B000AF041C6C
:1022D0002E21174B9847061BF31DDB08DB006A46CF
:1022E000D21A9546811E381C0722124DA847B21EED
:1022F0006846211CA84768460F4EB047041C0D1CB9
:10230000381CB047094B084A0C4EB047021C0B1C46
:10231000201C291C0A4CA0470A4B9847BD4603B015
:10232000F0BDC046C046C0460000000000004E4060
:10233000756B0000BF6B0000496900005DC20000C2
:1023400019BC0000A9D8000008B5084B1978084A44
:10235000117018700438830018188000054BC018DD
:10236000054B9847054B984708BDC0463D030020E4
:10237000B80B00208800002031100000A1080000E8
:102380000023032282425B41D8B2704710B584B06B
:102390006B46D87107331B78012B11D1094B186894
:1023A00059689A68DB68084CA047FA204000074B40
:1023B00098476B46D873064B01221A72054A5A6039
:1023C00004B010BDA80C00206D2A0000512B0000A5
:1023D000A807002050F3000010B584B00C1C6B4619
:1023E000D87107331B78002B34D01B4B58681B491E
:1023F0001B4B9847002803D11A4A174B5A6029E013
:10240000194B0121194A9954194A9A5A19495B5A88
:1024100092B29A4202D10122174B1A70201C174B1C
:102420009847C0B26B46D8730023A374201C0F30AA
:10243000134B984780B2C82806D10B4B0C4A995AC7
:1024400089B2104A995205E0074B0E4A995A89B24F
:10245000074A995204B010BDA80700201CF30000E1
:102460008D6B000050F30000C00C0020E82000003D
:10247000E4200000E220000094070020B16B00007F
:1024800053690000E620000082B06B46D871024A12
:10249000024B5A6002B0704750F30000A8070020BA
:1024A000F0B587B00E1C6B46D871D9790733C9B225
:1024B0006A46D1751B78DBB2D375301C2C21444B96
:1024C0009847002872D00027424C6AE019781170B2
:1024D000013301328342F9D1811B061C00E0002147
:1024E000002202AB5A540B2F52D8BB00E3589F4630
:1024F00002A8394B9847394B986049E002AB1A78EB
:10250000364B1A7344E0354B1B7B562B05D002A883
:10251000334B9847314B18613AE000222F4B1A6138
:1025200036E002AB1A782D4B1A7631E02B4B1B7B31
:10253000562B05D002A82A4B9847284B586127E014
:102540000022264B5A6123E002AB1A78234B5A76BD
:102550001EE002A8234B98471C4B1B4A224DA8475C
:10256000224B98471D4BD86112E002A81D4B98479B
:102570001E4B9847194B18620AE002A8164B984761
:10258000164B586204E002AB1A7828231349CA5448
:1025900001360137FFB2301C2C210D4B9847002823
:1025A00004D086429BD202AA331C8FE70B4B1B7BC5
:1025B000412B06D10E480F4B98470F4B1A7801322A
:1025C0001A7007B0F0BDC0466F1283C0CAA1FD3FAC
:1025D000756B000020F3000053690000F80B002029
:1025E000C92200004969000031CB0000A9D80000D1
:1025F000C00C002071220000FE020020C046C04630
:1026000010B584B0041C0B1C01910078C018C0B236
:102610003B2801D8207006E03C21104B98472170E0
:1026200063780133637001AB58786378C018C0B227
:102630003B2801D8607006E03C21084B9847617048
:10264000A3780133A37001AB9878A378C018C0B207
:102650000C21024B9847A17004B010BD21AC0000C2
:10266000F0B583B00E4E6D46301C69460D4B984751
:102670000D4C231C06CD06C3072323720B4D201CD3
:1026800029686A68AB680A4FB847301C211C0022D1
:10269000084B98476B68002B00D0984703B0F0BDFB
:1026A000442F002051190000D4010020382F0020B1
:1026B000012600007D190000F0B583B01F4869466F
:1026C0001F4B98471F4B1B7A002B34D01E4C251CE8
:1026D0000E3D1E4F694688780C21B8476A469170B6
:1026E000261C20780C21B847217069460B783A2BBC
:1026F00002D10120164A9047B31E69460A781B781A
:102700009A4208D18A7833789A4204D1013E4A78B5
:1027100033789A4205D0143514342B7A002BD9D152
:1027200009E0281C0C3029686A68AB68094EB0477C
:1027300069688847EFE703B0F0BDC046442F00202A
:1027400051190000582F0020662F002021AC0000F6
:10275000013600000126000010B588B003AAA023AE
:102760001B01138000239370D3701371FA21C900E9
:10277000D18005A80370684643756846837568462E
:10278000C375012306A80370684643766B465983D8
:1027900006231374114C201C1149124B98472168D1
:1027A0000822114B1A602268937A5BB2002BFBDB84
:1027B0000A88022313430B8001A900230B704B707E
:1027C0008B70CB7001230B71084BCB800A234B71AC
:1027D0000248074B984708B010BDC046442F002060
:1027E00000140040B119000000E100E0DF07000024
:1027F00039190000F0B54F464646C0B487B0051CF5
:102800000E1C002A3BD1002939D01F4C1F4880469E
:10281000281CE1210901C047A0701D4F281CE1219F
:102820000901B84788B23C21C0476070281C3C2190
:10283000B84721700121894621721648804604AFAD
:10284000391C154B984701AD2B1C3A1C03CA03C316
:1028500049462972381C21686268A3680F4FB8473F
:102860004046291C00220E4B9847666040460D49A1
:1028700000220D4B9847404600210C4B984707B06B
:102880000CBC90469946F0BD382F002099AB000053
:1028900021AC0000442F0020511900000126000047
:1028A0007D19000061260000451A0000651A00002D
:1028B00010B5044C2278044B9847237801332370D9
:1028C00010BDC046D1010020F527000008B5074B18
:1028D0009847074B00221A721A7730215A54442124
:1028E0005A5400200349044B984708BD592700005B
:1028F000582F0020B9260000B1280000F0B55F462F
:1029000056464D464446F0B485B080460191244E6B
:102910003578244CAF007B199B009A4622498B46A0
:10292000E1210901D847A244524690701F4B9946B5
:102930004046E1210901984788B23C21D8475146D9
:1029400048707B199B009A4640463C21C847524636
:102950001155A51801232B7202AB9A461448191C75
:10296000144B98473778BD00EB199B005046195916
:102970001B1998465A689B680F4DA84743460C336D
:10298000554606CD06C34446019D65600137377044
:1029900005B03CBC90469946A246AB46F0BDC04649
:1029A000E0010020582F002099AB000021AC00006E
:1029B000442F002051190000012600007047C04636
:1029C00008B5154B1B780A2B0FD18023134AD35C13
:1029D000DBB2012B19D9131C80229A5CD2B20021E0
:1029E00099540121812299540FE00B4B1B780D2B38
:1029F0000BD00A4B8022995CC9B207480078C0B25C
:102A00005854995C0131C9B29954054802490122D0
:102A1000044B984708BDC0463C030020240C00200E
:102A20005C2E00204D4E000070B582B0051C0E1CBF
:102A300000226B46DA80064C281C69460631A04706
:102A40000028F9D16B4606331B88337002B070BD85
:102A50006D4D000070B5061C0D1C034C301C291C6C
:102A6000A0470028FAD170BD414D000070B584B078
:102A70006C46009001910292054A111C61CC61C123
:102A80000B6004480099044B984704B070BDC046E1
:102A9000A80700205CF30000DD69000070B582B07B
:102AA00000226B46DA71254E8023F35CDBB26C4664
:102AB000A371234B5D68281C224B9847C0B26B461C
:102AC000607162790533D2B2B15CC9B201AA1170EA
:102AD000A2791B78D2B29A4205D96B4605331B788E
:102AE000DBB20021F1541548291C174B98470028E8
:102AF00002D101226B46DA716B4605331B78DBB2DB
:102B000001AA1178C9B20D4AD1540D4B1B7A002B82
:102B100006D06B46D879C0B2094BDB68111C9847C8
:102B20000648002381228354802283540021074BCE
:102B300098476B46D879C0B202B070BD240C002013
:102B4000A8070020B16B00008D6B0000CB6900006E
:102B5000F0B583B0051C6B460022DA8006331B8873
:102B60009BB298421CD981230F4AD35C012B07D119
:102B700003E08123FB5C012B06D10C4B984710E04E
:102B80000B4E6C460634084F0120B04723880133B2
:102B90009BB2238023889BB2AB42EAD3002000E0A3
:102BA000002003B0F0BDC046240C00209D2A000088
:102BB0000136000070B50E4D802636056E610D4859
:102BC0000D4CA047AE616420A0476E61FA20000161
:102BD000A047AE61094B186859689A68DB68084DD0
:102BE000A847FA204000074B9847C820A04770BD6F
:102BF00000440041B80B00000136000084070020AB
:102C00006D2A0000512B0000F0B55F4656464D4638
:102C10004446F0B487B000226B46DA7501AB4849F0
:102C200002911A724748484B984700239A466C46CF
:102C3000173401239B46454E5B4623704448029956
:102C4000039A049BB047FA235B009946181C414D38
:102C5000A847C8235B009846181C3F4FB8473F4819
:102C60000299039A049BB0474846A8474046B84794
:102C70003B480299039A049BB047FA27FF00381C8F
:102C8000A84738480299039A049BB047381CA847C4
:102C9000002801D10023237033480299039A049B32
:102CA0002A4DA847FA20C0002A4B9847002801D196
:102CB000002323702D480299039A049B234DA847B3
:102CC000FA20C000234B9847002801D1002323702D
:102CD00027480299039A049B1C4DA847FA20C0007C
:102CE0001C4B9847002801D10023237021480190F4
:102CF0000299039A049B154DA847FA20C000154B72
:102D00009847002801D1002323702378002B0CD191
:102D10005346022B03D9184B984700239A46534633
:102D20000133DBB29A46154B98472378002B83D0AA
:102D300007B03CBC90469946A246AB46F0BDC046A3
:102D40001CF30000C00C0020A51E00006D2A00002E
:102D500064F30000512B00000136000084F30000F2
:102D6000ACF30000B8F30000CCF30000E4F3000083
:102D700010F4000058F40000991B0000B52B00006F
:102D8000F0B587B001226B46DA7501AC13490291A8
:102D9000002323721248039A049B124FB847124E25
:102DA000301C124DA847FA20C000114B984711481B
:102DB00001906168A268E368B847301CA847002802
:102DC00002D100226B46DA75FA204000084B984782
:102DD0006B46D87DC0B207B0F0BDC0461CF3000002
:102DE00074F400006D2A000010270000512B000031
:102DF0000136000084F4000070B590B08023DB053C
:102E0000009300230193FF2268460281002283720F
:102E1000C372012124206C462154252021542621EF
:102E20006354272163540A938821490303912C2179
:102E300063542D21635405932382E376227622770F
:102E400062761323A3766277204B0C93204B0D936D
:102E500001235B420E930F93E1235B0208931D4E07
:102E60001D4D1E4C301C291C6A46A0470028F9D174
:102E7000184C1B4B1C601B4A1B4B1A601B4A1C4BFB
:102E80001A60201C14496A46144B9847194E33683F
:102E900098680021184DA847336858680021A84752
:102EA0002568281C154B98471F2318400123834091
:102EB000181C134B18602268D369002BFCD12A68B8
:102EC000022313432B6010B070BDC04602000A00FD
:102ED000020009005C2E002000080042494A000060
:102EE000EC2F0020552A0000E82F0020292A00009E
:102EF000E42F00206C010020116A000069490000E5
:102F000000E100E010B5064C201C06490022064BEB
:102F100098473123E15C03220A43E25410BDC046C6
:102F20005C2E0020BD290000354E000010B51C4964
:102F30001C4B0B601C4B4B6000220A721B491C4847
:102F400008604B600A721B491B4808604B600A729C
:102F50001A491B4808604B600A721A491A480860EF
:102F600001200872194C4C60194CCC6019491A4C5C
:102F70000C600A72194C4C6019491A4C0C600872AA
:102F80004B601948C8601949194808600A724B60BB
:102F90001848C8601849194808600A724B6010BD8B
:102FA0009807002094F400001CF300000C0300209C
:102FB0009CF4000084070020A4F40000E80B00202B
:102FC000B4F400002C030020C4F40000D4F400008A
:102FD000A12400001C030020E0F40000F0F4000035
:102FE00040070020FCF4000089240000A80C002009
:102FF0000CF50000D9230000BC0B00201CF50000DC
:1030000070B5394B98470124384B1C7038494C70C7
:1030100000238B700C701B20364B984780221205C2
:10302000354B9A61354B9847354B9847354B984708
:10303000354B1C70BFF35F8F62B6344C201C344993
:103040000122344B9847201C33490122334B9847C7
:10305000334B186859689A68DB68324CA047FA20ED
:103060004000314B984700280AD1C82040002F4E1D
:10307000B047214C80252D0565612D48B047A561DD
:10308000224C3125635D022293436355294B186816
:1030900059689A68DB68234EB047C8204000234B2C
:1030A0009847254B186859689A68DB68B047625D95
:1030B000022313436355201C17490122174B9847DD
:1030C000FA256D00281C184CA0471C4B186859683D
:1030D0009A68DB68B047281CA047194D194CA847CF
:1030E000A0470028FBD070BD4D1B000094070020B6
:1030F000F42D0020753E000000440041F92D000031
:10310000052F00002D2F0000080100205C2E00205C
:10311000C1290000354E00003C0300204D4E000048
:10312000BC0B00206D2A0000512B0000013600006E
:1031300010270000980700200C03002084070020BF
:10314000092C0000812D000010B582B000230093EF
:103150000020002180224023014CA04702B010BD76
:103160000D0D0000134B00221A705A709A7005283A
:103170001ED88000104B1B589F46FF220D4B1A7023
:1031800016E0FF220B4B5A7012E0FF22094B9A7097
:103190000EE0084BFF221A709A7009E0054BFF22DF
:1031A0005A701A7004E0034B6F225A701A709A70AA
:1031B0007047C046AC2F002020F500000000000042
:1031C000F0B55F4656464D464446F0B483B0041C05
:1031D0000021A14B9847002802D080231B06E41849
:1031E000201C9E4B9847061C0F1C964B944A9C4DE6
:1031F000A847002835D0201C9A4B984780469A4C07
:103200009A4D9B4B9946FA2189009847994F0A217C
:10321000B847C8B2984E0A21B047C9B26B5C237058
:1032200040466421C8470A21B847C8B20A21B047BE
:10323000C9B26B5C637040460A21C8470A21B8478F
:10324000C8B20A21B047C9B26B5CA37040460A21DC
:10325000B847C8B20A21B047C9B26B5C803BE37083
:10326000DEE0301C391C784A784B7D4DA847002899
:103270003CD0201C7B4B984780467B4D7B4E7C4B43
:103280009A46642198477B4B99460A219847C8B2D1
:10329000794F0A21B847C9B2735C2B7040460A21A6
:1032A000D0470A21C847C8B20A21B847C9B2735CDF
:1032B0006B7040460A21C847C8B20A21B847C9B254
:1032C000735C803BAB7040466C4B9847011C201CE4
:1032D0006B4B98476B496C4B98476C4B9847C0B207
:1032E0000A21B847C9B2735CEB7099E0301C391CF5
:1032F000574A584B5A4DA847002847D0594B9B4630
:10330000201C98478046584D584E0A21584B9847E4
:10331000584B99460A219847C8B2574F0A21B847D7
:10332000C9B2735C2B7040460A21C847C8B20A2153
:10333000B847C9B2735C803B6B70504B9A464046AD
:103340009847011C4E4B9946201C98474E4B984677
:103350004C4998474D4B9847C0B20A21B847C9B26B
:10336000735CAB70201C4749C047041CD847D0474A
:10337000011C201CC8474349C047444B9847C0B272
:103380000A21B847C9B2735CEB7049E0354B9A46E5
:10339000201C9847051C344E344FC0B2364B98461B
:1033A0000A219847C9B27B5C803B3370334B994606
:1033B000281C9847011C201C314B9847324D31493D
:1033C000A847324B9B469847C0B20A21C047C9B2B2
:1033D0007B5C7370201C2B49A8470190D047C847DD
:1033E000011C0198264B98472649A847D847C0B2E8
:1033F0000A21C047C9B27B5CB370201C2449A8478E
:10340000041CD047C847011C201C1D4B98471D4970
:10341000A847D847C0B20A21C047C9B27B5CF37045
:103420001C4B1B78DBB20F2B02D81022194B1A70E1
:1034300003B03CBC90469946A246AB46F0BDC046A0
:1034400052B81E85EB3F8F408FC2F5285CFF584075
:10345000736891ED7CFF234099AD000005D8000012
:103460004DAD000081BA0000B02F002038F50000FB
:1034700035AC0000E1AC000021AC0000C1BA000096
:1034800095B700000000204141B500002DAE0000BE
:103490000000C842BC2F002010B58EB001AA002346
:1034A0009370002193809171138151709172D17248
:1034B0001173917351731174536193611177136296
:1034C000536213855385938502231370074C201C88
:1034D0000749084B984722687F21D37B8B43FCD157
:1034E000118802230B4313800EB010BD902E0020D4
:1034F000003000428157000010B58EB001AA0023B1
:103500000021137093710024138154709172D17251
:103510001173917351731174536193611177136235
:1035200053625385938504239370A023DB0093801B
:103530002A23D0542923D0542823D454074C201CA8
:103540000749084B984722687F21D37B8B43FCD1E6
:10355000118802230B4313800EB010BD182E0020DB
:10356000002C00428157000008B5FF20014B98470E
:1035700008BDC046F934000010B5011C0C4C201CDD
:1035800000220C4B984720680B4B98470B4B1B5C59
:103590001F21194001231A1C8A40111C084A11607E
:1035A000617E01220A4362762268537310BDC046D1
:1035B000182E0020255A00004957000044F500004D
:1035C00000E100E010B50020084B9847084CFA21B4
:1035D0008900A047074B1860FA218900A047064BD5
:1035E00018600522054B1A6010BDC046F954000052
:1035F00099AB0000040100200001002010E000E071
:1036000030B5084B1C68084A00258021490206E0B5
:10361000002C04D05460956013680B42FCD0013834
:10362000F6D230BD0401002010E000E010B5002209
:103630000023027042700021428001710376026211
:10364000C26182600373C0246401C4810374437443
:103650008374C37403752A24035543758375242426
:103660000355C2840285C1752B23C1542C23C15438
:1036700010BDC046F0B55F4656464D464446F0B4D0
:1036800099B0061C141C0160BC4B186A80225202BF
:1036900002431A620B780520DA0700D5F6E10B78B1
:1036A0001C20990700D5F1E163783371002B00D01D
:1036B000DCE1B34B196C04220A431A64D6E1237D82
:1036C000002B02D10123737701E000237377326866
:1036D00001922378684603721E2002A9A94B9847DD
:1036E0001E20A94B98472C23E35C002B42D02B22B1
:1036F000A55C217B88464A19D2B2D318DBB2994621
:103700009A4221D2A14A9346A14B9A460F272F40B5
:10371000237BFF1804A859465022D047132F0CD8FA
:10372000BF0004ABF85803A900234B70CB708B701B
:1037300001230B70C0B2974A90470135EDB2404665
:103740004319DBB24B45E1D3E58904A88F495022E8
:103750008F4B9847132D37D8AD0004ABE85803A919
:1037600000234B70CB708B7001230B70C0B2894B60
:10377000984729E0257B04A884495022844B984728
:10378000132D0CD8AD0004ABE85803A900234B70EF
:10379000CB708B7001230B70C0B27E4B9847E589CC
:1037A00004A87A4950227A4B9847132D0CD8AD00C3
:1037B00004ABE85803A900234B70CB708B70012336
:1037C0000B70C0B2734B9847637D9B00DBB20199CD
:1037D0000B70A37DDB0162781343DBB24B7023795E
:1037E000342B00D940E19B006B4AD3589F460222FC
:1037F000102501231AE0637C227C102516E00622A6
:103800001025012312E00822102500230EE00022DB
:10381000302500230AE000222025002306E00022B4
:103820000025002302E00422102502231B01702141
:103830000B401343019A9370E37D17203F2B00D96F
:1038400024E1D3703268537E5BB2002BFBDBE27C59
:10385000638813432422A25CD2001343227D92008A
:103860001343A27C520013432B4301988380237E91
:10387000002B01D1316897E0102D5FD002D8002DC8
:103880003CD0F7E7202D19D0302DF3D1E27C002A6F
:103890000AD0E26980321720FF2A00D9F6E0226AB6
:1038A0008032FF2A00D9F1E01720E169FF2900DD0D
:1038B000ECE0226AFF2A00DDE8E0DBE7E27C002A98
:1038C00011D0E0698022920081181720334A91427A
:1038D00000D9DBE0206A80229200811817202F4A4D
:1038E000914200D9D2E017202C4AE169914200DDD3
:1038F000CCE0216A914200DDC8E0BBE7E27C002A0F
:1039000011D0E2698020000111181720244A914249
:1039100000D9BBE0226A8020000111181720204A3C
:10392000914200D9B2E017201D4AE169914200DDC1
:10393000ACE0216A914200DDA8E09BE7E27C002A2E
:1039400011D0E2698020000211181720154A914217
:1039500000D99BE0226A8020000211181720114A2A
:10396000914200D992E017200E4AE169914200DDB0
:103970008CE0216A914200DD88E07BE70004004092
:103980000008004011560000855500001CF600009C
:10399000B9690000ED56000048F50000FF03000083
:1039A000FF0F0000FFFF00004A7E52B2002AFBDB3F
:1039B000019A13723268537E5BB2002BFBDBA38B40
:1039C000019883833268537E5BB2002BFBDB238C30
:1039D00001990B842C23E35C002B04D0013BDBB268
:1039E00017200F2B52D82B22A25C17200F2A4DD85C
:1039F0003168487E40B20028FBDBE089217B01432F
:103A0000A068014312050A431B04134301990B618B
:103A10002A23E35C0B750F238B752423E35C002BB7
:103A200010D0E38C17201D4A93422FD88B84238D0E
:103A300080200001191889B21720184A914225D810
:103A40000199CB84164B1A685201E023DB001A401F
:103A5000144B586841011B68DB0E0B43DBB2134368
:103A600001990B85002011E017200FE00023B360BF
:103A7000F3603361B376F376338333770A4B1E609A
:103A80002A23E35C002B00D119E61EE619B03CBCEA
:103A900090469946A246AB46F0BDC046FF0F0000D7
:103AA0002460800020608000C02F002038B52D4B9E
:103AB0001C6823681D7EEDB2E90735D5E27ED1078B
:103AC00032D5A27ED1072FD501221A762268537EE5
:103AD0005BB2002BFBDB6369991C6161528B92B274
:103AE0001A80238B013B9BB22383002B11D0637F71
:103AF000002B19D023685A7E52B2002AFBDB197BB7
:103B000002220A431A732268537E5BB2002BFBDB4E
:103B10000AE0237F052B07D10023237701232268A6
:103B20009375201CA368984769070BD50423226866
:103B30001376E37E990705D5A37E9A0702D5201C4C
:103B4000E3689847A9070BD5022322681376E37E22
:103B5000590705D5A37E5A0702D52369201C98472B
:103B600038BDC046C02F0020931C9B001950012374
:103B700093401A1C837E1A438276704710B5031C4B
:103B8000048BA4B20520002C1DD1187FC0B20528DB
:103B900019D0052018771A83596101221968CA754E
:103BA0005A7F0020002A0ED01A68517E49B200299F
:103BB000FBDB107B0221014311731A68537E5BB259
:103BC000002BFBDB002010BD10B5021C1C4BD8697C
:103BD00004210143D9611B4B188B2021FF31014384
:103BE00019831B7D0520D90728D511780902C02328
:103BF0009B0019405378DB01FF2003401943D37821
:103C00009B04194393785B001E20034019431079ED
:103C10000004C0239B02034019430A4B5960986873
:103C20004003400F0849082484400C80986848806D
:103C300052780A71188BC005C00F000110BDC04634
:103C40000004004000400041E401002030B51D4B5D
:103C50005A881B885A4318238A4231D31A4B5C680E
:103C60008022D20222435A601D8B2022FF322A4337
:103C70001A831A7D0523D50722D545281FD883002E
:103C8000124AD3589F46104B1A8B1023D50517D4D0
:103C9000890849000C4BD96103E0890849000A4BA7
:103CA000D961A5231B021843074B1880191C012258
:103CB0000B7D1342FCD0044B5C60002300E0172313
:103CC000181C30BDE4010020004000416CF60000EB
:103CD000F8B5051C1D4B1C885B8863431820AB425C
:103CE00033D3631E2B4230D1172094422DD3184B6F
:103CF0001B7D0520DC0728D51648154B18801C1C99
:103D00000120237D0342FCD0114B1C8B2020FF306F
:103D1000204318836808002A12D040000023561E52
:103D2000CC5CB34203DACF187F783F023C43048077
:103D300002339BB202309A42F2D800203F2A04D8C4
:103D40000420291C0022044B9847F8BDE401002000
:103D50000040004144A5FFFF4D3C000070B5194BE9
:103D60001C885D8865431823854229D3651E05425A
:103D700026D11723944223D3134B1C7D0523E5073B
:103D80001ED5114B1D8B2024FF342C431C8340086F
:103D9000002A12D040000023561E1C182588ADB200
:103DA0001C04240C0D55B44202DA0C192D0A65705E
:103DB00002339CB2A242F0D801E0002300E00023CD
:103DC000181C70BDE4010020004000410E4B1A8811
:103DD000598851431823814214D39200013A10426A
:103DE00010D10A4B1A7D0523D1070BD5074B198B30
:103DF0002022FF320A431A8380084000D861044A17
:103E00001A800023181C7047E40100200040004184
:103E100002A5FFFF154B198B2022FF320A431A839C
:103E20009B685A03520F0821914001704380104B48
:103E30001B885B065B0F9AB2072A02D100234360FE
:103E400004E00622D31A04229A404260084B1A88E2
:103E500007231340072B02D10023836004E00722CD
:103E6000D31A04229A4082607047C0460040004145
:103E70000040800000B583B001AB80221A700A7840
:103E80005A704A789A708A78DA70191C014B9847F0
:103E900003B000BDED56000010B5031C49084020DA
:103EA00099420CD30024C91A601C80B28B4201D8FD
:103EB000041CF8E74020FF2C01D81480002010BD1E
:103EC000F0B55F4656464D464446F0B487B0061CF2
:103ED0000D1C049210AA1078321C424340248A42DE
:103EE00000D9B3E0002B4BD10021321C5E4CA0471F
:103EF00083462E1C002700200021002200233F249F
:103F0000A4460125A846029003916146203903D4B6
:103F100040468840814605E0202165464C1B4046CE
:103F2000E040814641466446A1408A46101C191C67
:103F300080185941021C0B1C5D464C46254202D09C
:103F4000424602430B1C9F420CD801D1964209D82D
:103F5000921BBB415046029D28434946039C214386
:103F6000029003916546013DAC46CED2029803997A
:103F70003C4B3B4A121A8B41120C1B041A4362E061
:103F80000022012B5FD14F0FB946CD00AB46002177
:103F9000321C0023344CA047061C0F1C00230125B3
:103FA000029603979A465046C0B205900021884673
:103FB000002200233F24271C203F03D42E1CBE4098
:103FC000019604E02020071B291CF94001912E1CBA
:103FD000A6400096101C191C80185941021C0B1C8D
:103FE0005F463740BC46019E4F463E4067463E43D3
:103FF00002D02A1C02430B1C039898420BD802D112
:104000000299914207D8029E039F921BBB414746EB
:1040100000980743B846013CCDD2414652468B1A20
:10402000DB08124CA34208D9059A0132D2B205929C
:104030000126B2445746082FB5D1402405980828D8
:1040400004D042031A43049C22800024201C07B0A1
:104050003CBC90469946A246AB46F0BDC046C04621
:104060000000000001000000E9AD0000FF1F00009B
:1040700010B582B0041C0F4B1B78002B01D0002917
:104080000DD001A90C7013200B4B984713200B4B3C
:104090009847084B5C7001221A70002007E0054B1E
:1040A0005A781D20141B621E94416442204002B0C5
:1040B00010BDC046EC0100201156000085550000DF
:1040C0002E4B98421CD003D82D4B984207D04AE083
:1040D0002C4B984225D02C4B984233D043E00129F9
:1040E00043D0002904D0022906D0032906D001E0DC
:1040F000264841E000203FE025483DE025483BE0E0
:10410000012934D0002904D0022906D0032906D081
:1041100001E0032030E000202EE01F482CE01F4883
:104120002AE0012925D0002904D0022906D003293C
:1041300006D001E01A481FE000201DE019481BE0EE
:10414000194819E0012916D0002904D0022906D007
:10415000032906D001E015480EE000200CE01448C9
:104160000AE0144808E0002006E0134804E0134881
:1041700002E0134800E013487047C046000C0042BC
:104180000008004200100042001400420300040036
:10419000030006000300070003001E0003001F00C9
:1041A0000300080003000A0003000B0003001000D6
:1041B00003001200030013000300050003000100C8
:1041C000030009000300110070B584B00E4A69466F
:1041D00070CA70C112680A60031C009A82420FD034
:1041E000019C844208D0029D854207D00020039E96
:1041F0009E4207D1032004E0012002E0022000E0FB
:104200000020C0B204B070BD84F70000F0B547468E
:1042100080B488B0051C0C1C161C29600B681C207F
:104220009A0700D5DFE00B680520DA0700D5DAE051
:10423000081C6F4B98476F4B196A821C01279740E7
:104240003A1C0A431A6207A92427F35D0B70143045
:10425000C0B28046684B98474046684B9847F05D2F
:104260000021674B98473378012B03D122680C2338
:10427000134323603378002B00D0B1E02268082379
:1042800013432360ACE0EA18D16004331C2BFAD14D
:104290000023EB62AB620024AB862B863623EC5402
:1042A0003723EC543823EC5403236B722C712868A9
:1042B0004F4B9847071C5349534B9847BF00534BEC
:1042C000FD502F6802AB80221A705C7001229A7038
:1042D000DC703378002B02D1002202AB9A70B36AF3
:1042E0000393F06A0490326B0592736B069300247B
:1042F000E1B2A30003AA9858002802D1381C444A0E
:104300009047431C06D06A461072000CC0B202A946
:10431000404B98470134042CEAD133786B71337CDD
:10432000AB71B37CEB71337D2B7200226B46DA806C
:104330003378012B14D128682D4B98471430C0B224
:10434000354B9847011CB0696A460632334B984793
:10435000031C1720002B46D16B4606331B783B739A
:104360003378002B0FD1B169B38B786AF47F2404C2
:10437000B27F224302437A622022B25C002A04D038
:104380004022134301E000230021B2687068024319
:10439000F06802430A43317C0B43717C002903D14E
:1043A0001F498978880701D580210A43B17C0029FB
:1043B00002D0802189020B43F17C002902D08021A8
:1043C00089000B43317D002902D0802189010B43F4
:1043D00039680A433A607A6813437B60002002E040
:1043E000002300214FE708B004BC9046F0BDC04652
:1043F000C94100000004004011560000855500002E
:10440000714000002D47000029490000C82F0020FE
:10441000C1400000ED5600002D560000993E0000FE
:104420000020004110B544791523012C6CD1047A89
:104430000023002C68D1002A57D04B78002B44D0A1
:104440000268137EDC070FD40B78D90900220029FB
:1044500003D15A09D2012D4952181F210B400121C5
:104460009940916105234FE00B78DC090022002C74
:1044700003D15A09D201254C12191F2423400124CB
:104480009C405461897803681A7ED40700D59962EC
:10449000C2790023002A37D102680421137E0B421F
:1044A000FCD0117E00234C072ED5538B590703D522
:1044B000518B04230B4353838379012B02D1936ADD
:1044C000002321E0936A00231EE00B78D909002223
:1044D000002903D15A09D2010C4C12191F210B409B
:1044E00001219940516100230EE00B78D909002287
:1044F000002903D15A09D201044952181F210B4047
:104500000121994091610023181C10BD0044004115
:10451000F0B55F4656464D464446F0B483B0041CA1
:1045200092463823C05CC0B2052800D1F1E01720C4
:10453000002A00D1EDE06379002B05D12368187EB5
:10454000820701D502201876554600200123022655
:10455000B4460427BB468FE06279002A01D0266862
:1045600016E02268167E1E4206D16D4E177E1F424F
:1045700002D1013E002EF9D1167E67463E4203D09D
:10458000022313760420C4E0127E1A42E7D1B3E07E
:10459000327E1A42FCD0421C92B290460F5CA27945
:1045A000012A01D0404605E0023080B242468A5CD2
:1045B00012021743327E1A4202D0FF05FF0DB76286
:1045C0006A1E96B2E279002A01D1351C56E0627962
:1045D000002A37D1534A01912668377E1F421CD0EA
:1045E000471CBFB2B9460199095C8846A779012FDB
:1045F00001D0484608E0023080B201994F46C95DBB
:10460000090247460F43B846377E1F4203D047464C
:10461000F905CF0DB762013DADB22668377E594628
:104620000F4202D1013A002AD6D10199327E674663
:104630003A4203D00223337604206AE0327E5E469B
:1046400032425BD02668327E5F463A42FBD0327EF1
:104650003A420DD0728B3A4204D0728B04273A430F
:1046600092B27283A279012A01D1B26A00E0B26AE1
:104670005246013A92B29246013DADB22A4A954263
:1046800000D069E751466379012B05D121680222E8
:104690000B7E1342FCD033E0002B33D1E3790020B2
:1046A000002B36D000292FD004251D4E042750465C
:1046B0001CE00A7E2A4202D1013B002BF9D10B7E7D
:1046C0002B4223D00B7E2B420CD04B8B2B4203D0A2
:1046D0004B8B3B439BB24B83A379012B01D18B6A5C
:1046E00000E08B6A013880B2002811D021680B7E6F
:1046F0002B42E4D1331CDCE712200AE0122008E050
:10470000002006E0002004E0002002E0122000E08B
:10471000002003B03CBC90469946A246AB46F0BD93
:104720001027000011270000FFFF0000F8B58000EF
:104730007A4BC45825683623E35C3722A75C1F40B8
:104740002B7EAE7D1E40F10741D56379012B16D13A
:10475000637A002B0FD1724B1B88AB62638E013BD7
:104760009BB26386638E9BB2002B01D101232B7514
:104770006379012B03D1637A002B05D127E0002B4D
:1047800025D1637A002B22D02268E36A1978C9B256
:10479000581CE062A079012804D158780002014336
:1047A0000233E362CB05DB0D9362A38E013B9BB228
:1047B000A386A38E9BB2002B09D101232B75637AAC
:1047C000012B04D1E379002B01D10223AB757207D1
:1047D00061D56B8B590714D5637A012B0BD01E2240
:1047E0003823E2540323637205232B753A0702D55D
:1047F000201CA3699847AB6A6A8B042313436B831D
:1048000049E0637A012B16D123689B6A638E013BD2
:104810009BB26386638E9BB2002B3CD104232B7525
:1048200000223823E25403236372F90733D5201C96
:10483000E26890472FE023689A6AD205D20DD3B27E
:10484000A16A0B70A36A591CA162A179012904D144
:10485000120A5A70A36A0133A362238E013B9BB2F2
:104860002386238E9BB2002B15D100223823E254DD
:1048700004232B75637A022B05D17A070BD5201CF4
:104880006369984707E0637A002B04D1B90702D522
:10489000201C22699047B30728D56379002B10D1DB
:1048A00007232B7502232B76032363720023A38631
:1048B000238638230022E254F90602D5201CE2693F
:1048C00090476379012B11D1637A012B0ED1E379E3
:1048D000002B0BD102232B75032363720022382394
:1048E000E254FB0702D5201CE168884732070AD54D
:1048F0006379002B07D108232B752B76BB0602D5D5
:10490000201C216A8847F60907D080232B752B7657
:104910007A0602D5636A201C9847F8BDC82F00208C
:10492000C42F00207047C04630B50B4B1B78002BBE
:104930000ED10A4C0A4D25600A4B00221A606560B0
:104940005A60A5609A60E560DA600122024B1A7035
:104950008000024BC15030BDF0010020F401002066
:1049600025490000C82F002030B583B0051C01ACDC
:10497000201C05490422054B9847281C044B9847E6
:10498000205603B030BDC04694F70000B96900005E
:10499000C941000008B5024B1B680020984708BDBC
:1049A000F401002008B5024B5B680120984708BD60
:1049B000F401002008B5024B9B680220984708BD0F
:1049C000F401002008B5024BDB680320984708BDBE
:1049D000F40100207047C0460C4B1B68002B10D11F
:1049E000EFF31083002B09D172B6BFF35F8F002263
:1049F000074B1A700122074B1A7002E00022054B88
:104A00001A70024B1A6801321A60704704020020C3
:104A10000801002008020020084B1A68013A1A60B9
:104A20001B68002B09D1064B1B78002B05D00122F7
:104A3000044B1A70BFF35F8F62B670470402002008
:104A40000802002008010020F0B55F4656464D469A
:104A50004446F0B493B0051C0C1C161C2960081CBD
:104A6000A94B9847021C23680520D90700D543E1CC
:104A700023681C209F0700D53EE1A44B186A911CB7
:104A800001278F40391C0143196211A92D27F35DBD
:104A90000B701432D2B29046101C9D4B9847404682
:104AA0009C4B9847F05D00219B4B9847F37A6B71C4
:104AB0002423F35CAB712523F35CEB71F37E2B7243
:104AC000337F6B7229688846081C8F4B98471430D7
:104AD00000226B46DA85328A03928023DB019A42F8
:104AE00021D08023DB019A4204D880239B019A4283
:104AF00011D008E0C023DB01039F9F420FD0802329
:104B00001B029F4203D01027089700270EE00327BF
:104B1000089700270AE010270897012706E00827D2
:104B20000897012702E008270897002731680491B9
:104B3000F268059273690693317E8A462623F35CF8
:104B40009B4672689146002A13D080235B059A42E7
:104B50002ED12723F35C002B2ED1376AC0B26F4BC6
:104B60009847011C381C6A462E326D4B9847031C2F
:104B70001FE02723F35C002B0AD008990091306ACC
:104B8000B16A6A462E323B1C664FB847031C10E0E0
:104B9000316A0991C0B2614B9847011C089A009292
:104BA00009986A462E323B1C5E4FB847031C00E052
:104BB0000023181E00D09FE0737E002B02D0B37E2E
:104BC00041468B732A68039FD369002BFCD103975E
:104BD0006B462E331B8842469381059B049F3B43C3
:104BE000069F3B4349460B43039F1F435246130214
:104BF0001F4359464B071F432723F35C002B01D16A
:104C000004231F43317F4902737E9B021943737F44
:104C10001B0219432423F35C5B0419432523F35C33
:104C20001B041943F37A19433389FF2B04D08022E4
:104C300052041743194305E0F37E002B02D0802372
:104C4000DB041F432C23F35C002B03D1364B9B78F2
:104C50009A0701D580231F432A68D369002BFCD112
:104C6000434659602A68D369002BFCD141460F6046
:104C700010AB80221A7000225A70DA709A70326B70
:104C80000C92736B0D93B76B0E97F66B0F96002714
:104C900010AEF9B2BB000CAA9858002802D1201C13
:104CA000224A9047431C05D03070000CC0B2311C22
:104CB0001F4A90470137042FEBD10023EB602B6193
:104CC0006B61AB61EB612B62AB626B620022EB85C7
:104CD000AB853023EA543123EA543223EA54332398
:104CE000EA542868084B9847041C1249124B98470D
:104CF000A400124BE550002013B03CBC90469946EE
:104D0000A246AB46F0BDC046C941000000040040C9
:104D10001156000085550000714000002D5600001E
:104D2000993E0000C13E000000200041C14000004B
:104D3000ED5600006D4E000029490000C82F0020EC
:104D400010B5021C0368C4791C20002C0DD0D28D34
:104D500092B20520002A08D1DA69002AFCD119850F
:104D600002211A7E0A42FCD0002010BD10B5031C9F
:104D7000046882791C20002A33D09B8D9BB20520C9
:104D8000002B2ED1237E5A072BD5E369002BFCD1B3
:104D9000638BDBB29A0621D09A0703D50223638383
:104DA0001A201EE05A0703D5042363831E2018E04F
:104DB000DA0703D501236383132012E0DA0605D551
:104DC000628B10231343638342200AE09A0605D5C1
:104DD000628B202313436383412002E0238D0B80E9
:104DE000002010BDF8B5041C0E1C171C05680F4BE5
:104DF0009847A38D9BB2002B03D00D4B98470520FD
:104E000013E0A7850A4B9847666205223223E254D5
:104E10000423AB75237A002B01D02023AB75637A72
:104E20000020002B01D00823AB75F8BDD949000044
:104E3000194A0000931C9B00C3185960012393403A
:104E40001A1C3023C15C0A43C254704710B51723A3
:104E5000002A06D084791C23002C02D0024B9847EC
:104E6000031C181C10BDC046E54D0000F8B58000BD
:104E7000644BC5582C68E369002BFCD1237EA67DCA
:104E80001E403123EB5C3022AF5C1F40F10720D580
:104E9000EB8D9BB2002B1AD0AB6A1A78D2B2591C98
:104EA000A9626979012904D1597809020A430233B8
:104EB000AB62D305DB0D2385EB8D013B9BB2EB850C
:104EC000002B06D1012323750223A37501E00123E2
:104ED0002375B20709D50223237500223323EA5430
:104EE000FB0702D5281CE968884772076AD5AB8D95
:104EF0009BB2002B64D0638BDBB2190702D43F2234
:104F0000134001E037221340002B37D09A0707D512
:104F10001A223223EA54628B02231343638327E06D
:104F2000590707D51E223223EA54628B0423134308
:104F300063831DE0DA0707D513223223EA54628B1C
:104F400001231343638313E0D90607D5422232239A
:104F5000EA54628B10231343638309E020221A4230
:104F600006D041223223EA54628B20231343638309
:104F70007A0727D5281C6B69984723E0228DD20534
:104F8000D20DD3B2696A0B706B6A591C6962697978
:104F9000012904D1120A5A706B6A01336B62AB8D1E
:104FA000013B9BB2AB85002B0CD10423237500225F
:104FB0003223EA54BA0705D5281C2B69984701E02B
:104FC00004232375F10607D5102323752376FA06EB
:104FD00002D5281CEB699847B10607D52023237515
:104FE00023763A0702D5281CAB699847310707D5C5
:104FF000082323752376BA0602D52B6A281C984706
:10500000F8BDC046C82F002008B5082834D8800055
:105010001B4B1B589F468020000230E0194B18693B
:105020002DE0194B186A8005800F184BC340181CDF
:1050300025E0144B586922E0124B1B6802201840EF
:105040001DD011491022CB681A42FCD00D4B1B68B1
:105050005A0713D500200E4B98470A4B9B681B0438
:105060001B0C58430BE05023074AD35C00205A071F
:1050700005D5044BD86802E0002000E0054808BDD3
:1050800098F700000C0200200008004000127A008F
:105090002D560000006CDC0270B50C4B1C6A0178C8
:1050A000857840780122104080014026B4430443B3
:1050B0002A40D00180229443221C02430320014055
:1050C0000902034802400A431A6270BD000800400A
:1050D000FFFCFFFFF0B54F464646C0B4194A94693D
:1050E00041788C4605780679C77843799946807867
:1050F00001231840800004218C430443604618407B
:10510000C00008218C430443181C3840800140270C
:10511000BC430443181C3040C0018026B443044300
:10512000072028400002084D2C40044349460B400C
:1051300019030648231C03400B4393610CBC9046A3
:105140009946F0BD00080040FFF8FFFFFFEFFFFFAA
:1051500010B5027A9206120C43899B059B0D1A43E7
:10516000184B5A60818842881143C479827922435E
:105170000A434178C9010A431A600378042B0FD10E
:10518000027B9206038A1A43C3891B040E490B4013
:105190001A430C4B9A60196804220A431A6010E003
:1051A000202B0ED1027B9206038A1A43C3891B046B
:1051B00005490B401A43034B9A601A6803490A4396
:1051C0001A6010BD0C0200200000FF032404000040
:1051D000082849D88000254B1B589F46002044E0F2
:1051E000234B196A02220A431A6200203DE0204B39
:1051F000996902220A439A61002036E01C4B198A01
:1052000002220A431A8200202FE0194B998A0222B7
:105210000A439A82002028E0164A116802231943A3
:105220001160134A9384111C1022CB681A42FCD0DF
:10523000104A91680E4BD96252689A6200229A8491
:10524000191C1022CB681A42FCD00A4B1A6892B281
:10525000074B9A84002008E0054A4423D05C0221D1
:105260000143D154002000E017207047BCF7000034
:10527000000800400C020020F0B54F464646C0B47E
:105280008DB0C222D200484B9A60484B5A681E210A
:105290008A4302210A435A60012201AB1A7000249A
:1052A000434DE0B201A9A8470134252CF9D1414D65
:1052B0002B68D9043C4B490E090498693E4A0240C8
:1052C0000A439A610AA80123437083700024C470C2
:1052D0000371072303704471384B98470420384BFF
:1052E000984705AB1C7000225C809C809A71DA7133
:1052F0003F215981062119825A702B689B0E3F2B42
:1053000000D11F2305A80372072303733F23C38122
:105310002C4B984704A800254570012399468370BB
:105320000570294B98470620254EB047274B9847D4
:1053300001AC6570257265720423237020230293EB
:105340000220211C224B984698470220214FB84743
:105350004B466360657006232370257265720320D7
:10536000211CC0470320B8470720B0470E49102230
:10537000CB681A42FCD0184A0023137253729372FE
:10538000D37201A901224A604B7006220A700B7287
:105390004B7200200E4B984700200E4B98470DB0E3
:1053A0000CBC90469946F0BD00080040004000410A
:1053B0001156000024608000FFFF80FFD5500000E0
:1053C000D15100005151000099500000DD53000000
:1053D00001540000B554000000040040064B9969D8
:1053E00008220A439A610122044B1A70191C0B7897
:1053F0001342FCD17047C04600040040000C00403E
:10540000F8B5061C071C0D782D0205434B78002BC0
:1054100002D08023DB021D434B7A002B02D0802375
:105420001B031D434C68012C17D9631E1C420FD16E
:10543000022C06D90223002201325B009C42FBD8D9
:1054400000E000221702374380235B031D4304E082
:105450002702374380239B021D430B7A002B02D087
:1054600080239B031D430F4A53785BB2002BFBDB69
:105470000D4B98470D4B1E700A4A53785BB2002BB8
:10548000FBDB084B9F601A1C53785BB2002BFBDBE5
:10549000044B5968802252020A4015435D60044B58
:1054A0009847F8BD000C0040D9490000080C0040A6
:1054B000194A000010B5041C0B4A53785BB2002B4C
:1054C000FBDB0A4B98470A4B1C70074A53785BB2C8
:1054D000002BFBDB044B5968802252020A435A60BE
:1054E000044B984710BDC046000C0040D94900004D
:1054F000040C0040194A000070B5041C1A4A537885
:105500005BB2002BFBDB194B9847194B1C70164AFA
:1055100053785BB2002BFBDB134E7068C004C00EE7
:10552000144B9847051C124B1C707668F602F60F58
:10553000114B1C700C4A53785BB2002BFBDB0A4BFF
:105540009C68240AA4B20D4B9847002E07D1012C69
:1055500007D9281C211C0A4B9847051C01E001347F
:10556000E540281C70BDC046000C0040D949000031
:10557000040C004009500000080C0040194A0000CB
:1055800099AB000010B5041C064B9847064B1C70E5
:10559000064B59888022D2010A435A80044B98470F
:1055A00010BDC046D9490000020C0040000C00406C
:1055B000194A000010B5041C0F4B98470F4B1C7084
:1055C0000F4B58880005000F59880E4A0A405A8030
:1055D00059880D4A0A405A80191C8022D2014B88F2
:1055E0001342FCD1064B01025888064A02400A4386
:1055F0005A80064B984710BDD9490000020C004064
:10560000000C0040FFF0FFFFFFBFFFFF194A000042
:1056100010B50C7824020443024B9847A4B2024B05
:105620005C8010BDB5550000000C004010B5041C96
:10563000064B9847064B1C70064B5C882405240FCC
:10564000054B9847201C054B984710BDD9490000D1
:10565000020C0040000C0040194A0000F954000000
:1056600030B5D378002B1ED11378802B04D01B06C5
:1056700080246402234300E0002354780225AC43D5
:105680000AD19478002C03D18024A402234302E0A1
:10569000C024E402234341605478013C012C04D827
:1056A000114C234001E0416000230D042D0CA02487
:1056B000E4052C431C4384620D0CD02424062C43A7
:1056C0001C438462D478002C0CD15C0305D59378FC
:1056D000012B01D1816100E041615378013B012B35
:1056E00000D8816030BDC046FFFFFBFF08B5031C3A
:1056F0000A1CC1090020002903D15809C00104492E
:1057000040181F210B4001219940024B984708BDCA
:1057100000440041615600007047C04608B5054B83
:105720009847054B9847054B9847054B9847054BBD
:10573000984708BD79520000D5490000195700006C
:105740005D1200001957000070B584B0011C01AB58
:105750000A4A70CA70C3019B83420AD0029C8442E9
:1057600005D00020039D8D4205D1022002E00120DA
:1057700000E00020C0B204B070BDC046E0F70000F9
:10578000F0B54F464646C0B487B0041C0D1C904689
:10579000081C904B984781468F4F391C0C3105A847
:1057A00003228E4EB047391C103103A80622B047A1
:1057B0000023A360E3602361636123766376484638
:1057C0008200874BD450256041468B78082B04D14A
:1057D00017204A46D20700D4F6E023712B88052013
:1057E000D90700D5F0E0EB7B1C20DA0600D5EBE012
:1057F0002B88990700D5E7E04246137C002B0CD09C
:1058000002A901238B700022CA704046806908708B
:105810004B704246107D734B98474046037F002BE8
:105820000BD002A901238B700022CA70426A0A7051
:105830004B70036AD8B26B4B98476B4B196A48465A
:10584000420003A8125A0A431A6241468B78082B79
:1058500008D1654B1A6A48460130400003A9415AF5
:105860000A431A6201A9424613780B7005AB4846F9
:105870001E5C301C5D4B9847301C5D4B9847414681
:1058800088880B89034388798A78104318434B78BA
:10589000002B02D080231B01184321687F22CB7B81
:1058A0009343FCD128804246507B431E98418000A0
:1058B000937B002B01D00123184321687F22CB7BEF
:1058C0009343FCD1FF232B71002805D021687F2250
:1058D000CB7B9343FCD168714346987ADB7A002BEB
:1058E00001D01023184341460B7B002B01D020230D
:1058F000184321687F22CB7B9343FCD1A871226897
:105900007F21D37B8B43FCD12379042B05D0082B3B
:1059100041D01720002B57D124E07F21D37B8B432C
:10592000FCD128234246D35C2B7421687F22CB7B99
:105930009343FCD129234046C35C2B7521687F2209
:10594000CB7B9343FCD12A234146CB5C2B76216849
:105950007F22CB7B9343FCD12B234246D35C6B76D7
:10596000002031E07F21D37B8B43FCD14046038D67
:105970002B8221687F22CB7B9343FCD141464B8D08
:105980002B8321687F22CB7B9343FCD14246938DAE
:105990006B83002018E07F21D37B8B43FCD14346EF
:1059A0009B6A2B6121687F22CB7B9343FCD14046CD
:1059B000C06AA86121687F22CB7B9343FCD141461A
:1059C0000B6BEB610020FFE707B00CBC90469946DB
:1059D000F0BDC04649570000E0F70000B96900007B
:1059E000D82F0020ED5600000004004011560000A2
:1059F0008555000002687F21D37B8B43FCD103795E
:105A0000042B05D0082B09D00020002B08D102E080
:105A1000107CC0B204E0108A80B201E01069FFE798
:105A20007047C046931C9B001950022A04D1027E85
:105A30001023134303760CE0032A04D1027E2023B3
:105A40001343037605E0012393401A1C037E1A4397
:105A5000027600207047C04638B58000144BC45809
:105A60002268957B237E1D40637E1D40EB0705D594
:105A7000201CA2689047012322689373AB0705D5C9
:105A8000201CE2689047022322689373EB0605D539
:105A9000201C22699047102322689373AB0605D51A
:105AA000201C62699047236820229A7338BDC04643
:105AB000D82F002008B50020014B984708BDC046EC
:105AC000595A000008B50120014B984708BDC0464F
:105AD000595A000008B50220014B984708BDC0463E
