S0100000746573745F7370692E73726563A9
S1130000184400202D31000029310000293100005E
S113001000000000000000000000000000000000DC
S11300200000000000000000000000002931000072
S11300300000000000000000293100002931000008
S11300402931000029310000293100009504000005
S11300502931000029310000293100002931000034
S113006029310000BD200000CD200000DD2000006B
S1130070ED20000000000000000000002931000015
S11300802931000029310000F93000000931000055
S1130090193100000000000000000000951B000062
S11300A029310000293100002931000029310000E4
S11300B010B5064C2378002B07D1054B002B02D03A
S11300C0044800E000BF0123237010BDB0000020ED
S11300D000000000549E000008B5084B002B03D01C
S11300E00748084900E000BF07480368002B03D015
S11300F0064B002B00D0984708BDC0460000000006
S1130100549E0000B4000020549E00000000000033
S113011010B5144C2278144B1B68920013490888BC
S1130120D358984720780130C0B2114B1978114B3D
S11301309847C9B22170104B595C104B1B685A7E0A
S113014052B2002AFBDB1A691F2082430A431A6158
S11301505A7E52B2002AFBDB084804490122084BAC
S1130160984710BDCC0000207823002020010020F7
S113017000000020F1760000AC960000242300204B
S1130180651C0000F0B58FB0051C0E1C02AC201CD1
S1130190324B98470023A360E022D20062800322FE
S11301A062702373102323712D4F381C2D49221C98
S11301B02D4B98473B685A7E52B2002AFBDB8021C4
S11301C009042A4A1160197802220A431A70244B3E
S11301D01A68537E5BB2002BFBDB214C201C2449A4
S11301E00022244B9847E27E01231343E37601A9BE
S11301F000224A70CA708A7001220A7003201E4BC2
S11302009847032D13D002D8022D16D01BE0042DDD
S113021007D0052D17D101A901230B700420164B1B
S1130220984701A901230B700620134B984701A995
S113023001230B700520104B984701A901230B7073
S113024004200D4B98470D4B1D700D4B1E60044848
S11302500C4901220C4B98470FB0F0BD1517000054
S113026024230020004000425D17000000E100E06C
S113027011010000511C0000612D0000000000204D
S11302807823002020010020651C000010B5CA88D6
S1130290C388D21A92060C7964044B799B052343D4
S11302A08C782403234313430279002A05D1CA78A6
S11302B0002A02D0802252021343487880010A782F
S11302C01043184310BDC04610B58C0EC388E31804
S11302D0D3808B011B0F53718B02DB0E13710379D7
S11302E0002B03D0CB03DB0E937005E00B041B0F34
S11302F09370CB03DB0FD3700B059B0E53703F231E
S11303001940117010BDC04610B50268082480233E
S11303100B49CC5001688B7A5BB2002BFBDB138852
S113032002218B43138000230374437401688B7A86
S11303305BB2002BFBDB118801230B43138010BD40
S113034000E100E010B50468034B9847A37A5BB260
S1130350002BFBDB206110BD8D02000070B50E1C6C
S1130360141C05681723012A0DD8084B9847AB7A4B
S11303705BB2002BFBDBE4002D19A861327A002369
S1130380062A00D82A77181C70BDC0468D020000CA
S113039030B583B0041C151C01601C4B99692022E4
S11303A00A439A6101A902230B700420184B984751
S11303B00420184B9847201C174B98472B7923711E
S11303C0EB786371EB88E380144B1C6023682A8804
S11303D02979002902D008210A4301E048210A436F
S11303E0A978002901D080210A431A80EA78002ADA
S11303F004D059888022D2010A435A80291C08312A
S1130400201C0022064B984703B030BD0004004076
S1130410852C0000F92B0000090300007C23002038
S11304205D03000038B50C1C01681723012A08D8A5
S1130430D2008D18A969221C034B98472B7F237285
S11304400023181C38BDC046C9020000012A01D986
S113045017200AE0931C9B001950037C0121914052
S11304600A1C1A43D2B202740020704710B5036804
S1130470012902D18022DA7104E001228A40012498
S11304802240DA71437C01228A40111C1943C9B20B
S1130490417410BD10B50E4B1B681C685A7C197C46
S11304A0081C1040227AE1790A40D10906D081075C
S11304B001D5DB6898478023237207E0D10705D56F
S11304C0C20701D59B6898470123237210BDC0461B
S11304D07C23002082B000226B46DA7102B07047A0
S11304E008B58123044AD35C012B01D1034B9847FF
S11304F0034B984708BDC046440A00205D0F000026
S1130500C909000008B502480E21024B984708BDEE
S1130510240100202D05000008B50248024B98472D
S113052008BDC046240100205905000030B583B041
S1130530051C01AB80221A7000245C7001229A70A1
S1130540DC708170081C191C024B9847AC72AC809B
S113055003B030BD612D00008378D9090022002941
S113056003D15A09D20112495218126A1F210B40B1
S1130570012199400B1C13405A1E9341827A9A42DE
S11305800DD1838801339BB28380632B0ED903780A
S1130590002B0BD1012303700023437006E0437842
S11305A0002B01D000230370002383807047C046D2
S11305B000440041F8B5061C0C1C171C1D1C06AB9E
S11305C01B78012B07D00888431C0B8030180F4977
S11305D002220F4B9847208830180E493A1C0E4BC4
S11305E09847381C0D4B984723880333181880B25A
S11305F02080002D09D03018291C094B9847281C4D
S1130600064B98472388C0182080F8BDB096000098
S11306108D340000B49600000536000085360000D5
S11306207536000080225200064BC2520023064A4F
S11306308352064A8352064A83520122C0235B0135
S1130640C2547047F8170000FC170000FE170000A2
S1130650FA17000084B0F0B505900691079208934C
S11306600B990D4D4C5B60000019C0000818103048
S1130670031C05AAC1CAC1C3C1CAC1C30134A4B2FF
S11306804C53064BCB5AA34201D100224A53F0BC2F
S113069008BC04B01847C046FA170000F817000059
S11306A0F0B54F464646C0B40D4A90468C5A620097
S11306B01219D2008A181032051CC8CAC8C5C8CA83
S11306C0C8C50134A4B245464C53064BCB5AA34289
S11306D001D100224A530CBC90469946F0BDC04655
S11306E0FC170000F8170000F0B55F4656464D466B
S11306F04446F0B48E4CA54400278E4B1F708E4D9B
S1130700C0235B01EF541AAC201C00218B4A8C4B94
S113071098470122904666236B441A807B232380EA
S1130720EA680FA88749884B984742460092201CE4
S113073069466631854A0FAB854EB0470097201C49
S113074069466631834A0023B04766226A441088AA
S1130750431C1380201880490222804B9847804B09
S1130760EA5A804BEB5A92B29A4200D0D1E095E01B
S113077013A871497C4B98475246002A0CD0662333
S11307806B441888431C66266E4433801AAA1018DA
S113079076490222714B98476D4666352888431C7A
S11307A02B801AAB1818724902226C4EB04713AA58
S11307B091460FA86349139A634EB04701230093EF
S11307C01AA8694666316B4A0FAB614CA0476A4B65
S11307D098466A4A93464B4658689047021C0B1C3D
S11307E00FA84146B047002700971AA8694666310A
S11307F0634A0FABA0474A469068D847021C0B1CBB
S11308000FA84146B04700971AA8694666315D4A69
S11308100FABA0475C4B98464A46D068D847021CA9
S11308200B1C0FA84146B04700971AA869466631C9
S1130830564A0FABA0474B461A7C0FA84149B04714
S113084000971AA869466631514A0FABA0474A4639
S11308505069D847021C0B1C0FA84146B0470097AB
S11308601AA8694666314B4A0FABA0472888431C37
S11308702B801AAB181848490222384EB047534609
S11308800133DBB29A46282B08D02B4B344A9A5AB0
S113089034495B5A92B29A4200D069E766226A44AC
S11308A014881AAB18193D4902222C4DA847A31CE1
S11308B066266E443380601C80B21AAA101836492A
S11308C00222A8471AA8364CA04780B26B46588724
S11308D01AA8A047021C03A832491B4B98470AAB2D
S11308E000221A7203A830490C9A0D9B2F4CA04782
S11308F0FA2040002E4B9847002811D01AA82D4BFF
S113090098472D4B2D4A5A6001221A722C4ADA60FC
S113091006E013A80849144B984700239A463BE77E
S1130920284B9D443CBC90469946A246AB46F0BD3C
S1130930DCF3FFFFB8050020D80A0020B80B000044
S11309409F340000BC96000005360000C0960000ED
S1130950B5050000C8960000D09600008D34000054
S1130960FA170000FC170000A1060000B096000072
S1130970D4960000D8960000DC960000B5940000E0
S1130980E4960000E8960000EC960000F49600005F
S1130990F8960000FC960000009700000497000001
S11309A08536000008970000209700002D0F0000F6
S11309B011100000B1340000CC0500202C97000079
S11309C0D10A0000240C000008B50B4B1B78002B47
S11309D007D1C0235B01094AD35C002B01D0084B2B
S11309E09847084B1B78042B04D90022054B1A7036
S11309F0034B984708BDC046B8050020D80A00201C
S1130A00E90600002201002030B58BB004AB0C4A8B
S1130A1090681169059154690694D26907920E226F
S1130A201A74084A0992084A029208AA694630CA06
S1130A3030C10599069A079B044CA0470BB030BD02
S1130A40180A0020A4700D40D80A002055060000A2
S1130A50F0B583B000AF041C2E21174B9847061B3A
S1130A60F31DDB08DB006A46D21A9546811E381C4A
S1130A700722124DA847B21E6846211CA8476846A3
S1130A800F4EB047041C0D1C381CB047094B084AD4
S1130A900C4EB047021C0B1C201C291C0A4CA047FE
S1130AA00A4B9847BD4603B0F0BDC046C046C04699
S1130AB00000000000004E4049360000933600005C
S1130AC0293400000D7F0000C9780000599500000A
S1130AD010B584B06B46D87107331B78012B11D144
S1130AE0094B186859689A68DB68084CA047FA20D3
S1130AF04000074B98476B46D873064B01221A7285
S1130B00054A5A6004B010BDC80A00202D0F000029
S1130B1011100000CC0500206097000010B584B0CF
S1130B200C1C6B46D87107331B78002B37D01D4B38
S1130B3058681D491D4B9847002803D11C4A194B7E
S1130B405A602CE01B4B0121C022520199541A4ACD
S1130B509A5A1A495B5A92B29A4202D10122184B0C
S1130B601A70201C174B9847C0B26B46D8730023E9
S1130B70A374201C0F30144B984780B2C8235B0029
S1130B80984206D10B4B0C4A995A89B20F4A995292
S1130B9005E0084B0D4A995A89B2074A995204B0A4
S1130BA010BDC046CC0500202C9700006136000023
S1130BB060970000D80A0020FC170000FA17000014
S1130BC0B80500208536000033340000FE1700000D
S1130BD082B06B46D871024A024B5A6002B0704729
S1130BE060970000CC05002070B586B00C1C6B46E5
S1130BF0D871D9790733C9B26A46D1751B78DBB28B
S1130C00D375201C2C213E4B984700286ED000251C
S1130C103C4E66E019781170013301328342F9D1F8
S1130C20011B041C00E00021002202AB5A540B2DCE
S1130C304ED8AB00F3589F4602A8334B9847334B2A
S1130C40986045E002AB1A78304B1A7340E02F4BA2
S1130C501B7B562B05D002A82D4B98472B4B1861B4
S1130C6036E00022294B1A6132E002AB1A78274B96
S1130C701A762DE0254B1B7B562B05D002A8244B5E
S1130C809847224B586123E00022204B5A611FE011
S1130C9002AB1A781D4B5A761AE002A81D4B9847EE
S1130CA01D4B9847194BD86112E002A8194B98477D
S1130CB0194B9847154B18620AE002A81249884755
S1130CC0124B586204E002AB1A7828230F49CA5425
S1130CD001340135EDB2201C2C21094B9847002822
S1130CE004D084429FD202AA231C93E70B480C4BE6
S1130CF098470C4B1A7801321A7006B070BDC04682
S1130D00493600003097000033340000180A0020F0
S1130D10510A00002934000059950000D80A002027
S1130D20090A00002201002038B50D4D0D4C281C85
S1130D30211C00220C4B9847072323722078013092
S1130D40C0B23C21094B98472170281C211C002269
S1130D50074B9847074B1B68002B00D0984738BDBA
S1130D6080230020D000002025040000F17600003C
S1130D705D0300009423002010B586B001AAA023CF
S1130D801B01138000239370D3701371FA21C900DF
S1130D90D18003A80370684643736846837368462A
S1130DA0C373012304A80370684643746B465982D5
S1130DB006231374094C201C09490A4B98472168DF
S1130DC00822094B1A602268937A5BB2002BFBDB82
S1130DD00A88022313430B8006B010BD8023002031
S1130DE0001400409103000000E100E010B5064B40
S1130DF01860064C201C06490022064B9847201C0C
S1130E000021054B984710BD942300208023002027
S1130E10290D00004D0400006D04000070B586B07B
S1130E200D1C04AC002323706370A370E3700126CF
S1130E3026710C4BE3800A2363710B4B9847281CE3
S1130E400A4B98470A4D281C211C0A4B984701A9B4
S1130E500B1C05CC05C30E72281C0022064B9847B8
S1130E6006B070BDDF070000790D0000ED0D000035
S1130E7080230020450300005D0300007047C04646
S1130E8008B5154B1B780A2B0FD18023134AD35C6A
S1130E90DBB2012B19D9131C80229A5CD2B2002137
S1130EA099540121812299540FE00B4B1B780D2B8F
S1130EB00BD00A4B8022995CC9B207480078C0B2B3
S1130EC05854995C0131C9B2995405480249012228
S1130ED0044B984708BDC04660010020440A002026
S1130EE0442300207525000070B582B0051C0E1C3B
S1130EF000226B46DA80064C281C69460631A0475E
S1130F000028F9D16B4606331B88337002B070BDDC
S1130F109524000070B5061C0D1C034C301C291CC4
S1130F20A0470028FAD170BD6924000070B584B0D0
S1130F306C46009001910292054A111C61CC61C17A
S1130F400B6004480099044B984704B070BDC04638
S1130F50CC0500206C970000B134000070B582B05D
S1130F6000226B46DA71254E8023F35CDBB26C46BB
S1130F70A371234B5D68281C224B9847C0B26B4673
S1130F80607162790533D2B2B15CC9B201AA117041
S1130F90A2791B78D2B29A4205D96B4605331B78E5
S1130FA0DBB20021F1541548291C174B984700283F
S1130FB002D101226B46DA716B4605331B78DBB232
S1130FC001AA1178C9B20D4AD1540D4B1B7A002BDA
S1130FD006D06B46D879C0B2094BDB68111C984720
S1130FE00648002381228354802283540021074B26
S1130FF098476B46D879C0B202B070BD440A00204D
S1131000CC05002085360000613600009F340000C6
S1131010F0B583B0051C6B460022DA8006331B88CA
S11310209BB298421CD981230F4AD35C012B07D170
S113103003E08123FB5C012B06D10C4B984710E0A5
S11310400B4E6C460634084F0120B0472388013309
S11310509BB2238023889BB2AB42EAD3002000E0FA
S1131060002003B0F0BDC046440A00205D0F00001C
S1131070E916000070B50E4D802636056E610D48E8
S11310800D4CA047AE616420A0476E61FA200001B8
S1131090A047AE61094B186859689A68DB68084D27
S11310A0A847FA204000074B9847C820A04770BDC6
S11310B000440041B80B0000E9160000A805002018
S11310C02D0F000011100000F0B55F4656464D4646
S11310D04446F0B487B000226B46DA7501AB41494F
S11310E002911A724048414B984700239A466C4635
S11310F0173401239B463E4E5B4623703D480299BC
S1131100039A049BB047FA235B009946181C3A4D96
S1131110A847C8235B009846181C384FB84738487E
S11311200299039A049BB0474846A8474046B847EB
S113113034480299039A049BB047FA27FF00381CED
S1131140A84731480299039A049BB047381CA84722
S1131150002801D1002323702C480299039A049B90
S1131160234DA847FA20C000234B9847002801D1FB
S11311700023237026480299039A049B1C4DA84718
S1131180FA20C0001C4B9847002801D1002323708B
S1131190204801900299039A049B154DA847FA2010
S11311A0C000154B9847002801D1002323702378F1
S11311B0002B0CD15346022B03D9174B984700231D
S11311C09A4653460133DBB29A46144B9847237828
S11311D0002B91D007B03CBC90469946A246AB4642
S11311E0F0BDC0462C970000D80A00202506000058
S11311F02D0F00007497000011100000E916000084
S113120094970000BC970000C8970000DC9700008A
S1131210F49700003C980000D5040000751000000D
S1131220F0B587B001226B46DA7501AC134902911F
S1131230002323721248039A049B124FB847124E9C
S1131240301C124DA847FA20C000114B9847114892
S113125001906168A268E368B847301CA847002879
S113126002D100226B46DA75FA204000084B9847F9
S11312706B46D87DC0B207B0F0BDC0462C970000C5
S1131280589800002D0F00001027000011100000D6
S1131290E91600006898000070B590B08023DB0563
S11312A0009300230193FF22684602810022837287
S11312B0C372012124206C46215425202154262167
S11312C06354272163540A938821490303912C21F1
S11312D063542D21635405932382E3762276227787
S11312E062761323A3766277204B0C93204B0D93E5
S11312F001235B420E930F93E1235B0208931D4E7F
S11313001D4D1E4C301C291C6A46A0470028F9D1EB
S1131310184C1B4B1C601B4A1B4B1A601B4A1C4B72
S11313201A60201C14496A46144B9847194E3368B6
S113133098680021184DA847336858680021A847C9
S11313402568281C154B98471F2318400123834008
S1131350181C134B18602268D369002BFCD12A682F
S1131360022313432B6010B070BDC04602000A0074
S113137002000900442300200008004271210000FB
S11313800C240020150F000008240020E90E0000A2
S11313900424002070000020E534000091200000A7
S11313A000E100E010B5064C201C06490022064B63
S11313B098473123E15C03220A43E25410BDC0463E
S11313C0442300207D0E00005D25000010B51C495B
S11313D01C4B0B601C4B4B6000220A721B491C48BF
S11313E008604B600A721B491B4808604B600A7214
S11313F01A491B4808604B600A721A491A48086067
S113140001200872194C4C60194CCC6019491A4CD3
S11314100C600A72194C4C6019491A4C0C60087221
S11314204B601948C8601949194808600A724B6032
S11314301848C8601849194808600A724B6010BD02
S1131440BC050020789800002C9700003001002093
S113145080980000A805002088980000080A002051
S11314609898000050010020A8980000B898000047
S1131470E90B000040010020C4980000D49800004B
S113148064050020E0980000D10B0000C80A002089
S1131490F09800001D0B0000DC09002000990000FA
S11314A070B50124374B1C7037494C7000238B7086
S11314B00C701B20354B984780221205344B9A61DF
S11314C0344B9847344B9847344B9847344B1C70F3
S11314D0BFF35F8F62B6334C201C33490122334B78
S11314E09847201C32490122324B9847324B1868E6
S11314F059689A68DB68314CA047FA204000304BA9
S1131500984700280AD1C82040002E4EB047204CEE
S113151080252D0565612C48B047A561214C3125F6
S1131520635D022293436355284B186859689A688F
S1131530DB68224EB047C8204000224B9847244B1A
S1131540186859689A68DB68B047625D02231343E0
S11315506355201C16490122164B9847FA256D0045
S1131560281C174CA0471B4B186859689A68DB68FD
S1131570B047281CA047184D184CA847A04700287E
S1131580FBD070BDB805002018230020B11C00005A
S11315900044004199120000A5130000CD1300007F
S11315A00C00002044230020810E00005D25000073
S11315B06001002075250000DC0900202D0F0000CB
S11315C011100000E916000070170000BC0500208F
S11315D030010020A8050020C910000021120000DD
S11315E010B58EB001AA002300211370937100245A
S11315F0138154709172D172117391735173117478
S11316005361936111771362536253859385042365
S11316109370A023DB0093802A23D0542923D05431
S11316202823D454074C201C0749084B98472268A8
S11316307F21D37B8B43FCD1118802230B4313807E
S11316400EB010BDC4230020002C0042F52D000074
S113165008B5FF20014B984708BDC046E1150000BE
S113166010B5011C0C4C201C00220C4B9847206820
S11316700B4B98470B4B1B5C1F21194001231A1C71
S11316808A40111C084A1160617E01220A43627675
S11316902268537310BDC046C42300206930000083
S11316A0BD2D00000499000000E100E010B5002009
S11316B0084B9847084CFA218900A047074B18604B
S11316C0FA218900A047064B18600522054B1A60D1
S11316D010BDC0466D2B0000697600000800002094
S11316E00400002010E000E030B5084B1C68084AF4
S11316F000258021490206E0002C04D05460956046
S113170013680B42FCD00138F6D230BD080000202B
S113171010E000E010B500220023027042700021A6
S11317204280017103760262C26182600373C02445
S11317306401C481037443748374C37403752A24D9
S113174003554375837524240355C2840285C175EA
S11317502B23C1542C23C15410BDC046F0B55F46A1
S113176056464D464446F0B499B0061C141C01601C
S1131770BC4B186A8022520202431A620B7805207D
S1131780DA0700D5F6E10B781C20990700D5F1E1C2
S113179063783371002B00D0DCE1B34B196C042265
S11317A00A431A64D6E1237D002B02D10123737707
S11317B001E000237377326801922378684603724C
S11317C01E2002A9A94B98471E20A94B98472C23F9
S11317D0E35C002B42D02B22A55C217B88464A196E
S11317E0D2B2D318DBB299469A4221D2A14A934687
S11317F0A14B9A460F272F40237BFF1804A8594674
S11318005022D047132F0CD8BF0004ABF85803A9BB
S113181000234B70CB708B7001230B70C0B2974ABE
S113182090470135EDB240464319DBB24B45E1D355
S1131830E58904A88F4950228F4B9847132D37D838
S1131840AD0004ABE85803A900234B70CB708B7038
S113185001230B70C0B2894B984729E0257B04A86B
S113186084495022844B9847132D0CD8AD0004AB07
S1131870E85803A900234B70CB708B7001230B70C5
S1131880C0B27E4B9847E58904A87A4950227A4B26
S11318909847132D0CD8AD0004ABE85803A90023D6
S11318A04B70CB708B7001230B70C0B2734B984795
S11318B0637D9B00DBB201990B70A37DDB01627831
S11318C01343DBB24B702379342B00D940E19B00E6
S11318D06B4AD3589F460222102501231AE0637CE9
S11318E0227C102516E006221025012312E008228E
S11318F0102500230EE00022302500230AE00022F8
S11319002025002306E000220025002302E0042213
S1131910102502231B0170210B401343019A93707D
S1131920E37D17203F2B00D924E1D3703268537E26
S11319305BB2002BFBDBE27C638813432422A25CB2
S1131940D2001343227D92001343A27C520013431E
S11319502B4301988380237E002B01D1316897E0CB
S1131960102D5FD002D8002D3CD0F7E7202D19D0E0
S1131970302DF3D1E27C002A0AD0E26980321720AC
S1131980FF2A00D9F6E0226A8032FF2A00D9F1E06A
S11319901720E169FF2900DDECE0226AFF2A00DD5F
S11319A0E8E0DBE7E27C002A11D0E06980229200C3
S11319B081181720334A914200D9DBE0206A802243
S11319C09200811817202F4A914200D9D2E01720A3
S11319D02C4AE169914200DDCCE0216A914200DDAC
S11319E0C8E0BBE7E27C002A11D0E2698020000154
S11319F011181720244A914200D9BBE0226A8020A2
S1131A00000111181720204A914200D9B2E0172092
S1131A101D4AE169914200DDACE0216A914200DD9A
S1131A20A8E09BE7E27C002A11D0E2698020000252
S1131A3011181720154A914200D99BE0226A802090
S1131A40000211181720114A914200D992E0172080
S1131A500E4AE169914200DD8CE0216A914200DD89
S1131A6088E07BE70004004000080040852C00006B
S1131A70F92B0000DC9900008D340000612D00007A
S1131A8008990000FF030000FF0F0000FFFF0000A3
S1131A904A7E52B2002AFBDB019A13723268537EEB
S1131AA05BB2002BFBDBA38B019883833268537EEC
S1131AB05BB2002BFBDB238C01990B842C23E35CAE
S1131AC0002B04D0013BDBB217200F2B52D82B2262
S1131AD0A25C17200F2A4DD83168487E40B20028F6
S1131AE0FBDBE089217B0143A068014312050A4323
S1131AF01B04134301990B612A23E35C0B750F2329
S1131B008B752423E35C002B10D0E38C17201D4A33
S1131B1093422FD88B84238D80200001191889B219
S1131B201720184A914225D80199CB84164B1A687C
S1131B305201E023DB001A40144B586841011B6832
S1131B40DB0E0B43DBB2134301990B85002011E03C
S1131B5017200FE00023B360F3603361B376F376AC
S1131B60338333770A4B1E602A23E35C002B00D1B6
S1131B7019E61EE619B03CBC90469946A246AB460F
S1131B80F0BDC046FF0F000024608000206080008C
S1131B90E423002038B52D4B1C6823681D7EEDB26C
S1131BA0E90735D5E27ED10732D5A27ED1072FD5FC
S1131BB001221A762268537E5BB2002BFBDB636939
S1131BC0991C6161528B92B21A80238B013B9BB2A8
S1131BD02383002B11D0637F002B19D023685A7EF6
S1131BE052B2002AFBDB197B02220A431A732268D1
S1131BF0537E5BB2002BFBDB0AE0237F052B07D16E
S1131C0000232377012322689375201CA368984737
S1131C1069070BD5042322681376E37E990705D55B
S1131C20A37E9A0702D5201CE3689847A9070BD521
S1131C30022322681376E37E590705D5A37E5A074B
S1131C4002D52369201C984738BDC046E4230020F0
S1131C50931C9B001950012393401A1C837E1A4342
S1131C608276704710B5031C048BA4B20520002CA7
S1131C701DD1187FC0B2052819D0052018771A8302
S1131C80596101221968CA755A7F0020002A0ED0B2
S1131C901A68517E49B20029FBDB107B0221014303
S1131CA011731A68537E5BB2002BFBDB002010BD5E
S1131CB000B583B001AB80221A700A785A704A7852
S1131CC09A708A78DA70191C014B984703B000BDEA
S1131CD0612D000010B5031C4908402099420CD323
S1131CE00024C91A601C80B28B4201D8041CF8E796
S1131CF04020FF2C01D81480002010BD00000000FB
S1131D00F0B55F4656464D464446F0B487B0061CCF
S1131D100D1C049210AA1078321C424340248A42BB
S1131D2000D9B3E0002B4BD10021321C5E4CA047FC
S1131D3083462E1C002700200021002200233F247C
S1131D40A4460125A846029003916146203903D494
S1131D5040468840814605E0202165464C1B4046AC
S1131D60E040814641466446A1408A46101C191C45
S1131D7080185941021C0B1C5D464C46254202D07A
S1131D80424602430B1C9F420CD801D1964209D80B
S1131D90921BBB415046029D28434946039C214364
S1131DA0029003916546013DAC46CED20298039958
S1131DB03C4B3B4A121A8B41120C1B041A4362E03F
S1131DC00022012B5FD14F0FB946CD00AB46002155
S1131DD0321C0023344CA047061C0F1C0023012591
S1131DE0029603979A465046C0B205900021884651
S1131DF0002200233F24271C203F03D42E1CBE4076
S1131E00019604E02020071B291CF94001912E1C97
S1131E10A6400096101C191C80185941021C0B1C6A
S1131E205F463740BC46019E4F463E4067463E43B0
S1131E3002D02A1C02430B1C039898420BD802D1EF
S1131E400299914207D8029E039F921BBB414746C9
S1131E5000980743B846013CCDD2414652468B1AFE
S1131E60DB08124CA34208D9059A0132D2B205927A
S1131E700126B2445746082FB5D1402405980828B6
S1131E8004D042031A43049C22800024201C07B07F
S1131E903CBC90469946A246AB46F0BDC046C046FF
S1131EA0000000000100000045780000FF1F000052
S1131EB010B582B0041C0F4B1B78002B01D00029F5
S1131EC00DD001A90C7013200B4B984713200B4B1A
S1131ED09847084B5C7001221A70002007E0054BFC
S1131EE05A781D20141B621E94416442204002B0A3
S1131EF010BDC046DC000020852C0000F92B00003A
S1131F002E4B98421CD003D82D4B984207D04AE060
S1131F102C4B984225D02C4B984233D043E00129D6
S1131F2043D0002904D0022906D0032906D001E0B9
S1131F30264841E000203FE025483DE025483BE0BD
S1131F40012934D0002904D0022906D0032906D05F
S1131F5001E0032030E000202EE01F482CE01F4861
S1131F602AE0012925D0002904D0022906D003291A
S1131F7006D001E01A481FE000201DE019481BE0CC
S1131F80194819E0012916D0002904D0022906D0E5
S1131F90032906D001E015480EE000200CE01448A7
S1131FA00AE0144808E0002006E0134804E013485F
S1131FB002E0134800E013487047C046000C00429A
S1131FC00008004200100042001400420300040014
S1131FD0030006000300070003001E0003001F00A7
S1131FE00300080003000A0003000B0003001000B4
S1131FF003001200030013000300050003000100A6
S1132000030009000300110070B584B00E4A69464C
S113201070CA70C112680A60031C009A82420FD011
S1132020019C844208D0029D854207D00020039E73
S11320309E4207D1032004E0012002E0022000E0D8
S11320400020C0B204B070BD2C9A00007047C04696
S113205030B50B4B1B78002B0ED10A4C0A4D256072
S11320600A4B00221A6065605A60A5609A60E560B8
S1132070DA600122024B1A708000024BC15030BD5D
S1132080E0000020E40000204D200000E8230020B0
S113209030B583B0051C01AC201C05490422054B56
S11320A09847281C044B9847205603B030BDC046BF
S11320B03C9A00008D3400000920000008B5024B52
S11320C01B680020984708BDE400002008B5024BB7
S11320D05B680120984708BDE400002008B5024B66
S11320E09B680220984708BDE400002008B5024B15
S11320F0DB680320984708BDE40000207047C04611
S11321000C4B1B68002B10D1EFF31083002B09D16B
S113211072B6BFF35F8F0022074B1A700122074B80
S11321201A7002E00022054B1A70024B1A68013241
S11321301A607047F40000200C000020F800002012
S1132140084B1A68013A1A601B68002B09D1064B28
S11321501B78002B05D00122044B1A70BFF35F8F4C
S113216062B67047F4000020F80000200C00002044
S1132170F0B55F4656464D464446F0B493B0051C50
S11321800C1C161C2960081CA94B9847021C2368C8
S11321900520D90700D543E123681C209F0700D5FB
S11321A03EE1A44B186A911C01278F40391C01435E
S11321B0196211A92D27F35D0B701432D2B2904627
S11321C0101C9D4B984740469C4B9847F05D00215E
S11321D09B4B9847F37A6B712423F35CAB712523F3
S11321E0F35CEB71F37E2B72337F6B722968884644
S11321F0081C8F4B9847143000226B46DA85328ACC
S113220003928023DB019A4221D08023DB019A428E
S113221004D880239B019A4211D008E0C023DB013B
S1132220039F9F420FD080231B029F4203D010279D
S1132230089700270EE00327089700270AE01027D5
S11322400897012706E008270897012702E00827D6
S11322500897002731680491F26805927369069320
S1132260317E8A462623F35C9B4672689146002A97
S113227013D080235B059A422ED12723F35C002BD5
S11322802ED1376AC0B26F4B9847011C381C6A467E
S11322902E326D4B9847031C1FE02723F35C002B61
S11322A00AD008990091306AB16A6A462E323B1C02
S11322B0664FB847031C10E0316A0991C0B2614B04
S11322C09847011C089A009209986A462E323B1CD2
S11322D05E4FB847031C00E00023181E00D09FE0A7
S11322E0737E002B02D0B37E41468B732A68039F12
S11322F0D369002BFCD103976B462E331B884246CF
S11323009381059B049F3B43069F3B4349460B43F4
S1132310039F1F43524613021F4359464B071F4353
S11323202723F35C002B01D104231F43317F49028F
S1132330737E9B021943737F1B0219432423F35CAE
S11323405B0419432523F35C1B041943F37A1943F3
S11323503389FF2B04D0802252041743194305E02C
S1132360F37E002B02D08023DB041F432C23F35C79
S1132370002B03D1364B9B789A0701D580231F434A
S11323802A68D369002BFCD1434659602A68D36973
S1132390002BFCD141460F6010AB80221A70002242
S11323A05A70DA709A70326B0C92736B0D93B76B30
S11323B00E97F66B0F96002710AEF9B2BB000CAA6D
S11323C09858002802D1201C224A9047431C05D06B
S11323D03070000CC0B2311C1F4A90470137042FE3
S11323E0EBD10023EB602B616B61AB61EB612B6282
S11323F0AB626B620022EB85AB853023EA54312358
S1132400EA543223EA543323EA542868084B9847A1
S1132410041C1249124B9847A400124BE5500020AB
S113242013B03CBC90469946A246AB46F0BDC046AC
S11324300920000000040040852C0000F92B000056
S1132440B11E0000A12C0000D51C0000011D0000DD
S113245000200041011F0000612D000095250000AF
S113246051200000E823002010B5021C0368C47941
S11324701C20002C0DD0D28D92B20520002A08D148
S1132480DA69002AFCD1198502211A7E0A42FCD09D
S1132490002010BD10B5031C046882791C20002A9A
S11324A033D09B8D9BB20520002B2ED1237E5A075F
S11324B02BD5E369002BFCD1638BDBB29A0621D0C8
S11324C09A0703D5022363831A201EE05A0703D513
S11324D0042363831E2018E0DA0703D501236383F2
S11324E0132012E0DA0605D5628B102313436383AD
S11324F042200AE09A0605D5628B202313436383A6
S1132500412002E0238D0B80002010BDF8B5041C8F
S11325100E1C171C05680F4B9847A38D9BB2002B0C
S113252003D00D4B9847052013E0A7850A4B984725
S1132530666205223223E2540423AB75237A002B0E
S113254001D02023AB75637A0020002B01D008232F
S1132550AB75F8BD0121000041210000931C9B00D4
S1132560C3185960012393401A1C3023C15C0A43E9
S1132570C254704710B51723002A06D084791C234F
S1132580002C02D0024B9847031C181C10BDC046F7
S11325900D250000F8B58000644BC5582C68E3692C
S11325A0002BFCD1237EA67D1E403123EB5C302220
S11325B0AF5C1F40F10720D5EB8D9BB2002B1AD0E6
S11325C0AB6A1A78D2B2591CA9626979012904D17B
S11325D0597809020A430233AB62D305DB0D238524
S11325E0EB8D013B9BB2EB85002B06D101232375B8
S11325F00223A37501E001232375B20709D5022341
S1132600237500223323EA54FB0702D5281CE9680A
S1132610884772076AD5AB8D9BB2002B64D0638B5D
S1132620DBB2190702D43F22134001E037221340E2
S1132630002B37D09A0707D51A223223EA54628B2B
S113264002231343638327E0590707D51E2232234D
S1132650EA54628B0423134363831DE0DA0707D52E
S113266013223223EA54628B01231343638313E05E
S1132670D90607D542223223EA54628B102313432E
S1132680638309E020221A4206D041223223EA540D
S1132690628B2023134363837A0727D5281C6B6935
S11326A0984723E0228DD205D20DD3B2696A0B700C
S11326B06B6A591C69626979012904D1120A5A703A
S11326C06B6A01336B62AB8D013B9BB2AB85002B14
S11326D00CD10423237500223223EA54BA0705D50A
S11326E0281C2B69984701E004232375F10607D5BC
S11326F0102323752376FA0602D5281CEB69984724
S1132700B10607D52023237523763A0702D5281C62
S1132710AB699847310707D5082323752376BA0692
S113272002D52B6A281C9847F8BDC046E823002030
S113273008B5082834D880001B4B1B589F468020BE
S1132740000230E0194B18692DE0194B186A800516
S1132750800F184BC340181C25E0144B586922E025
S1132760124B1B68022018401DD011491022CB685F
S11327701A42FCD00D4B1B685A0713D500200E4B90
S113278098470A4B9B681B041B0C58430BE05023CF
S1132790074AD35C00205A0705D5044BD86802E0E9
S11327A0002000E0054808BD409A0000FC0000201D
S11327B00008004000127A00A12C0000006CDC022A
S11327C070B50C4B1C6A0178857840780122104062
S11327D080014026B44304432A40D001802294431C
S11327E0221C0243032001400902034802400A4319
S11327F01A6270BD00080040FFFCFFFF10B5027AAA
S11328009206120C43899B059B0D1A43184B5A6080
S1132810818842881143C479827922430A434178EA
S1132820C9010A431A600378042B0FD1027B920674
S1132830038A1A43C3891B040E490B401A430C4BE9
S11328409A60196804220A431A6010E0202B0ED102
S1132850027B9206038A1A43C3891B0405490B4071
S11328601A43034B9A601A6803490A431A6010BD5D
S1132870FC0000200000FF0324040000082849D8BD
S11328808000254B1B589F46002044E0234B196AC7
S113289002220A431A6200203DE0204B9969022279
S11328A00A439A61002036E01C4B198A02220A432B
S11328B01A8200202FE0194B998A02220A439A8235
S11328C0002028E0164A1168022319431160134AB4
S11328D09384111C1022CB681A42FCD0104A9168D0
S11328E00E4BD96252689A6200229A84191C1022F3
S11328F0CB681A42FCD00A4B1A6892B2074B9A84EE
S1132900002008E0054A4423D05C02210143D1544D
S1132910002000E017207047649A0000000800407F
S1132920FC000020F0B54F464646C0B48BB0C2222E
S1132930D2003C4B9A603C4B5A681E218A430221C8
S11329400A435A60012201AB1A700024374DE0B2E9
S113295001A9A8470134252CF9D105AB0021197030
S11329600022598099809A71DA713F215981062198
S113297019825A702E4B1B689B0E3F2B00D11F23CC
S113298005A80372072303733F23C381294B984788
S113299004A8002545700123994683700570264BD1
S11329A098470620254EB047254B984701AC6570E3
S11329B02572657204232370202302930220211CB4
S11329C0204B9846984702201F4FB8474B466360F8
S11329D0657006232370257265720320211CC0478D
S11329E00320B8470720B0470E491022CB681A428B
S11329F0FCD0164A0023137253729372D37201A946
S1132A0001224A604B7006220A700B724B7200203E
S1132A100C4B984700200C4B98470BB00CBC9046CD
S1132A209946F0BD0008004000400041852C00009C
S1132A3024608000FD270000C12700007D280000DD
S1132A40512A0000752A0000292B000000040040D0
S1132A50064B996908220A439A610122044B1A70B1
S1132A60191C0B781342FCD17047C0460004004087
S1132A70000C0040F8B5061C071C0D782D02054318
S1132A804B78002B02D08023DB021D434B7A002BB2
S1132A9002D080231B031D434C68012C17D9631EED
S1132AA01C420FD1022C06D90223002201325B0002
S1132AB09C42FBD800E000221702374380235B03CB
S1132AC01D4304E02702374380239B021D430B7AF6
S1132AD0002B02D080239B031D430F4A53785BB223
S1132AE0002BFBDB0D4B98470D4B1E700A4A5378A5
S1132AF05BB2002BFBDB084B9F601A1C53785BB264
S1132B00002BFBDB044B5968802252020A40154318
S1132B105D60044B9847F8BD000C004001210000A3
S1132B20080C00404121000010B5041C0B4A5378E6
S1132B305BB2002BFBDB0A4B98470A4B1C70074A1D
S1132B4053785BB2002BFBDB044B596880225202A2
S1132B500A435A60044B984710BDC046000C00401D
S1132B6001210000040C00404121000070B5041C48
S1132B701A4A53785BB2002BFBDB194B9847194B6D
S1132B801C70164A53785BB2002BFBDB134E706843
S1132B90C004C00E144B9847051C124B1C70766879
S1132BA0F602F60F114B1C700C4A53785BB2002BE3
S1132BB0FBDB0A4B9C68240AA4B20D4B9847002EF9
S1132BC007D1012C07D9281C211C0A4B9847051C46
S1132BD001E00134E540281C70BDC046000C0040F3
S1132BE001210000040C004031270000080C0040C3
S1132BF0412100006976000010B5041C064B98477B
S1132C00064B1C70064B59888022D2010A435A8015
S1132C10044B984710BDC04601210000020C00403F
S1132C20000C00404121000010B5041C0F4B9847D4
S1132C300F4B1C700F4B58880005000F59880E4A23
S1132C400A405A8059880D4A0A405A80191C802229
S1132C50D2014B881342FCD1064B01025888064A24
S1132C6002400A435A80064B984710BD01210000D8
S1132C70020C0040000C0040FFF0FFFFFFBFFFFF0D
S1132C804121000010B50C7824020443024B9847FC
S1132C90A4B2024B5C8010BD292C0000000C004043
S1132CA010B5041C064B9847064B1C70064B5C88F9
S1132CB02405240F054B9847201C054B984710BD4D
S1132CC001210000020C0040000C004041210000E2
S1132CD06D2B000030B5D378002B1ED11378802BD8
S1132CE004D01B0680246402234300E000235478AC
S1132CF00225AC430AD19478002C03D18024A40289
S1132D00234302E0C024E402234341605478013C9D
S1132D10012C04D8114C234001E0416000230D0430
S1132D202D0CA024E4052C431C4384620D0CD024F8
S1132D3024062C431C438462D478002C0CD15C03FD
S1132D4005D59378012B01D1816100E0416153786D
S1132D50013B012B00D8816030BDC046FFFFFBFF63
S1132D6008B5031C0A1CC1090020002903D1580915
S1132D70C001044940181F210B4001219940024B16
S1132D80984708BD00440041D52C00007047C04658
S1132D9008B5054B9847054B9847054B9847054B95
S1132DA09847054B984708BD25290000FD200000E1
S1132DB08D2D00008D2D00008D2D000070B584B088
S1132DC0011C01AB0A4A70CA70C3019B83420AD03A
S1132DD0029C844205D00020039D8D4205D102202F
S1132DE002E0012000E00020C0B204B070BDC04683
S1132DF0889A0000F0B54F464646C0B487B0041C1C
S1132E000D1C9046081C904B984781468F4F391CE7
S1132E100C3105A803228E4EB047391C103103A88B
S1132E200622B0470023A360E36023616361237635
S1132E30637648468200874BD450256041468B78A0
S1132E40082B04D117204A46D20700D4F6E0237198
S1132E502B880520D90700D5F0E0EB7B1C20DA068F
S1132E6000D5EBE02B88990700D5E7E04246137CB8
S1132E70002B0CD002A901238B700022CA7040469B
S1132E80806908704B704246107D734B98474046EA
S1132E90037F002B0BD002A901238B700022CA7080
S1132EA0426A0A704B70036AD8B26B4B98476B4BFB
S1132EB0196A4846420003A8125A0A431A62414654
S1132EC08B78082B08D1654B1A6A484601304000BC
S1132ED003A9415A0A431A6201A9424613780B70A6
S1132EE005AB48461E5C301C5D4B9847301C5D4B5F
S1132EF09847414688880B89034388798A78104328
S1132F0018434B78002B02D080231B0118432168FF
S1132F107F22CB7B9343FCD128804246507B431EC7
S1132F2098418000937B002B01D001231843216832
S1132F307F22CB7B9343FCD1FF232B71002805D048
S1132F4021687F22CB7B9343FCD168714346987AF6
S1132F50DB7A002B01D01023184341460B7B002B56
S1132F6001D02023184321687F22CB7B9343FCD1DB
S1132F70A87122687F21D37B8B43FCD12379042B56
S1132F8005D0082B41D01720002B57D124E07F21F6
S1132F90D37B8B43FCD128234246D35C2B7421681A
S1132FA07F22CB7B9343FCD129234046C35C2B7502
S1132FB021687F22CB7B9343FCD12A234146CB5CFF
S1132FC02B7621687F22CB7B9343FCD12B23424673
S1132FD0D35C6B76002031E07F21D37B8B43FCD123
S1132FE04046038D2B8221687F22CB7B9343FCD107
S1132FF041464B8D2B8321687F22CB7B9343FCD1AD
S11330004246938D6B83002018E07F21D37B8B4352
S1133010FCD143469B6A2B6121687F22CB7B93437F
S1133020FCD14046C06AA86121687F22CB7B9343D0
S1133030FCD141460B6BEB610020FFE707B00CBCF1
S113304090469946F0BDC046BD2D0000889A000008
S11330508D340000F8230020612D0000000400409E
S1133060852C0000F92B0000931C9B001950022AA8
S113307004D1027E1023134303760CE0032A04D107
S1133080027E20231343037605E0012393401A1C98
S1133090037E1A43027600207047C04638B580008C
S11330A0144BC4582268957B237E1D40637E1D40CB
S11330B0EB0705D5201CA26890470123226893736F
S11330C0AB0705D5201CE26890470223226893735E
S11330D0EB0605D5201C22699047102322689373C0
S11330E0AB0605D5201C62699047236820229A7399
S11330F038BDC046F823002008B50020014B98478E
S113310008BDC0469D30000008B50120014B98471A
S113311008BDC0469D30000008B50220014B984709
S113312008BDC0469D3000007047C04670B52C4BAA
S11331302C4A9A4203D02C4B294A9A4204D32B4B53
S11331402B4A9A4210D31BE02A4B27480330C01A5B
S113315080080130800000232149224AD458CC50F1
S113316004338342FAD1EAE7214B1A1D1F49033184
S1133170891A890889005218002102C39342FCD19C
S11331801D4BFF211D4A8A439A60022190235B0054
S11331901B4AD1501B4BD878032188430222104389
S11331A0D870DD780C24A54308200543DD70164B48
S11331B09E7B3025AE43202535439D739D7BA543DF
S11331C028439873987B884302439A730F4B59683A
S11331D080220A435A600E4B98470E4B9847FEE7ED
S11331E000000020549E0000B000002014240020A1
S11331F0B00000200400002000ED00E0000000000A
S1133200007000410050004100480041004000416E
S11332104134000049330000F0B5474680B40C1C2B
S1133220904600280CD1002A0DDD8F18094E0A4D56
S11332303068211C2B6898470134BC42F8D104E063
S11332400120404202E0002000E0404604BC9046D9
S1133250F0BDC0460C24002004240020F0B54746ED
S113326080B40E1C151C0138022810D8002A11D075
S113327000240D4B98460D4F43461868315D3B685A
S11332809847002808DB0134A542F5D107E0012066
S1133290404205E0002003E00120404200E0201C01
S11332A004BC9046F0BDC0460C2400200824002035
S11332B0064B1B68002B02D1054A044B1A60034AD3
S11332C0136818181060181C7047C04614010020B9
S11332D018440020012040427047C04680239B01CF
S11332E04B6000207047C0460120704700207047A3
S11332F0014B18807047C04674050020014B58806C
S11333007047C04674050020014B98807047C04642
S11333107405002010B5064B1B78002B06D0054B16
S1133320186859689A68DB68034CA04710BDC0460A
S1133330B8050020500100202D0F000008B5014BF6
S1133340984708BD1905000010B586B0104B984782
S1133350104B9847104B98471048114B984700233F
S11333600393049305930F4B00930F4B01930F4B5F
S11333700293032069460E4B98470E4B98470E4B19
S1133380984701200D490E4B98470E4CA047FDE786
S1133390912D0000AD160000511600003D330000D1
S11333A06116000009330000FD320000F132000014
S11333B085010000A114000005050000153300007C
S11333C01D0E0000E10400000B1C011C021C30B5A2
S11333D019430220002900D130BD802109068B4207
S11333E016D00D4904205C180C498C42F4D90C4DBC
S11333F05C198C42F0D90B4C590049080320A142B6
S1133400EAD9074C0020A142E6D150425041E3E7FB
S1133410002AE1D0EFE7C0460000F0FFFFFFDF7FA6
S11334200000F07FFFFF0F0008B5002100F098FFB7
S113343008BD08B500210A2201F028F808BD0000E3
S113344070B50E4B0E4D0024ED1AAD101E1CAC428F
S113345004D0A300F35898470134F8E706F0EAFCD7
S1133460084B094D0024ED1AAD101E1CAC4204D0CB
S1133470A300F35898470134F8E770BD409E00005C
S1133480409E0000409E0000449E000010B50023B2
S1133490934203D0CC5CC4540133F9E710BD031C40
S11334A08218934202D019700133FAE77047000082
S11334B00FB40B4B13B51C68002C05D0A369002B6B
S11334C002D1201C02F002FF05ABA168201C049A63
S11334D0019301F061F916BC08BC04B01847C0465A
S11334E07000002008B54A424A4180235200DB00A4
S11334F000F002F808BD0000F7B51E1C3C4B041C8C
S11335001D680F1C0192002D05D0AA69002A02D162
S1133510281C02F0DBFE374B9C4201D16C6808E0AA
S1133520354B9C4201D1AC6803E0344B9C4200D142
S1133530EC68019B022B57D8002E55DB281C211C5C
S113354002F044FE00236360A361A3891A0603D535
S1133550281C216903F0CCFEA38983229343A38111
S1133560019B022B13D0002F25D1002E01D18026E0
S1133570F600301C03F082FA071E18D18020C00028
S113358003F07CFA071E10D10120404200E0002025
S1133590A38902221343A3810023A360231C47337E
S11335A0236023610123636120E08026F600A38960
S11335B080221343A381019A012A04D1A3891343CE
S11335C0A3817342A3610E4B0020AB62A3892760E1
S11335D0276166611A0709D5032213405A425341F1
S11335E05B421E40A66001E001204042FEBDC04691
S11335F0700000204C9C00006C9C00008C9C00001F
S1133600256200000EB400B59CB01DAB04CB822231
S113361002A992008A810A4A02908A604A610122C0
S11336205242CA81074A086110681D9A019300F04A
S11336309BFF029A002313701CB008BC03B0184708
S1133640FFFFFF7F70000020C9B20378002B03D076
S11336508B4204D00130F8E7002900D0181C7047D1
S113366002780B7801300131002A01D09A42F7D058
S1133670D01A7047031C0A7801311A700133002AEA
S1133680F9D170470023C25C0133002AFBD1581ED4
S1133690704730B5031C002A07D00C7801335D1E37
S11336A0013A2C700131002CF5D19A18934203D0C1
S11336B0002119700133F9E730BD30B502680C7888
S11336C00132002C0AD013781D1C413D192D00D85D
S11336D020330131A342F2D0002001E00260012036
S11336E030BD000070B5161C0D1C03F0CBFC002E81
S11336F00BD06B005B0D6B22D31A002B05DD034D41
S11337001C056319002205F06BF870BD0000F03F42
S1133710F0B5BE4FBC4EA1B0002308900A91199297
S11337201C931B911B9A13780D2B05D8092B15D2CA
S1133730002B00D1C1E114E02B2B07D02D2B02D09C
S1133740202B0ED10AE00124169401E000251695E1
S1133750531C1B935378002B05D1AEE101321B920D
S1133760E0E7002416941B9D00242B780D94302B45
S11337705AD16B78582B01D0782B49D1169C1CABAD
S11337800093019408981BA9A14A1DAB02F059FEAD
S113379007240790044001D100F0B0FD062C02D1AB
S11337A001351B958BE11C9A002A07D01EA83521F0
S11337B003F058FD08981C9903F0C6F91D9B062CCC
S11337C01CD8201C03F046FF040A0714170A04003F
S11337D000273E1C12E01E9E1F9F0FE08D488E4A5C
S11337E01B181F991B050A401F1C1E9E174305E04A
S11337F08A4F002602E00123894F5E42079C24077A
S113380001D400F07BFD80231B061F4300F076FDEE
S11338101B9B5A1C1B925B78302BF9D0002B01D1D7
S113382000F06CFD01250D951B9C002510940B9553
S11338300E9509951B9C25782B1C303BDAB2092A7E
S113384012D8099D0A22082D04DC0E9D6A439B1898
S11338500E9303E00B9D6A439B180B93099D01345F
S1133860013509951B94E5E7089803F0B3F800685F
S11338700790089803F0AEF80068FFF703FF079974
S1133880021C201C03F054FE041E06D0099C0020D8
S11338902B1C079484460C9063E008981B9D03F04E
S11338A099F80068FFF7EEFE2D181B952B78099DFB
S11338B0281E48D1302B05D11B9B01305A1C1B926A
S11338C05B78F7E71A1C313A082A45D81B9C8446D2
S11338D0002010940790303B421C002B2DD00799F8
S11338E09444079D01314C1B94420EDA4C1E082C63
S11338F004DC0E9D0A2465430E95F2E71029F0DCE2
S11339000B9D0A2465430B95EBE7C243D217104085
S11339102818441C0794082806DC0E9D0A226A43D2
S1133920D2180E92002208E0079C0022102C04DC1E
S11339300B9D0A216943C9180B911B9B101C591C30
S11339401B915B7803E0099D201C0795A4461A1C73
S1133950303A092ABFD902E000240794A446012181
S11339600C912022191C9143002245295FD1079B09
S11339700D9C03432343934200D19EE01B9D2B1CCB
S113398001331B936B780A952B2B03D02D2B03D07B
S1133990119208E0119201E0012111910A9B0A9C05
S11339A002331B93A3781A1C303A092A3CD8302BD3
S11339B004D11B9B5A1C1B925B78F8E71C1C313CFE
S11339C00022082C33D81D1C1B99303D1B9B5A1C0C
S11339D01B925B781C1C303C092C04D80A225543EA
S11339E0ED18303DF2E7521A0F920E4C0F99221C3B
S11339F0082903DC2A1EA24200DD221C119C002C93
S1133A0015D0524213E0C046000000000000000040
S1133A10D09A000033040000FFFFEFFF0000F07FA6
S1133A20FFFFFF7F1F4E00000A9D00221B95079C8D
S1133A30002C48D10D9D284301D000F05FFC0C9868
S1133A4000283AD14E2B1CD002DC492B05D034E09F
S1133A50692B02D06E2B14D02FE01BA8A849FFF7C6
S1133A602CFE002829D01B9B1BA8013BA5491B93B6
S1133A70FFF723FE002802D11B9B01331B93A24FA7
S1133A8018E01BA8A149FFF718FE002815D01B99C0
S1133A900B78282B0DD11BA89D491EAA02F001FF0B
S1133AA0052806D1984A1F9B171C1F431E9E00F031
S1133AB025FC984F002600F021FC0A9C1B9400254D
S1133AC0169500F01BFC6446099D141B0A94002DF6
S1133AD001D1079C0994079C102C00DD10240E983A
S1133AE005F0B4FC061C0F1C092C15DD231C8A4AA6
S1133AF0093BDB00D3181A685B6804F071FE061CEE
S1133B000B980F1C05F0A2FC021C0B1C301C391C6A
S1133B1003F0DAFE061C0F1C079D0F2D3ADC0A9DEC
S1133B20002D01D100F0EAFB26DD162D07DC7A4BCF
S1133B30EA009A18106851683B1C321C17E0079D74
S1133B4025235B1B0A9D9D4224DC079C0F22151B29
S1133B50714CEB00E31818685968321C3B1C04F0E4
S1133B603FFE0A9A571BFF00E4192268636804F0B9
S1133B7037FE061C0F1CC1E30A9D16350ADB0A9C9E
S1133B80654BE2009A1A301C391C5368126804F021
S1133B90BDF9EEE7079D2C1B0A9D2C19002C56DD60
S1133BA00F2323400AD05C4ADB00D31818685968F5
S1133BB0321C3B1C04F014FE061C0F1C0F239C43F8
S1133BC000D1B7E09A235B009C420EDD00240794E9
S1133BD0099410940E94089D109C222300262B60B7
S1133BE0494FB44200D075E388E32411301C391CDA
S1133BF00025012C0BDDE20706D5484BEA00D3185B
S1133C001A685B6804F0ECFD01356410F1E7444B7D
S1133C10ED00CF18414B061C5D19321C3B1C286873
S1133C20696804F0DDFD384B0F1C0B403D49061C50
S1133C308B42CBD83C498B4203D901233B4F5E4294
S1133C4002E0D425AD047F1900240B9474E0002C09
S1133C5070D064420F2323400AD02F4ADB00D318CC
S1133C60301C391C1A685B6804F050F9061C0F1CE0
S1133C7024115FD01F2C05DD0025079509951095AB
S1133C800E9521E1E3066A25DB171D400B95284DAF
S1133C90301C391C002C08DDE20703D52A686B6848
S1133CA004F09EFD64100835F4E70B9C061C0F1C01
S1133CB0002C17D04B005B0D6B21CB1A002B11DDB0
S1133CC01F2B0BDD0026342B02DDDC239F0409E0CF
S1133CD00121203B494299400F4003E00122524216
S1133CE09A401640301C391C044B034A03F07CFDF7
S1133CF00028C1D120E0C046000000000000000000
S1133D000E9B0000419C00000000F07F169B000009
S1133D10E49A00000000F8FFB89C0000809D0000B9
S1133D200000B0FC0000A07C0000907CFFFFEF7F4F
S1133D30A89A000000250B950E9C089800941099F1
S1133D40099A079B02F057FF1090002800D13DE725
S1133D500A9D00246B42EA171340179307940994B1
S1133D60109D08986D68291C069502F0B5FE0E900A
S1133D70002800D12FE71098109900690C31021C1B
S1133D800E98023292000C30FFF780FB1DAB0093BB
S1133D901EAB01930898321C3B1C1296139703F038
S1133DA0E5F91C90002800D115E70898012102F0DC
S1133DB0ABFF0990002800D10DE70A9D00240D9463
S1133DC0AC4200DA0D951D9B002B00DA86E0179DAE
S1133DD00D99EC180B9D1E985B1B36251A182D1A8D
S1133DE0C7480123824200DB82E0801A2D1A1F2873
S1133DF078DC83400020189311900B9863194D19B7
S1133E000C932D18A34200DD231CAB4200DD2B1CB8
S1133E10002B04DD0C99ED1AC91A0C91E41A179AB7
S1133E20002A69D10C9800287EDC0D99002900D065
S1133E3084E0002D00DD8BE0002C00DD92E008988A
S1133E401C990E9A03F0B7F80790002800D1C2E637
S1133E50C4680025C56009990F9403F091F8A8423D
S1133E6000DB8EE0AC4200D01FE2AE4200D01CE288
S1133E703B03AB4200D018E2A24AD6233A40DB040B
S1133E809A4200D811E207984069A84274D0079971
S1133E900898012203F022F80999079003F070F8BA
S1133EA0002800DC01E20B9C964B002C00D199E029
S1133EB01A1CD6213A40C9048A4200D992E0DC2374
S1133EC09B049A4200D9F3E1089D109C2223834F5E
S1133ED0814E2B60002C00D0FCE10FE20D9CE11A16
S1133EE0179C77E78848821A181C9040119001E0CB
S1133EF000221192189380E70898099902F09CFF18
S1133F000990002800D166E6089809991C9A02F0E5
S1133F1004FF0F90002800D15DE608981C9902F078
S1133F2013FE0F9B1C937DE708981C990C9A02F0D2
S1133F30D5FF1C90002800D077E74CE608980E992E
S1133F400D9A02F079FF0E90002800D071E742E646
S1133F5008980E992A1C02F0C1FF0E90002800D088
S1133F606AE738E608980999221C02F0B7FF09901D
S1133F70002800D063E72EE607990969012986DC49
S1133F8093E1002865D10F9C3A03002C25D05F49AA
S1133F903B1C120B8A422ED101210B9D4942301C3D
S1133FA00A1C002D0AD0574CD4253C40ED04AC42E9
S1133FB004D8240D6B22121B91400A1C90421AD182
S1133FC0534A934202D1013000D104E64D4A802085
S1133FD0134040031F18002667E1002A0BD1002E6E
S1133FE009D160E74B4D494A3B405B19171C1F43FD
S1133FF001235E4259E1119C002C03D03C4200D1C4
S113400053E103E0189D354200D14EE10F9C301C72
S1134010391C0B9A002C0AD0FFF764FB021C0B1C02
S11340201298139903F050FC061C0F1C3DE1FFF796
S113403059FB021C0B1C1298139904F061FE274BC8
S1134040254A061C0F1C03F0CFFB002800D03BE7D9
S11340502BE10798099903F0E1F8214A214B041C4C
S11340600D1C03F0D1FB00285AD00F98002806D06D
S1134070294A00211C4C1D4D0C910D9261E0002E2B
S113408002D13B0305D10BE0012E02D1002F00D158
S11340901AE721480023164C164D0C930D9050E05E
S11340A0201C291C104A114B03F0A4FB002808D142
S11340B0201C291C104A114B04F092FB0C900D910A
S11340C003E00F9C154D0C940D950D988021090665
S11340D00C9C451835E0C0460000000000000000BC
S11340E00000000000000040000000000000F03F5D
S11340F0000000000000F0BF000000000000E03FEE
S113410003FCFFFF0000F07FE3FBFFFFFFFF0F0056
S1134110FFFFEF7F0000F0FF0000F03F0000E03FF2
S1134120201C804B7E4A291C04F05AFB0F9C0C90E7
S11341300D910B1C002C02D180252D064B190C9CD3
S11341401D1C8148814B3840119098422BD1129903
S1134150139A149115927E4A301CBF18391C02F030
S113416091FF021C0B1C201C291C04F039FB021CAF
S11341700B1C301C391C03F0A7FB734A754B061C3F
S11341800A409A420BD9744B159C9C4203D1149D4E
S1134190013500D11FE501236F4F5E4274E0D42046
S11341A080040F183AE00B99002925D0119AD423E2
S11341B0DB049A4220D80C980D995B4A5B4B03F0C0
S11341C023FB002813D00C980D9903F05DFB002805
S11341D000D1012005F03AF90F9C0C900D910B1CB5
S11341E0002C02D180252D064B190C9C1D1CD620B9
S11341F0C00411992B185D1A1298139902F042FF0A
S1134200021C0B1C201C291C04F0EAFA021C0B1CC7
S11342101298139903F058FB061C0F1C0B9C129761
S1134220002C31D1484B119D3B409D422CD10D991E
S11342300C9805F099F805F0CBF8021C0B1C0C98AF
S11342400D9904F05DFD041C0F980D1C002804D189
S1134250002E02D112990B030ED0201C291C344AC3
S1134260344B03F0C7FA002834D1201C291C324AED
S1134270324B03F0D3FA05E0201C291C304A314BA1
S113428003F0B8FA002825D108981C9902F05CFCC8
S113429008980E9902F058FC0898099902F054FC09
S11342A00898079902F050FC5AE50B9C002C11D099
S11342B02A4D002014901595301C391C149A159B16
S11342C004F08EFA061C0F1C04D1002802D1089CAD
S11342D02223236008981C9902F036FC08980E9952
S11342E002F032FC0898099902F02EFC0898109903
S11342F002F02AFC0898079902F026FC199D002D6B
S113430001D01B982860169C321C3B1C002C02D048
S113431080252D067B19101C191C21B0F0BDC04648
S1134320000000000000E03F0000C0FFFFFFDF418D
S11343309535A094FFFFDF3F35E5AF350000E03F42
S11343409535A094FFFFCF3F0000F07F0000E07F91
S11343500000B0FCFFFF9F7CFFFFEF7F000050399F
S113436008B50A1C0349031C0868191CFFF7D0F997
S113437008BDC04670000020F0B51D1C424B87B03C
S11343801B6805900293039101920B1C1C78029FF9
S11343905E1C3A19517808220A4001D0331CF5E713
S11343A02D2C04D101279E1C5C78009704E0009218
S11343B02B2C01D15C789E1C10232A1C9A4311D10A
S11343C0302C08D1327820218A43582A07D17478B6
S11343D01D1C023606E0002D04D10A2502E0002D42
S11343E000D10825009F291C7B427B4180273F0682
S11343F0FF1A381C03F07CF9381C0491291C03F0C3
S113440033F90023021C181C029F391949784F07FD
S113441001D5303C07E003270F4017D05721012F67
S113442000D13721641AAC4210DA591C0BD09042E7
S113443007D802D1049FBC4203DC6843012320183F
S113444001E001235B4234780136DDE7009F591C0B
S11344500BD180207B427B410006059FC01A22239A
S11344603B60019F002F09D10BE0002F00D0404298
S1134470019F002F05D0039A002B00D0721E019FCC
S11344803A6007B0F0BDC0467400002038B5131C74
S1134490044A051C0C1C1068291C221CFFF76CFF25
S11344A038BDC04670000020F0B58D6885B0071C8B
S11344B00C1C03920193AB4245D390228B89D2000A
S11344C013423DD062690326564309692068F20FFE
S11344D0401A96190290021C0198013212187610A3
S11344E0964200D2161C381C5A050FD5311C02F016
S11344F047FF051E13D0029A2169FEF7C7FFA28960
S1134500184B134080221343A38111E0321C02F0A4
S11345108BFF051E0CD1381C216902F0E9FE0C2327
S11345203B60A389402213430120A381404217E04A
S1134530029B2561ED1825606661019DF61AA6604F
S11345400198A84200D2019D2A1C2068039902F018
S1134550AAFAA2680020531BA36023685D19256092
S113456005B0F0BD7FFBFFFFF0B59FB0039005934E
S11345708B890E1C171C19060FD53269002A0CD121
S1134580402102F0FDFE30603061002803D1039920
S11345900C230B60C9E04023736106AD00236B61FB
S11345A020236B763023AB763C1C2378002B03D17D
S11345B0E21B029211D003E0252BF9D00134F4E779
S11345C00398311C3A1C029BFFF76EFF013000D1A7
S11345D0A6E06969029A8B186B612378002B00D1DD
S11345E09EE0012252426A606A4600235B32013433
S11345F02B60EB60AB601370AB654E4F2178381CB9
S1134600052202F045FA002807D0C71B2B680120B9
S1134610B840184328600134EFE72B68D90603D566
S11346206A4620215B3211701A0703D56A462B2192
S11346305B32117022782A2A01D0099B0EE0059A78
S1134640111D12680591002A01DB099204E052420F
S1134650EA60022213432B60013409E02278303AE5
S1134660092A04D80A214B4301349B18F6E709931D
S113467023782E2B18D163782A2B09D1059B023479
S11346801A1D1B680592002B0DDA01235B420AE018
S1134690013400232278303A092A04D80A214B43F2
S11346A001349B18F6E70793234F2178381C032223
S11346B002F0EEF9002806D0C71B2B684020B84052
S11346C018432860013421781C480622671C297687
S11346D002F0DEF9002812D0194B002B06D1059BFD
S11346E00722073393430833059314E005AB009383
S11346F00398291C321C134B00F0F6F907E005ABB4
S113470000930398291C321C0E4B00F08DFC04907E
S11347100499013104D06A69049953186B6143E721
S1134720B3895A0601D40B9801E0012040421FB01E
S1134730F0BDC046F89A0000FE9A0000029B0000FB
S1134740E94A0000A9440000936810B5013B936056
S1134750002B05DA9469A34208DBCBB20A2B05D0FF
S11347601368581C10601970C8B201E000F072FDA3
S113477010BDF8B5061C0F1C141CD518AC4208D08B
S11347802178301C3A1CFFF7DFFF0134431CF5D1BC
S113479000E00020F8BD0000F0B59FB0061C0F1C1F
S11347A003920593002804D08169002901D101F006
S11347B08DFD754B9F4201D1776808E0734B9F4292
S11347C001D1B76803E0724B9F4200D1F768BB89FF
S11347D01A070AD53B69002B07D006AD00236B618D
S11347E020236B763023AB763BE0301C391C00F081
S11347F089FD0028F1D001204042C2E0059A111D34
S113480012680591002A76DB0992013423782E2B55
S113481000D181E021785F48032202F039F90028B1
S113482007D05C492A68431A402098401043286006
S113483001342178631C584806220393297602F038
S113484027F9002800D18AE0544B002B7ED1059B28
S1134850072207339343083305936A69049953186D
S11348606B61039C2378002B04D10399611A029194
S113487010D003E0252BF8D00134F3E7301C391CA9
S1134880039A029BFFF775FF013075D06A6902999C
S113489053186B612378002B6ED0012252426A6058
S11348A06A4600235B3201342B60EB60AB6013700B
S11348B0AB6521783A48052202F0EAF8002808D0CE
S11348C0374A0134831A012098402B681843286022
S11348D0EFE72B68D90603D56A4620215B321170B5
S11348E01A0703D56A462B215B32117022782A2AD3
S11348F084D0099B05E05242EA60022213432B60F4
S113490083E72278303A092A04D80A214B43013438
S11349109B18F6E7099379E763782A2B09D1059B5D
S113492002341A1D1B680592002B0DDA01235B4229
S11349300AE0013400232278303A092A04D80A21F3
S11349404B4301349B18F6E7079363E705AB0093E9
S1134950301C291C3A1C134B00F0C6F807E005ABC9
S11349600093301C291C3A1C0E4B00F05DFB049094
S11349700499013100D070E7BB895A0600D53AE7A3
S11349800B981FB0F0BDC0464C9C00006C9C00000E
S11349908C9C0000FE9A0000029B0000E94A000083
S11349A0F89A000073470000F0B58BB0161C1C1C6D
S11349B0129904D580221206A4182D2300E00023A6
S11349C0149F0B7020239F43462F08D03A1C453A6E
S11349D051424A41109902238918109100E003239F
S11349E00093139B109A029308AB039309AB0192B3
S11349F00493321C231C00F083FD051C472F02D1B5
S1134A001199C9072CD5109969180791462F14D10B
S1134A102B78302B0CD1301C211C164B144A02F07D
S1134A20E3FE002804D1109A012313999B1A0B600A
S1134A30139A07991368C9180791301C211C0D4B50
S1134A400B4A02F0D1FE002801D0079A0992099B73
S1134A5007998B4204D25A1C099230221A70F6E745
S1134A60099B281C5A1B159B1A600BB0F0BDC0464D
S1134A700000000000000000F0B52B2385B0051CE9
S1134A800C1C0270861C002901DA4C422D236B7029
S1134A90092C1EDD6F460E37201C0A21019702F0F7
S1134AA087FE30313970201C0A2102F02BFE013FB1
S1134AB0041E092CF0DC019B3034013B1C706A4657
S1134AC00F32301C934209D21A7801333270013606
S1134AD0F5E73023E4183370B01C7470401B05B044
S1134AE0F0BD000000000000F0B593B00C1C0A9269
S1134AF00B93189E051C01F06DFF00680C90FEF7E7
S1134B00C1FD0023109333680722073393431A1C13
S1134B1008320D90277E186859683260A064E164F9
S1134B20FEF752FC012819D1A06CE16CB94BB84ACC
S1134B3002F060FE002803D0231C2D2243331A7098
S1134B40472F01D8B44E00E0B44E032320682361FC
S1134B500423984300212060099191E0A06CE16C4A
S1134B60FEF732FC236800280CD1472F01D8AC4E45
S1134B7000E0AC4E0322226104229343002223600E
S1134B8009927DE06268561C01D1062207E02021CB
S1134B90381C8843472803D1002A01D101226260CE
S1134BA08022D2001343236001936B463B3302936C
S1134BB00FAB6168039310AB059300230091069338
S1134BC00497A26CE36C281CFFF7EEFE20233A1C2A
S1134BD0061C9A430F99472A07D1CB1C02DB606855
S1134BE081422EDD023FFFB201E0652F12D8201C66
S1134BF001393A1C50300F91FFF73EFF109B09908A
S1134C00C2182261012B02DC2168C9072FD50132A9
S1134C1022612CE0662F15D16368002908DD21612B
S1134C20002B02D12268D2071DD50133C91811E027
S1134C30002B03D120680122104200D09A1C22616B
S1134C4011E06727109A914206DB22682161D2079E
S1134C5009D50131216106E00123002901DC022389
S1134C605B1AD31823610F9B0020A36509906B4640
S1134C703B331B78002B03D0231C2D2243331A70A3
S1134C800B99281C009111AA211C0A9B00F058F9C9
S1134C90013002D1012040424CE12268530504D482
S1134CA0281C0A99321C236967E0652F00D8E0E0CC
S1134CB0A06CE16C574B564A02F096FD00282BD0AD
S1134CC0281C0A99584A01230B9EB0470130E1D0B1
S1134CD00F9F1098874207DB2168C90704D427680F
S1134CE0BF0700D50EE113E1281C0A990C9A0D9B0D
S1134CF00B9EB0470130CDD00026109B013B9E4255
S1134D00EDDA221C281C0A991A3201230B9FB8479A
S1134D100130BFD00136F0E70F98002830DC281CA2
S1134D200A99414A01230B9FB8470130B2D00F982A
S1134D30002805D11099002902D12268D207CED5C6
S1134D40281C0A990C9A0D9B0B9FB8470130A1D0DF
S1134D5000270F980997099F43420A99281C9F42EC
S1134D6009DA221C1A3201230B9FB847013091D073
S1134D70099F0137EDE7109B321C0B9EB047B5E04D
S1134D80109FA36D08979F4200DD0893089F002F92
S1134D9001DC002714E0281C0A99321C089B0B9F95
S1134DA0B8470130F5D175E7221C281C0A991A323C
S1134DB001230B9FB847013000D16BE7099F0137EE
S1134DC00997089FA36DFA43D2173A40099F9A1A8C
S1134DD09742E9DB0F981099F318099388420EDB88
S1134DE02268D2070BD4109B0F9FF618DB1B099F78
S1134DF0F61B9E4200DD1E1C002E17DC1FE0281C43
S1134E000A990C9A0D9B0B9FB8470130EBD141E7EF
S1134E100000000000000000099B00000D9B000042
S1134E20119B0000159B0000199B0000281C0A9987
S1134E30099A331C0B9FB847013000D12AE7002799
S1134E400BE0221C281C0A991A3201230B9FB84735
S1134E50013000D11EE7099F0137099710980F9977
S1134E60F343DB17099F421A3340D31A9F42E8DB0E
S1134E7035E71098012802DC01231A423AD0281C95
S1134E800A99321C01230B9FB847013000D101E776
S1134E90281C0A990C9A0D9BB847013000D1F9E6F9
S1134EA0A06CE16C254B244A02F09EFC002801D042
S1134EB0002610E0109B721C013B281C0A991CE080
S1134EC0221C281C0A991A3201230B9FB84701306F
S1134ED000D1DFE60136109B013B9E42F0DB221C31
S1134EE0281C0A995032099B0B9FB847013000D007
S1134EF0F5E6CFE60A99281C321C0B9EB047013018
S1134F00EDD1C7E60026E0681199431A9E4205DBFD
S1134F10119BE06898420DDA181C0BE0221C281C37
S1134F200A99193201230B9FB847013000D1B1E629
S1134F300136E8E713B0F0BD0000000000000000F7
S1134F40F7B5151C01930A698B68061C0C1C934267
S1134F5000DA131C221C2B6043321278002A01D081
S1134F6001332B602068800602D52B6802332B6046
S1134F70216806270F401FD0231C43331B785A1E79
S1134F809341226892061FD5E11840313020C87041
S1134F90211C5A1C45310978A21840320233D170C1
S1134FA012E0221C301C019919320123089FB847D2
S1134FB0013011D0009F01370097E0682968009FF5
S1134FC0431A9F42EDDBD7E7221C301C0199433280
S1134FD0089FB847013002D10120404223E02068F5
S1134FE006212B68E26801400025042903D1D51A63
S1134FF0EB43DB171D40A26823699A4201DDD31AF3
S1135000ED1800270097009FAF420BDA221C301CDA
S113501001991A320123089FB8470130DCD0009F60
S11350200137EFE70020FEBDF0B50D1C8BB0433512
S113503006920590079304950B7E0C1C109A6E2B18
S113504000D1A7E011D8632B22D009D8002B00D1BE
S1135050B0E0582B00D0C0E045310B707B4D4EE0E2
S1135060642B1CD0692B1AD0B7E0732B00D1A5E0B8
S113507009D86F2B29D0702B00D0AEE00E68202306
S113508033430B6036E0752B1FD0782B32D0A4E06D
S113509013680D1C191D423511601B689FE02168BF
S11350A013680E0603D5191D11601E6805E0480635
S11350B0F9D5191D116000215E5E644B002E3BDAA8
S11350C0049D2D2276422A7036E0216813680E066C
S11350D003D5191D11601E6804E04806F9D5191D91
S11350E01E881160594B227E039308276F2A1ED015
S11350F00A271CE0231C78214533554D197011688B
S11351002368081D039510601E0601D50E6802E091
S11351105806FBD50E88D90702D5202213432360F5
S11351201027002E03D1226820239A432260231CD7
S1135130002243331A7001E003930A276368A360D3
S1135140002B03DB2568042295432560002E02D141
S1135150049D002B0ED0049D301C391C02F0C8FAAB
S11351600398013D435C301C2B70391C02F07CFA1F
S1135170061EF1D1082F09D12168C90706D5626836
S113518023699A4202DC013D30232B70049E731B79
S113519023612AE0086813684969050604D5181DC7
S11351A010601B68196005E04606F8D5181D1060EC
S11351B01B68198000232361049D16E01368191DE0
S11351C011601D68281CFEF75DFA6368206198422F
S11351D000D923612069606004E0251C42352B70EE
S11351E001232361049E00233370079E05980096D3
S11351F0211C09AA069BFFF7A3FE013002D101205E
S1135200404221E02A1C059806992369079DA84776
S11352100130F4D02668B60705D4099BE0689842AB
S113522012DA181C10E00025E0680999431A9D421F
S1135230F3DA221C0598069919320123079EB04718
S11352400130DCD00135EFE70BB0F0BD1B9B000053
S11352502C9B000070B5051C0E1C141C002804D0E7
S11352608269002A01D101F031F8234B9C4201D11B
S11352706C6808E0214B9C4201D1AC6803E0204BF0
S11352809C4200D1EC68A369A360A3891A070AD5DC
S11352902369002B07D022682369F6B2D01A626909
S11352A090420FDB08E0281C211C00F02BF800289A
S11352B0F1D0012040421DE0281C211C00F086FF93
S11352C00028F6D1A3680130013BA36023685A1C6F
S11352D022601E706369984205D0A389301CDA07E6
S11352E008D50A2E06D1281C211C00F06FFF0028C7
S11352F0DFD1301C70BDC0464C9C00006C9C00008B
S11353008C9C0000344B70B51D68061C0C1C002DD1
S113531005D0A969002902D1281C00F0D7FF2F4B22
S11353209C4201D16C6808E02D4B9C4201D1AC68D1
S113533003E02C4B9C4200D1EC68A28993B219077C
S113534021D4D90605D40923336040231A43A2810A
S11353503FE05A0713D5616B002908D0231C44335E
S1135360994202D0301C01F0C3FF00236363A38978
S113537024229343A3810023636023692360A389C8
S113538008221343A381216900290BD1A389A022F8
S113539092001A4080239B009A4203D0301C211CA7
S11353A001F01CFBA38901221A4005D06169002287
S11353B0A2604A42A26103E0990700D46269A26034
S11353C022690020824206D1190604D540221343E3
S11353D0A3810120404270BD700000204C9C00005D
S11353E06C9C00008C9C0000F0B589B006910B69A0
S11353F00169051C002699427FDB069C5F1E14345C
S113540004940499BC000919021C0B681432059118
S11354101419191C01312068039202F025F9029035
S1135420B04238D00499039B8C4601960796624695
S113543004329446043A40CA0299B0B24843310C4B
S1135440029E019A71431018020C51180A0C019221
S11354501A6880B296B2079A89B2B618301A1E68D2
S1135460320C521A06149219111480B21204059EB9
S11354701043079101C36645D9D2216800290AD196
S1135480039E043CB44201D82F6104E02168002942
S1135490FAD1013FF4E7281C069901F071FD0028B8
S11354A02ADB029C039A0134049B029400241168B1
S11354B040CB88B200191468B1B2401A360C210CE2
S11354C0891B041409190C1480B20904059E0143B4
S11354D002C29E42EBD2039CBB00E3181E68002E5E
S11354E00AD1039C043BA34201D82F6104E01E6847
S11354F0002EFAD1013FF4E7029E301C09B0F0BD42
S1135500F0B5446A9BB00790239D04920593002C48
S113551008D1102001F0B2FA07994862446084600F
S11355200460C460079C636A196800290AD05B6838
S113553001229A404B608A60201C01F005FB636ADB
S113554000221A600598002805DA01232B60430025
S11355505B08059301E000232B60059EBE4B321CC3
S11355601A409A4218D1BD4B229C049D2360002D01
S113557001D1360301D0BA4800E0BA48249C002C7B
S113558001D100F093FDC278C31C002A00D005337A
S1135590249D2B6000F08AFD049C059DA54BA44A24
S11355A0201C291C02F020F9071E0CD0229C249DEB
S11355B001232360002D01D100F075FDAA48286065
S11355C0013800F073FD19AB009318AB01930798F1
S11355D02B1C221C01F0CAFD73000A905B0D09D03C
S11355E0201CA24C2A03120B211C1143A04A16971B
S11355F09E181BE0189B199C1D199E4B9D4209DBAC
S11356009D49049A9D4B6818C2405B1B101C9E4028
S1135610304304E09A48049B401B8340181C03F069
S113562015FF984C6E1E012509191695824A834B65
S113563003F066FB824A834B03F0D2F8824A834B21
S113564002F042F9041C301C0D1C03F0C1FE804A18
S1135650804B03F0C5F8021C0B1C201C291C02F013
S113566033F9041C0D1C03F07FFE724B704A069044
S1135670291C201C02F0BEF800280DD0069803F067
S1135680A7FE0B1C021C291C201C02F0ADF8069C72
S113569043424341E41A0694069C01251395162CB3
S11356A010D8794AE300D31818685968049A059BFE
S11356B002F0B4F8002804D0013C002506941395A8
S11356C000E0139018980024861B351C0294013DB9
S11356D0099504D5099C0025644202940995069C09
S11356E0002C06DB099D12942D19002409950D94B4
S11356F007E0069C029D2D1B0295654200240D9532
S11357001294209D0124092D24D8052D02DD043D89
S11357102095002420980238032823D801F09AFF0A
S1135720060E0204012502E0012508E0002510957B
S1135730219D002D1FDD0C95089509E0002510958D
S11357400698219D2D180C9501350895002D18DD1E
S11357502B1C17E0634200250C93089320951094AA
S1135760122306E001256B4210950C930893002543
S11357701223219506E001250C9508952B1C2195F3
S113578000E0012307980022456A6A600422101C85
S113579014306968984203D8013169605200F6E711
S11357A0079801F099F92860079D6B6A089D1B68AA
S11357B00B930E2D00D987E1002C00D184E1049CC9
S11357C0059D14941595069D002D61DD2A1C0F235B
S11357D01A402D49D2008A18146855680E940F9502
S11357E0069D2A4C2F110225F80617D51F40149840
S11357F01599226A636A02F089FB032504900591D6
S11358000CE0F90708D50E980F992268636802F036
S1135810E7FF0E900F9101357F100834002FF0D16F
S1135820049805990E9A0F9B02F070FB4EE0C04657
S11358300000000000000000000000000000F83F2D
S113584061436F63A787D23FB3C8608B288AC63F82
S1135850FB799F501344D33F0000F07F0F270000D3
S1135860479C00003E9C00001A9B00000000F03F93
S113587001FCFFFFEFFBFFFF120400000EFCFFFF23
S1135880EEFBFFFF000010FEB89C0000809D0000AE
S1135890069C02256742002F1AD00F233B40CC4AB6
S11358A0DB00D318149815991A685B6802F098FF06
S11358B0C84E3F11002F09D0FA0704D53268736827
S11358C0013502F08DFF7F100836F3E7049005914F
S11358D0139C002C1ED0049E059FB44BB24A301C6E
S11358E0391C01F087FF002814D0089C002C11D02B
S11358F00C9C002C00DCE3E0069C301C013C391CB1
S1135900AB4AAC4B119402F06BFF01350490059146
S11359100C9C02E0069C1194089C281C049E059F84
S11359200E9403F055FD321C3B1C02F059FFA24AB1
S1135930A24B01F0C9FF041CA74808180E99049053
S1135940051C00291BD19E4A9E4B301C391C03F0B8
S1135950D7F9221C049B061C0F1C01F05FFF0028D2
S113596000D05CE2221C8025049C2D06301C391CCE
S1135970631901F03FFF002800D047E2A0E00E9A2F
S1135980934B013A1098D2009B18002849D01A680A
S11359905B688D488D4902F0B9FA2B1C221C03F078
S11359A0AFF9049005910B9D391C301C03F0DCFC0D
S11359B0041C03F00DFD021C0B1C301C391C03F0ED
S11359C09FF901356B1E30341C70049A059B061C2C
S11359D00F1C01F00FFF002800D053E3321C3B1CC6
S11359E07249714803F08CF9049A059B01F002FF97
S11359F0002800D0CBE00B9C2B1B0E9CA3425FDA4B
S1135A00049805996A4A6B4B02F0EAFE684A694BAE
S1135A1004900591301C391C02F0E2FE061C0F1C98
S1135A20C2E718685968221C2B1C02F0D9FE0B9C93
S1135A300E9D0490059165191795391C301C03F0CF
S1135A4093FC051C03F0C4FC021C0B1C301C391C09
S1135A5003F056F930352570179D0134061C0F1CD0
S1135A60AC4226D10E980B9C574A584B25180498E3
S1135A70059901F029FF021C0B1C301C391C01F094
S1135A80CDFE002800D082E0049A059B4E484F4981
S1135A9003F036F9021C0B1C301C391C01F0AAFE61
S1135AA000280DD06B1E1A78302A00D0EAE21D1CA3
S1135AB0F8E73F4A3F4B02F093FE061C0F1CBCE77D
S1135AC0149C159D04940595199B002B00DA9FE006
S1135AD0069D0E2D00DD9BE03D4AEB00D3181C68AB
S1135AE05D6802940395219D002D14DA089C002C16
S1135AF011DC00D08CE1324A324B0298039902F057
S1135B006FFE049A059B01F093FE089F3E1C00283B
S1135B1000D07FE187E10B9D049E059F029A039BC1
S1135B20301C391C02F0F2F903F01EFC041C03F0D3
S1135B304FFC029A039B02F053FE021C0B1C301C08
S1135B40391C03F0DDF80135021C201C30300B1C1D
S1135B50691E08700B98291A0898814248D1101CB4
S1135B60191C01F0B1FE029A039B061C0F1C01F0E4
S1135B7055FE00280DD1301C391C029A039B01F0FC
S1135B8033FE002800D17FE2E10702D47CE2119CBD
S1135B9006946B1E1A78392A26D10B9CA3421DD079
S1135BA01D1CF6E7C046C046000000000000F03FA0
S1135BB000000000000024400000000000001C4021
S1135BC00000000000001440000000000000E03F5E
S1135BD0B89C0000809D00000000C0FC069C3022A0
S1135BE0013406940B9C22701A7801321A704BE22D
S1135BF0101C191CC94BC84A02F0F2FDC84AC94B13
S1135C00061C0F1C01F0F0FD002800D186E73BE2E2
S1135C10109D002D31D0209C012C0BDC169D002DF5
S1135C2002D0C1481B1802E0189936235B1A0D9D57
S1135C30029C16E0089D0D9C013DAC4201DB651BF6
S1135C4006E00D9C0D952B1B129C0025E418129464
S1135C50089C002C03DA02980023041B01E0029C38
S1135C60089B0299099AC9180291D2180798012130
S1135C70099201F049F8061C02E00D9D029C109E59
S1135C80002C0CD0099B002B09DDA34200DD231C52
S1135C9002980999C01AC91A0290E41A09910D9A36
S1135CA0002A21DD109B002B18D0002D10DD311CA3
S1135CB02A1C079801F0C0F8061C311C0A9A0798A0
S1135CC001F02BF80A99071C079800F03DFF0A978A
S1135CD00D98421B08D007980A9902E007980A9980
S1135CE00D9A01F0A9F80A900798012101F00CF827
