S0100000746573745F7370692E73726563A9
S1130000D84400202D3B0000293B0000293B000080
S113001000000000000000000000000000000000DC
S1130020000000000000000000000000293B000068
S11300300000000000000000293B0000293B0000F4
S1130040293B0000293B0000293B000091090000E6
S1130050293B0000293B0000293B0000293B00000C
S1130060293B0000B5250000C5250000D52500006A
S1130070E52500000000000000000000293B00000E
S1130080293B0000293B0000F13500000136000047
S1130090113600000000000000000000E51D000013
S11300A0293B0000293B0000293B0000293B0000BC
S11300B010B5064C2378002B07D1054B002B02D03A
S11300C0044800E000BF0123237010BDB0000020ED
S11300D0000000005CBC000008B5084B002B03D0F6
S11300E00748084900E000BF07480368002B03D015
S11300F0064B002B00D0984708BDC0460000000006
S11301005CBC0000B40000205CBC000000000000E7
S1130110F0B55F4656464D464446F0B485B058495E
S113012088464C690F6A0888564EB047564D211CC4
S1130130A847564C391CA047414688608B699946AC
S11301404F6A4888B0474946A847391CA0474146EA
S1130150C860CB6999468F6A8888B0474946A847E2
S1130160391CA047041C41460861494B9A46C8689B
S113017098470090019141468868D047061C0F1C9F
S1130180201CD047041C0D1C424B9946221C2B1CDE
S1130190C8470290039140498B46201C291C221C0D
S11301A02B1CC847041C0D1C301C391C321C3B1C66
S11301B0C847021C0B1C201C291CD847374CA047DD
S11301C0021C0B1C00980199354CA047354CA047E4
S11301D0284B274AC847284A284B314CA047324C61
S11301E0A0474146C8628868D047009001914346C1
S11301F0D868D047061C0F1C44462069D047041C0D
S11302000D1C301C391C321C3B1CC8470290039146
S1130210301C391C321C3B1CC847061C0F1C201CFC
S1130220291C221C2B1CC847021C0B1C301C391C0B
S1130230D8471A4CA047021C0B1C00980199184C73
S1130240A047184CA0470B4B094AC8470A4A0B4B16
S1130250134CA047144CA0474146086305B03CBC6E
S113026090469946A246AB46F0BDC046C046C0463D
S1130270000000000080664000000060FB2109408F
S11302800406002041060000CD8E0000B188000065
S11302903DAF000069A20000519300001941000025
S11302A095990000C13D0000E1AF0000C046C04682
S11302B0F0B55F4656464D464446F0B49DB0061C24
S11302C088464548454FB8474548464B98474046B9
S11302D0454DA8474548B847454B9B469847404637
S11302E0A8477088434CA047B061B088A047F0612C
S11302F03088A0470A904048B847D8474046A847A6
S11303003088A0477061B088A0473C4B9A46F16999
S113031098473B4B9946FC2189059847F0617088C2
S1130320A0470B903748B847D8474046A84730887D
S1130330A0477169D047FC218905C847706170885E
S1130340A047B169D047FC218905C847B061B0888E
S1130350A047051C2C4C0A987169A04730620B9881
S1130360B169A0477062281CF169A047B0620DAC66
S1130370AA23237068463530311C3422234B984716
S11303800020211C224B9847224B9847224B984629
S113039070699847041C0D1C306AC0470090019195
S11303A0B069C04702900391706AC04704900591F8
S11303B0F069C04706900791B06AC0470890099158
S11303C01648221C2B1CB8471DB03CBC90469946CD
S11303D0A246AB46F0BDC04634B100009D440000C7
S11303E0003C1C4659150000090A000080B10000B9
S11303F0E909000041060000D4B10000D9850000DD
S1130400798C00000CB20000CD8E0000794400000D
S113041091390000653900003DAF00004CB2000086
S113042010B5074B9847162803D1064C0120A04766
S1130430FCE7002803D0044B9847014B984710BDB4
S113044041370000FD14000021380000F0B55F467C
S113045056464D464446F0B4A9B0071C4F4B984746
S1130460C8204F4B984719AC0020211C4D4B98478E
S11304702478A3460CA86946653134224A4B984730
S11304806B46793319785A7812020A439978090429
S11304900A43DB781B0613439A466B467D3319786F
S11304A05A7812020A43997809040A43DB781B0636
S11304B0134398466B4681331A785D782D021543B1
S11304C09A7812041543DB781B061D436B4685336B
S11304D019785A7812020A43997809040A43DB7896
S11304E01B06134399466B4689331A785E783602A5
S11304F016439A7812041643DB781B061E436B4698
S11305008D331A785C78240214439A7812041443C5
S1130510DB781B061C435B46AA2B34D1381C234BC7
S1130520984700282FD153461193434612931395AD
S11305304B461493159616941D480CA934221A4B55
S113054098471C4F5046B8470A900B914846B84705
S1130550009001914046B84702900391301CB8477F
S113056004900591281CB84706900791201CB847B1
S11305700890099110480A9A0B9B10498847052056
S11305800F4B984703E00A48391C0E4B984729B093
S11305903CBC90469946A246AB46F0BD21040000FF
S11305A039190000FD38000079440000ED0900000D
S11305B0040600203DAF0000A0B200009D440000EE
S11305C0FD140000B102000010B5144C2278144B45
S11305D01B68920013490888D35898472078013043
S11305E0C0B2114B1978114B9847C9B22170104B06
S11305F0595C104B1B685A7E52B2002AFBDB1A6905
S11306001F2082430A431A615A7E52B2002AFBDB3E
S1130610084804490122084B984710BDCC0000202B
S1130620980A0020000200200000002059830000E6
S113063030B30000780A0020B51E0000000000005E
S113064010B5094B98470949094B9847094B9847F6
S1130650044B034A084CA047084B984710BDC046BA
S11306606666666666660A40B192000000FF7F47D0
S1130670B18800003DAF000069A20000E1AF0000B6
S1130680F0B58FB0051C0E1C02AC201C324B9847F1
S11306900023A360E022D2006280032262702373ED
S11306A0102323712D4F381C2D49221C2D4B9847A4
S11306B03B685A7E52B2002AFBDB802109042A4A95
S11306C01160197802220A431A70244B1A68537E67
S11306D05BB2002BFBDB214C201C24490022244B61
S11306E09847E27E01231343E37601A900224A706E
S11306F0CA708A7001220A7003201E4B9847032D8A
S113070013D002D8022D16D01BE0042D07D0052DDE
S113071017D101A901230B700420164B984701A996
S113072001230B700620134B984701A901230B707A
S11307300520104B984701A901230B7004200D4B91
S113074098470D4B1D700D4B1E6004480C49012247
S11307500C4B98470FB0F0BD65190000780A0020D3
S113076000400042AD19000000E100E0C9050000AE
S1130770A11E00005932000000000020980A002049
S113078000020020B51E000010B5CA88C388D21A22
S113079092060C7964044B799B0523438C782403DB
S11307A0234313430279002A05D1CA78002A02D0D0
S11307B0802252021343487880010A781043184378
S11307C010BDC04610B58C0EC388E318D3808B01CE
S11307D01B0F53718B02DB0E13710379002B03D0B3
S11307E0CB03DB0E937005E00B041B0F9370CB035C
S11307F0DB0FD3700B059B0E53703F231940117010
S113080010BDC04610B50268082480230B49CC50A3
S113081001688B7A5BB2002BFBDB138802218B43CC
S1130820138000230374437401688B7A5BB2002B3A
S1130830FBDB118801230B43138010BD00E100E0B2
S113084010B50468034B9847A37A5BB2002BFBDB1B
S1130850206110BD8907000070B50E1C141C0568CA
S11308601723012A0DD8084B9847AB7A5BB2002BAB
S1130870FBDBE4002D19A861327A0023062A00D894
S11308802A77181C70BDC0468907000030B583B0B4
S1130890041C151C01601C4B996920220A439A61AF
S11308A001A902230B700420184B98470420184B0D
S11308B09847201C174B98472B792371EB78637169
S11308C0EB88E380144B1C6023682A88297900296B
S11308D002D008210A4301E048210A43A9780029EB
S11308E001D080210A431A80EA78002A04D059886A
S11308F08022D2010A435A80291C0831201C00227C
S1130900064B984703B030BD000400407D31000021
S1130910F130000005080000F40A00205908000026
S113092038B50C1C01681723012A08D8D2008D1889
S1130930A969221C034B98472B7F23720023181CA0
S113094038BDC046C5070000012A01D917200AE0B6
S1130950931C9B001950037C012191400A1C1A43EB
S1130960D2B202740020704710B50368012902D185
S11309708022DA7104E001228A4001242240DA71E3
S1130980437C01228A40111C1943C9B2417410BD31
S113099010B50E4B1B681C685A7C197C081C10404F
S11309A0227AE1790A40D10906D0810701D5DB68B2
S11309B098478023237207E0D10705D5C20701D5E4
S11309C09B6898470123237210BDC046F40A002097
S11309D082B000226B46DA7102B070477047C0469D
S11309E07047C0467047C0467047C046031C007835
S11309F0C0B2002806D05A78002A02D101225A70C7
S1130A0000E000207047C04638B5051C024C281C85
S1130A10A0470028FBD038BDED09000084B0F0B534
S1130A2005900691079208930B990D4D4C5B60005D
S1130A300019C00008181030031C05AAC1CAC1C39C
S1130A40C1CAC1C30134A4B24C53064BCB5AA3420E
S1130A5001D100224A53F0BC08BC04B01847C04678
S1130A60FA170000F817000030B58BB004AB0C4A3D
S1130A7090681169059154690694D26907920E220F
S1130A801A74084A0992084A029208AA694630CAA6
S1130A9030C10599069A079B044CA0470BB030BDA2
S1130AA0BC0A0020A4700D40100C00201D0A000098
S1130AB0F0B583B000AF041C2E21174B9847061BDA
S1130AC0F31DDB08DB006A46D21A9546811E381CEA
S1130AD00722124DA847B21E6846211CA847684643
S1130AE00F4EB047041C0D1C381CB047094B084A74
S1130AF00C4EB047021C0B1C201C291C0A4CA0479E
S1130B000A4B9847BD4603B0F0BDC046C046C04638
S1130B100000000000004E40F14500002B4600009C
S1130B20094400009599000051930000E1AF0000D2
S1130B3082B06B46D871024A024B5A6002B07047C9
S1130B4068B300005C0B002070B586B00C1C6B46CB
S1130B50D871D9790733C9B26A46D1751B78DBB22B
S1130B60D375201C2C213E4B984700286ED00025BD
S1130B703C4E66E019781170013301328342F9D199
S1130B80011B041C00E00021002202AB5A540B2D6F
S1130B904ED8AB00F3589F4602A8334B9847334BCB
S1130BA0986045E002AB1A78304B1A7340E02F4B43
S1130BB01B7B562B05D002A82D4B98472B4B186155
S1130BC036E00022294B1A6132E002AB1A78274B37
S1130BD01A762DE0254B1B7B562B05D002A8244BFF
S1130BE09847224B586123E00022204B5A611FE0B2
S1130BF002AB1A781D4B5A761AE002A81D4B98478F
S1130C001D4B9847194BD86112E002A8194B98471D
S1130C10194B9847154B18620AE002A812498847F5
S1130C20124B586204E002AB1A7828230F49CA54C5
S1130C3001340135EDB2201C2C21094B98470028C2
S1130C4004D084429FD202AA231C93E7074B1B7B48
S1130C50412B02D109480A4B984706B070BDC046E3
S1130C60F145000034B3000013440000BC0A002026
S1130C70B10A000009440000E1AF0000100C00209C
S1130C80690A000038B50D4D0D4C281C211C0022AA
S1130C900C4B98470723237220780130C0B23C21C3
S1130CA0094B98472170281C211C0022074B9847A8
S1130CB0074B1B68002B00D0984738BD4424002004
S1130CC0D0000020210900005983000059080000C9
S1130CD05824002010B586B001AAA0231B0113805C
S1130CE000239370D3701371FA21C900D18003A833
S1130CF0037068464373684683736846C37301236D
S1130D0004A80370684643746B465982062313741F
S1130D10094C201C09490A4B984721680822094BB1
S1130D201A602268937A5BB2002BFBDB0A880223E9
S1130D3013430B8006B010BD44240020001400406F
S1130D408D08000000E100E010B5064B1860064C69
S1130D50201C06490022064B9847201C0021054B05
S1130D60984710BD5824002044240020850C00001E
S1130D70490900006909000070B586B00D1C04AC77
S1130D80002323706370A370E370012626710C4B5B
S1130D90E3800A2363710B4B9847281C0A4B98473E
S1130DA00A4D281C211C0A4B984701A90B1C05CC91
S1130DB005C30E72281C0022064B984706B070BD6E
S1130DC0DF070000D50C0000490D0000442400207A
S1130DD041080000590800007047C04608B5104B90
S1130DE01B780A2B0AD180230E4AD35C012B11D91C
S1130DF00021D15401218123D1540BE0084B1B78ED
S1130E000D2B07D0074B8022995C05480078585475
S1130E1001319954044802490122044B984708BD02
S1130E20280B00208C0B0020102400206D2A0000C9
S1130E3070B582B0051C0E1C00226B46DA80064C8D
S1130E40281C69460631A0470028F9D16B460633B1
S1130E501B88337002B070BD8D29000070B5061C6C
S1130E600D1C034C301C291CA0470028FAD170BD6E
S1130E706129000070B584B06C4600900191029223
S1130E80054A111C61CC61C10B6004480099044BF4
S1130E90984704B070BDC0465C0B002074B30000DA
S1130EA09D44000070B582B000226B46DA71244E76
S1130EB08023F35C6C46A371224B5D68281C224B93
S1130EC09847C0B26B46607162790533D2B2B15CA7
S1130ED001AA1170A2791B78D2B29A4205D96B4645
S1130EE005331B78DBB20021F1541548291C174B3C
S1130EF09847002802D101226B46DA716B4605330C
S1130F001B78DBB201AA11780D4AD1540D4B1B7A20
S1130F10002B06D06B46D879C0B20A4BDB68111C93
S1130F209847074800238122835480228354002158
S1130F30074B98476B46D879C0B202B070BDC04623
S1130F408C0B00205C0B00201D46000009460000AD
S1130F508B440000F0B583B0051C6B460022DA8098
S1130F6006331B889BB298421CD981230F4AD35C59
S1130F70012B07D103E08123FB5C012B06D10C4B31
S1130F80984710E00B4E6C460634084F0120B047DA
S1130F90238801339BB2238023889BB2AB42EAD3DC
S1130FA0002000E0002003B0F0BDC0468C0B002000
S1130FB0A50E00003919000070B50E4D80263605C7
S1130FC06E610D480D4CA047AE616420A0476E6170
S1130FD0FA200001A047AE61094B186859689A6865
S1130FE0DB68084DA847FA204000074B9847C82003
S1130FF0A04770BD00440041B80B0000391900003F
S11310003C0B0020750E0000550F0000F0B557464C
S11310104E464546E0B486B06B460022DA7501219F
S1131020D97501AB404902911A7291463F4B9A46D9
S11310303F4D404C50460299039A049BA847FA231B
S11310405B009846181CA047C8277F00381C3A4EFE
S1131050B0473A480299039A049BA8474046A047E0
S1131060381CB04736480299039A049BA847FA26CD
S1131070F600301CA04733480299039A049BA84702
S1131080301CA047002802D100226B46DA752E4896
S11310900299039A049B264EB047FA20C000254BC0
S11310A09847002802D100226B46DA752748029936
S11310B0039A049B1E4EB047FA20C0001D4B98476C
S11310C0002802D100226B46DA752148019002996A
S11310D0039A049B164EB047FA20C000154B98475C
S11310E0002802D100226B46DA756B4617331B7851
S11310F0002B0DD14B46022B01D9164B98470122E8
S11311006B46DA754B460133DBB29946124B98476E
S11311106B4617331B78002B8CD006B01CBC904652
S11311209946A246F0BDC04664B300007CB30000FB
S1131130750E0000550F0000391900009CB3000023
S1131140C4B30000D0B30000E4B30000FCB300005B
S113115044B40000D1090000B90F0000F0B587B015
S113116001226B46DA7501AC134902910023237204
S11311701248039A049B124FB847124E301C124D6A
S1131180A847FA20C000114B9847114801906168A4
S1131190A268E368B847301CA847002802D100229F
S11311A06B46DA75FA204000084B98476B46D87DA9
S11311B0C0B207B0F0BDC04664B3000060B4000024
S11311C0750E000010270000550F000039190000AB
S11311D070B4000070B590B08023DB050093002349
S11311E00193FF226846028100228372C372962112
S11311F089010891012124206C4621542520215481
S113120026216354272163540A93882149030391B7
S11312102C2163542D21635405932382E376227693
S1131220227762761323A37662771F4B0C931F4BAE
S11312300D9301235B420E930F931D4E1D4D1E4CC7
S1131240301C291C6A46A0470028F9D1184C1B4BB6
S11312501C601B4A1B4B1A601B4A1C4B1A60201C47
S113126014496A46144B9847194E3368986800210C
S1131270184DA847336858680021A8472568281CDA
S1131280154B98471F23184001238340181C134B08
S113129018602268D369002BFCD12A680223134307
S11312A02B6010B070BDC04602000A0002000900A5
S11312B0102400200008004269260000CC240020ED
S11312C05D0E0000C8240020310E0000C42400205C
S11312D070000020D14400008925000000E100E0F6
S11312E010B5064C201C06490022064B98473123B2
S11312F0E15C03220A43E25410BDC04610240020DE
S1131300D90D0000552A000010B51949194B0B607E
S1131310194B4B6000220A721849194808604B6047
S11313200A721849184808604B600A72174918482D
S113133008604B600A721749174808600120087258
S1131340164C4C60164CCC601649174C0C600A7253
S1131350164C4C601649174C0C6008724B601648CA
S1131360C8601649164808600A724B6010BDC04632
S11313704C0B002080B4000064B30000F80A002085
S113138088B400003C0B002090B400007C0B0020CB
S1131390A0B40000180B0020B0B40000C0B40000DA
S11313A0490B0000080B0020CCB40000DCB40000A2
S11313B02C0B0020E8B40000310B00006C0B002063
S11313C0F8B4000070B5374901244C7000238B70C9
S11313D00C701B20344B984780221205334B9A61C2
S11313E0334B9847334B9847334B9847334B1C70D8
S11313F0BFF35F8F62B6324C201C32490122324B5C
S11314009847201C31490122314B9847314B1868C9
S113141059689A68DB68304CA047FA2040002F4B8B
S1131420984700280AD1C82040002D4EB0471F4CD1
S113143080252D0565612B48B047A561204C3125D9
S1131440635D022293436355274B186859689A6871
S1131450DB68214EB047C8204000214B9847234BFE
S1131460186859689A68DB68B047625D02231343C1
S11314706355201C15490122154B9847FA256D0028
S1131480281C164CA0471A4B186859689A68DB68E0
S1131490B047281CA047174D174CA847A047002861
S11314A0FBD070BDEC0A0020AD21000000440041D7
S11314B0D5110000E1120000091300000C00002007
S11314C010240020DD0D0000552A0000280B002008
S11314D06D2A00006C0B0020750E0000550F0000F3
S11314E039190000701700004C0B0020F80A002086
S11314F03C0B00200D1000005D110000134B002276
S11315001A705A709A7005281ED88000104B1B5808
S11315109F46FF220D4B1A7016E0FF220B4B5A70A8
S113152012E0FF22094B9A700EE0084BFF221A705A
S11315309A7009E0054BFF225A701A7004E0034BBD
S11315406F225A701A709A707047C0469424002013
S1131550FCB4000000000000F0B55F4656464D465E
S11315604446F0B483B0041C0021A14B98470028E2
S113157002D080231B06E418201C9E4B9847061CAF
S11315800F1C964B944A9C4DA847002835D0201C2C
S11315909A4B984780469A4C9A4D9B4B9946FA2110
S11315A089009847994F0A21B847C8B2984E0A2132
S11315B0B047C9B26B5C237040466421C8470A2116
S11315C0B847C8B20A21B047C9B26B5C63704046E1
S11315D00A21C8470A21B847C8B20A21B047C9B28C
S11315E06B5CA37040460A21B847C8B20A21B047D1
S11315F0C9B26B5C803BE370DEE0301C391C784A76
S1131600784B7D4DA84700283CD0201C7B4B984745
S113161080467B4D7B4E7C4B9A46642198477B4B9E
S113162099460A219847C8B2794F0A21B847C9B2E6
S1131630735C2B7040460A21D0470A21C847C8B2C0
S11316400A21B847C9B2735C6B7040460A21C84787
S1131650C8B20A21B847C9B2735C803BAB7040463C
S11316606C4B9847011C201C6B4B98476B496C4B87
S113167098476C4B9847C0B20A21B847C9B2735C0B
S1131680EB7099E0301C391C574A584B5A4DA84707
S1131690002847D0594B9B46201C98478046584DFC
S11316A0584E0A21584B9847584B99460A21984757
S11316B0C8B2574F0A21B847C9B2735C2B70404671
S11316C00A21C847C8B20A21B847C9B2735C803B33
S11316D06B70504B9A4640469847011C4E4B9946B6
S11316E0201C98474E4B98464C4998474D4B984779
S11316F0C0B20A21B847C9B2735CAB70201C474919
S1131700C047041CD847D047011C201CC847434984
S1131710C047444B9847C0B20A21B847C9B2735C6A
S1131720EB7049E0354B9A46201C9847051C344E13
S1131730344FC0B2364B98460A219847C9B27B5CF5
S1131740803B3370334B9946281C9847011C201C5E
S1131750314B9847324D3149A847324B9B46984705
S1131760C0B20A21C047C9B27B5C7370201C2B49EC
S1131770A8470190D047C847011C0198264B9847B9
S11317802649A847D847C0B20A21C047C9B27B5CE2
S1131790B370201C2449A847041CD047C847011C27
S11317A0201C1D4B98471D49A847D847C0B20A21A1
S11317B0C047C9B27B5CF3701C4B1B78DBB20F2BA8
S11317C002D81022194B1A7003B03CBC90469946BB
S11317D0A246AB46F0BDC04652B81E85EB3F8F40D3
S11317E08FC2F5285CFF5840736891ED7CFF23405D
S11317F0D18400003DAF000085840000B991000051
S11318009824002014B500006D83000019840000A2
S113181059830000F9910000CD8E000000002041A2
S1131820798C0000658500000000C842A0240020D7
S113183010B58EB001AA0023002113709371002407
S1131840138154709172D172117391735173117425
S11318505361936111771362536253859385042313
S11318609370A023DB0093802A23D0542923D054DF
S11318702823D454074C201C0749084B9847226856
S11318807F21D37B8B43FCD1118802230B4313802C
S11318900EB010BD78240020002C0042ED32000070
S11318A008B5FF20014B984708BDC0463118000019
S11318B010B5011C0C4C201C00220C4B98472068CE
S11318C00B4B98470B4B1B5C1F21194001231A1C1F
S11318D08A40111C084A1160617E01220A43627623
S11318E02268537310BDC04678240020613500007F
S11318F0B532000020B5000000E100E010B5002082
S1131900084B9847084CFA218900A047074B1860F8
S1131910FA218900A047064B18600522054B1A607E
S113192010BDC04665300000D182000008000020D0
S11319300400002010E000E030B5084B1C68084AA1
S113194000258021490206E0002C04D054609560F3
S113195013680B42FCD00138F6D230BD08000020D9
S113196010E000E010B50022002302704270002154
S11319704280017103760262C26182600373C024F3
S11319806401C481037443748374C37403752A2487
S113199003554375837524240355C2840285C17598
S11319A02B23C1542C23C15410BDC046F0B55F464F
S11319B056464D464446F0B499B0061C141C0160CA
S11319C0BC4B186A8022520202431A620B7805202B
S11319D0DA0700D5F6E10B781C20990700D5F1E170
S11319E063783371002B00D0DCE1B34B196C042213
S11319F00A431A64D6E1237D002B02D101237377B5
S1131A0001E00023737732680192237868460372F9
S1131A101E2002A9A94B98471E20A94B98472C23A6
S1131A20E35C002B42D02B22A55C217B88464A191B
S1131A30D2B2D318DBB299469A4221D2A14A934634
S1131A40A14B9A460F272F40237BFF1804A8594621
S1131A505022D047132F0CD8BF0004ABF85803A969
S1131A6000234B70CB708B7001230B70C0B2974A6C
S1131A7090470135EDB240464319DBB24B45E1D303
S1131A80E58904A88F4950228F4B9847132D37D8E6
S1131A90AD0004ABE85803A900234B70CB708B70E6
S1131AA001230B70C0B2894B984729E0257B04A819
S1131AB084495022844B9847132D0CD8AD0004ABB5
S1131AC0E85803A900234B70CB708B7001230B7073
S1131AD0C0B27E4B9847E58904A87A4950227A4BD4
S1131AE09847132D0CD8AD0004ABE85803A9002384
S1131AF04B70CB708B7001230B70C0B2734B984743
S1131B00637D9B00DBB201990B70A37DDB016278DE
S1131B101343DBB24B702379342B00D940E19B0093
S1131B206B4AD3589F460222102501231AE0637C96
S1131B30227C102516E006221025012312E008223B
S1131B40102500230EE00022302500230AE00022A5
S1131B502025002306E000220025002302E00422C1
S1131B60102502231B0170210B401343019A93702B
S1131B70E37D17203F2B00D924E1D3703268537ED4
S1131B805BB2002BFBDBE27C638813432422A25C60
S1131B90D2001343227D92001343A27C52001343CC
S1131BA02B4301988380237E002B01D1316897E079
S1131BB0102D5FD002D8002D3CD0F7E7202D19D08E
S1131BC0302DF3D1E27C002A0AD0E269803217205A
S1131BD0FF2A00D9F6E0226A8032FF2A00D9F1E018
S1131BE01720E169FF2900DDECE0226AFF2A00DD0D
S1131BF0E8E0DBE7E27C002A11D0E0698022920071
S1131C0081181720334A914200D9DBE0206A8022F0
S1131C109200811817202F4A914200D9D2E0172050
S1131C202C4AE169914200DDCCE0216A914200DD59
S1131C30C8E0BBE7E27C002A11D0E2698020000101
S1131C4011181720244A914200D9BBE0226A80204F
S1131C50000111181720204A914200D9B2E0172040
S1131C601D4AE169914200DDACE0216A914200DD48
S1131C70A8E09BE7E27C002A11D0E2698020000200
S1131C8011181720154A914200D99BE0226A80203E
S1131C90000211181720114A914200D992E017202E
S1131CA00E4AE169914200DD8CE0216A914200DD37
S1131CB088E07BE700040040000800407D3100001C
S1131CC0F1300000F8B500007944000059320000FA
S1131CD024B50000FF030000FF0F0000FFFF000019
S1131CE04A7E52B2002AFBDB019A13723268537E99
S1131CF05BB2002BFBDBA38B019883833268537E9A
S1131D005BB2002BFBDB238C01990B842C23E35C5B
S1131D10002B04D0013BDBB217200F2B52D82B220F
S1131D20A25C17200F2A4DD83168487E40B20028A3
S1131D30FBDBE089217B0143A068014312050A43D0
S1131D401B04134301990B612A23E35C0B750F23D6
S1131D508B752423E35C002B10D0E38C17201D4AE1
S1131D6093422FD88B84238D80200001191889B2C7
S1131D701720184A914225D80199CB84164B1A682A
S1131D805201E023DB001A40144B586841011B68E0
S1131D90DB0E0B43DBB2134301990B85002011E0EA
S1131DA017200FE00023B360F3603361B376F3765A
S1131DB0338333770A4B1E602A23E35C002B00D164
S1131DC019E61EE619B03CBC90469946A246AB46BD
S1131DD0F0BDC046FF0F000024608000206080003A
S1131DE0A424002038B52D4B1C6823681D7EEDB259
S1131DF0E90735D5E27ED10732D5A27ED1072FD5AA
S1131E0001221A762268537E5BB2002BFBDB6369E6
S1131E10991C6161528B92B21A80238B013B9BB255
S1131E202383002B11D0637F002B19D023685A7EA3
S1131E3052B2002AFBDB197B02220A431A7322687E
S1131E40537E5BB2002BFBDB0AE0237F052B07D11B
S1131E5000232377012322689375201CA3689847E5
S1131E6069070BD5042322681376E37E990705D509
S1131E70A37E9A0702D5201CE3689847A9070BD5CF
S1131E80022322681376E37E590705D5A37E5A07F9
S1131E9002D52369201C984738BDC046A4240020DD
S1131EA0931C9B001950012393401A1C837E1A43F0
S1131EB08276704710B5031C048BA4B20520002C55
S1131EC01DD1187FC0B2052819D0052018771A83B0
S1131ED0596101221968CA755A7F0020002A0ED060
S1131EE01A68517E49B20029FBDB107B02210143B1
S1131EF011731A68537E5BB2002BFBDB002010BD0C
S1131F0010B5021C1C4BD86904210143D9611B4B39
S1131F10188B2021FF31014319831B7D0520D9072C
S1131F2028D511780902C0239B0019405378DB019E
S1131F30FF2003401943D3789B04194393785B0033
S1131F401E200340194310790004C0239B02034060
S1131F5019430A4B596098684003400F0849082404
S1131F6084400C809868488052780A71188BC005A8
S1131F70C00F000110BDC0460004004000400041F5
S1131F80DC00002030B51D4B5A881B885A431823A7
S1131F908A4231D31A4B5C688022D20222435A60AF
S1131FA01D8B2022FF322A431A831A7D0523D5076D
S1131FB022D545281FD88300124AD3589F46104B78
S1131FC01A8B1023D50517D4890849000C4BD96105
S1131FD003E0890849000A4BD961A5231B02184371
S1131FE0074B1880191C01220B7D1342FCD0044BB3
S1131FF05C60002300E01723181C30BDDC000020C7
S11320000040004148B60000F8B5051C1D4B1C8873
S11320105B8863431820AB4233D3631E2B4230D119
S1132020172094422DD3184B1B7D0520DC0728D59F
S11320301648154B18801C1C0120237D0342FCD03C
S1132040114B1C8B2020FF30204318836808002A82
S113205012D040000023561ECC5CB34203DACF18E2
S11320607F783F023C43048002339BB202309A42A1
S1132070F2D800203F2A04D80420291C0022044B53
S11320809847F8BDDC0000200040004144A5FFFF54
S1132090851F000070B5194B1C885D8865431823A3
S11320A0854229D3651E054226D11723944223D3A2
S11320B0134B1C7D0523E5071ED5114B1D8B2024D6
S11320C0FF342C431C834008002A12D04000002314
S11320D0561E1C182588ADB21C04240C0D55B442A0
S11320E002DA0C192D0A657002339CB2A242F0D8B0
S11320F001E0002300E00023181C70BDDC00002078
S1132100004000410E4B1A885988514318238142DC
S113211014D39200013A104210D10A4B1A7D0523C0
S1132120D1070BD5074B198B2022FF320A431A83A0
S113213080084000D861044A1A800023181C7047A4
S1132140DC0000200040004102A5FFFF154B198B65
S11321502022FF320A431A839B685A03520F082134
S1132160914001704380104B1B885B065B0F9AB251
S1132170072A02D10023436004E00622D31A042272
S11321809A404260084B1A8807231340072B02D158
S11321900023836004E00722D31A04229A40826059
S11321A07047C046004000410040800000B583B045
S11321B001AB80221A700A785A704A789A708A7829
S11321C0DA70191C014B984703B000BD5932000066
S11321D010B5031C4908402099420CD30024C91AA5
S11321E0601C80B28B4201D8041CF8E74020FF2C0D
S11321F001D81480002010BDF0B55F4656464D4608
S11322004446F0B487B0061C0D1C049210AA107842
S1132210321C424340248A4200D9B3E0002B4BD104
S11322200021321C5E4CA04783462E1C0027002050
S11322300021002200233F24A4460125A846029041
S113224003916146203903D440468840814605E025
S1132250202165464C1B4046E04081464146644689
S1132260A1408A46101C191C80185941021C0B1CE1
S11322705D464C46254202D0424602430B1C9F4217
S11322800CD801D1964209D8921BBB415046029DFD
S113229028434946039C2143029003916546013D2E
S11322A0AC46CED2029803993C4B3B4A121A8B415E
S11322B0120C1B041A4362E00022012B5FD14F0F62
S11322C0B946CD00AB460021321C0023344CA04754
S11322D0061C0F1C00230125029603979A465046BC
S11322E0C0B2059000218846002200233F24271C09
S11322F0203F03D42E1CBE40019604E02020071B7F
S1132300291CF94001912E1CA6400096101C191C92
S113231080185941021C0B1C5F463740BC46019E85
S11323204F463E4067463E4302D02A1C02430B1CE4
S1132330039898420BD802D10299914207D8029E81
S1132340039F921BBB41474600980743B846013C94
S1132350CDD2414652468B1ADB08124CA34208D90F
S1132360059A0132D2B205920126B2445746082F8B
S1132370B5D140240598082804D042031A43049C8C
S113238022800024201C07B03CBC90469946A246FB
S1132390AB46F0BDC046C04600000000010000008E
S11323A021850000FF1F000010B582B0041C0F4BF4
S11323B01B78002B01D000290DD001A90C7013202B
S11323C00B4B984713200B4B9847084B5C7001222A
S11323D01A70002007E0054B5A781D20141B621E5A
S11323E094416442204002B010BDC046E400002085
S11323F07D310000F13000002E4B98421CD003D8F0
S11324002D4B984207D04AE02C4B984225D02C4BB8
S1132410984233D043E0012943D0002904D0022953
S113242006D0032906D001E0264841E000203FE021
S113243025483DE025483BE0012934D0002904D05B
S1132440022906D0032906D001E0032030E0002051
S11324502EE01F482CE01F482AE0012925D000293E
S113246004D0022906D0032906D001E01A481FE04F
S113247000201DE019481BE0194819E0012916D075
S1132480002904D0022906D0032906D001E015480A
S11324900EE000200CE014480AE0144808E0002094
S11324A006E0134804E0134802E0134800E0134830
S11324B07047C046000C0042000800420010004271
S11324C00014004203000400030006000300070098
S11324D003001E0003001F000300080003000A009D
S11324E003000B000300100003001200030013009C
S11324F003000500030001000300090003001100AC
S113250070B584B00E4A694670CA70C112680A6018
S1132510031C009A82420FD0019C844208D0029D81
S1132520854207D00020039E9E4207D1032004E089
S1132530012002E0022000E00020C0B204B070BD1F
S113254060B700007047C04630B50B4B1B78002BBA
S11325500ED10A4C0A4D25600A4B00221A606560B0
S11325605A60A5609A60E560DA600122024B1A7035
S11325708000024BC15030BDE8000020EC00002078
S113258045250000A824002030B583B0051C01AC0B
S1132590201C05490422054B9847281C044B9847E6
S11325A0205603B030BDC04670B700007944000027
S11325B00125000008B5024B1B680020984708BDA0
S11325C0EC00002008B5024B5B680120984708BD69
S11325D0EC00002008B5024B9B680220984708BD18
S11325E0EC00002008B5024BDB680320984708BDC7
S11325F0EC0000207047C0460C4B1B68002B10D128
S1132600EFF31083002B09D172B6BFF35F8F002262
S1132610074B1A700122074B1A7002E00022054B87
S11326201A70024B1A6801321A607047FC000020CD
S11326300C00002000010020084B1A68013A1A60BF
S11326401B68002B09D1064B1B78002B05D00122F7
S1132650044B1A70BFF35F8F62B67047FC00002012
S1132660000100200C000020F0B55F4656464D46A0
S11326704446F0B493B0051C0C1C161C2960081CBD
S1132680A94B9847021C23680520D90700D543E1CC
S113269023681C209F0700D53EE1A44B186A911CB7
S11326A001278F40391C0143196211A92D27F35DBD
S11326B00B701432D2B29046101C9D4B9847404682
S11326C09C4B9847F05D00219B4B9847F37A6B71C4
S11326D02423F35CAB712523F35CEB71F37E2B7243
S11326E0337F6B7229688846081C8F4B98471430D7
S11326F000226B46DA85328A03928023DB019A42F8
S113270021D08023DB019A4204D880239B019A4282
S113271011D008E0C023DB01039F9F420FD0802328
S11327201B029F4203D01027089700270EE00327BF
S1132730089700270AE010270897012706E00827D2
S11327400897012702E008270897002731680491B9
S1132750F268059273690693317E8A462623F35CF8
S11327609B4672689146002A13D080235B059A42E7
S11327702ED12723F35C002B2ED1376AC0B26F4BC6
S11327809847011C381C6A462E326D4B9847031C2F
S11327901FE02723F35C002B0AD008990091306ACC
S11327A0B16A6A462E323B1C664FB847031C10E0E0
S11327B0316A0991C0B2614B9847011C089A009292
S11327C009986A462E323B1C5E4FB847031C00E052
S11327D00023181E00D09FE0737E002B02D0B37E2E
S11327E041468B732A68039FD369002BFCD103975E
S11327F06B462E331B8842469381059B049F3B43C3
S1132800069F3B4349460B43039F1F435246130213
S11328101F4359464B071F432723F35C002B01D169
S113282004231F43317F4902737E9B021943737F44
S11328301B0219432423F35C5B0419432523F35C33
S11328401B041943F37A19433389FF2B04D08022E4
S113285052041743194305E0F37E002B02D0802372
S1132860DB041F432C23F35C002B03D1364B9B78F2
S11328709A0701D580231F432A68D369002BFCD112
S1132880434659602A68D369002BFCD141460F6046
S113289010AB80221A7000225A70DA709A70326B70
S11328A00C92736B0D93B76B0E97F66B0F96002714
S11328B010AEF9B2BB000CAA9858002802D1201C13
S11328C0224A9047431C05D03070000CC0B2311C22
S11328D01F4A90470137042FEBD10023EB602B6193
S11328E06B61AB61EB612B62AB626B620022EB85C7
S11328F0AB853023EA543123EA543223EA54332398
S1132900EA542868084B9847041C1249124B98470C
S1132910A400124BE550002013B03CBC90469946ED
S1132920A246AB46F0BDC0460125000000040040AD
S11329307D310000F1300000A9230000993100002E
S1132940D1210000F921000000200041F9230000FA
S1132950593200008D2A000049250000A8240020D7
S113296010B5021C0368C4791C20002C0DD0D28D34
S113297092B20520002A08D1DA69002AFCD119850F
S113298002211A7E0A42FCD0002010BD10B5031C9F
S1132990046882791C20002A33D09B8D9BB20520C9
S11329A0002B2ED1237E5A072BD5E369002BFCD1B3
S11329B0638BDBB29A0621D09A0703D50223638383
S11329C01A201EE05A0703D5042363831E2018E04F
S11329D0DA0703D501236383132012E0DA0605D551
S11329E0628B10231343638342200AE09A0605D5C1
S11329F0628B202313436383412002E0238D0B80E9
S1132A00002010BDF8B5041C0E1C171C05680F4BE4
S1132A109847A38D9BB2002B03D00D4B98470520FC
S1132A2013E0A7850A4B9847666205223223E254D5
S1132A300423AB75237A002B01D02023AB75637A72
S1132A400020002B01D00823AB75F8BDF925000048
S1132A5039260000931C9B00C3185960012393403E
S1132A601A1C3023C15C0A43C254704710B51723A3
S1132A70002A06D084791C23002C02D0024B9847EC
S1132A80031C181C10BDC046052A0000F8B58000C0
S1132A90644BC5582C68E369002BFCD1237EA67DCA
S1132AA01E403123EB5C3022AF5C1F40F10720D580
S1132AB0EB8D9BB2002B1AD0AB6A1A78D2B2591C98
S1132AC0A9626979012904D1597809020A430233B8
S1132AD0AB62D305DB0D2385EB8D013B9BB2EB850C
S1132AE0002B06D1012323750223A37501E00123E2
S1132AF02375B20709D50223237500223323EA5430
S1132B00FB0702D5281CE968884772076AD5AB8D94
S1132B109BB2002B64D0638BDBB2190702D43F2233
S1132B20134001E037221340002B37D09A0707D512
S1132B301A223223EA54628B02231343638327E06D
S1132B40590707D51E223223EA54628B0423134308
S1132B5063831DE0DA0707D513223223EA54628B1C
S1132B6001231343638313E0D90607D5422232239A
S1132B70EA54628B10231343638309E020221A4230
S1132B8006D041223223EA54628B20231343638309
S1132B907A0727D5281C6B69984723E0228DD20534
S1132BA0D20DD3B2696A0B706B6A591C6962697978
S1132BB0012904D1120A5A706B6A01336B62AB8D1E
S1132BC0013B9BB2AB85002B0CD10423237500225F
S1132BD03223EA54BA0705D5281C2B69984701E02B
S1132BE004232375F10607D5102323752376FA06EB
S1132BF002D5281CEB699847B10607D52023237515
S1132C0023763A0702D5281CAB699847310707D5C4
S1132C10082323752376BA0602D52B6A281C984705
S1132C20F8BDC046A824002008B5082834D8800080
S1132C301B4B1B589F468020000230E0194B18693B
S1132C402DE0194B186A8005800F184BC340181CDF
S1132C5025E0144B586922E0124B1B6802201840EF
S1132C601DD011491022CB681A42FCD00D4B1B68B1
S1132C705A0713D500200E4B98470A4B9B681B0438
S1132C801B0C58430BE05023074AD35C00205A071F
S1132C9005D5044BD86802E0002000E0054808BDD3
S1132CA074B70000040100200008004000127A00FC
S1132CB099310000006CDC0270B50C4B1C6A017881
S1132CC0857840780122104080014026B4430443B3
S1132CD02A40D00180229443221C02430320014055
S1132CE00902034802400A431A6270BD000800400A
S1132CF0FFFCFFFF10B5027A9206120C43899B0574
S1132D009B0D1A43184B5A60818842881143C47939
S1132D10827922430A434178C9010A431A6003783D
S1132D20042B0FD1027B9206038A1A43C3891B0426
S1132D300E490B401A430C4B9A60196804220A434B
S1132D401A6010E0202B0ED1027B9206038A1A43EC
S1132D50C3891B0405490B401A43034B9A601A6844
S1132D6003490A431A6010BD040100200000FF0358
S1132D7024040000082849D88000254B1B589F468E
S1132D80002044E0234B196A02220A431A620020FD
S1132D903DE0204B996902220A439A61002036E003
S1132DA01C4B198A02220A431A8200202FE0194B75
S1132DB0998A02220A439A82002028E0164A11685E
S1132DC0022319431160134A9384111C1022CB6807
S1132DD01A42FCD0104A91680E4BD96252689A622A
S1132DE000229A84191C1022CB681A42FCD00A4B88
S1132DF01A6892B2074B9A84002008E0054A4423DB
S1132E00D05C02210143D154002000E01720704718
S1132E1098B700000008004004010020F0B54F46B8
S1132E204646C0B48BB0C222D2003C4B9A603C4BA5
S1132E305A681E218A4302210A435A60012201ABC7
S1132E401A700024374DE0B201A9A8470134252C9B
S1132E50F9D105AB002119700022598099809A712B
S1132E60DA713F215981062119825A702E4B1B6851
S1132E709B0E3F2B00D11F2305A803720723037366
S1132E803F23C381294B984704A80025457001239B
S1132E90994683700570264B98470620254EB04707
S1132EA0254B984701AC6570257265720423237025
S1132EB0202302930220211C204B9846984702208D
S1132EC01F4FB8474B466360657006232370257215
S1132ED065720320211CC0470320B8470720B04770
S1132EE00E491022CB681A42FCD0164A00231372F2
S1132EF053729372D37201A901224A604B70062265
S1132F000A700B724B7200200C4B984700200C4B3C
S1132F1098470BB00CBC90469946F0BD00080040A1
S1132F20004000417D31000024608000F52C000049
S1132F30B92C0000752D0000492F00006D2F0000F2
S1132F402130000000040040064B996908220A431E
S1132F509A610122044B1A70191C0B781342FCD19C
S1132F607047C04600040040000C0040F8B5061C41
S1132F70071C0D782D0205434B78002B02D08023CB
S1132F80DB021D434B7A002B02D080231B031D431D
S1132F904C68012C17D9631E1C420FD1022C06D990
S1132FA00223002201325B009C42FBD800E0002295
S1132FB01702374380235B031D4304E02702374392
S1132FC080239B021D430B7A002B02D080239B039A
S1132FD01D430F4A53785BB2002BFBDB0D4B984724
S1132FE00D4B1E700A4A53785BB2002BFBDB084B77
S1132FF09F601A1C53785BB2002BFBDB044B5968AF
S1133000802252020A4015435D60044B9847F8BD84
S1133010000C0040F9250000080C0040392600008F
S113302010B5041C0B4A53785BB2002BFBDB0A4B34
S113303098470A4B1C70074A53785BB2002BFBDBA2
S1133040044B5968802252020A435A60044B984741
S113305010BDC046000C0040F9250000040C0040DF
S11330603926000070B5041C1A4A53785BB2002B51
S1133070FBDB194B9847194B1C70164A53785BB20B
S1133080002BFBDB134E7068C004C00E144B984732
S1133090051C124B1C707668F602F60F114B1C705F
S11330A00C4A53785BB2002BFBDB0A4B9C68240A66
S11330B0A4B20D4B9847002E07D1012C07D9281C28
S11330C0211C0A4B9847051C01E00134E540281CEB
S11330D070BDC046000C0040F9250000040C0040FF
S11330E0292C0000080C004039260000D182000081
S11330F010B5041C064B9847064B1C70064B5988A8
S11331008022D2010A435A80044B984710BDC0461E
S1133110F9250000020C0040000C00403926000094
S113312010B5041C0F4B98470F4B1C700F4B58885D
S11331300005000F59880E4A0A405A8059880D4AE2
S11331400A405A80191C8022D2014B881342FCD1B8
S1133150064B01025888064A02400A435A80064B2D
S1133160984710BDF9250000020C0040000C0040F7
S1133170FFF0FFFFFFBFFFFF3926000010B50C78FA
S113318024020443024B9847A4B2024B5C8010BD56
S113319021310000000C004010B5041C064B984778
S11331A0064B1C70064B5C882405240F054B98477E
S11331B0201C054B984710BDF9250000020C004067
S11331C0000C0040392600006530000030B5D3788B
S11331D0002B1ED11378802B04D01B06802464029C
S11331E0234300E0002354780225AC430AD19478A9
S11331F0002C03D18024A402234302E0C024E4026F
S1133200234341605478013C012C04D8114C2340E1
S113321001E0416000230D042D0CA024E4052C439F
S11332201C4384620D0CD02424062C431C4384626A
S1133230D478002C0CD15C0305D59378012B01D1F3
S1133240816100E041615378013B012B00D881602A
S113325030BDC046FFFFFBFF08B5031C0A1CC109B3
S11332600020002903D15809C001044940181F2136
S11332700B4001219940024B984708BD004400418E
S1133280CD3100007047C04608B5054B9847054B43
S11332909847054B9847054B9847054B984708BDF9
S11332A01D2E0000F5250000853200008532000047
S11332B08532000070B584B0011C01AB0A4A70CAA3
S11332C070C3019B83420AD0029C844205D0002033
S11332D0039D8D4205D1022002E0012000E0002080
S11332E0C0B204B070BDC046BCB70000F0B54F46D4
S11332F04646C0B487B0041C0D1C9046081C904B75
S1133300984781468F4F391C0C3105A803228E4EF5
S1133310B047391C103103A80622B0470023A3602C
S1133320E360236163612376637648468200874BBA
S1133330D450256041468B78082B04D117204A4687
S1133340D20700D4F6E023712B880520D90700D5D5
S1133350F0E0EB7B1C20DA0600D5EBE02B88990724
S113336000D5E7E04246137C002B0CD002A90123D0
S11333708B700022CA704046806908704B704246C8
S1133380107D734B98474046037F002B0BD002A956
S113339001238B700022CA70426A0A704B70036A60
S11333A0D8B26B4B98476B4B196A4846420003A846
S11333B0125A0A431A6241468B78082B08D1654B8E
S11333C01A6A48460130400003A9415A0A431A6266
S11333D001A9424613780B7005AB48461E5C301CAD
S11333E05D4B9847301C5D4B9847414688880B8954
S11333F0034388798A78104318434B78002B02D012
S113340080231B01184321687F22CB7B9343FCD18B
S113341028804246507B431E98418000937B002BBA
S113342001D00123184321687F22CB7B9343FCD135
S1133430FF232B71002805D021687F22CB7B934387
S1133440FCD168714346987ADB7A002B01D01023B3
S1133450184341460B7B002B01D0202318432168DD
S11334607F22CB7B9343FCD1A87122687F21D37B3D
S11334708B43FCD12379042B05D0082B41D0172092
S1133480002B57D124E07F21D37B8B43FCD128230D
S11334904246D35C2B7421687F22CB7B9343FCD1BF
S11334A029234046C35C2B7521687F22CB7B934341
S11334B0FCD12A234146CB5C2B7621687F22CB7B2F
S11334C09343FCD12B234246D35C6B76002031E03E
S11334D07F21D37B8B43FCD14046038D2B82216813
S11334E07F22CB7B9343FCD141464B8D2B832168B8
S11334F07F22CB7B9343FCD14246938D6B83002088
S113350018E07F21D37B8B43FCD143469B6A2B611C
S113351021687F22CB7B9343FCD14046C06AA861DB
S113352021687F22CB7B9343FCD141460B6BEB613B
S11335300020FFE707B00CBC90469946F0BDC0469A
S1133540B5320000BCB7000079440000B824002064
S113355059320000000400407D310000F1300000C9
S1133560931C9B001950022A04D1027E102313439A
S113357003760CE0032A04D1027E2023134303764E
S113358005E0012393401A1C037E1A4302760020AF
S11335907047C04638B58000144BC4582268957BE8
S11335A0237E1D40637E1D40EB0705D5201CA268C9
S11335B09047012322689373AB0705D5201CE2686A
S11335C09047022322689373EB0605D5201C2269D9
S11335D09047102322689373AB0605D5201C6269BB
S11335E09047236820229A7338BDC046B82400202F
S11335F008B50020014B984708BDC046953500002A
S113360008B50120014B984708BDC0469535000018
S113361008B50220014B984708BDC0469535000007
S1133620F0B5254B188900283AD09F7A5A680023B0
S1133630451E214EAB4206D01178FF2903D0B94272
S113364001D27118CB720133403299B28842F1D859
S11336503F218723184AD15486082CD0546800216E
S11336600023012501380027AC4601E03B1C6546D8
S11336708A009A1892B2824203D09201125DFF2A04
S113368013D10133DBB2032BF2D9002D03D08723EE
S1133690094AD1540FE0013189B2B142E6D30AE0BC
S11336A03F218723044AD15405E00133DBB23D1C9A
S11336B0032BDDD9EFE7F0BD1C010020F8B50F1C8A
S11336C08601054D054C6B689819391C4022A047AA
S11336D00528F8D0F8BDC0461C0100209520000044
S11336E070B50602034D044C6B689819A047052871
S11336F0FAD070BD1C01002005210000F8B50F1C94
S11337008601054D054C6B689819391C4022A04769
S11337100528F8D0F8BDC0461C010020092000008F
S113372070B58601044D054C6B689919042000227C
S1133730A0470528F8D070BD1C010020851F00009B
S113374030B599B016AB00221A702E494968C906E3
S1133750090F9970DA701A7101225A702A4C16A84E
S1133760A0470528FBD013A8284B9847149B162084
S11337700B2B44D9264C23811A1C083A5208A272F6
S11337801B049B0A5B428020C0021B18636000225A
S1133790C823E2541F4B98478723E35C1A203F2B2E
S11337A02DD06B461C4A31CA31C3194B18890138D4
S11337B080B203A9194B9847039A009B9A4219D1E6
S11337C0049C019DAC4217D10598029A904215D1F0
S11337D003ABDB7B1020012B11D103AB1B7B012B33
S11337E00DD103AB5B7B002B09D10122084B1A706E
S11337F0002004E01A2002E01A2000E01A2019B088
S113380030BDC04600400041011F00004D210000B2
S11338101C01002021360000D4B70000BD36000092
S113382070B594B02E4C00228723E25400202D4B17
S113383098472589042D24D900260424013DAC424F
S113384019D00323234004D1A008C0B2254B9847C4
S113385001E0012B0FD804AD281CFF214022224B8C
S113386098472E70201C291C204B9847201C204967
S113387088470136B6B20134A4B2194B1D89A5425A
S1133880DCD801AE1B4B321C13CB13C204AC201C7E
S1133890FF213D22144B9847019B0493706860609C
S11338A0B668A6600123E373237300236373A373D1
S11338B0013DE817800F4519A810C0B2094B98477D
S11338C0074D2889013880B2211C084B9847288964
S11338D0013880B2064B9847074B984714B070BD27
S11338E01C010020E13600008B440000FD3600007E
S11338F021370000D4B700002136000010B590B085
S11339000C1C154B1A781F23002A21D0124B9A7ACB
S1133910182382421CD9C8230F4AD35C002B0BD036
S11339208823D35C834207D1081C111C8C313C22B0
S11339300A4B984700230BE0074B1818C07A6946D6
S1133940074B9847201C01A93C22044B98470023AD
S1133950181C10B010BDC0461C01002079440000A2
S1133960BD36000010B5C823074AD35C002B09D02C
S1133970141C8823D35CD318D87A044B98470022AC
S1133980C823E254002010BD1C0100202137000090
S1133990F0B55F4656464D464446F0B485B0041C27
S11339A00D1C5B4B1B781F20002B00D1A8E0584B4B
S11339B09B7A1820A34200D8A2E0C823544AD35CBF
S11339C0002B05D08823D35CA34201D0514B9847E8
S11339D04F4B1B19DB7A9E0803221340032B75D827
S11339E0B000C718FFB24A4A5168BA01525CFF2AB4
S11339F006D156E0C718FFB2BA01525CFF2A50D074
S1133A000133DBB2042BF5D160E04A700233634525
S1133A1009D0191C1878B84201D15046587008785A
S1133A204845F3D1F1E70027394988310091384AF4
S1133A308C320192B346A1464446AA4687233448B1
S1133A40C65CB600F61933498847A04623784B452F
S1133A5009D1882348462E4AD054019851463C2225
S1133A602D4B984703E0607800992C4B9847B0B2EF
S1133A70274D291C88312A4B984741460B78EB186F
S1133A80DE720122C823EA5401370234022FD5D151
S1133A905E465846234B984787231D4AD654002038
S1133AA02EE01B4E8823F454301C8C30291C3C22FD
S1133AB0194B9847311C8831381C194B98473419D5
S1133AC0E7720122C823F254002019E03102104B9E
S1133AD05B68591803AB0A781A70B2005A70402018
S1133AE0085C9870501CD870984604A884468020BE
S1133AF00F5CC020085C8146911C8A46033288E72B
S1133B0005B03CBC90469946A246AB46F0BDC046C3
S1133B101C0100206539000079440000BD36000016
S1133B20FD360000E1360000FEE7C04670B52C4BC0
S1133B302C4A9A4203D02C4B294A9A4204D32B4B49
S1133B402B4A9A4210D31BE02A4B27480330C01A51
S1133B5080080130800000232149224AD458CC50E7
S1133B6004338342FAD1EAE7214B1A1D1F4903317A
S1133B70891A890889005218002102C39342FCD192
S1133B801D4BFF211D4A8A439A60022190235B004A
S1133B901B4AD1501B4BD87803218843022210437F
S1133BA0D870DD780C24A54308200543DD70164B3E
S1133BB09E7B3025AE43202535439D739D7BA543D5
S1133BC028439873987B884302439A730F4B596830
S1133BD080220A435A600E4B98470E4B9847FEE7E3
S1133BE0000000205CBC0000B0000020D4240020B1
S1133BF0B00000200400002000ED00E00000000000
S1133C000070004100500041004800410040004164
S1133C102D440000253D0000F0B5474680B40C1C3F
S1133C20904600280CD1002A0DDD8F18094E0A4D4C
S1133C303068211C2B6898470134BC42F8D104E059
S1133C400120404202E0002000E0404604BC9046CF
S1133C50F0BDC046CC240020C4240020F0B5474663
S1133C6080B40E1C151C0138022810D8002A11D06B
S1133C7000240D4B98460D4F43461868315D3B6850
S1133C809847002808DB0134A542F5D107E001205C
S1133C90404205E0002003E00120404200E0201CF7
S1133CA004BC9046F0BDC046CC240020C8240020AB
S1133CB0064B1B68002B02D1054A044B1A60034AC9
S1133CC0136818181060181C7047C046E8010020DB
S1133CD0D8440020012040427047C04680239B0105
S1133CE04B6000207047C046012070470020704799
S1133CF0014B18807047C04604060020014B5880D1
S1133D007047C04604060020014B98807047C046A7
S1133D10040600207047C04608B5014B984708BD0B
S1133D20E509000030B587B0134B9847134B98470B
S1133D30134B98471348144B984700230393049359
S1133D400593124B0093124B0193124B02930320E1
S1133D506946114B9847114B9847114B98471148A6
S1133D60114B984701201149114B9847114D124CA2
S1133D70A847A047FCE7C04689320000FD180000B0
S1133D80A1180000193D0000B1180000093D000011
S1133D90FD3C0000F13C000081060000C51300005A
S1133DA0E1090000EC0100204D040000153D000075
S1133DB0790D000011010000DD0900000000000081
S1133DC0F8B556464D4644465F46C54BF0B44E00E2
S1133DD0814688468A4676089E420CDDC14B9E4247
S1133DE000DDA7E000D1A2E05046BF4A002800DC75
S1133DF0E3E0BE4BA6E0BE4B9E4200DDB8E0BD4B07
S1133E009E4200DCA6E001246442A3464A4643469F
S1133E104846414606F028FA061C0F1C321C3B1C7F
S1133E2006F022FA8F4B8E4A041C0D1C06F01CFA75
S1133E308D4A8E4B05F08CFA221C2B1C06F014FACA
S1133E408B4A8C4B05F084FA221C2B1C06F00CFACE
S1133E50894A8A4B05F07CFA221C2B1C06F004FAD2
S1133E60874A884B05F074FA221C2B1C06F0FCF9D7
S1133E70854A864B05F06CFA321C3B1C06F0F4F9BB
S1133E80834A844B061C0F1C201C291C06F0ECF9E9
S1133E90814A824B06F078FC221C2B1C06F0E4F9C4
S1133EA07F4A804B06F070FC221C2B1C06F0DCF9C8
S1133EB07D4A7E4B06F068FC221C2B1C06F0D4F9CC
S1133EC07B4A7C4B06F060FC221C2B1C06F0CCF9D0
S1133ED0021C58460B1C013000D170E05946CC003E
S1133EE0301C391C05F034FA4A46434606F0BCF946
S1133EF0814D0B1C81492D19021C0C19101C191C15
S1133F002268636806F040FC4A46434606F03CFCDF
S1133F10021C0B1C2868696806F036FC021C50461B
S1133F200B1C00280EDA802000060B180AE000287B
S1133F3000D159E74A4643464846414605F008FA47
S1133F40021C0B1C101C191C3CBC90469946A24632
S1133F50AB46F8BD584A594B05F0FAF9584A594B43
S1133F6004F090FA002800D14DE74A464346E9E7B9
S1133F7000F0CEF8624B041C0D1C9E4230DC614BF9
S1133F809E4256DC221C2B1C05F0E2F94C4A4D4B98
S1133F9006F0FAFB4C4A4D4B061C0F1C201C291C36
S1133FA005F0D6F9021C0B1C301C391C05F0F2FC80
S1133FB08846002181468B4628E7534BC2E7301CD4
S1133FC0391C05F0C5F94A46434606F04DF9021C72
S1133FD00B1C4846414606F0D7FB021C0B1CB1E7FC
S1133FE04A4B9E421ADC3A4A3A4B06F0CDFB384A19
S1133FF0384B061C0F1C201C291C06F035F9304ACE
S1134000304B05F0A5F9021C0B1C301C391C05F0C3
S1134010C1FC8146022088468346F7E62E482F4994
S1134020221C2B1C05F0B6FC8846032181468B46D6
S1134030ECE6234A234B06F0A7FB214A214B061C3E
S11340400F1C201C291C05F083F90B1C021C391CB5
S1134050301C05F09FFC0123814688469B46D5E62B
S113406011DA22E33AAD903FEB0D76244B7BA93F66
S1134070513DD0A0660DB13F6E204CC5CD45B73F34
S1134080FF8300922449C23F0D5555555555D53FE0
S11340902F6C6A2C44B4A2BF9AFDDE522DDEAD3FD4
S11340A06D9A74AFF2B0B33F711623FEC671BC3F74
S11340B0C4EB98999999C93F9C7500883CE4377E74
S11340C0000000000000F03F00000000000000407D
S11340D0000000000000F83F000000000000F0BFF6
S11340E0FFFF0F440000F07F182D4454FB21F93FDB
S11340F0FFFFDB3FFFFF1F3E00B80000E0B70000FA
S1134100FFFFF23FFFFFE53FFB21F9BFFF7F0340C5
S11341104B0059087047C046F0B5474680B48AB092
S1134120041C0D1C00F058F8294A0023D35690466D
S1134130061C0F1C01330DD0201C291C00F032F981
S1134140002807D0201C291C204B1F4A04F086F9A4
S1134150002805D1301C391C0AB004BC9046F0BDBF
S1134160012300931B4B04940595019300230893AA
S11341704346029403951C78002C0ED1134B124A2B
S113418006920793684600F03DF900280FD0089B7B
S1134190002B11D1069E079FDCE70C490A48021C3C
S11341A00B1C05F0F7FB06900791022CEAD100F0F6
S11341B037F921230360EAE700F032F9089C046030
S11341C0E8E7C046C046C04600000000000000000A
S11341D00D00002020B80000F0B55F4656464D465D
S11341E04446F0B46C4E0D1C371C83B0041C021CF6
S11341F00B1C2F40B74200D1ADE0002900DC8BE05E
S11342002F1500D194E0654D09038023090B5B034E
S11342107F190B43FE0700D570E07F10C20FB8462C
S11342205B00002780219B18162442000097002081
S1134230890345189D4204DC68185B1B009D6D18BA
S11342400095D50F5B00013C5B1952004908002C16
S1134250EFD180210026090620250196B44689461F
S113426009E0834246D0D40F5B00013D1B19520084
S11342704908002D1CD066468C198342F1DD67186D
S1134280E60FBC46F60782464E452CD01B1AA242C6
S113429080414042019F1B1A121B7F18D40F5B0000
S11342A0013D019750461B1952004908002DE2D1E7
S11342B0134328D101984308009D394E6A1092197E
S11342C0ED0702D5802109060B4340460705B918BE
S11342D01C1C0D1C201C291C03B03CBC9046994698
S11342E0A246AB46F0BDFF0FFF077E427E41B246B9
S11342F08244CBE79442C2D9181CB4E7C20F5B00D6
S11343009B18400089E7019901312FD0019C0123BA
S113431023401B195B08CFE76B005B081A43D9D015
S1134320002700292BD1C10A153F40050029FAD0E6
S11343308022520311421ED100234900013311424D
S1134340FBD001242022E41AD21A3F19041CD440C1
S11343502143984057E7201C291C05F085FF221CA7
S11343602B1C04F0F5FF041C0D1CB3E7009A00237A
S113437001320092A0E7202201240023E5E7221C59
S11343802B1C201C291C06F0FFF9021C0B1C05F039
S113439001FB041C0D1C9DE70000F07F01FCFFFFE6
S11343A00000E03F0B1C011C021C30B51943022025
S11343B0002900D130BD802109068B4216D00D4959
S11343C004205C180C498C42F4D90C4D5C198C42C5
S11343D0F0D90B4C590049080320A142EAD9074CF3
S11343E00020A142E6D150425041E3E7002AE1D047
S11343F0EFE7C0460000F0FFFFFFDF7F0000F07F23
S1134400FFFF0F000020704708B5002100F074FF83
S113441008BD08B500210A2201F004F808BD000017
S1134420014B18687047C0467000002070B50E4BF1
S11344300E4D0024ED1AAD101E1CAC4204D0A30096
S1134440F35898470134F8E707F0F8FB084B094D97
S11344500024ED1AAD101E1CAC4204D0A300F35886
S113446098470134F8E770BD48BC000048BC000020
S113447048BC00004CBC000010B50023934203D09C
S1134480CC5CC4540133F9E710BD031C8218934279
S113449002D019700133FAE7704700000FB40B4BD8
S11344A013B51C68002C05D0A369002B02D1201C75
S11344B002F088FD05ABA168201C049A019300F06A
S11344C0E7FF16BC08BC04B01847C04670000020C3
S11344D008B54A424A4180235200DB0000F002F84A
S11344E008BD0000F7B51E1C3C4B041C1D680F1CC6
S11344F00192002D05D0AA69002A02D1281C02F0DD
S113450061FD374B9C4201D16C6808E0354B9C42FD
S113451001D1AC6803E0344B9C4200D1EC68019BB0
S1134520022B57D8002E55DB281C211C02F0CAFC94
S113453000236360A361A3891A0603D5281C21699B
S113454003F03AFDA38983229343A381019B022BA9
S113455013D0002F25D1002E01D18026F600301C67
S113456003F008F9071E18D18020C00003F002F9F7
S1134570071E10D10120404200E00020A38902223E
S11345801343A3810023A360231C473323602361C7
S11345900123636120E08026F600A389802213436F
S11345A0A381019A012A04D1A3891343A3817342ED
S11345B0A3610E4B0020AB62A3892760276166616B
S11345C01A0709D5032213405A4253415B421E4045
S11345D0A66001E001204042FEBDC04670000020FC
S11345E0D4B90000F4B9000014BA00001D6F000033
S11345F0C9B20378002B03D08B4204D00130F8E712
S1134600002900D0181C704702780B780130013162
S1134610002A01D09A42F7D0D01A70470023C25C16
S11346200133002AFBD1581E704730B5031C002A01
S113463007D00C7801335D1E013A2C700131002C37
S1134640F5D19A18934203D0002119700133F9E788
S113465030BD30B502680C780132002C0AD01378D2
S11346601D1C413D192D00D820330131A342F2D045
S1134670002001E00260012030BD000070B5161C6E
S11346800D1C03F063FB002E0BD06B005B0D6B2243
S1134690D31A002B05DD034D1C056319002205F018
S11346A0E3FD70BD0000F03FF0B5BE4FBC4EA1B0BD
S11346B0002308900A9119921C931B911B9A13785A
S11346C00D2B05D8092B15D2002B00D1C1E114E024
S11346D02B2B07D02D2B02D0202B0ED10AE0012446
S11346E0169401E000251695531C1B935378002B58
S11346F005D1AEE101321B92E0E7002416941B9D24
S113470000242B780D94302B5AD16B78582B01D080
S1134710782B49D1169C1CAB0093019408981BA9D3
S1134720A14A1DAB02F009FD07240790044001D102
S113473000F0B0FD062C02D101351B958BE11C9ACB
S1134740002A07D01EA8352103F0F0FB08981C9915
S113475003F05DF81D9B062C1CD8201C03F0AEFD55
S1134760040A0714170A040000273E1C12E01E9EC8
S11347701F9F0FE08D488E4A1B181F991B050A4086
S11347801F1C1E9E174305E08A4F002602E00123EA
S1134790894F5E42079C240701D400F07BFD8023EF
S11347A01B061F4300F076FD1B9B5A1C1B925B7873
S11347B0302BF9D0002B01D100F06CFD01250D95B3
S11347C01B9C002510940B950E9509951B9C257830
S11347D02B1C303BDAB2092A12D8099D0A22082D73
S11347E004DC0E9D6A439B180E9303E00B9D6A4301
S11347F09B180B93099D0134013509951B94E5E73A
S1134800089802F063FF00680790089802F05EFFC2
S11348100068FFF703FF0799021C201C03F0C6FC85
S1134820041E06D0099C00202B1C079484460C907F
S113483063E008981B9D02F049FF0068FFF7EEFE55
S11348402D181B952B78099D281E48D1302B05D196
S11348501B9B01305A1C1B925B78F7E71A1C313AF8
S1134860082A45D81B9C8446002010940790303BAE
S1134870421C002B2DD007999444079D01314C1BF9
S113488094420EDA4C1E082C04DC0E9D0A24654367
S11348900E95F2E71029F0DC0B9D0A2465430B9575
S11348A0EBE7C243D21710402818441C0794082889
S11348B006DC0E9D0A226A43D2180E92002208E0FA
S11348C0079C0022102C04DC0B9D0A216943C918A3
S11348D00B911B9B101C591C1B915B7803E0099DD9
S11348E0201C0795A4461A1C303A092ABFD902E0B5
S11348F000240794A44601210C912022191C914301
S1134900002245295FD1079B0D9C03432343934217
S113491000D19EE01B9D2B1C01331B936B780A95E1
S11349202B2B03D02D2B03D0119208E0119201E020
S1134930012111910A9B0A9C02331B93A3781A1C30
S1134940303A092A3CD8302B04D11B9B5A1C1B92A9
S11349505B78F8E71C1C313C0022082C33D81D1C62
S11349601B99303D1B9B5A1C1B925B781C1C303CD2
S1134970092C04D80A225543ED18303DF2E7521AA7
S11349800F920E4C0F99221C082903DC2A1EA24206
S113499000DD221C119C002C15D0524213E0C046AD
S11349A0000000000000000058B8000033040000BC
S11349B0FFFFEFFF0000F07FFFFFFF7F1F4E0000AF
S11349C00A9D00221B95079C002C48D10D9D28436D
S11349D001D000F05FFC0C9800283AD14E2B1CD07B
S11349E002DC492B05D034E0692B02D06E2B14D0A5
S11349F02FE01BA8A849FFF72CFE002829D01B9BF9
S1134A001BA8013BA5491B93FFF723FE002802D1F5
S1134A101B9B01331B93A24F18E01BA8A149FFF76E
S1134A2018FE002815D01B990B78282B0DD11BA834
S1134A309D491EAA02F0B1FD052806D1984A1F9B84
S1134A40171C1F431E9E00F025FC984F002600F003
S1134A5021FC0A9C1B940025169500F01BFC64465F
S1134A60099D141B0A94002D01D1079C0994079CED
S1134A70102C00DD10240E9806F02CFA061C0F1CD6
S1134A80092C15DD231C8A4A093BDB00D3181A685C
S1134A905B6805F0E9FB061C0B980F1C06F01AFA7C
S1134AA0021C0B1C301C391C04F052FC061C0F1C8D
S1134AB0079D0F2D3ADC0A9D002D01D100F0EAFB81
S1134AC026DD162D07DC7A4BEA009A181068516827
S1134AD03B1C321C17E0079D25235B1B0A9D9D424E
S1134AE024DC079C0F22151B714CEB00E31818689B
S1134AF05968321C3B1C05F0B7FB0A9A571BFF0090
S1134B00E4192268636805F0AFFB061C0F1CC1E3BF
S1134B100A9D16350ADB0A9C654BE2009A1A301C82
S1134B20391C5368126804F035FFEEE7079D2C1B0F
S1134B300A9D2C19002C56DD0F2323400AD05C4A11
S1134B40DB00D31818685968321C3B1C05F08CFB39
S1134B50061C0F1C0F239C4300D1B7E09A235B0073
S1134B609C420EDD00240794099410940E94089D31
S1134B70109C222300262B60494FB44200D075E3D9
S1134B8088E32411301C391C0025012C0BDDE207BD
S1134B9006D5484BEA00D3181A685B6805F064FB35
S1134BA001356410F1E7444BED00CF18414B061C6E
S1134BB05D19321C3B1C2868696805F055FB384BAD
S1134BC00F1C0B403D49061C8B42CBD83C498B4201
S1134BD003D901233B4F5E4202E0D425AD047F1983
S1134BE000240B9474E0002C70D064420F23234003
S1134BF00AD02F4ADB00D318301C391C1A685B68B2
S1134C0004F0C8FE061C0F1C24115FD01F2C05DD08
S1134C1000250795099510950E9521E1E3066A256F
S1134C20DB171D400B95284D301C391C002C08DD6A
S1134C30E20703D52A686B6805F016FB6410083593
S1134C40F4E70B9C061C0F1C002C17D04B005B0DCB
S1134C506B21CB1A002B11DD1F2B0BDD0026342B0F
S1134C6002DDDC239F0409E00121203B49429940F5
S1134C700F4003E0012252429A401640301C391C76
S1134C80044B034A03F0E4FB0028C1D120E0C046F2
S1134C90000000000000000096B80000C9B9000040
S1134CA00000F07F9EB800006CB800000000F8FF20
S1134CB040BA000008BB00000000B0FC0000A07C6B
S1134CC00000907CFFFFEF7F30B8000000250B95BB
S1134CD00E9C089800941099099A079B02F0EEFD27
S1134CE01090002800D13DE70A9D00246B42EA178A
S1134CF01340179307940994109D08986D68291C14
S1134D00069502F04CFD0E90002800D12FE7109874
S1134D10109900690C31021C0E98023292000C307A
S1134D20FFF7AAFB1DAB00931EAB01930898321C3E
S1134D303B1C1296139703F07DF81C90002800D1B9
S1134D4015E70898012102F042FE0990002800D1DD
S1134D500DE70A9D00240D94AC4200DA0D951D9BCD
S1134D60002B00DA86E0179D0D99EC180B9D1E9818
S1134D705B1B36251A182D1AC7480123824200DB13
S1134D8082E0801A2D1A1F2878DC834000201893B3
S1134D9011900B9863194D190C932D18A34200DD43
S1134DA0231CAB4200DD2B1C002B04DD0C99ED1AF7
S1134DB0C91A0C91E41A179A002A69D10C98002890
S1134DC07EDC0D99002900D084E0002D00DD8BE00D
S1134DD0002C00DD92E008981C990E9A02F04FFF17
S1134DE00790002800D1C2E6C4680025C56009996F
S1134DF00F9402F029FFA84200DB8EE0AC4200D001
S1134E001FE2AE4200D01CE23B03AB4200D018E2EA
S1134E10A24AD6233A40DB049A4200D811E207980A
S1134E204069A84274D007990898012202F0BAFE9A
S1134E300999079002F008FF002800DC01E20B9CAE
S1134E40964B002C00D199E01A1CD6213A40C90493
S1134E508A4200D992E0DC239B049A4200D9F3E110
S1134E60089D109C2223834F814E2B60002C00D080
S1134E70FCE10FE20D9CE11A179C77E78848821A3F
S1134E80181C9040119001E000221192189380E7C1
S1134E900898099902F034FE0990002800D166E6CA
S1134EA0089809991C9A02F09BFD0F90002800D1E4
S1134EB05DE608981C9902F0AAFC0F9B1C937DE701
S1134EC008981C990C9A02F06DFE1C90002800D0E2
S1134ED077E74CE608980E990D9A02F011FE0E90B1
S1134EE0002800D071E742E608980E992A1C02F0C7
S1134EF059FE0E90002800D06AE738E60898099910
S1134F00221C02F04FFE0990002800D063E72EE631
S1134F1007990969012986DC93E1002865D10F9C72
S1134F203A03002C25D05F493B1C120B8A422ED138
S1134F3001210B9D4942301C0A1C002D0AD0574CFC
S1134F40D4253C40ED04AC4204D8240D6B22121B42
S1134F5091400A1C90421AD1534A934202D1013023
S1134F6000D104E64D4A8020134040031F18002658
S1134F7067E1002A0BD1002E09D160E74B4D494A65
S1134F803B405B19171C1F4301235E4259E1119CEE
S1134F90002C03D03C4200D153E103E0189D35427C
S1134FA000D14EE10F9C301C391C0B9A002C0AD006
S1134FB0FFF764FB021C0B1C1298139904F0C8F948
S1134FC0061C0F1C3DE1FFF759FB021C0B1C129839
S1134FD0139905F0D9FB274B254A061C0F1C03F037
S1134FE037FA002800D03BE72BE10798099902F033
S1134FF079FF214A214B041C0D1C03F039FA0028C7
S11350005AD00F98002806D0294A00211C4C1D4D67
S11350100C910D9261E0002E02D13B0305D10BE00F
S1135020012E02D1002F00D11AE721480023164C8B
S1135030164D0C930D9050E0201C291C104A114B66
S113504003F00CFA002808D1201C291C104A114B2B
S113505005F00AF90C900D9103E00F9C154D0C948A
S11350600D950D98802109060C9C451835E0C04625
S113507000000000000000000000000000000040EC
S1135080000000000000F03F000000000000F0BF3E
S1135090000000000000E03F03FCFFFF0000F07F81
S11350A0E3FBFFFFFFFF0F00FFFFEF7F0000F0FFB8
S11350B00000F03F0000E03F201C804B7E4A291C8A
S11350C005F0D2F80F9C0C900D910B1C002C02D112
S11350D080252D064B190C9C1D1C8148814B3840A2
S11350E0119098422BD11299139A149115927E4AD9
S11350F0301CBF18391C02F029FE021C0B1C201C9A
S1135100291C05F0B1F8021C0B1C301C391C04F0DE
S11351101FF9734A754B061C0A409A420BD9744B0B
S1135120159C9C4203D1149D013500D11FE5012338
S11351306F4F5E4274E0D42080040F183AE00B995C
S1135140002925D0119AD423DB049A4220D80C9844
S11351500D995B4A5B4B03F08BF9002813D00C9834
S11351600D9903F019FA002800D1012005F0B2FED0
S11351700F9C0C900D910B1C002C02D180252D0648
S11351804B190C9C1D1CD620C00411992B185D1AB8
S11351901298139902F0DAFD021C0B1C201C291C26
S11351A005F062F8021C0B1C1298139904F0D0F855
S11351B0061C0F1C0B9C1297002C31D1484B119DDF
S11351C03B409D422CD10D990C9805F011FE05F041
S11351D043FE021C0B1C0C980D9905F0D5FA041C17
S11351E00F980D1C002804D1002E02D112990B0334
S11351F00ED0201C291C344A344B03F02FF900280C
S113520034D1201C291C324A324B03F03BF905E00F
S1135210201C291C304A314B03F020F9002825D1E9
S113522008981C9902F0F3FA08980E9902F0EFFA24
S11352300898099902F0EBFA0898079902F0E7FA3E
S11352405AE50B9C002C11D02A4D00201490159582
S1135250301C391C149A159B05F006F8061C0F1C0B
S113526004D1002802D1089C2223236008981C99A9
S113527002F0CDFA08980E9902F0C9FA0898099933
S113528002F0C5FA0898109902F0C1FA0898079933
S113529002F0BDFA199D002D01D01B982860169CC0
S11352A0321C3B1C002C02D080252D067B19101CBF
S11352B0191C21B0F0BDC046000000000000E03F12
S11352C00000C0FFFFFFDF419535A094FFFFDF3FE3
S11352D035E5AF350000E03F9535A094FFFFCF3FA3
S11352E00000F07F0000E07F0000B0FCFFFF9F7C27
S11352F0FFFFEF7F0000503908B50A1C0349031C67
S11353000868191CFFF7D0F908BDC04670000020DA
S1135310F0B51D1C424B87B01B68059002930391A6
S113532001920B1C1C78029F5E1C3A1951780822CA
S11353300A4001D0331CF5E72D2C04D101279E1C13
S11353405C78009704E000922B2C01D15C789E1CC1
S113535010232A1C9A4311D1302C08D132782021F1
S11353608A43582A07D174781D1C023606E0002DA2
S113537004D10A2502E0002D00D10825009F291C34
S11353807B427B4180273F06FF1A381C02F0E4FF72
S1135390381C0491291C02F09BFF0023021C181CDA
S11353A0029F391949784F0701D5303C07E003279C
S11353B00F4017D05721012F00D13721641AAC4276
S11353C010DA591C0BD0904207D802D1049FBC427A
S11353D003DC68430123201801E001235B42347895
S11353E00136DDE7009F591C0BD180207B427B41B5
S11353F00006059FC01A22233B60019F002F09D19C
S11354000BE0002F00D04042019F002F05D0039AEB
S1135410002B00D0721E019F3A6007B0F0BDC04659
S11354207400002038B5131C044A051C0C1C1068B9
S1135430291C221CFFF76CFF38BDC04670000020F9
S1135440936810B5013B9360002B05DA9469A3427D
S113545008DBCBB20A2B05D01368581C10601970F6
S1135460C8B201E000F072FD10BDF8B5061C0F1CB7
S1135470141CD518AC4208D02178301C3A1CFFF714
S1135480DFFF0134431CF5D100E00020F8BD00002B
S1135490F0B59FB0061C0F1C03920593002804D09E
S11354A08169002901D101F08DFD754B9F4201D125
S11354B0776808E0734B9F4201D1B76803E0724BF1
S11354C09F4200D1F768BB891A070AD53B69002BB4
S11354D007D006AD00236B6120236B763023AB76B7
S11354E03BE0301C391C00F089FD0028F1D001207C
S11354F04042C2E0059A111D12680591002A76DB2C
S11355000992013423782E2B00D181E021785F4861
S1135510032202F039F9002807D05C492A68431AAB
S1135520402098401043286001342178631C584877
S113553006220393297602F027F9002800D18AE095
S1135540544B002B7ED1059B07220733934308332A
S113555005936A69049953186B61039C2378002BA3
S113556004D10399611A029110D003E0252BF8D0DD
S11355700134F3E7301C391C039A029BFFF775FFD3
S1135580013075D06A69029953186B612378002B36
S11355906ED0012252426A606A4600235B320134B3
S11355A02B60EB60AB601370AB6521783A48052241
S11355B002F0EAF8002808D0374A0134831A01209F
S11355C098402B6818432860EFE72B68D90603D569
S11355D06A4620215B3211701A0703D56A462B21D3
S11355E05B32117022782A2A84D0099B05E052424A
S11355F0EA60022213432B6083E72278303A092AB7
S113560004D80A214B4301349B18F6E7099379E740
S113561063782A2B09D1059B02341A1D1B68059255
S1135620002B0DDA01235B420AE0013400232278C7
S1135630303A092A04D80A214B4301349B18F6E76F
S1135640079363E705AB0093301C291C3A1C134BEA
S113565000F0C6F807E005AB0093301C291C3A1C87
S11356600E4B00F05DFB04900499013100D070E70B
S1135670BB895A0600D53AE70B981FB0F0BDC04667
S1135680D4B90000F4B9000014BA000086B80000D0
S11356908AB80000E157000080B800006B54000095
S11356A0F0B58BB0161C1C1C129904D5802212066E
S11356B0A4182D2300E00023149F0B7020239F4384
S11356C0462F08D03A1C453A51424A4110990223C8
S11356D08918109100E003230093139B109A0293FE
S11356E008AB039309AB01920493321C231C00F012
S11356F083FD051C472F02D11199C9072CD5109998
S113570069180791462F14D12B78302B0CD1301CFB
S1135710211C164B144A02F09BFE002804D1109A57
S1135720012313999B1A0B60139A07991368C918DC
S11357300791301C211C0D4B0B4A02F089FE0028F6
S113574001D0079A0992099B07998B4204D25A1CEB
S1135750099230221A70F6E7099B281C5A1B159BE4
S11357601A600BB0F0BDC04600000000000000004D
S1135770F0B52B2385B0051C0C1C0270861C002977
S113578001DA4C422D236B70092C1EDD6F460E3757
S1135790201C0A21019702F03FFE30313970201C91
S11357A00A2102F0E3FD013F041E092CF0DC019BF9
S11357B03034013B1C706A460F32301C934209D2CC
S11357C01A78013332700136F5E73023E418337068
S11357D0B01C7470401B05B0F0BD00000000000058
S11357E0F0B593B00C1C0A920B93189E051C01F0A3
S11357F06DFF00680C90FEF711FF002310933368CF
S11358000722073393431A1C08320D90277E186829
S113581059683260A064E164FEF7C4FD012819D11F
S1135820A06CE16CB94BB84A02F018FE002803D012
S1135830231C2D2243331A70472F01D8B44E00E0A5
S1135840B44E03232068236104239843002120607D
S1135850099191E0A06CE16CFEF7A4FD2368002897
S11358600CD1472F01D8AC4E00E0AC4E032222618C
S1135870042293430022236009927DE06268561C4F
S113588001D1062207E02021381C8843472803D190
S1135890002A01D1012262608022D20013432360D6
S11358A001936B463B3302930FAB6168039310ABD8
S11358B005930023009106930497A26CE36C281CC3
S11358C0FFF7EEFE20233A1C061C9A430F99472A41
S11358D007D1CB1C02DB606881422EDD023FFFB2A0
S11358E001E0652F12D8201C01393A1C50300F9169
S11358F0FFF73EFF109B0990C2182261012B02DCC6
S11359002168C9072FD5013222612CE0662F15D1F9
S11359106368002908DD2161002B02D12268D207C7
S11359201DD50133C91811E0002B03D120680122D1
S1135930104200D09A1C226111E06727109A91420C
S113594006DB22682161D20709D50131216106E015
S11359500123002901DC02235B1AD31823610F9B66
S11359600020A36509906B463B331B78002B03D0C2
S1135970231C2D2243331A700B99281C009111AA61
S1135980211C0A9B00F058F9013002D10120404249
S11359904CE12268530504D4281C0A99321C23695B
S11359A067E0652F00D8E0E0A06CE16C574B564AE5
S11359B002F04EFD00282BD0281C0A99584A0123D6
S11359C00B9EB0470130E1D00F9F1098874207DB50
S11359D02168C90704D42768BF0700D50EE113E185
S11359E0281C0A990C9A0D9B0B9EB0470130CDD010
S11359F00026109B013B9E42EDDA221C281C0A99CA
S1135A001A3201230B9FB8470130BFD00136F0E7AB
S1135A100F98002830DC281C0A99414A01230B9F67
S1135A20B8470130B2D00F98002805D11099002949
S1135A3002D12268D207CED5281C0A990C9A0D9B54
S1135A400B9FB8470130A1D000270F980997099FF1
S1135A5043420A99281C9F4209DA221C1A32012364
S1135A600B9FB847013091D0099F0137EDE7109B98
S1135A70321C0B9EB047B5E0109FA36D08979F4260
S1135A8000DD0893089F002F01DC002714E0281C88
S1135A900A99321C089B0B9FB8470130F5D175E772
S1135AA0221C281C0A991A3201230B9FB847013083
S1135AB000D16BE7099F01370997089FA36DFA434B
S1135AC0D2173A40099F9A1A9742E9DB0F98109926
S1135AD0F318099388420EDB2268D2070BD4109B7B
S1135AE00F9FF618DB1B099FF61B9E4200DD1E1C50
S1135AF0002E17DC1FE0281C0A990C9A0D9B0B9FA3
S1135B00B8470130EBD141E700000000000000007D
S1135B1091B8000095B8000099B800009DB8000045
S1135B20A1B80000281C0A99099A331C0B9FB84796
S1135B30013000D12AE700270BE0221C281C0A9917
S1135B401A3201230B9FB847013000D11EE7099F89
S1135B500137099710980F99F343DB17099F421AED
S1135B603340D31A9F42E8DB35E71098012802DC62
S1135B7001231A423AD0281C0A99321C01230B9F94
S1135B80B847013000D101E7281C0A990C9A0D9BF3
S1135B90B847013000D1F9E6A06CE16C254B244AEA
S1135BA002F056FC002801D0002610E0109B721C65
S1135BB0013B281C0A991CE0221C281C0A991A3251
S1135BC001230B9FB847013000D1DFE60136109B5B
S1135BD0013B9E42F0DB221C281C0A995032099B8F
S1135BE00B9FB847013000D0F5E6CFE60A99281C90
S1135BF0321C0B9EB0470130EDD1C7E60026E068A9
S1135C001199431A9E4205DB119BE06898420DDA14
S1135C10181C0BE0221C281C0A99193201230B9F23
S1135C20B847013000D1B1E60136E8E713B0F0BD62
S1135C300000000000000000F7B5151C01930A697C
S1135C408B68061C0C1C934200DA131C221C2B606C
S1135C5043321278002A01D001332B602068800679
S1135C6002D52B6802332B60216806270F401FD012
S1135C70231C43331B785A1E9341226892061FD576
S1135C80E11840313020C870211C5A1C4531097874
S1135C90A21840320233D17012E0221C301C019948
S1135CA019320123089FB847013011D0009F0137F2
S1135CB00097E0682968009F431A9F42EDDBD7E70D
S1135CC0221C301C01994332089FB847013002D18D
S1135CD00120404223E0206806212B68E26801404D
S1135CE00025042903D1D51AEB43DB171D40A26814
