S0100000746573745F7370692E73726563A9
S1130000D02100209D1D0000991D0000991D0000B5
S113001000000000000000000000000000000000DC
S1130020000000000000000000000000991D000016
S11300300000000000000000991D0000991D000050
S1130040991D0000991D0000991D0000991D0000D4
S1130050991D0000991D0000991D0000991D0000C4
S1130060991D0000351200004512000055120000D1
S1130070651200000000000000000000991D00004F
S1130080991D0000991D0000991D0000991D000094
S1130090991D00000000000000000000F9050000A8
S11300A0991D0000991D0000991D0000991D000074
S11300B010B5064C2378002B07D1054B002B02D03A
S11300C0044800E000BF0123237010BDA8000020F5
S11300D0000000009471000008B5084B002B03D009
S11300E00748084900E000BF07480368002B03D015
S11300F0064B002B00D0984708BDC0460000000006
S113010094710000AC000020947100000000000015
S113011010B50020084B9847084CFA218900A047E5
S1130120074B1860FA218900A047064B1860052286
S1130130054B1A6010BDC046491B0000794B0000F6
S1130140040000200000002010E000E030B5084B5F
S11301501C68084A00258021490206E0002C04D0CE
S11301605460956013680B42FCD00138F6D230BD60
S11301700400002010E000E010B50022002302700B
S1130180427000214280017103760262C261826082
S11301900373C0246401C481037443748374C374FB
S11301A003752A2403554375837524240355C28497
S11301B00285C1752B23C1542C23C15410BDC046E4
S11301C0F0B55F4656464D464446F0B499B0061C19
S11301D0141C0160BC4B186A8022520202431A624A
S11301E00B780520DA0700D5F6E10B781C20990777
S11301F000D5F1E163783371002B00D0DCE1B34B1F
S1130200196C04220A431A64D6E1237D002B02D11F
S11302100123737701E00023737732680192237816
S1130220684603721E2002A9A94B98471E20A94BB9
S113023098472C23E35C002B42D02B22A55C217B26
S113024088464A19D2B2D318DBB299469A4221D2CF
S1130250A14A9346A14B9A460F272F40237BFF18B0
S113026004A859465022D047132F0CD8BF0004AB22
S1130270F85803A900234B70CB708B7001230B70CB
S1130280C0B2974A90470135EDB240464319DBB2FC
S11302904B45E1D3E58904A88F4950228F4B9847F9
S11302A0132D37D8AD0004ABE85803A900234B70D5
S11302B0CB708B7001230B70C0B2894B984729E037
S11302C0257B04A884495022844B9847132D0CD8CD
S11302D0AD0004ABE85803A900234B70CB708B70BE
S11302E001230B70C0B27E4B9847E58904A87A4974
S11302F050227A4B9847132D0CD8AD0004ABE85824
S113030003A900234B70CB708B7001230B70C0B218
S1130310734B9847637D9B00DBB201990B70A37DFF
S1130320DB0162781343DBB24B702379342B00D9A1
S113033040E19B006B4AD3589F46022210250123BB
S11303401AE0637C227C102516E006221025012386
S113035012E00822102500230EE00022302500239D
S11303600AE000222025002306E0002200250023C5
S113037002E00422102502231B0170210B401343C9
S1130380019A9370E37D17203F2B00D924E1D370A9
S11303903268537E5BB2002BFBDBE27C6388134341
S11303A02422A25CD2001343227D92001343A27C38
S11303B0520013432B4301988380237E002B01D1E9
S11303C0316897E0102D5FD002D8002D3CD0F7E7BC
S11303D0202D19D0302DF3D1E27C002A0AD0E26915
S11303E080321720FF2A00D9F6E0226A8032FF2AE1
S11303F000D9F1E01720E169FF2900DDECE0226A71
S1130400FF2A00DDE8E0DBE7E27C002A11D0E069A6
S11304108022920081181720334A914200D9DBE0F0
S1130420206A80229200811817202F4A914200D915
S1130430D2E017202C4AE169914200DDCCE0216A28
S1130440914200DDC8E0BBE7E27C002A11D0E269FA
S11304508020000111181720244A914200D9BBE0E2
S1130460226A8020000111181720204A914200D9E5
S1130470B2E017201D4AE169914200DDACE0216A37
S1130480914200DDA8E09BE7E27C002A11D0E269FA
S11304908020000211181720154A914200D99BE0D0
S11304A0226A8020000211181720114A914200D9B3
S11304B092E017200E4AE169914200DD8CE0216A46
S11304C0914200DD88E07BE7000400400008004022
S11304D0611C0000D51B0000246E00007D23000079
S11304E03D1D0000506D0000FF030000FF0F0000E1
S11304F0FFFF00004A7E52B2002AFBDB019A13720E
S11305003268537E5BB2002BFBDBA38B01988383A1
S11305103268537E5BB2002BFBDB238C01990B8486
S11305202C23E35C002B04D0013BDBB217200F2B00
S113053052D82B22A25C17200F2A4DD83168487E4E
S113054040B20028FBDBE089217B0143A068014322
S113055012050A431B04134301990B612A23E35C2C
S11305600B750F238B752423E35C002B10D0E38CD5
S113057017201D4A93422FD88B84238D802000019D
S1130580191889B21720184A914225D80199CB84A9
S1130590164B1A685201E023DB001A40144B5868CA
S11305A041011B68DB0E0B43DBB2134301990B853E
S11305B0002011E017200FE00023B360F3603361E3
S11305C0B376F376338333770A4B1E602A23E35CD6
S11305D0002B00D119E61EE619B03CBC90469946A2
S11305E0A246AB46F0BDC046FF0F00002460800069
S11305F0206080000C01002038B52D4B1C68236856
S11306001D7EEDB2E90735D5E27ED10732D5A27E53
S1130610D1072FD501221A762268537E5BB2002BB4
S1130620FBDB6369991C6161528B92B21A80238B44
S1130630013B9BB22383002B11D0637F002B19D085
S113064023685A7E52B2002AFBDB197B02220A433A
S11306501A732268537E5BB2002BFBDB0AE0237F14
S1130660052B07D100232377012322689375201CCF
S1130670A368984769070BD5042322681376E37EA1
S1130680990705D5A37E9A0702D5201CE3689847ED
S1130690A9070BD5022322681376E37E590705D5F3
S11306A0A37E5A0702D52369201C984738BDC0464B
S11306B00C010020931C9B001950012393401A1C29
S11306C0837E1A438276704710B5031C048BA4B250
S11306D00520002C1DD1187FC0B2052819D0052093
S11306E018771A83596101221968CA755A7F002044
S11306F0002A0ED01A68517E49B20029FBDB107B18
S11307000221014311731A68537E5BB2002BFBDB99
S1130710002010BD00B583B001AB80221A700A78A6
S11307205A704A789A708A78DA70191C014B984783
S113073003B000BD3D1D000010B5031C4908402056
S113074099420CD30024C91A601C80B28B4201D890
S1130750041CF8E74020FF2C01D81480002010BDB1
S1130760F0B55F4656464D464446F0B487B0061C85
S11307700D1C049210AA1078321C424340248A4271
S113078000D9B3E0002B4BD10021321C5E4CA047B2
S113079083462E1C002700200021002200233F2432
S11307A0A4460125A846029003916146203903D44A
S11307B040468840814605E0202165464C1B404662
S11307C0E040814641466446A1408A46101C191CFB
S11307D080185941021C0B1C5D464C46254202D030
S11307E0424602430B1C9F420CD801D1964209D8C1
S11307F0921BBB415046029D28434946039C21431A
S1130800029003916546013DAC46CED2029803990D
S11308103C4B3B4A121A8B41120C1B041A4362E0F4
S11308200022012B5FD14F0FB946CD00AB4600210A
S1130830321C0023344CA047061C0F1C0023012546
S1130840029603979A465046C0B205900021884606
S1130850002200233F24271C203F03D42E1CBE402B
S1130860019604E02020071B291CF94001912E1C4D
S1130870A6400096101C191C80185941021C0B1C20
S11308805F463740BC46019E4F463E4067463E4366
S113089002D02A1C02430B1C039898420BD802D1A5
S11308A00299914207D8029E039F921BBB4147467F
S11308B000980743B846013CCDD2414652468B1AB4
S11308C0DB08124CA34208D9059A0132D2B2059230
S11308D00126B2445746082FB5D14024059808286C
S11308E004D042031A43049C22800024201C07B035
S11308F03CBC90469946A246AB46F0BDC046C046B5
S11309000000000001000000554D0000FF1F000022
S113091010B582B0041C0F4B1B78002B01D00029AA
S11309200DD001A90C7013200B4B984713200B4BCF
S11309309847084B5C7001221A70002007E0054BB1
S11309405A781D20141B621E94416442204002B058
S113095010BDC046C4000020611C0000D51B00006F
S11309602E4B98421CD003D82D4B984207D04AE016
S11309702C4B984225D02C4B984233D043E001298C
S113098043D0002904D0022906D0032906D001E06F
S1130990264841E000203FE025483DE025483BE073
S11309A0012934D0002904D0022906D0032906D015
S11309B001E0032030E000202EE01F482CE01F4817
S11309C02AE0012925D0002904D0022906D00329D0
S11309D006D001E01A481FE000201DE019481BE082
S11309E0194819E0012916D0002904D0022906D09B
S11309F0032906D001E015480EE000200CE014485D
S1130A000AE0144808E0002006E0134804E0134814
S1130A1002E0134800E013487047C046000C00424F
S1130A2000080042001000420014004203000400C9
S1130A30030006000300070003001E0003001F005C
S1130A400300080003000A0003000B000300100069
S1130A50030012000300130003000500030001005B
S1130A60030009000300110070B584B00E4A694602
S1130A7070CA70C112680A60031C009A82420FD0C7
S1130A80019C844208D0029D854207D00020039E29
S1130A909E4207D1032004E0012002E0022000E08E
S1130AA00020C0B204B070BD746E0000F0B54746BB
S1130AB080B488B0051C0C1C161C29600B681C2013
S1130AC09A0700D5DFE00B680520DA0700D5DAE0E5
S1130AD0081C6F4B98476F4B196A821C012797407B
S1130AE03A1C0A431A6207A92427F35D0B701430D9
S1130AF0C0B28046684B98474046684B9847F05DC3
S1130B000021674B98473378012B03D122680C23CB
S1130B10134323603378002B00D0B1E0226808230C
S1130B2013432360ACE0EA18D16004331C2BFAD1E0
S1130B300023EB62AB620024AB862B863623EC5495
S1130B403723EC543823EC5403236B722C7128683C
S1130B504F4B9847071C5349534B9847BF00534B7F
S1130B60FD502F6802AB80221A705C7001229A70CB
S1130B70DC703378002B02D1002202AB9A70B36A86
S1130B800393F06A0490326B0592736B069300240E
S1130B90E1B2A30003AA9858002802D1381C444AA1
S1130BA09047431C06D06A461072000CC0B202A9DA
S1130BB0404B98470134042CEAD133786B71337C71
S1130BC0AB71B37CEB71337D2B7200226B46DA8000
S1130BD03378012B14D128682D4B98471430C0B2B8
S1130BE0354B9847011CB0696A460632334B984727
S1130BF0031C1720002B46D16B4606331B783B732E
S1130C003378002B0FD1B169B38B786AF47F240455
S1130C10B27F224302437A622022B25C002A04D0CB
S1130C204022134301E000230021B26870680243AC
S1130C30F06802430A43317C0B43717C002903D1E1
S1130C401F498978880701D580210A43B17C00298E
S1130C5002D0802189020B43F17C002902D080213B
S1130C6089000B43317D002902D0802189010B4387
S1130C7039680A433A607A6813437B60002002E0D3
S1130C80002300214FE708B004BC9046F0BDC046E5
S1130C90690A000000040040611C0000D51B00002C
S1130CA011090000CD0F0000C9110000140100203B
S1130CB0610900003D1D00007D1C00003907000093
S1130CC00020004110B544791523012C6CD1047A1D
S1130CD00023002C68D1002A57D04B78002B44D035
S1130CE00268137EDC070FD40B78D909002200298F
S1130CF003D15A09D2012D4952181F210B40012159
S1130D009940916105234FE00B78DC090022002C07
S1130D1003D15A09D201254C12191F24234001245E
S1130D209C405461897803681A7ED40700D599627F
S1130D30C2790023002A37D102680421137E0B42B2
S1130D40FCD0117E00234C072ED5538B590703D5B5
S1130D50518B04230B4353838379012B02D1936A70
S1130D60002321E0936A00231EE00B78D9090022B6
S1130D70002903D15A09D2010C4C12191F210B402E
S1130D8001219940516100230EE00B78D90900221A
S1130D90002903D15A09D201044952181F210B40DA
S1130DA00121994091610023181C10BD00440041A9
S1130DB0F0B55F4656464D464446F0B483B0041C35
S1130DC092463823C05CC0B2052800D1F1E0172058
S1130DD0002A00D1EDE06379002B05D12368187E49
S1130DE0820701D5022018765546002001230226E9
S1130DF0B4460427BB468FE06279002A01D02668F6
S1130E0016E02268167E1E4206D16D4E177E1F42E2
S1130E1002D1013E002EF9D1167E67463E4203D030
S1130E20022313760420C4E0127E1A42E7D1B3E011
S1130E30327E1A42FCD0421C92B290460F5CA279D8
S1130E40012A01D0404605E0023080B242468A5C65
S1130E5012021743327E1A4202D0FF05FF0DB76219
S1130E606A1E96B2E279002A01D1351C56E06279F5
S1130E70002A37D1534A01912668377E1F421CD07D
S1130E80471CBFB2B9460199095C8846A779012F6E
S1130E9001D0484608E0023080B201994F46C95D4E
S1130EA0090247460F43B846377E1F4203D04746E0
S1130EB0F905CF0DB762013DADB22668377E5946BC
S1130EC00F4202D1013A002AD6D10199327E6746F7
S1130ED03A4203D00223337604206AE0327E5E462F
S1130EE032425BD02668327E5F463A42FBD0327E85
S1130EF03A420DD0728B3A4204D0728B04273A43A3
S1130F0092B27283A279012A01D1B26A00E0B26A74
S1130F105246013A92B29246013DADB22A4A9542F6
S1130F2000D069E751466379012B05D1216802227B
S1130F300B7E1342FCD033E0002B33D1E379002045
S1130F40002B36D000292FD004251D4E04275046EF
S1130F501CE00A7E2A4202D1013B002BF9D10B7E10
S1130F602B4223D00B7E2B420CD04B8B2B4203D035
S1130F704B8B3B439BB24B83A379012B01D18B6AEF
S1130F8000E08B6A013880B2002811D021680B7E02
S1130F902B42E4D1331CDCE712200AE0122008E0E3
S1130FA0002006E0002004E0002002E0122000E01F
S1130FB0002003B03CBC90469946A246AB46F0BD27
S1130FC01027000011270000FFFF0000F8B5800083
S1130FD07A4BC45825683623E35C3722A75C1F404C
S1130FE02B7EAE7D1E40F10741D56379012B16D1CE
S1130FF0637A002B0FD1724B1B88AB62638E013B6B
S11310009BB26386638E9BB2002B01D101232B75A7
S11310106379012B03D1637A002B05D127E0002BE0
S113102025D1637A002B22D02268E36A1978C9B2E9
S1131030581CE062A079012804D1587800020143C9
S11310400233E362CB05DB0D9362A38E013B9BB2BB
S1131050A386A38E9BB2002B09D101232B75637A3F
S1131060012B04D1E379002B01D10223AB75720764
S113107061D56B8B590714D5637A012B0BD01E22D3
S11310803823E2540323637205232B753A0702D5F0
S1131090201CA3699847AB6A6A8B042313436B83B0
S11310A049E0637A012B16D123689B6A638E013B66
S11310B09BB26386638E9BB2002B3CD104232B75B9
S11310C000223823E25403236372F90733D5201C2A
S11310D0E26890472FE023689A6AD205D20DD3B212
S11310E0A16A0B70A36A591CA162A179012904D1D8
S11310F0120A5A70A36A0133A362238E013B9BB286
S11311002386238E9BB2002B15D100223823E25470
S113111004232B75637A022B05D17A070BD5201C87
S11311206369984707E0637A002B04D1B90702D5B5
S1131130201C22699047B30728D56379002B10D16E
S113114007232B7502232B76032363720023A386C4
S1131150238638230022E254F90602D5201CE269D2
S113116090476379012B11D1637A012B0ED1E37976
S1131170002B0BD102232B75032363720022382327
S1131180E254FB0702D5201CE168884732070AD5E0
S11311906379002B07D108232B752B76BB0602D568
S11311A0201C216A8847F60907D080232B752B76EB
S11311B07A0602D5636A201C9847F8BD1401002002
S11311C0100100207047C04630B50B4B1B78002B34
S11311D00ED10A4C0A4D25600A4B00221A60656044
S11311E05A60A5609A60E560DA600122024B1A70C9
S11311F08000024BC15030BDC8000020CC0000204C
S1131200C51100001401002030B583B0051C01ACE9
S1131210201C05490422054B9847281C044B984779
S1131220205603B030BDC046846E00007D2300000C
S1131230690A000008B5024B1B680020984708BDE6
S1131240CC00002008B5024B5B680120984708BD1C
S1131250CC00002008B5024B9B680220984708BDCB
S1131260CC00002008B5024BDB680320984708BD7A
S1131270CC0000207047C0460C4B1B68002B10D1DB
S1131280EFF31083002B09D172B6BFF35F8F0022F6
S1131290074B1A700122074B1A7002E00022054B1B
S11312A01A70024B1A6801321A607047DC00002081
S11312B008000020E0000020084B1A68013A1A6078
S11312C01B68002B09D1064B1B78002B05D001228B
S11312D0044B1A70BFF35F8F62B67047DC000020C6
S11312E0E000002008000020F0B55F4656464D4659
S11312F04446F0B493B0051C0C1C161C2960081C51
S1131300A94B9847021C23680520D90700D543E15F
S113131023681C209F0700D53EE1A44B186A911C4A
S113132001278F40391C0143196211A92D27F35D50
S11313300B701432D2B29046101C9D4B9847404615
S11313409C4B9847F05D00219B4B9847F37A6B7157
S11313502423F35CAB712523F35CEB71F37E2B72D6
S1131360337F6B7229688846081C8F4B984714306A
S113137000226B46DA85328A03928023DB019A428B
S113138021D08023DB019A4204D880239B019A4216
S113139011D008E0C023DB01039F9F420FD08023BC
S11313A01B029F4203D01027089700270EE0032753
S11313B0089700270AE010270897012706E0082766
S11313C00897012702E0082708970027316804914D
S11313D0F268059273690693317E8A462623F35C8C
S11313E09B4672689146002A13D080235B059A427B
S11313F02ED12723F35C002B2ED1376AC0B26F4B5A
S11314009847011C381C6A462E326D4B9847031CC2
S11314101FE02723F35C002B0AD008990091306A5F
S1131420B16A6A462E323B1C664FB847031C10E073
S1131430316A0991C0B2614B9847011C089A009225
S113144009986A462E323B1C5E4FB847031C00E0E5
S11314500023181E00D09FE0737E002B02D0B37EC1
S113146041468B732A68039FD369002BFCD10397F1
S11314706B462E331B8842469381059B049F3B4356
S1131480069F3B4349460B43039F1F4352461302A7
S11314901F4359464B071F432723F35C002B01D1FD
S11314A004231F43317F4902737E9B021943737FD8
S11314B01B0219432423F35C5B0419432523F35CC7
S11314C01B041943F37A19433389FF2B04D0802278
S11314D052041743194305E0F37E002B02D0802306
S11314E0DB041F432C23F35C002B03D1364B9B7886
S11314F09A0701D580231F432A68D369002BFCD1A6
S1131500434659602A68D369002BFCD141460F60D9
S113151010AB80221A7000225A70DA709A70326B03
S11315200C92736B0D93B76B0E97F66B0F960027A7
S113153010AEF9B2BB000CAA9858002802D1201CA6
S1131540224A9047431C05D03070000CC0B2311CB5
S11315501F4A90470137042FEBD10023EB602B6126
S11315606B61AB61EB612B62AB626B620022EB855A
S1131570AB853023EA543123EA543223EA5433232B
S1131580EA542868084B9847041C1249124B9847A0
S1131590A400124BE550002013B03CBC9046994681
S11315A0A246AB46F0BDC046690A000000040040F4
S11315B0611C0000D51B0000110900007D1C000007
S11315C039070000610700000020004161090000A4
S11315D03D1D000085160000C91100001401002003
S11315E010B5021C0368C4791C20002C0DD0D28DC8
S11315F092B20520002A08D1DA69002AFCD11985A3
S113160002211A7E0A42FCD0002010BD10B5031C32
S1131610046882791C20002A33D09B8D9BB205205C
S1131620002B2ED1237E5A072BD5E369002BFCD146
S1131630638BDBB29A0621D09A0703D50223638316
S11316401A201EE05A0703D5042363831E2018E0E2
S1131650DA0703D501236383132012E0DA0605D5E4
S1131660628B10231343638342200AE09A0605D554
S1131670628B202313436383412002E0238D0B807C
S1131680002010BDF8B58000644BC5582C68E36990
S1131690002BFCD1237EA67D1E403123EB5C30223F
S11316A0AF5C1F40F10720D5EB8D9BB2002B1AD005
S11316B0AB6A1A78D2B2591CA9626979012904D19A
S11316C0597809020A430233AB62D305DB0D238543
S11316D0EB8D013B9BB2EB85002B06D101232375D7
S11316E00223A37501E001232375B20709D5022360
S11316F0237500223323EA54FB0702D5281CE9682A
S1131700884772076AD5AB8D9BB2002B64D0638B7C
S1131710DBB2190702D43F22134001E03722134001
S1131720002B37D09A0707D51A223223EA54628B4A
S113173002231343638327E0590707D51E2232236C
S1131740EA54628B0423134363831DE0DA0707D54D
S113175013223223EA54628B01231343638313E07D
S1131760D90607D542223223EA54628B102313434D
S1131770638309E020221A4206D041223223EA542C
S1131780628B2023134363837A0727D5281C6B6954
S1131790984723E0228DD205D20DD3B2696A0B702B
S11317A06B6A591C69626979012904D1120A5A7059
S11317B06B6A01336B62AB8D013B9BB2AB85002B33
S11317C00CD10423237500223223EA54BA0705D529
S11317D0281C2B69984701E004232375F10607D5DB
S11317E0102323752376FA0602D5281CEB69984743
S11317F0B10607D52023237523763A0702D5281C82
S1131800AB699847310707D5082323752376BA06B1
S113181002D52B6A281C9847F8BDC0461401002045
S113182008B5082834D880001B4B1B589F468020DD
S1131830000230E0194B18692DE0194B186A800535
S1131840800F184BC340181C25E0144B586922E044
S1131850124B1B68022018401DD011491022CB687E
S11318601A42FCD00D4B1B685A0713D500200E4BAF
S113187098470A4B9B681B041B0C58430BE05023EE
S1131880074AD35C00205A0705D5044BD86802E008
S1131890002000E0054808BD886E0000E400002038
S11318A00008004000127A007D1C0000006CDC027D
S11318B070B50C4B1C6A0178857840780122104081
S11318C080014026B44304432A40D001802294433B
S11318D0221C0243032001400902034802400A4338
S11318E01A6270BD00080040FFFCFFFF082849D8B9
S11318F08000254B1B589F46002044E0234B196A67
S113190002220A431A6200203DE0204B9969022218
S11319100A439A61002036E01C4B198A02220A43CA
S11319201A8200202FE0194B998A02220A439A82D4
S1131930002028E0164A1168022319431160134A53
S11319409384111C1022CB681A42FCD0104A91686F
S11319500E4BD96252689A6200229A84191C102292
S1131960CB681A42FCD00A4B1A6892B2074B9A848D
S1131970002008E0054A4423D05C02210143D154ED
S1131980002000E017207047AC6E00000008004003
S1131990E400002030B585B0C222D2001A4B9A6010
S11319A01A4B5A681E218A435A6001236A461370EF
S11319B00024174DE0B26946A8470134252CF9D11B
S11319C003A800244470012585700470114B9847C6
S11319D00620114B9847114B9847114B1C725C72AF
S11319E09C72DC7201956B465C7006236A46137028
S11319F014725472002069460A4B984700200A4B1F
S1131A00984705B030BDC046000800400040004182
S1131A10611C0000B1180000ED1800002D1A000030
S1131A2000040040511A0000051B0000064B996990
S1131A3008220A439A610122044B1A70191C0B787C
S1131A401342FCD17047C04600040040000C004023
S1131A50F8B5061C071C0D782D0205434B78002BA6
S1131A6002D08023DB021D434B7A002B02D080235B
S1131A701B031D434C68012C17D9631E1C420FD154
S1131A80022C06D90223002201325B009C42FBD8BF
S1131A9000E000221702374380235B031D4304E068
S1131AA02702374380239B021D430B7A002B02D06D
S1131AB080239B031D430F4A53785BB2002BFBDB4F
S1131AC00D4B98470D4B1E700A4A53785BB2002B9E
S1131AD0FBDB084B9F601A1C53785BB2002BFBDBCB
S1131AE0044B5968802252020A4015435D60044B3E
S1131AF09847F8BD000C004079120000080C004023
S1131B00B912000010B5041C0B4A53785BB2002BC9
S1131B10FBDB0A4B98470A4B1C70074A53785BB2AD
S1131B20002BFBDB044B5968802252020A435A60A3
S1131B30044B984710BDC046000C004079120000C9
S1131B40040C0040B912000070B5041C1A4A537802
S1131B505BB2002BFBDB194B9847194B1C70164AE0
S1131B6053785BB2002BFBDB134E7068C004C00ECD
S1131B70144B9847051C124B1C707668F602F60F3E
S1131B80114B1C700C4A53785BB2002BFBDB0A4BE5
S1131B909C68240AA4B20D4B9847002E07D1012C4F
S1131BA007D9281C211C0A4B9847051C01E0013465
S1131BB0E540281C70BDC046000C004079120000AE
S1131BC0040C004021180000080C0040B912000069
S1131BD0794B000010B5041C064B9847064B1C704B
S1131BE0064B59888022D2010A435A80044B9847F5
S1131BF010BDC04679120000020C0040000C0040E9
S1131C00B912000010B5041C0F4B98470F4B1C7001
S1131C100F4B58880005000F59880E4A0A405A8015
S1131C2059880D4A0A405A80191C8022D2014B88D7
S1131C301342FCD1064B01025888064A02400A436B
S1131C405A80064B984710BD79120000020C0040E0
S1131C50000C0040FFF0FFFFFFBFFFFFB9120000C0
S1131C6010B50C7824020443024B9847A4B2024BEB
S1131C705C8010BD051C0000000C004010B5041C65
S1131C80064B9847064B1C70064B5C882405240FB2
S1131C90054B9847201C054B984710BD791200004E
S1131CA0020C0040000C0040B9120000491B000067
S1131CB030B5D378002B1ED11378802B04D01B06AB
S1131CC080246402234300E0002354780225AC43BB
S1131CD00AD19478002C03D18024A402234302E087
S1131CE0C024E402234341605478013C012C04D80D
S1131CF0114C234001E0416000230D042D0CA0246D
S1131D00E4052C431C4384620D0CD02424062C438C
S1131D101C438462D478002C0CD15C0305D59378E1
S1131D20012B01D1816100E041615378013B012B1A
S1131D3000D8816030BDC046FFFFFBFF08B5031C1F
S1131D400A1CC1090020002903D15809C001044913
S1131D5040181F210B4001219940024B984708BDB0
S1131D6000440041B11C00007047C04608B5054B53
S1131D709847054B9847054B9847054B9847054BA3
S1131D80984708BD9519000075120000691D0000F0
S1131D90691D0000691D0000FEE7C04670B52C4BAC
S1131DA02C4A9A4203D02C4B294A9A4204D32B4BF7
S1131DB02B4A9A4210D31BE02A4B27480330C01AFF
S1131DC080080130800000232149224AD458CC5095
S1131DD004338342FAD1EAE7214B1A1D1F49033128
S1131DE0891A890889005218002102C39342FCD140
S1131DF01D4BFF211D4A8A439A60022190235B00F8
S1131E001B4AD1501B4BD87803218843022210432C
S1131E10D870DD780C24A54308200543DD70164BEB
S1131E209E7B3025AE43202535439D739D7BA54382
S1131E3028439873987B884302439A730F4B5968DD
S1131E4080220A435A600E4B98470E4B9847FEE790
S1131E500000002094710000A8000020D0010020A0
S1131E60A80000200400002000ED00E000000000B5
S1131E700070004100500041004800410040004112
S1131E803123000051200000F0B5474680B40C1CFB
S1131E90904600280CD1002A0DDD8F18094E0A4DFA
S1131EA03068211C2B6898470134BC42F8D104E007
S1131EB00120404202E0002000E0404604BC90467D
S1131EC0F0BDC0462C01002024010020F0B5474697
S1131ED080B40E1C151C0138022810D8002A11D019
S1131EE000240D4B98460D4F43461868315D3B68FE
S1131EF09847002808DB0134A542F5D107E001200A
S1131F00404205E0002003E00120404200E0201CA4
S1131F1004BC9046F0BDC0462C01002028010020DE
S1131F20064B1B68002B02D1054A044B1A60034A76
S1131F30136818181060181C7047C046FC00002075
S1131F40D0210020012040427047C04680239B01DD
S1131F504B6000207047C046012070470020704746
S1131F60054B19885A888A1899885218DB88D21820
S1131F709208024B1A80704764010020000100207F
S1131F8070B582B0051C0E1C00226B46DA80064C2C
S1131F90281C69460631A0470028F9D16B46063350
S1131FA01B88337002B070BD0D16000070B5061C9E
S1131FB00D1C034C301C291CA0470028FAD170BD0D
S1131FC0E115000010B58CB06846194B9847002302
S1131FD002938022520069464A8003224A700B739E
S1131FE010230B71134C201C13496A46134B98475A
S1131FF023685A7E52B2002AFBDB80210904104A6E
S11320001160197802220A431A700A4B1A68537E27
S11320105BB2002BFBDB074C201C0A4900220A4B55
S11320209847E27E01231343E3760CB010BDC0460B
S113203079010000AC01002000400042C101000011
S113204000E100E0611F0000B50600000000000090
S1132050F0B55F4656464D464446F0B493B08A4BBD
S113206098478A4B98478023DB050093002301930C
S1132070FF226846028100228372C372962189017D
S11320800891012124206C46215425202154262125
S11320906354272163540A938821490303912C2113
S11320A063542D21635405932382E37622762277A9
S11320B062761323A3766277754B0C93754B0D935D
S11320C001235B420E930F93734E744D744C301C7A
S11320D0291C6A46A0470028F9D16F4C714B1C603B
S11320E0714A724B1A60724A724B1A60201C6B4917
S11320F06A466B4B9847704E3368986800216F4D61
S1132100A847336858680021A8472568281C6C4BE9
S113211098471F221040012282406A4B1A602368AC
S1132120DA69002AFCD12A68022313432B6011A91F
S113213001254D7000248C700D700220624FB84749
S113214010A94C70CC708C700D7003205F4B9847B5
S11321505F4B98475F4E092333707470B4706946BF
S11321604D708C700D700920B84733785909D8091F
S11321700022002802D1CA01574C12191F273B40E4
S11321800124201C9840906169460C70002301933F
S113219002938022520203920B744B748C74CC749D
S11321A00B7524228B54079308934C4B06930123FD
S11321B05B420A930B934A4B0C934A4B0D934A4E42
S11321C0301C4A496A464A4B98473568281C3C4BA0
S11321D098470740BC403B4B1C603368DA69002ACF
S11321E0FCD12A68022313432B600026414A9346FC
S11321F0414B9A461AE03C4F364CA146381C211CF0
S113220001223E4B984698470123B3406C46237005
S1132210381C694601223A4B9847381C494600222B
S1132220C047FA204000374B98470136072EE2DDBD
S11322305846354989468847344835490422354B40
S11322409847254F04229046BA6164202D4EB0472A
S1132250314B1888314B98475146314B9847314B95
S11322609847084B064A304CA047021C0B1C2F48C9
S1132270C847404678616420B0470026D6E7C04688
S11322806666666666660A406D1D00001101000000
S11322900200180002001700300100200014004260
S11322A0E91200002C010020AD1F000028010020CD
S11322B0811F0000240100206C000020D5230000B1
S11322C00912000000E100E0150700003D1D0000B8
S11322D0C51F0000A801002000440041A0860100A1
S11322E002000A0002000B006C01002000080042FA
S11322F0AD0A0000D06E000000FF7F47C50C00004F
S1132300B10D00004D010000A1230000AC0100202C
S113231064010020C906000000010020E54F000010
S1132320994D0000716C00009D5F0000D86E0000A4
S113233070B50E4B0E4D0024ED1AAD101E1CAC42B0
S113234004D0A300F35898470134F8E704F012FFCF
S1132350084B094D0024ED1AAD101E1CAC4204D0EC
S1132360A300F35898470134F8E770BD807100006A
S113237080710000807100008471000010B500239A
S1132380934203D0CC5CC4540133F9E710BD031C61
S11323908218934202D019700133FAE770470000A3
S11323A00FB40B4B13B51C68002C05D0A369002B8C
S11323B002D1201C01F062FE05ABA168201C049A26
S11323C0019300F0BFF816BC08BC04B01847C0461F
S11323D06C00002008B54A424A4180235200DB00C9
S11323E000F002F808BD0000F7B51E1C3C4B041CAD
S11323F01D680F1C0192002D05D0AA69002A02D184
S1132400281C01F03BFE374B9C4201D16C6808E06C
S1132410354B9C4201D1AC6803E0344B9C4200D163
S1132420EC68019B022B57D8002E55DB281C211C7D
S113243001F0A4FD00236360A361A3891A0603D5F8
S1132440281C216902F0F0F9A38983229343A38114
S1132450019B022B13D0002F25D1002E01D1802601
S1132460F600301C01F0CEFE071E18D18020C000FB
S113247001F0C8FE071E10D10120404200E00020F8
S1132480A38902221343A3810023A360231C47339F
S1132490236023610123636120E08026F600A38981
S11324A080221343A381019A012A04D1A3891343EF
S11324B0A3817342A3610E4B0020AB62A389276002
S11324C0276166611A0709D5032213405A42534112
S11324D05B421E40A66001E001204042FEBDC046B2
S11324E06C0000204C6F00006C6F00008C6F0000CB
S11324F0D53F0000936810B5013B9360002B05DACB
S11325009469A34208DBCBB20A2B05D01368581C8C
S113251010601970C8B201E000F074FD10BDF8B588
S1132520061C0F1C141CD518AC4208D02178301C92
S11325303A1CFFF7DFFF0134431CF5D100E0002013
S1132540F8BD0000F0B59FB0061C0F1C0392059364
S1132550002804D08169002901D101F08FFD754B59
S11325609F4201D1776808E0734B9F4201D1B7685D
S113257003E0724B9F4200D1F768BB891A070AD562
S11325803B69002B07D006AD00236B6120236B76DB
S11325903023AB763BE0301C391C00F08BFD002867
S11325A0F1D001204042C2E0059A111D1268059144
S11325B0002A76DB0992013423782E2B00D181E0A6
S11325C021785F48032201F027FE002807D05C49E8
S11325D02A68431A40209840104328600134217827
S11325E0631C584806220393297601F015FE00283F
S11325F000D18AE0544B002B7ED1059B0722073380
S11326009343083305936A69049953186B61039CD7
S11326102378002B04D10399611A029110D003E0AE
S1132620252BF8D00134F3E7301C391C039A029BA4
S1132630FFF775FF013075D06A69029953186B6111
S11326402378002B6ED0012252426A606A4600232E
S11326505B3201342B60EB60AB601370AB652178A7
S11326603A48052201F0D8FD002808D0374A013441
S1132670831A012098402B6818432860EFE72B68E1
S1132680D90603D56A4620215B3211701A0703D597
S11326906A462B215B32117022782A2A84D0099B46
S11326A005E05242EA60022213432B6083E722785A
S11326B0303A092A04D80A214B4301349B18F6E71F
S11326C0099379E763782A2B09D1059B02341A1DF3
S11326D01B680592002B0DDA01235B420AE00134EA
S11326E000232278303A092A04D80A214B430134C2
S11326F09B18F6E7079363E705AB0093301C291C8E
S11327003A1C134B00F0C8F807E005AB0093301CEB
S1132710291C3A1C0E4B00F05FFB04900499013114
S113272000D070E7BB895A0600D53AE70B981FB072
S1132730F0BDC0464C6F00006C6F00008C6F000051
S1132740FE6E0000026F000099280000F86E000081
S11327501F25000000000000F0B58BB0161C1C1CE7
S1132760129904D580221206A4182D2300E0002318
S1132770149F0B7020239F43462F08D03A1C453AE0
S113278051424A41109902238918109100E0032311
S11327900093139B109A029308AB039309AB019225
S11327A00493321C231C00F083FD051C472F02D127
S11327B01199C9072CD5109969180791462F14D17E
S11327C02B78302B0CD1301C211C164B144A02F0F0
S11327D093FA002804D1109A012313999B1A0B60D1
S11327E0139A07991368C9180791301C211C0D4BC3
S11327F00B4A02F081FA002801D0079A0992099B3A
S113280007998B4204D25A1C099230221A70F6E7B7
S1132810099B281C5A1B159B1A600BB0F0BDC046BF
S11328200000000000000000F0B52B2385B0051C5B
S11328300C1C0270861C002901DA4C422D236B709B
S1132840092C1EDD6F460E37201C0A21019702F069
S113285037FA30313970201C0A2102F0DBF9013FCC
S1132860041E092CF0DC019B3034013B1C706A46C9
S11328700F32301C934209D21A7801333270013678
S1132880F5E73023E4183370B01C7470401B05B0B6
S1132890F0BD000000000000F0B593B00C1C0A92DB
S11328A00B93189E051C01F059FC00680C9002F073
S11328B0DFF80023109333680722073393431A1C6D
S11328C008320D90277E186859683260A064E1646C
S11328D002F046F8012819D1A06CE16CB94BB84A52
S11328E002F010FA002803D0231C2D2243331A705F
S11328F0472F01D8B44E00E0B44E0323206823616F
S11329000423984300212060099191E0A06CE16CBC
S113291002F026F8236800280CD1472F01D8AC4ECA
S113292000E0AC4E03222261042293430022236080
S113293009927DE06268561C01D1062207E020213D
S1132940381C8843472803D1002A01D10122626040
S11329508022D2001343236001936B463B330293DE
S11329600FAB6168039310AB0593002300910693AA
S11329700497A26CE36C281CFFF7EEFE20233A1C9C
S1132980061C9A430F99472A07D1CB1C02DB6068C7
S113299081422EDD023FFFB201E0652F12D8201CD8
S11329A001393A1C50300F91FFF73EFF109B0990FC
S11329B0C2182261012B02DC2168C9072FD501321C
S11329C022612CE0662F15D16368002908DD21619E
S11329D0002B02D12268D2071DD50133C91811E09A
S11329E0002B03D120680122104200D09A1C2261DE
S11329F011E06727109A914206DB22682161D20711
S1132A0009D50131216106E00123002901DC0223FB
S1132A105B1AD31823610F9B0020A36509906B46B2
S1132A203B331B78002B03D0231C2D2243331A7015
S1132A300B99281C009111AA211C0A9B00F058F93B
S1132A40013002D1012040424CE12268530504D4F4
S1132A50281C0A99321C236967E0652F00D8E0E03E
S1132A60A06CE16C574B564A02F046F900282BD073
S1132A70281C0A99584A01230B9EB0470130E1D023
S1132A800F9F1098874207DB2168C90704D4276881
S1132A90BF0700D50EE113E1281C0A990C9A0D9B7F
S1132AA00B9EB0470130CDD00026109B013B9E42C7
S1132AB0EDDA221C281C0A991A3201230B9FB8470D
S1132AC00130BFD00136F0E70F98002830DC281C15
S1132AD00A99414A01230B9FB8470130B2D00F989D
S1132AE0002805D11099002902D12268D207CED539
S1132AF0281C0A990C9A0D9B0B9FB8470130A1D052
S1132B0000270F980997099F43420A99281C9F425E
S1132B1009DA221C1A3201230B9FB847013091D0E5
S1132B20099F0137EDE7109B321C0B9EB047B5E0BF
S1132B30109FA36D08979F4200DD0893089F002F04
S1132B4001DC002714E0281C0A99321C089B0B9F07
S1132B50B8470130F5D175E7221C281C0A991A32AE
S1132B6001230B9FB847013000D16BE7099F013760
S1132B700997089FA36DFA43D2173A40099F9A1AFE
S1132B809742E9DB0F981099F318099388420EDBFA
S1132B902268D2070BD4109B0F9FF618DB1B099FEA
S1132BA0F61B9E4200DD1E1C002E17DC1FE0281CB5
S1132BB00A990C9A0D9B0B9FB8470130EBD141E762
S1132BC00000000000000000096F00000D6F00000D
S1132BD0116F0000156F0000196F0000281C0A997E
S1132BE0099A331C0B9FB847013000D12AE700270C
S1132BF00BE0221C281C0A991A3201230B9FB847A8
S1132C00013000D11EE7099F0137099710980F99E9
S1132C10F343DB17099F421A3340D31A9F42E8DB80
S1132C2035E71098012802DC01231A423AD0281C07
S1132C300A99321C01230B9FB847013000D101E7E8
S1132C40281C0A990C9A0D9BB847013000D1F9E66B
S1132C50A06CE16C254B244A02F04EF8002801D008
S1132C60002610E0109B721C013B281C0A991CE0F2
S1132C70221C281C0A991A3201230B9FB8470130E1
S1132C8000D1DFE60136109B013B9E42F0DB221CA3
S1132C90281C0A995032099B0B9FB847013000D079
S1132CA0F5E6CFE60A99281C321C0B9EB04701308A
S1132CB0EDD1C7E60026E0681199431A9E4205DB70
S1132CC0119BE06898420DDA181C0BE0221C281CAA
S1132CD00A99193201230B9FB847013000D1B1E69C
S1132CE00136E8E713B0F0BD00000000000000006A
S1132CF0F7B5151C01930A698B68061C0C1C9342DA
S1132D0000DA131C221C2B6043321278002A01D0F3
S1132D1001332B602068800602D52B6802332B60B8
S1132D20216806270F401FD0231C43331B785A1EEB
S1132D309341226892061FD5E11840313020C870B3
S1132D40211C5A1C45310978A21840320233D17033
S1132D5012E0221C301C019919320123089FB84744
S1132D60013011D0009F01370097E0682968009F67
S1132D70431A9F42EDDBD7E7221C301C01994332F2
S1132D80089FB847013002D10120404223E0206867
S1132D9006212B68E26801400025042903D1D51AD5
S1132DA0EB43DB171D40A26823699A4201DDD31A65
S1132DB0ED1800270097009FAF420BDA221C301C4D
S1132DC001991A320123089FB8470130DCD0009FD3
S1132DD00137EFE70020FEBDF0B50D1C8BB0433585
S1132DE006920590079304950B7E0C1C109A6E2B8B
S1132DF000D1A7E011D8632B22D009D8002B00D131
S1132E00B0E0582B00D0C0E045310B707B4D4EE054
S1132E10642B1CD0692B1AD0B7E0732B00D1A5E02A
S1132E2009D86F2B29D0702B00D0AEE00E68202378
S1132E3033430B6036E0752B1FD0782B32D0A4E0DF
S1132E4013680D1C191D423511601B689FE0216831
S1132E5013680E0603D5191D11601E6805E04806A7
S1132E60F9D5191D116000215E5E644B002E3BDA1A
S1132E70049D2D2276422A7036E0216813680E06DE
S1132E8003D5191D11601E6804E04806F9D5191D03
S1132E901E881160594B227E039308276F2A1ED087
S1132EA00A271CE0231C78214533554D19701168FD
S1132EB02368081D039510601E0601D50E6802E004
S1132EC05806FBD50E88D90702D520221343236068
S1132ED01027002E03D1226820239A432260231C4A
S1132EE0002243331A7001E003930A276368A36046
S1132EF0002B03DB2568042295432560002E02D1B4
S1132F00049D002B0ED0049D301C391C01F078FE6A
S1132F100398013D435C301C2B70391C01F02CFEDE
S1132F20061EF1D1082F09D12168C90706D56268A8
S1132F3023699A4202DC013D30232B70049E731BEB
S1132F4023612AE0086813684969050604D5181D39
S1132F5010601B68196005E04606F8D5181D10605E
S1132F601B68198000232361049D16E01368191D52
S1132F7011601D68281C01F07BFD63682061984284
S1132F8000D923612069606004E0251C42352B7060
S1132F9001232361049E00233370079E0598009645
S1132FA0211C09AA069BFFF7A3FE013002D10120D0
S1132FB0404221E02A1C059806992369079DA847E9
S1132FC00130F4D02668B60705D4099BE06898421E
S1132FD012DA181C10E00025E0680999431A9D4292
S1132FE0F3DA221C0598069919320123079EB0478B
S1132FF00130DCD00135EFE70BB0F0BD1B6F0000F2
S11330002C6F000070B5051C0E1C141C002804D085
S11330108269002A01D101F031F8234B9C4201D18D
S11330206C6808E0214B9C4201D1AC6803E0204B62
S11330309C4200D1EC68A369A360A3891A070AD54E
S11330402369002B07D022682369F6B2D01A62697B
S113305090420FDB08E0281C211C00F02BF800280C
S1133060F1D0012040421DE0281C211C00F086FF05
S11330700028F6D1A3680130013BA36023685A1CE1
S113308022601E706369984205D0A389301CDA0758
S113309008D50A2E06D1281C211C00F06FFF002839
S11330A0DFD1301C70BDC0464C6F00006C6F000057
S11330B08C6F0000344B70B51D68061C0C1C002D71
S11330C005D0A969002902D1281C00F0D7FF2F4B95
S11330D09C4201D16C6808E02D4B9C4201D1AC6844
S11330E003E02C4B9C4200D1EC68A28993B21907EF
S11330F021D4D90605D40923336040231A43A2817D
S11331003FE05A0713D5616B002908D0231C4433D0
S1133110994202D0301C01F087FB00236363A3892A
S113312024229343A3810023636023692360A3893A
S113313008221343A381216900290BD1A389A0226A
S113314092001A4080239B009A4203D0301C211C19
S113315001F008F8A38901221A4005D06169002210
S1133160A2604A42A26103E0990700D46269A260A6
S113317022690020824206D1190604D54022134355
S1133180A3810120404270BD6C0000204C6F000000
S11331906C6F00008C6F0000F0B589B006910B696C
S11331A00169051C002699427FDB069C5F1E1434CE
S11331B004940499BC000919021C0B68143205918B
S11331C01419191C01312068039201F0D5FC0290F6
S11331D0B04238D00499039B8C4601960796624608
S11331E004329446043A40CA0299B0B24843310CBE
S11331F0029E019A71431018020C51180A0C019294
S11332001A6880B296B2079A89B2B618301A1E6844
S1133210320C521A06149219111480B21204059E2B
S11332201043079101C36645D9D2216800290AD108
S1133230039E043CB44201D82F6104E021680029B4
S1133240FAD1013FF4E7281C069901F005FA002899
S11332502ADB029C039A0134049B02940024116823
S113326040CB88B200191468B1B2401A360C210C54
S1133270891B041409190C1480B20904059E014326
S113328002C29E42EBD2039CBB00E3181E68002ED0
S11332900AD1039C043BA34201D82F6104E01E68B9
S11332A0002EFAD1013FF4E7029E301C09B0F0BDB4
S11332B0F0B5446A9BB00790239D04920593002CBB
S11332C008D1102000F09EFF079948624460846092
S11332D00460C460079C636A196800290AD05B68AB
S11332E001229A404B608A60201C00F0D8FF636A78
S11332F000221A600598002805DA01232B60430098
S11333005B08059301E000232B60059EBE4B321C35
S11333101A409A4218D1BD4B229C049D2360002D73
S113332001D1360301D0BA4800E0BA48249C002CED
S113333001D100F093FDC278C31C002A00D00533EC
S1133340249D2B6000F08AFD049C059DA54BA44A96
S1133350201C291C01F0D0FC071E0CD0229C249DAB
S113336001232360002D01D100F075FDAA482860D7
S1133370013800F073FD19AB009318AB0193079863
S11333802B1C221C01F0EAF973000A905B0D09D092
S1133390201CA24C2A03120B211C1143A04A16978D
S11333A09E181BE0189B199C1D199E4B9D4209DB1E
S11333B09D49049A9D4B6818C2405B1B101C9E409B
S11333C0304304E09A48049B401B8340181C03F0DC
S11333D01BFC984C6E1E012509191695824A834BD5
S11333E003F06CF8824A834B02F0D8FD824A834B87
S11333F001F048FE041C301C0D1C03F0C7FB804A7E
S1133400804B02F0CBFD021C0B1C201C291C01F07C
S113341039FE041C0D1C03F085FB724B704A0690A8
S1133420291C201C01F06EFC00280DD0069803F026
S1133430ADFB0B1C021C291C201C01F05DFC069C2E
S113344043424341E41A0694069C01251395162C25
S113345010D8794AE300D31818685968049A059B70
S113346001F064FC002804D0013C00250694139567
S113347000E0139018980024861B351C0294013D2B
S1133480099504D5099C0025644202940995069C7B
S1133490002C06DB099D12942D19002409950D9426
S11334A007E0069C029D2D1B0295654200240D95A4
S11334B01294209D0124092D24D8052D02DD043DFC
S11334C02095002420980238032823D801F04AFBD1
S11334D0060E0204012502E0012508E000251095EE
S11334E0219D002D1FDD0C95089509E00025109500
S11334F00698219D2D180C9501350895002D18DD91
S11335002B1C17E0634200250C930893209510941C
S1133510122306E001256B4210950C9308930025B5
S11335201223219506E001250C9508952B1C219565
S113353000E0012307980022456A6A600422101CF7
S113354014306968984203D8013169605200F6E783
S1133550079800F06CFE2860079D6B6A089D1B6845
S11335600B930E2D00D987E1002C00D184E1049C3B
S1133570059D14941595069D002D61DD2A1C0F23CD
S11335801A402D49D2008A18146855680E940F9574
S1133590069D2A4C2F110225F80617D51F401498B2
S11335A01599226A636A02F08FF803250490059145
S11335B00CE0F90708D50E980F992268636802F0A9
S11335C0EDFC0E900F9101357F100834002FF0D1DF
S11335D0049805990E9A0F9B02F076F84EE0C046C7
S11335E00000000000000000000000000000F83FA0
S11335F061436F63A787D23FB3C8608B288AC63FF5
S1133600FB799F501344D33F0000F07F0F27000045
S1133610466F00003D6F00001A6F00000000F03F8D
S113362001FCFFFFEFFBFFFF120400000EFCFFFF95
S1133630EEFBFFFF000010FEB86F0000807000007A
S1133640069C02256742002F1AD00F233B40CC4A28
S1133650DB00D318149815991A685B6802F09EFC75
S1133660C84E3F11002F09D0FA0704D53268736899
S1133670013502F093FC7F100836F3E704900591BE
S1133680139C002C1ED0049E059FB44BB24A301CE0
S1133690391C01F037FB002814D0089C002C11D0F1
S11336A00C9C002C00DCE3E0069C301C013C391C23
S11336B0AB4AAC4B119402F071FC013504900591B6
S11336C00C9C02E0069C1194089C281C049E059FF7
S11336D00E9403F05BFA321C3B1C02F05FFCA24A1E
S11336E0A24B01F0CFFC041CA74808180E990490C3
S11336F0051C00291BD19E4A9E4B301C391C02F02C
S1133700DDFE221C049B061C0F1C01F00FFB00288D
S113371000D05CE2221C8025049C2D06301C391C40
S1133720631901F0EFFA002800D047E2A0E00E9AF6
S1133730934B013A1098D2009B18002849D01A687C
S11337405B688D488D4901F0BFFF2B1C221C02F0E1
S1133750B5FE049005910B9D391C301C03F0E2F971
S1133760041C03F013FA021C0B1C301C391C02F05D
S1133770A5FE01356B1E30341C70049A059B061C93
S11337800F1C01F0BFFA002800D053E3321C3B1C8D
S11337907249714802F092FE049A059B01F0B2FA54
S11337A0002800D0CBE00B9C2B1B0E9CA3425FDABD
S11337B0049805996A4A6B4B02F0F0FB684A694B1E
S11337C004900591301C391C02F0E8FB061C0F1C08
S11337D0C2E718685968221C2B1C02F0DFFB0B9C03
S11337E00E9D0490059165191795391C301C03F042
S11337F099F9051C03F0CAF9021C0B1C301C391C76
S113380002F05CFE30352570179D0134061C0F1C38
S1133810AC4226D10E980B9C574A584B2518049855
S1133820059901F02FFC021C0B1C301C391C01F003
S11338307DFA002800D082E0049A059B4E484F4947
S113384002F03CFE021C0B1C301C391C01F05AFA1D
S113385000280DD06B1E1A78302A00D0EAE21D1C15
S1133860F8E73F4A3F4B02F099FB061C0F1CBCE7EC
S1133870149C159D04940595199B002B00DA9FE078
S1133880069D0E2D00DD9BE03D4AEB00D3181C681D
S11338905D6802940395219D002D14DA089C002C88
S11338A011DC00D08CE1324A324B0298039902F0C9
S11338B075FB049A059B01F043FA089F3E1C0028FF
S11338C000D07FE187E10B9D049E059F029A039B34
S11338D0301C391C01F0F8FE03F024F9041C03F039
S11338E055F9029A039B02F059FB021C0B1C301C75
S11338F0391C02F0E3FD0135021C201C30300B1C86
S1133900691E08700B98291A0898814248D1101C26
S1133910191C01F0B7FB029A039B061C0F1C01F053
S113392005FA00280DD1301C391C029A039B01F0C2
S1133930E3F9002800D17FE2E10702D47CE2119C84
S113394006946B1E1A78392A26D10B9CA3421DD0EB
S11339501D1CF6E7C046C046000000000000F03F12
S113396000000000000024400000000000001C4093
S11339700000000000001440000000000000E03FD0
S1133980B86F0000807000000000C0FC069C30226C
S1133990013406940B9C22701A7801321A704BE29F
S11339A0101C191CC94BC84A02F0F8FAC84AC94B82
S11339B0061C0F1C01F0A0F9002800D186E73BE2A9
S11339C0109D002D31D0209C012C0BDC169D002D68
S11339D002D0C1481B1802E0189936235B1A0D9DCA
S11339E0029C16E0089D0D9C013DAC4201DB651B69
S11339F006E00D9C0D952B1B129C0025E4181294D7
S1133A00089C002C03DA02980023041B01E0029CAA
S1133A10089B0299099AC9180291D21807980121A2
S1133A20099200F0DCFC061C02E00D9D029C109E35
S1133A30002C0CD0099B002B09DDA34200DD231CC4
S1133A4002980999C01AC91A0290E41A09910D9AA8
S1133A50002A21DD109B002B18D0002D10DD311C15
S1133A602A1C079800F054FD061C311C0A9A07987A
S1133A7000F0BEFC0A99071C079800F010FC0A9796
S1133A800D98421B08D007980A9902E007980A99F2
S1133A900D9A00F03DFD0A900798012100F09FFC6B
S1133AA0129D071C002D05DD391C07982A1C00F007
S1133AB02FFD071C20980025012810DC0499A94239
S1133AC00DD1059A1303AB4209D1844B134206D09E
S1133AD0029D01350295099D01350995012512992B
S1133AE00120002908D03B6903339B00FB18586868
S1133AF000F02CFC2023181A099A1F238018184060
S1133B000DD020231B1A042B06DD1C23181A029B3C
S1133B1024181B18029308E0042B08D0181C0299DF
S1133B201C300918099A0291241812180992029B50
S1133B30002B05DD07980A991A1C00F03BFD0A903A
S1133B400998002805DD391C0798099A00F032FD10
S1133B50071C139900291BD00A98391C00F07CFD1E
S1133B60002815DA069A0023013A069207980A9962
S1133B700A2200F0ADFB0C9B0A90109808930028D1
S1133B8006D0311C07980A22002300F0A1FB061C72
S1133B90089900292ADC209A022A27DD002911D15C
S1133BA0391C07980522089B00F092FB071C391C5E
S1133BB00A9800F051FD00280DDC03E00E9F00E0A0
S1133BC000273E1C219C0B9DE44306940BE0119DB1
S1133BD00E9F06953E1C0B9C31232370069C0B9D67
S1133BE0013401350694029600260FE1109800284E
S1133BF000D1C5E0002C05DD311C0798221C00F023
S1133C00D9FC061C0296002D12D07168079800F0AA
S1133C100EFB3269311C0232041C92000C310C3050
S1133C20FEF7ACFB0798211C012200F0C3FC0290B4
S1133C300B9C089D231C013B5B1909941093391CB0
S1133C400A98FFF7A9FA311C0D90041C0A9800F099
S1133C5003FD391C0C90029A079800F018FD051C0E
S1133C60C0683034002805D10A98291C00F0F4FCFF
S1133C70089001E001210891291C079800F00FFB2E
S1133C80089B209D2B430DD104980123034209D1A5
S1133C90392C44D00C9D002D01DD0D9C3134099D3F
S1133CA0013544E00C9D002D03DA089D002D17DC3E
S1133CB028E00C9B209D2B4329D104980123034227
S1133CC025D1F2E7C046C0460000000000002440B1
S1133CD00000000000000000330400000000F07F3A
S1133CE00A990798012200F065FC391C0A9000F03B
S1133CF0B3FC002802DC05D1E10703D5392C0ED032
S1133D000D9C3134099D099A013514707EE0099D9A
S1133D1001350C95089D002D0CDD392C05D1099D2C
S1133D20099C3923013523705BE00C9D013409980B
S1133D3004706BE00999109A0C9D0C7091423DD06F
S1133D400A990A220023079800F0C2FA029C0A90FA
S1133D50311C07980A220023A64204D100F0B8FAC5
S1133D60061C029009E000F0B3FA0299061C0A222C
S1133D700798002300F0ACFA02900C9D09955EE7C9
S1133D800B9D391C0A98FFF707FA041C30340B9872
S1133D9008992C7001352B1A8B4207DB0B1E00DCB3
S1133DA001230B9A0296D518002607E007980A9972
S1133DB00A22002300F08CFA0A90E2E70A99079895
S1133DC0012200F0F7FB391C0A9000F045FC0028A2
S1133DD007DC15D1E30704D412E00B9CA34205D001
S1133DE01D1C6B1E1A78392AF7D006E0069C312375
S1133DF0013406940B9C237008E001321A7005E02C
S1133E006B1E1A78302A01D11D1CF9E70798391C5A
S1133E1000F045FA029C002C0ED0002E05D0A642DC
S1133E2003D00798311C00F03AFA0798029900F081
S1133E3036FA01E0119C069407980A9900F02FFACB
S1133E4000232B70069B229C01332360249C002CAE
S1133E5003D0256001E0024800E00B981BB0F0BDE0
S1133E60196F0000C046C046F7B58B89051C0C1CB1
S1133E7019075ED46268002A02DC276C002F1ADD61
S1133E80E76A002F17D000222E682A608022520190
S1133E901A4001D0626D15E0281C216A0123B8473D
S1133EA0021C411C0ED12B68002B0BD01D2B01D002
S1133EB0162B02D12E6000205EE0A38940210B4323
S1133EC0A38159E0A3895F0706D56168636B521A21
S1133ED0002B01D0276CD21B281C216A0023E76A1F
S1133EE0B847A289411C06D12B68002B03D01D2B97
S1133EF001D0162B19D10023636023692360D704F2
S1133F0005D5411C02D12A68002A00D16065616B85
S1133F102E600029CFD0231C4433994202D0281CA0
S1133F2000F082FC0020606326E040231A43A28153
S1133F3022E02669002EBED027680022BF1B01970D
S1133F402660990700D16269A260019F002FB2DD4B
S1133F50281C216A321C019BA76AB847002806DC8A
S1133F60A389402213430120A381404204E0019F1E
S1133F7036183F1A0197E8E7FEBD00000A6938B514
S1133F80051C0C1C002A01D100201CE0002804D0D0
S1133F908369002B01D100F071F80B4B9C4201D1D5
S1133FA06C6808E0094B9C4201D1AC6803E0084B03
S1133FB09C4200D1EC680C22A35E002BE4D0281CA8
S1133FC0211CFFF751FF38BD4C6F00006C6F0000DF
S1133FD08C6F0000F8B5041C071C4834002C12D068
S1133FE0A5686668013E0CD4AB89012B07D90E2263
S1133FF0AB5E013303D0381C291CFFF7BFFF6835C3
S1134000F0E72468EAE7F8BD002310B5041C036058
S11340104360836081814366C2810361436183613C
S1134020191C08225C30FEF7B2F9054B2462636266
S1134030044BA362044BE362044B236310BDC046EC
S1134040D9490000014A0000394A0000654A0000CD
S113405070B54B1E68255D430E1C291C743100F09D
S11340602BFC041E08D00021016046602A1C0C3081
S1134070A0606832FEF78BF9201C70BD836913B50C
S1134080041C002B27D18364C3640365124B134AB9
S11340901B688262984201D101238361201C00F0D5
S11340A01FF86060201C00F01BF8A060201C00F0CA
S11340B017F80421E06000226068FFF7A5FFA068FC
S11340C009210122FFF7A0FFE06812210222FFF775
S11340D09BFF0123A36113BDF46E0000D53F0000D4
S11340E0F8B51D4B071C1E68B269002A02D1301CAA
S11340F0FFF7C4FF4836B4687368013B05D40C224B
S1134100A55E002D10D06834F7E73368002B06D184
S1134110381C0421FFF79CFF3060002801D036686A
S1134120E9E70C233B6016E001235B42E381201C9A
S11341300123A38165662560A560656025616561CD
S1134140A5615C30291C0822FEF721F96563A5638B
S1134150A564E564201CF8BDF46E000000487047B7
S113416070000020F0B58B8991B0051C0C1C9A07D7
S113417025D40E23C95E002906DAA78980231F40AF
S11341800FD0002740260EE001AA00F09FFC002873
S1134190F3DB029BF0273F02184A1F40BF187B4203
S11341A05F418026F600281C311C00F085FB0028A6
S11341B00CD1A3899A051FD402221343A381231C83
S11341C04733236023610123636115E00C4B802294
S11341D0AB62A38920601343A38120616661002F31
S11341E00AD00E23E15E281C00F082FC002803D0D4
S11341F0A38901221343A38111B0F0BD00E0FFFFA6
S1134200D53F000008B5034B011C186800F054FBAF
S113421008BDC0466C000020C9B28218904204D088
S113422003788B4202D00130F8E70020704770B564
S1134230456A041C0E1C002D07D11020FFF7E2FF75
S11342406062456085600560C560656AEB68002B47
S113425009D0636AB200DB689A18106800280ED08F
S11342600368136017E0201C0421212200F0CEFA19
S1134270636AE860DB68002BEBD100200EE00121CB
S11342800D1CB5406A1D9200201C00F0BFFA0028E6
S1134290F3D04660856000220261C26070BD70B5D3
S11342A0446A061C0D1C002C07D11020FFF7AAFF3E
S11342B07062446084600460C460002D07D0726A38
S11342C06968D2688B00D3181A682A601D6070BDB3
S11342D0F7B50C1C1E1C0D69071C1431002308685B
S11342E0013380B2504380198446060C0868000CE0
S11342F050433018060C00040190604680B2844696
S113430001988444604601C1AB42E8DB002E1BD017
S1134310A3689D4212DB6168381C0131FFF787FFF7
S11343202269211C023201900C3192000C30FEF7FC
S113433025F8211C381CFFF7B2FF019C2B1D9B00A4
S1134340E31801355E602561201CFEBD0022031CBC
S1134350010C914201D103041022190E01D108323B
S11343601B02190F01D104321B01990F01D1023232
S11343709B00002B04DB2020590002D5501C00E0D8
S1134380101C704703680722011C1A400BD001223D
S11343900020134222D10220034201D0D3401BE06B
S11343A09B080B601AE098B2002801D11B0C102264
S11343B0D8B2002801D108321B0A180701D10432EF
S11343C01B09980701D102329B08D80704D45B0863
S11343D02020002B02D001320B60101C704710B556
S11343E00C1C0121FFF723FF01234461036110BD6D
S11343F0F0B50C1C151C096912698BB0914202DAE4
S1134400231C2C1C1D1C27692E69A268BB1961681A
S11344100293934200DD0131FFF709FF031C03906F
S11344200298143382009A18191C914202D2002077
S113443001C1FAE714351434BF00AC46B600E719DD
S11344406644049407970996099EB44556D2654676
S11344502D880595002D1FD0049C191C00200F6881
S113446040CCBFB2059D0697B7B26F43069D360C8C
S1134470EF193F1808680891050C05984643380C55
S1134480AD192D18280CBFB22D043D4320C1079D42
S1134490AC42E4D3089E706067467D88002D22D02C
S11344A000261868049C191C0196278880B26F4363
S11344B00697069E4F880591F619019FF7190697EE
S11344C03F043843086001CC8F88000C6843C0194E
S11344D0069F04313E0C8019079F060C0196A742E3
S11344E0E3D8059948600425AC445B19ACE7043A69
S11344F01068002805D1029F013F0297029D002DFC
S1134500F5DC039F029E381C3E610BB0F0BD000039
S11345100323F7B51340051C0E1C141C002B07D0F5
S1134520224A013B9B009A580023FFF7D1FE061C48
S1134530A410019437D06C6A002C07D11020FFF727
S113454061FE6862446084600460C4606F6ABC6831
S1134550002C10D1281C1649FFF741FF0023B86036
S1134560041C036007E0019B5B1001931BD02068CF
S113457000280FD0041C019BDB07F4D5311C221C3E
S1134580281CFFF735FF311C071C281CFFF787FE8A
S11345903E1CE8E7281C211C221CFFF729FF0023EE
S11345A020600360E6E7301CFEBDC046A870000032
S11345B071020000F0B50C1C85B003902069551100
S11345C02818029049680130A368171C0090009ACB
S11345D09A4202DD01315B00F9E70398FFF727FEF9
S11345E0021C061C14320023AB4204DA990000209A
S11345F050500133F8E7EB43DB171D40AD00206951
S11346005519221C143283009B189C461F231F40FB
S113461014D02023DB1B019300231068291CB8400D
S1134620034308C508CA0198C3409445F5D84B60B4
S1134630002B07D002990231009103E008CA08C593
S11346409445FBD8009B0398013B3361211CFFF781
S113465026FE301C05B0F0BD10B502690C69031CC0
S1134660101B13D11A1CA00014321431131809188A
S1134670043B04391C680868844204D084428041A5
S11346800123184302E09342F2D8002010BDF0B594
S1134690071C85B0081C0D1C111C141CFFF7DCFF43
S11346A0061E07D1381C311CFFF7C1FD012303612D
S11346B0466150E0002801DB002603E02B1C0126A4
S11346C0251C1C1C6968381CFFF7B1FD2A692B1CCA
S11346D014339100591802912169251C143589005D
S11346E06918041C0391C6601434002140CB80CDAA
S11346F0B446B6B27118BEB28E1B614601963F0C29
S11347000E0CF71B019E043431147F1839143F0436
S11347100097019F261FB446BEB2009F37436646EA
S11347203760039FBD42E1D3029E251CB3420BD2E6
S113473080CBBDB26D182E143F0CF6193114ADB2F6
S11347403604354320C4EFE7043D2F68002F01D120
S1134750013AF9E7026105B0F0BD0000F7B50121A7
S11347601D1C141CFFF763FD6F002B03061C1B0BA1
S11347707F0D02D08022520313430193002C19D0E1
S113478068460094FFF7FEFD009A002809D0019BBB
S113479020211C1C091A8C402243C34072610193DE
S11347A000E07261019CB461634263410224E41A33
S11347B0346107E001A8FFF7E5FD01990124716167
S11347C034612030002F09D00D4A089CBF183F18CF
S11347D027603523099C181A20600EE00949089ABD
S11347E040180949106063189B00F3185869FFF7D3
S11347F0ADFD6401099A241A1460301CFEBDC04644
S1134800CDFBFFFFCEFBFFFFFFFFFF3F38B5151CBD
S11348104D43291C00F050F8041E03D000212A1C2B
S1134820FDF7B5FD201C38BD30B5002940D0043952
S11348300B68002B00DAC9181E4A1368141C002BDD
S113484002D14B60116033E099420FD208680A1814
S11348509A4205D113685268C01808604A6000E0A3
S11348604B60216024E08A4203D8131C5A68002A52
S1134870F9D11D685C198C420BD109686918581864
S11348801960904214D114685268091919605A6069
S11348900EE08C4202D90C23036009E008680C186E
S11348A0944203D114685268001908604A60596040
S11348B030BDC0460801002070B50323CD1C9D43C4
S11348C00835061C0C2D01D20C2501E0002D3FDB20
S11348D08D423DD3204B1C681A1C211C002913D087
S11348E00868431B0DD40B2B02D90B60CC181EE0B7
S11348F08C4202D1636813601AE0486860600C1C43
S113490016E00C1C4968E9E7144C2068002803D120
S1134910301C00F04FF82060301C291C00F04AF8CD
S1134920431C15D0C41C03239C4384420AD1256034
S1134930201C0B300722231D9043C31A0BD05A426C
S1134940E25008E0211A301C00F034F80130EED1B6
S11349500C233360002070BD0801002004010020F6
S113496030B50B1C041C021C1C430220002C17D065
S113497080242406A34201D1002A11D009485900F9
S11349804908094C0D180420A54209D9074C0320F5
S1134990A14205D9064C0020A14201D15042504108
S11349A030BDC0460000F0FFFFFFDF7FFFFF0F00B8
S11349B00000F07F38B5074C0023051C081C236059
S11349C0FDF7AEFA431C03D12368002B00D02B6003
S11349D038BDC046CC01002038B50C1C0E25495FFB
S11349E000F0ACF8002803DB626D1318636503E084
S11349F0A289024B1340A38138BDC046FFEFFFFFDD
S1134A00F8B51E1C8B89051C0C1C171CDA0505D572
S1134A100E23C95E0022022300F07CF8A289054B14
S1134A20281C1340A3810E22A15E331C3A1C00F003
S1134A3027F8F8BDFFEFFFFF38B50C1C0E25495FC2
S1134A4000F068F8A389421C03D1054A1340A381EE
S1134A5004E0802252011343A381606538BDC0463F
S1134A60FFEFFFFF08B50E23C95E00F01DF808BD77
S1134A700023C25C0133002AFBD1581E704700009A
S1134A8038B5084C051C00202060081C111C1A1C99
S1134A90FDF71CFA431C03D12368002B00D02B60C4
S1134AA038BDC046CC01002038B5074C0023051C96
S1134AB0081C2360FDF746FA431C03D12368002B2E
S1134AC000D02B6038BDC046CC01002038B5074C5F
S1134AD00023051C081C111C2360FDF737FA431C36
S1134AE003D12368002B00D02B6038BDCC010020FB
S1134AF038B5074C0023051C081C2360FDF72CFA6D
S1134B00431C03D12368002B00D02B6038BDC04662
S1134B10CC01002038B5084C051C00202060081C7E
S1134B20111C1A1CFDF71AFA431C03D12368002B2D
S1134B3000D02B6038BDC046CC01002038B5084CED
S1134B40051C00202060081C111C1A1CFDF79CF990
S1134B50431C03D12368002B00D02B6038BDC04612
S1134B60CC01002002B4714649084900095C49009F
S1134B708E4402BC7047C046002934D00123002271
S1134B8010B488422CD301242407A14204D28142C8
S1134B9002D209011B01F8E7E400A14204D28142D8
S1134BA002D249005B00F8E7884201D3401A1A4355
S1134BB04C08A04202D3001B5C0822438C08A0428C
S1134BC002D3001B9C082243CC08A04202D3001B42
S1134BD0DC082243002803D01B0901D00909E3E7BC
S1134BE0101C10BC7047002801D00020C04307B43B
S1134BF0024802A14018029003BDC046D90000003B
S1134C000029F0D003B5FFF7B9FF0EBC4243891A5F
S1134C101847C046002941D010B4041C4C40A44697
S1134C2001230022002900D54942002800D5404232
S1134C3088422CD301242407A14204D2814202D207
S1134C4009011B01F8E7E400A14204D2814202D227
S1134C5049005B00F8E7884201D3401A1A434C0824
S1134C60A04202D3001B5C0822438C08A04202D35A
S1134C70001B9C082243CC08A04202D3001BDC0882
S1134C802243002803D01B0901D00909E3E7101CC3
S1134C906446002C00D5404210BC7047002806D062
S1134CA003DB0020C043400801E08020000607B475
S1134CB0024802A14018029003BDC046190000003A
S1134CC00029EBD003B5FFF7A7FF0EBC4243891AB6
S1134CD01847C0467047C0468446101C62468C463E
S1134CE0191C634600E0C0461FB501F0D9F800283E
S1134CF001D40021C8421FBD10B501F009F840429B
S1134D00013010BD10B501F0CBF8002801DB002004
S1134D1010BD012010BDC04610B501F0C1F8002837
S1134D2001DD002010BD012010BDC04610B501F00A
S1134D3039F8002801DC002010BD012010BDC04658
S1134D4010B501F02FF8002801DA002010BD012071
S1134D5010BDC0469C460304F0B51B0C17043F0C61
S1134D60150C1E1C041C000C7E436B434743454337
S1134D70FB18300C1818874202D980235B02ED1807
S1134D80030CED1863465C434A433604360CA11801
S1134D90000480194919F0BDF0B55F4656464D46EA
S1134DA04446F0B446024500C00F85B00F1C760A95
S1134DB02D0E804641D0FF2D26D0802424040021CE
S1134DC02643F6007F3D89468B46F90F7C02780026
S1134DD0640A000E00918A463CD0FF2834D0802318
S1134DE01B041C430023E4007F380193009F4346C7
S1134DF0019A7B4049469C4611430F2900D971E032
S1134E00764F89007F58BF46002E3ED108220223E8
S1134E1091469B46D9E75A46341CC24601920199F1
S1134E20022937D0032900D1CFE0012900D0ABE01B
S1134E3053460B400022002632E0002E19D10421F3
S1134E40012289469346C0E7221C531E9A4102322E
S1134E500192CBE701270197002CC7D0201C01F059
S1134E6059FF431F9C4076235B420021181A01918D
S1134E70BCE7301C01F04EFF7625431F9E406D4277
S1134E8000232D1A99469B469FE70C23032199463C
S1134E908B469AE7D446012367463B40FF2200260F
S1134EA07602D205700ADB071043184305B03CBCF8
S1134EB090469946A246AB46F0BD80260023F603F1
S1134EC0FF22EDE700220026EAE78020C003064225
S1134ED03BD0044239D1061C26437602760A009B55
S1134EE0FF22DDE7281A039076016401A64239D334
S1134EF0361B1A2201230120311C5B007600002995
S1134F0001DBB44201D8361B0343013A002AF3DC27
S1134F10741EA641341C1C43039A7F32002A27DDE9
S1134F20630704D00F232340042B00D0043427014B
S1134F3003D52B4B039A1C408032FE2A0BDD012340
S1134F4061460B40FF220026AAE706437602760A52
S1134F504346FF22A4E7A40101236746660AD2B2AE
S1134F603B409DE7039F1B22013F03970023C2E7B9
S1134F707E23039F5B42DB1B1B2B07DD0123614662
S1134F800B40002200268BE7D446C5E7221CDA40FA
S1134F90039B9E339C40231C5C1EA34113435A076E
S1134FA004D00F221A40042A00D004335F0105D52F
S1134FB0012361460B400122002671E79E016246EF
S1134FC001231340760A00226AE78026F60326436B
S1134FD07602760A5346FF2262E7C046B4700000A8
S1134FE0FFFFFFF710B5041E33D001F093FE9E239C
S1134FF01B1A962B09DC083884406402640ADBB26D
S11350006402DB05600A184310BD992B0ADD0522F2
S1135010121A211CD1400A1C011C1B318C40611E38
S11350208C411443052801DD421F9440144A224058
S1135030610704D00F210C40042C00D0043251012C
S11350400AD59F23181AFF2816D09401640AC3B204
S1135050D6E700230024D3E7D208FF2B03D0540261
S1135060640ADBB2CCE7002A06D08024E4031443AC
S11350706402640AFF23C3E7FF230024C0E7C04699
S1135080FFFFFFFBF8B55F46564644464D46F0B475
S11350900C034D00CE0F610A440F2143C4001803D2
S11350A080465800400D8246D80F84464046400A48
S11350B0530F0343D0006D0D371C8346524666459B
S11350C000D1A4E0AF1A002F00DC09E1002A3BD193
S11350D0184300D0EAE0630700D187E00F232340A0
S11350E0042B00D182E0221DA242A4416442802309
S11350F009191B040B40371C141C002B00D17CE045
S1135100CE4B01359D4200D105E1CD4BE408194059
S11351104807490204430B0B002000211B031A0B10
S11351200B0D6D051B0513436A08C64DFF071D4093
S113513015436D006D08291C3943201C3CBC904666
S11351409946A246AB46F8BDBC488542C3D08020F0
S113515000040343382F00DDF0E01F2F00DD24E1BD
S11351602020C01B1A1C814682405846F840024346
S1135170944658464A469040421E9041FB4062463F
S113518002431F1CA21A9442A4416442C91B091B76
S1135190141C0B029FD549024F0A002F00D1C8E00E
S11351A0381C01F0B7FD021C083A1F2A00DDB5E0E7
S11351B02821091A201C9740C8400743944095426F
S11351C000DDB2E0551B691C1F2900DDDCE01F2255
S11351D0551B3B1C221CAB40CA40AC40651EAC4175
S11351E01343CF401C43391C002574E780231B0460
S11351F00B40371C002B00D082E7904B4807E40893
S11352000443C9089D4248D009030B0B84E7AA1A3A
S11352109446002A00DC98E05046002852D0874883
S1135220854200D157E78020000403436246382AB0
S113523000DDFCE01F2A00DD4AE120226046101A4E
S11352401A1C82408246914658466246D0404A46DD
S113525002439046584652469040421E9041424670
S113526002436046C3401219A242A4416442591841
S11352700919141C080200D42DE7704B01359D4216
S113528000D122E16E4B60081940012323401C1C0D
S11352900443CB071C4349081DE7231C0B433AD0A6
S11352A080231B030B431B031B0B35E7013F002F1C
S11352B065D15846221A9442A4416442C91A091B72
S11352C0141C66E75846184300D104E701225242F1
S11352D094446046002800D0C5E058460219C3E74C
S11352E0002F73D1681C4005400D012800DCDEE06E
S11352F05A46A21A9442BF41C81A7F42C71B3802B9
S113530000D489E05A46141BA3459241591A5242CB
S11353108F1A664641E700230024FDE6271C28383F
S113532087400024954200DC4CE74549AD1A3940DA
S1135330D1E6201C01F0EEFC203034E75A461A4333
S1135340531E9A41D2B200271CE7002A00D0DCE0A9
S1135350681C4205520D012A00DC8DE0374DA8423D
S113536000D1F3E05D462A19A242A44164425918CF
S11353700919CC07520814434908051CABE62F4809
S1135380854200D0E6E6A6E62B1C1F3B3A1CDA4019
S1135390131C20296CD03F22551BAF403C43601E98
S11353A084411C430021002595E6381C20381A1C32
S11353B0C240101C202F5DD04022D71BBB405A4650
S11353C01A43531E9A4102430027DBE6002D3BD0CB
S11353D01A4DAA4500D193E080252D047F4229432C
S11353E0382F00DDACE01F2F00DD29E12025ED1B67
S11353F0081C261CA840FE40AC400643651EAC4178
S11354003443F9405D462C1BA34592415B1A52423A
S1135410991A55466646BCE6131C3B43141C002BE4
S113542000D0BAE60027002100250024E5E65A460C
S11354301A43531E9A41D2B2002314E7FF07000017
S1135440FFFF7FFFFFFF0F800D1C254358D0FF4354
S1135450002F51D1041BA3459241591A5242891A73
S11354605546664695E69648854200D0DEE632E625
S1135470002793E70023A2E7081C2043002D00D057
S1135480C4E0002800D1F7E05846184300D122E6D2
S113549058460219A242A441644259180919141C1D
S11354A00A0200D417E6874B0125194013E6081CAD
S11354B02043002D39D1002871D15946194303D016
S11354C0191C5C46664606E600270021002494E683
S11354D0604620381A1CC24060469146202800D1FC
S11354E0ACE04022121A93405A461A43531E9A4182
S11354F04B461A430023B6E6714DAA4500D06FE728
S1135500191C5C4655466646E5E5002D22D10D1C66
S1135510254377D0D543002D71D15C445C4592413D
S11355205918524289185546A4E600284DD15946C7
S1135530194300D194E0191C5C466646604DCAE5E7
S11355400C43611E8C41E4B200215BE7051C002181
S1135550002452E65A4DAA4554D0554280221004E4
S11355600143382D00DD81E01F2D00DD92E0202273
S1135570501B0A1C84468240201CE840024390468B
S113558062469440601E844142461443E9405C44B0
S11355905C459241CB185242991855466AE65846E2
S11355A0184300D197E55846271ABC429241C81ABD
S11355B05242801A020266D55846041BA345924102
S11355C0591A5242891A664685E55846184333D01B
S11355D04807E40804438020C9080003014208D0B6
S11355E0DD08054205D15946CA085C071443291C45
S11355F06646630FC9001943E400314D6BE5304A38
S11356009245AED1191C5C46554664E5002836D057
S11356105846184310D080254807E408C9082D03CC
S113562004432942E5D0D8082842E2D15D46EA087D
S11356305C071443011CDCE7214D4CE5002353E7D0
S11356403D1C203D0A1CEA40151C202F34D0402666
S1135650F71BB9400C43611E8C412C430021D1E659
S113566080210027C903164D0024C6E50C43611EA2
S11356708C41E4B200218AE7191C5C462BE5191C15
S11356805C460F4D27E5031C3B4300D11CE7011C7E
S11356903C1C20E52020404240190A1CC240904690
S11356A0202D0BD04020451BA9400C43611E8C418A
S11356B045462C4300216AE70021CBE70021F4E7AB
S11356C0FF070000FFFF7FFFF0B5564644465F46E4
S11356D04D46F0B41F1C0B031B0B98464B0087B0C0
S11356E0041C81465B0DC80F161C9A460090002BC3
S11356F051D06A4B9A4531D08022414652030A4325
S1135700630FD2001A43664B90460025E20091468F
S11357109A44002402953B031B0B9B46FD0F7B0020
S1135720311C5B0D019560D05C4A934254D08021BA
S1135730584649030143720FC9001143584A8B4626
S11357409B18F1000020009A04436A4003920F2C36
S113575000D9ADE0534EA4003459A7464046044353
S11357606ED1002102250824884689460295D2E795
S1135770009C0298C34649460194022864D0032839
S113578000D1ABE2012800D038E2019A00240240A3
S11357900025A14660E0434623434AD04046002802
S11357A000D1C0E101F0B6FA031E272B00DDB3E1FE
S11357B028210D1A211C083B4246E9409A400D1C41
S11357C01543221C9A40A8469146374B00251B1AC4
S11357D09A46002402959EE75A4616430320002E5B
S11357E0B1D1B34600210220ADE75A4632431BD063
S11357F05B46002B00D18AE1584601F08BFA27283A
S113580000DD7DE12822171A011C321C08395B4691
S1135810FA408B40171C1F43331C8B40BB46191C9A
S1135820214B1B1A00208EE70027BB4600210120D4
S113583089E70020012504248046814602956AE711
S113584003250C24029566E7019C0394039D012221
S11358502A400024114DA146002000212403260BD8
S11358600C0D2405114B34432D0523402B435B00C1
S11358705B08D207191C4846114307B03CBC90464C
S11358809946A246AB46F0BD0022802424039146EB
S1135890024DE1E700240025A146DDE7FF070000F3
S11358A001FCFFFFF47000000DFCFFFFFFFF0F8001
S11358B05546ED1A0495D84500D953E100D14EE17F
S11358C0049C0025013C4E4604944746A94658468C
S11358D003020C0E1C430902250C23041B0C00912B
S11358E0381C291C0193FFF747F90199834641436A
S11358F0381C8A46291CFFF783F9330C0904194321
S11359008A450CD95B460919013B8C4200D947E111
S11359108A4500D844E1022252429344091953466D
S1135920CB1A181C291C9846FFF726F9071C019866
S1135930291C784382464046FFF762F936040B047B
S1135940360C33439A4509D91B197A1E9C4200D957
S113595024E19A4500D821E1023F1B195E46320436
S11359601743380CBB46009E009F51463F0C32043F
S11359705B1A5946BA46120C0F043F0C9046514626
S11359807A434F434146414356467043CF19160C60
S1135990BE19B14202D980277F02C019310C12040A
S11359A03604120C4018B618834200D2C4E000D169
S11359B0BEE0191A4846861BB145BF417F42CF1B42
S11359C0A74200D113E1291C381CFFF7D5F801992F
S11359D002904143381C8946291CFFF711F9330C06
S11359E00904194389450CD9029B0919013B8C42CE
S11359F000D9FFE0894500D8FCE0029F0919023F65
S1135A0002974F46CF1B381C291C0597FFF7B4F8A3
S1135A10071C0198291C784381460598FFF7F0F884
S1135A2036040904360C0E43B14509D936197B1ED8
S1135A30B44200D9E0E0B14500D8DDE0023F3619B8
S1135A40029D4946761A290439430B0457460A0C29
S1135A501B0C40464546584355437B437A43EB1859
S1135A60070CDB199D4202D980256D0252191D0CC9
S1135A7000041B04000C52191B18964235D300D1A4
S1135A80FCE001231943049E994FF519002D00DC15
S1135A90A1E0480709D00F230B40042B05D00B1DB0
S1135AA08B42894149428B44191C5A46D20107D57D
S1135AB0904B5C46049E80271C40FF00A346F519CA
S1135AC08D4B9D427ADD039C0122224000248B4DA4
S1135AD0A146C1E680242403474627424CD13C43D7
S1135AE02403240B009A854DB6E63619481EB442A9
S1135AF05ED9011C9642C4D1009E9E42C1D1C2E728
S1135B00031C283B311C99408B46002188E6301C3D
S1135B1001F000F9203072E6283B211C9940002254
S1135B208846914651E6201C01F0F4F820303BE60B
S1135B300021B14500D33DE7009F5A46B944B94519
S1135B40BF417F423F19FB18013A9C421ED2984242
S1135B5000D97EE000D1B5E0191A93462AE78945B9
S1135B6000D8ADE64846464642467708D30746087D
S1135B70C0071E438146AAE65846204212D1044378
S1135B8024032A1C240B89465C4D65E6A342E3D119
S1135B90009F4F45DBD9211A93460BE7171CDDE61E
S1135BA09B46BCE63C432403240B009A534D53E626
S1135BB0B24259D800D18AE0011C62E75F46C908A5
S1135BC07B07039E0B437C026D0501229946240B3F
S1135BD06D0D324040E64A4B049FDB1B382B10DD31
S1135BE0039C0122224000240025A14634E6012121
S1135BF0494248E7029304E71F1C21E7019C0394F0
S1135C0041E71F2B40DC3F48049F0C1C3A185846C0
S1135C109140DC40904020430A1C511E8A41011CE3
S1135C2011435A46DA40131C480709D00F220A4090
S1135C30042A05D00A1D8A42894149425B18111C75
S1135C401A0234D5039C0122224000240125A146D6
S1135C5002E6009F02214942B9448B44B945894177
S1135C6049420919CB18A4E6009D881E6900A9427F
S1135C70AD416D422C19361900913AE7002B00D042
S1135C8033E70024009437E71F4A049C5D46121B47
S1135C90D5402A1C202B1FD01C4E5F46A3199F40C1
S1135CA03B1C19434B1E994111430023BCE75A077F
S1135CB0C9080A43039F91465B0201221C0B3A4028
S1135CC00025C9E54E45C4D89346002172E6009FDD
S1135CD09F42C9D3011C0FE70023E2E78024240379
S1135CE05F463C432403240B019A8946034DB3E5E4
