:10000000B04E0020CD460000C9460000C9460000A1
:1000100000000000000000000000000000000000E0
:10002000000000000000000000000000C9460000C1
:100030000000000000000000C9460000C9460000A2
:10004000C9460000C9460000C9460000511400001E
:10005000990E0000C9460000C9460000C9460000CC
:10006000C94600002D3600003D3600004D36000028
:100070005D3600000000000000000000C9460000DE
:10008000C9460000C946000099460000A946000084
:10009000B94600000000000000000000F129000047
:1000A000C9460000C9460000C9460000C946000014
:1000B00010B5064C2378002B07D1054B002B02D03E
:1000C000044800E000BF0123237010BDAC010020F4
:1000D00000000000F4CD000008B5084B002B03D051
:1000E0000748084900E000BF07480368002B03D019
:1000F000064B002B00D0984708BDC046000000000A
:10010000F4CD0000B0010020F4CD0000000000009C
:1001100010B5144C2278144B1B68920013490888C0
:10012000D358984720780130C0B2114B1978114B41
:100130009847C9B22170104B595C104B1B685A7E0E
:1001400052B2002AFBDB1A691F2082430A431A615C
:100150005A7E52B2002AFBDB084804490122084BB0
:10016000984710BDC8010020D42D00202402002093
:10017000000000203989000058AE0000642D0020E6
:10018000C12A0000F0B58FB0051C0E1C02AC201C6B
:10019000324B98470023A360E022D2006280032202
:1001A00062702373102323712D4F381C2D49221C9C
:1001B0002D4B98473B685A7E52B2002AFBDB8021C8
:1001C00009042A4A1160197802220A431A70244B42
:1001D0001A68537E5BB2002BFBDB214C201C2449A8
:1001E0000022244B9847E27E01231343E37601A9C2
:1001F00000224A70CA708A7001220A7003201E4BC6
:100200009847032D13D002D8022D16D01BE0042DE1
:1002100007D0052D17D101A901230B700420164B1F
:10022000984701A901230B700620134B984701A999
:1002300001230B700520104B984701A901230B7077
:1002400004200D4B98470D4B1D700D4B1E6004484C
:100250000C4901220C4B98470FB0F0BD71250000EE
:10026000642D002000400042B925000000E100E0BC
:1002700011010000AD2A0000D14200000000002062
:10028000D42D002024020020C12A0000F0B583B044
:100290006F46F87107370B4C0B4E201C311C0122A6
:1002A0000A4DA8478022D203094B5A61201C391CF1
:1002B0000122084B9847201C311C0022A84703B09C
:1002C000F0BDC046D82D0020142E0020BD30000007
:1002D00000440041A9310000F0B591B0644B98474B
:1002E0000020644B98476449644B98478300181872
:1002F000400080221204624B5A61002800D1A3E022
:10030000604B586000229A60191C802252020B68D0
:100310001342FCD09DE00B681342FCD05A4C1823CA
:10032000237000236370A37002A901224A708B70AE
:100330000A701820554B98472378D90900220029C4
:1003400003D15A09D2014E4952181F273B400124BC
:10035000211C9940916102AA14700023536093609C
:1003600080214902D160137453749474D47413754A
:100370002421535409930A933F4B9361444B936256
:10038000444BD362444B1363444B5363444E301C81
:100390004449454B98473568281C444B98470740CB
:1003A000BC40434B1C603268D369002BFCD12A68E7
:1003B000022313432B6001AC012363700022A2705F
:1003C00023701620211C314DA8471720211CA84757
:1003D000802212042A4B9A61D520364CA0478020F7
:1003E000A047A820A0473F20A047D320A047002037
:1003F000A0474020A0478D20A0471420A0472020E0
:10040000A0470020A047A120A047C820A047DA208D
:10041000A0471220A0478120A047FF20A047A4208A
:10042000A047A620A047DB20A0474020A047D92016
:10043000A047F120A047204800218022D2001F4B76
:100440009847AF20A04710E0802212040C4B9A611D
:1004500064E7802212040A4B9A610A4B586000221A
:100460009A60191C8022520255E711B0F0BDC046B7
:1004700009250000DD40000040420F00B188000067
:100480000044004110E000E0142E00200D2B00007D
:10049000020010000200110002001200020013000E
:1004A000D82D0020000C0042A52E000001360000CF
:1004B00000E100E08D02000068020020674A0000B1
:1004C000F0B583B06F46F87107370B4C0B4E201C0C
:1004D000311C01220A4DA8478022D203094B9A61A0
:1004E000201C391C0122084B9847201C311C00227B
:1004F000A84703B0F0BDC046D82D0020142E002020
:10050000BD30000000440041A931000070B50E4824
:100510000E4901220E4B984721200E4CA047002087
:10052000A0477F20A0472220A0470020A047072007
:10053000A047094C8023DB00E618084D2078A84727
:100540000134B442FAD170BDD82D0020142E002001
:10055000BD3000008D020000E0060020C104000054
:1005600038B50E480E4901220E4B984721200E4CFB
:10057000A0470020A0477F20A0472220A0470020BE
:10058000A0470720A0478024E400084D0020A8478A
:10059000013CA4B2002CF9D138BDC046D82D0020B2
:1005A000142E0020BD3000008D020000C1040000A8
:1005B00038B5051C081C5038C0B2064CA0472809A5
:1005C00010231843A0470E2005400123281C184380
:1005D000A04738BD8D020000F0B55F4656464D4637
:1005E0004446F0B485B083460191141C632A00D9B7
:1005F0006324E4B2201C0A21244B9847C9B203AB00
:100600005970092C2CD800221A702FE058465146F8
:100610001F4B98474D46002403ABF35C1A01D218D8
:100620001201D31843441B19585DB8470134272CD5
:10063000F2D153460133DBB29A4627239944122361
:10064000FF339945E2D15B463433DBB29B4601363A
:10065000009B9B4513D0019B9A4600239946D5E702
:10066000601A0A210B4B984703AB18705B4668333E
:10067000DBB200930026084B9846084FEBE705B025
:100680003CBC90469946A246AB46F0BD3989000075
:10069000B10500004D8900005CAE0000C1040000FF
:1006A000014B18607047C046CC01002010B5C9014D
:1006B0008A18064909688A185C1EE4B201340023CE
:1006C000C15CD1540133A342FAD110BDCC0100204A
:1006D000024B1B68C0014118CA547047CC0100206E
:1006E000024B1B68C0014018185C7047CC01002009
:1006F000F0B5474680B4041C151C43B2002B22DB26
:100700003F2920D8CE08F700C91B01278F40FBB234
:100710009846301C211C0D4B9847021C012D04D01B
:10072000002D06D0022D07D009E043461843C2B27F
:1007300005E0B843C2B202E043465840C2B2301CA2
:10074000211C034B984704BC9046F0BDE106000015
:10075000D1060000F0B5474680B4061C0D1C90463B
:100760001C1C0E4FB847021C012C04D0002C06D0D4
:10077000022C08D00AE043461843C2B206E04346C2
:100780009843C2B202E043465840C2B2301C291C12
:10079000034B984704BC9046F0BDC046E1060000FC
:1007A000D1060000F0B557464E464546E0B48418E1
:1007B000802C03DD80225242121AD2B2002A53D07A
:1007C000CC08E500491B01258D40A846EFB2012B5E
:1007D0000BD0002B11D0022B46D1151C01388246BC
:1007E000244B9946244988462FE0151C013882463F
:1007F000204B99462049884606E0151C0138824660
:100800001C4B99461C4F0FE051466E18F6B2201C47
:10081000311CC8473843C2B2201C311CC047013DBF
:10082000EDB2002DF0D11FE05346EE18F6B2201CB9
:10083000311CC84741468843C2B2201C311CB8470E
:10084000013DEDB2002DEFD10EE05346EE18F6B2A9
:10085000201C311CC8477840C2B2201C311CC04744
:10086000013DEDB2002DF0D11CBC90469946A24648
:10087000F0BDC046E1060000D1060000F8B54F46C5
:100880004646C0B4061C1D1C002A3FD04B1ED31880
:10089000DBB2994203D12A1C1E4B984736E03E2B0F
:1008A00000D93F23CA089046DF0807220C1C1440D9
:1008B000FF20011CA140CCB21340D31A1841C0B292
:1008C0008146B84507D1221C02404046311C2B1CF2
:1008D000114CA0471AE04046311C221C2B1C0E4C28
:1008E000A04744460134A7420AD90B498846201C38
:1008F000311CFF222B1CC0470134E4B2A742F6D8BA
:10090000381C311C4A462B1C034CA0470CBC90469B
:100910009946F8BDF106000055070000F0B55746AE
:100920004E464546E0B4061C0D1C90469A4608AB60
:100930001C78231C0E4FB847514601396918C9B2BB
:10094000301C4246231CB847301C291C5246231C2D
:10095000084FB847404601383618F0B2291C5246B5
:10096000231CB8471CBC90469946A246F0BDC04621
:10097000A50700007D080000F8B54F464646C0B404
:10098000051C161C08AA1778002B0FD01C1C013957
:100990008946084B98464B46E118C9B2281C321CC0
:1009A0003B1CC047013CE4B2002CF4D10CBC904687
:1009B0009946F8BDA5070000F8B55F4656464D4676
:1009C0004446F0B4051C0F1C4378DB089A46D20855
:1009D00093468378002B08D0012B34D15046002851
:1009E00031D000261B49894615E000245246002AD2
:1009F0001AD128E0E119C9B2734368680219D25CC0
:100A00004046C8470134E4B22B78A342F2D80136FD
:100A1000F3B2534517D22B78002BF8D00024594657
:100A20008A19D2B29046E5E70B4E2B78181C60432A
:100A30006A6810185A461119C9B23A1CB0470134F5
:100A4000E3B29A45F1D83CBC90469946A246AB46E3
:100A5000F8BDC046D1060000AD060000F0B54F4617
:100A60004646C0B483B0061C0C1C407C03212A4BB4
:100A70009847C7B2B37CBB4201D1002C0AD00023F7
:100A800000930020102180223023244CA047012213
:100A9000234B1A70B7740023009300201021062204
:100AA00030231E4CA047707C03211E4B9847CAB2CE
:100AB00001321201D2B21C4800211C4B9847184B3E
:100AC0001B78002B22D07C003C19E4B201377B005C
:100AD000DF19BC4217DA337AA34214D91025144A1D
:100AE0009146144B9846A3007268985807212A1C17
:100AF0004B46C0470134E4B2BC4204DA1035EDB2D3
:100B0000337AA342EFD80022054B1A7003B00CBC15
:100B100090469946F0BDC046B188000079090000B2
:100B2000D00100203989000004000020B90900002C
:100B30000C000020F50C000030B583B0041C00232D
:100B400000930020002180224023074DA847206801
:100B500000210022054B064DA847201C0121054B12
:100B6000984703B030BDC046790900000C00002052
:100B7000F50C00005D0A000008B50D2925D003D84A
:100B8000FE20082924D022E0262910D028291ED1B1
:100B9000437C027A013A934202D10023437401E07C
:100BA0000133437400210B4B9847FF2010E0437C36
:100BB000002B02D0013B437402E0037A013B4374F3
:100BC0000021044B9847FF2002E0407C00E0FF201A
:100BD00008BDC0465D0A000008B50248024B9847B0
:100BE00008BDC046E0060020A1060000F0B55F4643
:100BF00056464D464446F0B485B0061C8846141C43
:100C000003931A7A5B7A002100914046211C234D00
:100C1000A84703990B78002B39D10A7AD3085107DA
:100C200000D00133039A527A934603998A7AB61A0E
:100C30005A4656435E43B6B24B689E19A2460721F8
:100C40008946039A177A002F17D000240025E3B2B3
:100C500041465818C0B24A461A4201D13578013689
:100C60006BB2002B03DA514601220D4B98476D0001
:100C7000EDB20134E3B29F42E9D853460133DBB20F
:100C80009A465B46013BDBB29B46002BD9D105B0AF
:100C90003CBC90469946A246AB46F0BD790900009F
:100CA000F1060000F8B54F464646C0B4041C88461D
:100CB00091461F1C0E1C20780A2806D17B7A01332E
:100CC0004B44DBB29946464609E00D2807D0311C5B
:100CD0004A463B1C064DA8473B7AF618F6B201344B
:100CE00020780028E7D10CBC90469946F8BDC04654
:100CF000ED0B0000F8B54F464646C0B4041C8846CC
:100D000091461F1C0078002817D00D1C0A2806D118
:100D10007B7A01334B44DBB29946454609E00D2806
:100D200007D0291C4A463B1C064EB0473B7AED18BB
:100D3000EDB2013420780028E8D10CBC90469946E9
:100D4000F8BDC046ED0B0000054B197802220A439E
:100D50001A701A1C53785BB2002BFBDB7047C0463D
:100D60000018004000B583B0124B996940220A4335
:100D70009A6101A900230B7005200F4B98470520AD
:100D80000E4B98470E4B197801220A431A701A1C11
:100D900053785BB2002BFBDB0A4B191C403100225D
:100DA00004C38B42FCD11022074B1A60074B9847B3
:100DB00003B000BD00040040F5410000694100009F
:100DC00000180040182E002000E100E0490D00004E
:100DD000F0B583B0051C0C1C01A900234B70CB702F
:100DE00063680B70237A8B702078154B984700232B
:100DF0001F2D00D8134B072129408900E07AA27AE1
:100E0000002A01D008221043EA0892009A18966935
:100E100088400F278F40BE43311C01439161627AA5
:100E2000002A06D05A690121A9400D1C15435D61B5
:100E300004E05A690121A9408A435A6103B0F0BD18
:100E4000D1420000001800401723002A0FD18B0068
:100E5000084A9A58002A04D1191C064BC85000238E
:100E600005E01D23121A501E824152421340181CE5
:100E70007047C046182E00201723002907D10023F1
:100E80001F2800D8034B01228240DA600023181C7F
:100E90007047C0460018004070B50022164B1A700B
:100EA00000231F26154D144C1F2B10D919E014498F
:100EB00000E000210A619B005B59002B00D098479D
:100EC00023780133DBB223700F2B14D8ECE7321CEC
:100ED0001A40012191400A1C094909691142E6D1D1
:100EE000EEE7321C1A40012191400A1C00210969D9
:100EF0001142DED1E4E770BD582E0020182E0020EC
:100F00000018004000B585B001A901230B724B7297
:100F100000238B720223CB7207230193E023DB02B1
:100F20004B600720064B9847064807210022064BD6
:100F3000984707200021054B984705B000BDC046E3
:100F4000D10D000061100000490E0000790E000074
:100F500010B50D4B9B88C11A89B20C480C4B9847B1
:100F60000C4B9847074B064A0B4CA0470B4B984736
:100F700083B2181CFF2B00D9FF20C0B210BDC046A1
:100F8000000000000000E03FE00B002060EA0000ED
:100F90004D89000021AC000019910000798B000000
:100FA00038B51748174B984784B2174B9988611A80
:100FB0005A888BB29A421CD2134B1D78002D05D152
:100FC000201C124B9847104B187010E0201C0F4B40
:100FD00098472D18E80F451968100D4B9847074B97
:100FE000054A0C4DA8470C4B9847074B1870064B09
:100FF0009C8038BDC046C046000000000000E03FB5
:10100000B82D0020D9450000E00B0020510F000052
:1010100021AC000019910000798B0000C046C04649
:1010200010B5094C002323700848094B9847A0804D
:1010300096235B006380074B9847FA204000064BDD
:101040009847064B984710BDE00B0020B82D0020B4
:10105000D9450000050F000045250000A10F000044
:1010600008B5014B984708BDA10F000030B583B00B
:10107000041C0E4B19780E4A117018700D4B9847CE
:10108000012C11D10C4B984701250095002000211F
:1010900080224023094CA0470095012001217E2297
:1010A0003E23A047064B984703B030BD65020020A1
:1010B000E00A002061050000C12300001D090000B6
:1010C0000D05000010B5084B1878084B984700280C
:1010D00005D0054B1B78042B01D00133DCB2201C5A
:1010E000034B984710BDC04665020020D918000088
:1010F0006D10000038B5084B9847084D08480A2184
:1011000012222B1C074CA04707481E2120222B1C13
:10111000A047064B984738BDC12300000C000020B3
:10112000E4C50000A50C0000F0C500000D0500009E
:1011300010B5134BDC69134B1878134B9847011CFF
:10114000201C124B9847002812D1201C104B9847A6
:10115000C0B20C4B18700F4B9847084B064A0E4C08
:10116000A0470E4B9847C2B20F2001210C4B984765
:1011700010BDC046C046C046000000000000E03F71
:10118000200B00205C2D002061900000A58A00004B
:10119000458B000021AC000019910000798B000004
:1011A000D9050000C046C04610B50D4B18780D4B50
:1011B0005B7883420ED00B4B58700B4B9847074B14
:1011C000054A0A4CA0470A4B9847C2B20F2001219A
:1011D000084B984710BDC046000000000000E03FEB
:1011E000E00B00205C2D002021AC000019910000D4
:1011F000798B0000D905000008B50D4B1B78012B39
:1012000012D0002B02D0042B03D00FE0094B9847DB
:101210000CE0094B1B7B412B03D10020074B984767
:1012200004E0074B984701E0064B984708BDC046CD
:101230006502002031110000200B00206D1000001D
:10124000F5100000A911000010B5CA88C388D21A91
:1012500092060C7964044B799B0523438C78240314
:10126000234313430279002A05D1CA78002A02D009
:10127000802252021343487880010A7810431843B1
:1012800010BDC04610B58C0EC388E318D3808B0107
:101290001B0F53718B02DB0E13710379002B03D0EC
:1012A000CB03DB0E937005E00B041B0F9370CB0395
:1012B000DB0FD3700B059B0E53703F231940117049
:1012C00010BDC04610B50268082480230B49CC50DD
:1012D00001688B7A5BB2002BFBDB138802218B4306
:1012E000138000230374437401688B7A5BB2002B74
:1012F000FBDB118801230B43138010BD00E100E0EC
:1013000010B50468034B9847A37A5BB2002BFBDB54
:10131000206110BD4912000070B50E1C141C056838
:101320001723012A0DD8084B9847AB7A5BB2002BE4
:10133000FBDBE4002D19A861327A0023062A00D8CD
:101340002A77181C70BDC0464912000030B583B022
:10135000041C151C01601C4B996920220A439A61E8
:1013600001A902230B700420184B98470420184B46
:101370009847201C174B98472B792371EB786371A2
:10138000EB88E380144B1C6023682A8829790029A4
:1013900002D008210A4301E048210A43A978002924
:1013A00001D080210A431A80EA78002A04D05988A3
:1013B0008022D2010A435A80291C0831201C0022B5
:1013C000064B984703B030BD00040040F5410000D3
:1013D00069410000C51200005C2E002019130000B6
:1013E00038B50C1C01681723012A08D8D2008D18C3
:1013F000A969221C034B98472B7F23720023181CDA
:1014000038BDC04685120000012A01D917200AE024
:10141000931C9B001950037C012191400A1C1A4324
:10142000D2B202740020704710B50368012902D1BE
:101430008022DA7104E001228A4001242240DA711C
:10144000437C01228A40111C1943C9B2417410BD6A
:1014500010B50E4B1B681C685A7C197C081C104088
:10146000227AE1790A40D10906D0810701D5DB68EB
:1014700098478023237207E0D10705D5C20701D51D
:101480009B6898470123237210BDC0465C2E002044
:1014900082B000226B46DA7102B0704730B583B07B
:1014A0003848394B9847002815D0384B1878384BB6
:1014B0009847002802D0374B98470CE0334B1B78F5
:1014C000053B9800C3189B003348C0182821334BB4
:1014D0009847334B984733482B4B984700284FD0B9
:1014E0002A4B18782A4B9847002805D02E4B98474E
:1014F00005202E4B984743E0274C244D2B78053B85
:101500009800C018800020180D21244B98476A4687
:10151000D07107322B78053B1278D2B29900C918E6
:1015200089006418E168885C0C2827D11A4A990060
:10153000C81880001018002484744474CB189B00D1
:10154000D218107C124B984700280BD00F4B1B78F9
:10155000053B9A00D3189B000F4AD318187C144BF4
:1015600098470DE0094B1B78053B9A00D3189B0068
:10157000094AD318187C0D4B984701E00B4B98474C
:1015800003B030BDD42C0020991600006502002065
:10159000D9180000C510000088000020790B000059
:1015A0000D0500002802002061050000A1180000C0
:1015B0006D10000038B513480E21134CA047134896
:1015C0000F21A047FF22124B1A70124B9847124B63
:1015D0009847124B9847124B9847124B9847124D19
:1015E0001248172112222B1C114CA04711482C2104
:1015F00020222B1CA047104B984700220F4B1A703B
:1016000038BDC0462802002069160000D42C0020F6
:101610005C2D0020D90B0000D9020000DD23000062
:1016200021100000C12300000C000020F8C50000BC
:10163000A50C000004C600000D0500006502002096
:1016400008B5014B984708BDF911000010B50348D3
:10165000034CA0470348A04710BDC0462802002005
:10166000B5160000D42C002030B583B0051C01ABAA
:1016700080221A7000245C7001229A70DC708170E4
:10168000081C191C034B98472C706C70AC72AC8012
:1016900003B030BDD1420000031C0078C0B2002866
:1016A00006D05A78002A02D101225A7000E00020A8
:1016B0007047C0468378D9090022002903D15A090E
:1016C000D20112495218126A1F210B400121994080
:1016D0000B1C13405A1E9341827A9A420DD1838883
:1016E00001339BB28380222B0ED90378002B0BD1C0
:1016F000012303700023437006E04378002B01D0E0
:1017000000230370002383807047C04600440041DB
:10171000074B1B78002B02D1064B074AD35C074BC3
:101720001B78032B02D90022044B1A707047C04665
:10173000BC060020E8200000E80B00202602002064
:101740002C22FF32064BC2520023064A8352064A1D
:101750008352064A83520122054BC2547047C04649
:10176000E0200000E4200000E6200000E22000006D
:10177000E820000084B0F0B5059006910792089328
:101780000C990E4D4C5BE000001B800008181030D7
:10179000031C05AAC1CAC1C3C1CAC1C312681A6069
:1017A0000134A4B24C53064BCB5AA34201D10022C0
:1017B0004A53F0BC08BC04B01847C046E220000001
:1017C000E020000070B58CB005AB0F4A906811693D
:1017D000069154690794D26908920E225A740B4AF2
:1017E0000A92FA2252001A83094A52781A74094A54
:1017F000039209AA694670CA70C10699079A089BA4
:10180000054CA0470CB070BD200B0020A4700D400B
:101810005C2D0020E80B0020751700000000000080
:10182000F0B583B000AF041C2E21174B9847061B60
:10183000F31DDB08DB006A46D21A9546811E381C70
:101840000722124DA847B21E6846211CA8476846C9
:101850000F4EB047041C0D1C381CB047094B084AFA
:101860000C4EB047021C0B1C201C291C0A4CA04724
:101870000A4B9847BD4603B0F0BDC046C046C046BF
:101880000000000000004E40CD4B0000074C00005F
:10189000F14900005D9700001991000005AD0000BE
:1018A00008B5084B1978084A11701870053883007C
:1018B00018188000054BC018054B9847054B9847F2
:1018C00008BDC04665020020E00A00208800002014
:1018D000390B00000D0500000023042282425B4109
:1018E000D8B2704710B584B00C1C6B46D871073362
:1018F0001B78002B36D01C4B58681C491C4B984752
:10190000002803D11B4A184B5A602BE01A4B0121C7
:101910001A4A99541A4A9A5A1A495B5A92B29A42E6
:1019200002D10122184B1A70201C184B9847C0B2E4
:101930006B46D8730023A374201C0F30144B9847B8
:1019400080B2C8235B00984206D10B4B0C4A995ACF
:1019500089B2104A995205E0074B0E4A995A89B24A
:10196000074A995204B010BDD006002004C70000F9
:10197000E54B0000F8C60000E80B0020E82000005E
:10198000E4200000E2200000BC060020F94B00002B
:10199000FB490000E620000082B06B46D871024A85
:1019A000024B5A6002B07047F8C60000D006002013
:1019B000F0B587B00E1C6B46D871D9790733C9B220
:1019C0006A46D1751B78DBB2D375301C2C21424B93
:1019D0009847002872D00027404C6AE019781170AF
:1019E000013301328342F9D1811B061C00E0002142
:1019F000002202AB5A540B2F52D8BB00E3589F462B
:101A000002A8374B9847374B986049E002AB1A78E9
:101A1000344B1A7344E0334B1B7B562B05D002A882
:101A2000314B98472F4B18613AE000222D4B1A6139
:101A300036E002AB1A782B4B1A7631E0294B1B7B30
:101A4000562B05D002A8284B9847264B586127E013
:101A50000022244B5A6123E002AB1A78214B5A76BC
:101A60001EE002A8214B98471A4B194A204DA8475F
:101A7000204B98471B4BD86112E002A81B4B98479C
:101A80001C4B9847174B18620AE002A8144B984762
:101A9000144B586204E002AB1A7828231149CA5447
:101AA00001360137FFB2301C2C210B4B9847002820
:101AB00004D086429BD202AA331C8FE70E480F4BFC
:101AC00098470F4B1A7801321A7007B0F0BDC04624
:101AD0006F1283C0CAA1FD3FCD4B0000C8C60000F5
:101AE000FB490000200B002021180000F1490000F4
:101AF00031A0000005AD0000E80B0020C517000074
:101B000026020020C046C04638B50D4D0D4C281C9D
:101B1000211C00220C4B98470723237220780130A8
:101B2000C0B23C21094B98472170281C211C00227F
:101B3000074B9847074B1B68002B00D0984738BDD0
:101B4000602E0020D4010020E1130000398900003C
:101B500019130000742E002010B586B001AAA0232E
:101B60001B01138000239370D3701371FA21C900F5
:101B7000D18003A803706846437368468373684640
:101B8000C373012304A80370684643746B465982EB
:101B900006231374094C201C09490A4B98472168F5
:101BA0000822094B1A602268937A5BB2002BFBDB98
:101BB0000A88022313430B8006B010BD602E00205C
:101BC000001400404D13000000E100E010B5064B8A
:101BD0001860064C201C06490022064B9847201C22
:101BE0000021054B984710BD742E0020602E002068
:101BF000091B0000091400002914000070B586B00C
:101C00000D1C04AC002323706370A370E3700126E5
:101C100026710C4BE3800A2363710B4B9847281CF9
:101C20000A4B98470A4D281C211C0A4B984701A9CA
:101C30000B1C05CC05C30E72281C0022064B9847CE
:101C400006B070BDDF070000591B0000CD1B00006F
:101C5000602E002001130000191300007047C046D9
:101C600008B5154B1B780A2B0FD18023134AD35C80
:101C7000DBB2012B19D9131C80229A5CD2B200214D
:101C800099540121812299540FE00B4B1B780D2BA5
:101C90000BD00A4B8022995CC9B207480078C0B2C9
:101CA0005854995C0131C9B299540548024901223E
:101CB000044B984708BDC046640200204C0B00202E
:101CC000842D0020E53A000070B582B0051C0E1C82
:101CD00000226B46DA80064C281C69460631A04774
:101CE0000028F9D16B4606331B88337002B070BDF3
:101CF000053A000070B5061C0D1C034C301C291C55
:101D0000A0470028FAD170BDD939000070B584B061
:101D10006C46009001910292054A111C61CC61C190
:101D20000B6004480099044B984704B070BDC0464E
:101D3000D006002008C70000794A000070B582B0C4
:101D400000226B46DA71254E8023F35CDBB26C46D1
:101D5000A371234B5D68281C224B9847C0B26B4689
:101D6000607162790533D2B2B15CC9B201AA117057
:101D7000A2791B78D2B29A4205D96B4605331B78FB
:101D8000DBB20021F1541548291C174B9847002855
:101D900002D101226B46DA716B4605331B78DBB248
:101DA00001AA1178C9B20D4AD1540D4B1B7A002BF0
:101DB00006D06B46D879C0B2094BDB68111C984736
:101DC0000648002381228354802283540021074B3C
:101DD00098476B46D879C0B202B070BD4C0B00205A
:101DE000D0060020F94B0000E54B0000674A0000D8
:101DF000F0B583B0051C6B460022DA8006331B88E1
:101E00009BB298421CD981230F4AD35C012B07D186
:101E100003E08123FB5C012B06D10C4B984710E0BB
:101E20000B4E6C460634084F0120B047238801331F
:101E30009BB2238023889BB2AB42EAD3002000E010
:101E4000002003B0F0BDC0464C0B00203D1D00003B
:101E50004525000070B50E4D802636056E610D4893
:101E60000D4CA047AE616420A0476E61FA200001CE
:101E7000A047AE61094B186859689A68DB68084D3D
:101E8000A847FA204000074B9847C820A04770BDDC
:101E900000440041B80B000045250000AC060020BE
:101EA0000D1D0000F11D0000F0B55F4656464D4681
:101EB0004446F0B487B000226B46DA7501AB414965
:101EC00002911A724048414B984700239A466C464B
:101ED000173401239B463E4E5B4623703D480299D2
:101EE000039A049BB047FA235B009946181C3A4DAD
:101EF000A847C8235B009846181C384FB847384895
:101F00000299039A049BB0474846A8474046B84701
:101F100034480299039A049BB047FA27FF00381C03
:101F2000A84731480299039A049BB047381CA84738
:101F3000002801D1002323702C480299039A049BA6
:101F4000234DA847FA20C000234B9847002801D111
:101F50000023237026480299039A049B1C4DA8472E
:101F6000FA20C0001C4B9847002801D100232370A1
:101F7000204801900299039A049B154DA847FA2026
:101F8000C000154B9847002801D100232370237807
:101F9000002B0CD15346022B03D9174B9847002333
:101FA0009A4653460133DBB29A46144B984723783E
:101FB000002B91D007B03CBC90469946A246AB4658
:101FC000F0BDC04604C70000E80B00204117000028
:101FD0000D1D000010C70000F11D00004525000088
:101FE00030C7000058C7000064C7000078C7000071
:101FF00090C70000D8C7000091140000551E0000D3
:10200000F0B587B001226B46DA7501AC1349029135
:10201000002323721248039A049B124FB847124EB2
:10202000301C124DA847FA20C000114B98471148A8
:1020300001906168A268E368B847301CA84700288F
:1020400002D100226B46DA75FA204000084B98470F
:102050006B46D87DC0B207B0F0BDC04604C70000D3
:10206000F4C700000D1D000010270000F11D000046
:102070004525000004C8000070B590B08023DB0542
:10208000009300230193FF2268460281002283729D
:10209000C372012124206C4621542520215426217D
:1020A0006354272163540A938821490303912C2107
:1020B00063542D21635405932382E376227622779D
:1020C00062761323A3766277204B0C93204B0D93FB
:1020D00001235B420E930F93E1235B0208931D4E95
:1020E0001D4D1E4C301C291C6A46A0470028F9D102
:1020F000184C1B4B1C601B4A1B4B1A601B4A1C4B89
:102100001A60201C14496A46144B9847194E3368CC
:1021100098680021184DA847336858680021A847DF
:102120002568281C154B98471F231840012383401E
:10213000181C134B18602268D369002BFCD12A6845
:10214000022313432B6010B070BDC04602000A008A
:1021500002000900842D002000080042E136000042
:10216000A42E0020F51C0000A02E0020C91C000099
:102170009C2E00206C010020AD4A000001360000BA
:1021800000E100E010B5064C201C06490022064B79
:1021900098473123E15C03220A43E25410BDC04654
:1021A000842D00205D1C0000CD3A000010B51C49B4
:1021B0001C4B0B601C4B4B6000220A721B491C48D5
:1021C00008604B600A721B491B4808604B600A722A
:1021D0001A491B4808604B600A721A491A4808607D
:1021E00001200872194C4C60194CCC6019491A4CEA
:1021F0000C600A72194C4C6019491A4C0C60087238
:102200004B601948C8601949194808600A724B6048
:102210001848C8601849194808600A724B6010BD18
:10222000C006002014C8000004C7000034020020CB
:102230001CC80000AC06002024C80000100B0020C1
:1022400034C800005402002044C8000054C80000F4
:10225000B11900004402002060C8000070C80000EE
:10226000680600207CC8000099190000D00B0020EF
:102270008CC80000E5180000E40A00209CC800009B
:1022800070B50124374B1C7037494C7000238B709C
:102290000C701B20354B984780221205344B9A61F5
:1022A000344B9847344B9847344B9847344B1C7009
:1022B000BFF35F8F62B6334C201C33490122334B8E
:1022C0009847201C32490122324B9847324B1868FC
:1022D00059689A68DB68314CA047FA204000304BBF
:1022E000984700280AD1C82040002E4EB047204C05
:1022F00080252D0565612C48B047A561214C31250D
:10230000635D022293436355284B186859689A68A5
:10231000DB68224EB047C8204000224B9847244B30
:10232000186859689A68DB68B047625D02231343F6
:102330006355201C16490122164B9847FA256D005B
:10234000281C174CA0471B4B186859689A68DB6813
:10235000B047281CA047184D184CA847A047002894
:10236000FBD070BDBC0600201C2D00200D2B0000F2
:10237000004400417920000085210000AD210000CB
:1023800008010020842D0020611C0000CD3A0000CF
:1023900064020020E53A0000E40A00200D1D000060
:1023A000F11D00004525000010270000C006002098
:1023B00034020020AC060020A91E0000012000000D
:1023C00010B582B00023009300200021802240231A
:1023D000014CA04702B010BD7909000010B58EB0C5
:1023E00001AA002393700021938091711381517091
:1023F0009172D1721173917351731174536193611E
:1024000011771362536213855385938502231370EA
:10241000074C201C0749084B984722687F21D37B33
:102420008B43FCD1118802230B4313800EB010BDE7
:10243000B82D0020003000426543000010B58EB07A
:1024400001AA00230021137093710024138154709A
:102450009172D172117391735173117453619361BD
:102460001177136253625385938504239370A023DD
:10247000DB0093802A23D0542923D0542823D4541A
:10248000074C201C0749084B984722687F21D37BC3
:102490008B43FCD1118802230B4313800EB010BD77
:1024A000402D0020002C00426543000008B5FF20AD
:1024B000014B984708BDC0463D24000010B5011CE3
:1024C0000C4C201C00220C4B984720680B4B984763
:1024D0000B4B1B5C1F21194001231A1C8A40111C45
:1024E000084A1160617E01220A43627622685373B2
:1024F00010BDC046402D0020094600002D430000BD
:10250000A0C8000000E100E010B50020084B98478B
:10251000084CFA218900A047074B1860FA2189006E
:10252000A047064B18600522054B1A6010BDC04637
:10253000DD400000B18800000401002000010020FF
:1025400010E000E030B5084B1C68084A00258021E7
:10255000490206E0002C04D05460956013680B42D9
:10256000FCD00138F6D230BD0401002010E000E0BC
:1025700010B50022002302704270002142800171D8
:1025800003760262C26182600373C0246401C48165
:10259000037443748374C37403752A240355437509
:1025A000837524240355C2840285C1752B23C1542D
:1025B0002C23C15410BDC046F0B55F4656464D466B
:1025C0004446F0B499B0061C141C0160BC4B186A58
:1025D0008022520202431A620B780520DA0700D5E6
:1025E000F6E10B781C20990700D5F1E1637833718F
:1025F000002B00D0DCE1B34B196C04220A431A64AF
:10260000D6E1237D002B02D10123737701E0002363
:102610007377326801922378684603721E2002A9FC
:10262000A94B98471E20A94B98472C23E35C002B0D
:1026300042D02B22A55C217B88464A19D2B2D318FE
:10264000DBB299469A4221D2A14A9346A14B9A46BF
:102650000F272F40237BFF1804A859465022D0474C
:10266000132F0CD8BF0004ABF85803A900234B70FC
:10267000CB708B7001230B70C0B2974A9047013525
:10268000EDB240464319DBB24B45E1D3E58904A8DE
:102690008F4950228F4B9847132D37D8AD0004AB8C
:1026A000E85803A900234B70CB708B7001230B708B
:1026B000C0B2894B984729E0257B04A88449502261
:1026C000844B9847132D0CD8AD0004ABE85803A9F0
:1026D00000234B70CB708B7001230B70C0B27E4B0C
:1026E0009847E58904A87A4950227A4B9847132DD8
:1026F0000CD8AD0004ABE85803A900234B70CB7095
:102700008B7001230B70C0B2734B9847637D9B00A5
:10271000DBB201990B70A37DDB0162781343DBB25E
:102720004B702379342B00D940E19B006B4AD3587E
:102730009F460222102501231AE0637C227C10258B
:1027400016E006221025012312E00822102500239E
:102750000EE00022302500230AE00022202500237D
:1027600006E000220025002302E0042210250223B7
:102770001B0170210B401343019A9370E37D1720D6
:102780003F2B00D924E1D3703268537E5BB2002B1B
:10279000FBDBE27C638813432422A25CD200134358
:1027A000227D92001343A27C520013432B430198D5
:1027B0008380237E002B01D1316897E0102D5FD0FC
:1027C00002D8002D3CD0F7E7202D19D0302DF3D1C1
:1027D000E27C002A0AD0E26980321720FF2A00D961
:1027E000F6E0226A8032FF2A00D9F1E01720E16981
:1027F000FF2900DDECE0226AFF2A00DDE8E0DBE7EC
:10280000E27C002A11D0E069802292008118172012
:10281000334A914200D9DBE0206A8022920081187D
:1028200017202F4A914200D9D2E017202C4AE169A3
:10283000914200DDCCE0216A914200DDC8E0BBE7B7
:10284000E27C002A11D0E2698020000111181720D3
:10285000244A914200D9BBE0226A8020000111186D
:102860001720204A914200D9B2E017201D4AE169A1
:10287000914200DDACE0216A914200DDA8E09BE7D7
:10288000E27C002A11D0E269802000021118172092
:10289000154A914200D99BE0226A8020000211185B
:1028A0001720114A914200D992E017200E4AE1699F
:1028B000914200DD8CE0216A914200DD88E07BE7F7
:1028C0000004004000080040F5410000694100009C
:1028D00078C90000554A0000D1420000A4C8000099
:1028E000FF030000FF0F0000FFFF00004A7E52B20E
:1028F000002AFBDB019A13723268537E5BB2002B15
:10290000FBDBA38B019883833268537E5BB2002B81
:10291000FBDB238C01990B842C23E35C002B04D07C
:10292000013BDBB217200F2B52D82B22A25C1720C1
:102930000F2A4DD83168487E40B20028FBDBE08981
:10294000217B0143A068014312050A431B04134382
:1029500001990B612A23E35C0B750F238B752423EC
:10296000E35C002B10D0E38C17201D4A93422FD834
:102970008B84238D80200001191889B21720184AF2
:10298000914225D80199CB84164B1A685201E02355
:10299000DB001A40144B586841011B68DB0E0B43E7
:1029A000DBB2134301990B85002011E017200FE0E3
:1029B0000023B360F3603361B376F3763383337708
:1029C0000A4B1E602A23E35C002B00D119E61EE6A9
:1029D00019B03CBC90469946A246AB46F0BDC046F5
:1029E000FF0F00002460800020608000782E00200F
:1029F00038B52D4B1C6823681D7EEDB2E90735D52F
:102A0000E27ED10732D5A27ED1072FD501221A76D8
:102A10002268537E5BB2002BFBDB6369991C61610A
:102A2000528B92B21A80238B013B9BB22383002BE3
:102A300011D0637F002B19D023685A7E52B2002A2E
:102A4000FBDB197B02220A431A732268537E5BB2B6
:102A5000002BFBDB0AE0237F052B07D10023237724
:102A6000012322689375201CA368984769070BD53A
:102A7000042322681376E37E990705D5A37E9A077F
:102A800002D5201CE3689847A9070BD502232268CA
:102A90001376E37E590705D5A37E5A0702D523692D
:102AA000201C984738BDC046782E0020931C9B0000
:102AB0001950012393401A1C837E1A438276704773
:102AC00010B5031C048BA4B20520002C1DD1187F67
:102AD000C0B2052819D0052018771A835961012240
:102AE0001968CA755A7F0020002A0ED01A68517ED4
:102AF00049B20029FBDB107B0221014311731A68E4
:102B0000537E5BB2002BFBDB002010BD00B583B011
:102B100001AB80221A700A785A704A789A708A78C3
:102B2000DA70191C014B984703B000BDD142000078
:102B300010B5031C4908402099420CD30024C91A3F
:102B4000601C80B28B4201D8041CF8E74020FF2CA7
:102B500001D81480002010BDF0B55F4656464D46A2
:102B60004446F0B487B0061C0D1C049210AA1078DD
:102B7000321C424340248A4200D9B3E0002B4BD19F
:102B80000021321C5E4CA04783462E1C00270020EB
:102B90000021002200233F24A4460125A8460290DC
:102BA00003916146203903D440468840814605E0C0
:102BB000202165464C1B4046E04081464146644624
:102BC000A1408A46101C191C80185941021C0B1C7C
:102BD0005D464C46254202D0424602430B1C9F42B2
:102BE0000CD801D1964209D8921BBB415046029D98
:102BF00028434946039C2143029003916546013DC9
:102C0000AC46CED2029803993C4B3B4A121A8B41F8
:102C1000120C1B041A4362E00022012B5FD14F0FFC
:102C2000B946CD00AB460021321C0023344CA047EE
:102C3000061C0F1C00230125029603979A46504656
:102C4000C0B2059000218846002200233F24271CA3
:102C5000203F03D42E1CBE40019604E02020071B19
:102C6000291CF94001912E1CA6400096101C191C2D
:102C700080185941021C0B1C5F463740BC46019E20
:102C80004F463E4067463E4302D02A1C02430B1C7F
:102C9000039898420BD802D10299914207D8029E1C
:102CA000039F921BBB41474600980743B846013C2F
:102CB000CDD2414652468B1ADB08124CA34208D9AA
:102CC000059A0132D2B205920126B2445746082F26
:102CD000B5D140240598082804D042031A43049C27
:102CE00022800024201C07B03CBC90469946A24696
:102CF000AB46F0BDC046C046000000000100000029
:102D0000018B0000FF1F000010B582B0041C0F4BA8
:102D10001B78002B01D000290DD001A90C701320C5
:102D20000B4B984713200B4B9847084B5C700122C4
:102D30001A70002007E0054B5A781D20141B621EF4
:102D400094416442204002B010BDC046E001002022
:102D5000F5410000694100002E4B98421CD003D879
:102D60002D4B984207D04AE02C4B984225D02C4B53
:102D7000984233D043E0012943D0002904D00229EE
:102D800006D0032906D001E0264841E000203FE0BC
:102D900025483DE025483BE0012934D0002904D0F6
:102DA000022906D0032906D001E0032030E00020EC
:102DB0002EE01F482CE01F482AE0012925D00029D9
:102DC00004D0022906D0032906D001E01A481FE0EA
:102DD00000201DE019481BE0194819E0012916D010
:102DE000002904D0022906D0032906D001E01548A5
:102DF0000EE000200CE014480AE0144808E000202F
:102E000006E0134804E0134802E0134800E01348CA
:102E10007047C046000C004200080042001000420B
:102E20000014004203000400030006000300070032
:102E300003001E0003001F000300080003000A0037
:102E400003000B0003001000030012000300130036
:102E50000300050003000100030009000300110046
:102E600070B584B00E4A694670CA70C112680A60B3
:102E7000031C009A82420FD0019C844208D0029D1C
:102E8000854207D00020039E9E4207D1032004E024
:102E9000012002E0022000E00020C0B204B070BDBA
:102EA000C8C90000F0B5474680B488B0051C0C1CAA
:102EB000161C29600B681C209A0700D5DFE00B6800
:102EC0000520DA0700D5DAE0081C6F4B98476F4BF6
:102ED000196A821C012797403A1C0A431A6207A903
:102EE0002427F35D0B701430C0B28046684B9847BE
:102EF0004046684B9847F05D0021674B9847337810
:102F0000012B03D122680C23134323603378002B59
:102F100000D0B1E02268082313432360ACE0EA1834
:102F2000D16004331C2BFAD10023EB62AB62002486
:102F3000AB862B863623EC543723EC543823EC54E1
:102F400003236B722C7128684F4B9847071C534919
:102F5000534B9847BF00534BFD502F6802AB802264
:102F60001A705C7001229A70DC703378002B02D1E9
:102F7000002202AB9A70B36A0393F06A0490326B3A
:102F80000592736B06930024E1B2A30003AA98583C
:102F9000002802D1381C444A9047431C06D06A4698
:102FA0001072000CC0B202A9404B98470134042CA7
:102FB000EAD133786B71337CAB71B37CEB71337DC9
:102FC0002B7200226B46DA803378012B14D12868EB
:102FD0002D4B98471430C0B2354B9847011CB0694F
:102FE0006A460632334B9847031C1720002B46D104
:102FF0006B4606331B783B733378002B0FD1B169D6
:10300000B38B786AF47F2404B27F224302437A624E
:103010002022B25C002A04D04022134301E00023A6
:103020000021B26870680243F06802430A43317CB1
:103030000B43717C002903D11F498978880701D58A
:1030400080210A43B17C002902D0802189020B43F0
:10305000F17C002902D0802189000B43317D0029B9
:1030600002D0802189010B4339680A433A607A68AB
:1030700013437B60002002E0002300214FE708B0EB
:1030800004BC9046F0BDC046612E00000004004024
:10309000F541000069410000092D0000C533000022
:1030A000C1350000802E0020592D0000D1420000C3
:1030B00011420000312B00000020004110B544797E
:1030C0001523012C6CD1047A0023002C68D1002A2E
:1030D00057D04B78002B44D00268137EDC070FD406
:1030E0000B78D9090022002903D15A09D2012D49B0
:1030F00052181F210B4001219940916105234FE097
:103100000B78DC090022002C03D15A09D201254C8E
:1031100012191F24234001249C40546189780368BC
:103120001A7ED40700D59962C2790023002A37D1CC
:1031300002680421137E0B42FCD0117E00234C0751
:103140002ED5538B590703D5518B04230B4353833F
:103150008379012B02D1936A002321E0936A002333
:103160001EE00B78D9090022002903D15A09D201A7
:103170000C4C12191F210B40012199405161002371
:103180000EE00B78D9090022002903D15A09D20197
:10319000044952181F210B400121994091610023DD
:1031A000181C10BD00440041F0B55F4656464D4620
:1031B0004446F0B483B0041C92463823C05CC0B2CD
:1031C000052800D1F1E01720002A00D1EDE0637955
:1031D000002B05D12368187E820701D502201876BE
:1031E0005546002001230226B4460427BB468FE043
:1031F0006279002A01D0266816E02268167E1E42F7
:1032000006D16D4E177E1F4202D1013E002EF9D12C
:10321000167E67463E4203D0022313760420C4E0A4
:10322000127E1A42E7D1B3E0327E1A42FCD0421C31
:1032300092B290460F5CA279012A01D0404605E087
:10324000023080B242468A5C12021743327E1A4232
:1032500002D0FF05FF0DB7626A1E96B2E279002A1E
:1032600001D1351C56E06279002A37D1534A0191C9
:103270002668377E1F421CD0471CBFB2B946019951
:10328000095C8846A779012F01D0484608E0023042
:1032900080B201994F46C95D090247460F43B846BF
:1032A000377E1F4203D04746F905CF0DB762013D77
:1032B000ADB22668377E59460F4202D1013A002A44
:1032C000D6D10199327E67463A4203D00223337643
:1032D00004206AE0327E5E4632425BD02668327E4F
:1032E0005F463A42FBD0327E3A420DD0728B3A4270
:1032F00004D0728B04273A4392B27283A279012AD6
:1033000001D1B26A00E0B26A5246013A92B29246E4
:10331000013DADB22A4A954200D069E75146637932
:10332000012B05D1216802220B7E1342FCD033E031
:10333000002B33D1E3790020002B36D000292FD089
:1033400004251D4E042750461CE00A7E2A4202D165
:10335000013B002BF9D10B7E2B4223D00B7E2B425D
:103360000CD04B8B2B4203D04B8B3B439BB24B83FC
:10337000A379012B01D18B6A00E08B6A013880B2FE
:10338000002811D021680B7E2B42E4D1331CDCE7EE
:1033900012200AE0122008E0002006E0002004E0ED
:1033A000002002E0122000E0002003B03CBC904668
:1033B0009946A246AB46F0BD102700001127000039
:1033C000FFFF0000F8B580007A4BC458256836230B
:1033D000E35C3722A75C1F402B7EAE7D1E40F107C9
:1033E00041D56379012B16D1637A002B0FD1724B33
:1033F0001B88AB62638E013B9BB26386638E9BB27C
:10340000002B01D101232B756379012B03D1637A42
:10341000002B05D127E0002B25D1637A002B22D089
:103420002268E36A1978C9B2581CE062A0790128C1
:1034300004D15878000201430233E362CB05DB0D6F
:103440009362A38E013B9BB2A386A38E9BB2002BFB
:1034500009D101232B75637A012B04D1E379002B69
:1034600001D10223AB75720761D56B8B590714D557
:10347000637A012B0BD01E223823E254032363729C
:1034800005232B753A0702D5201CA3699847AB6A20
:103490006A8B042313436B8349E0637A012B16D1B3
:1034A00023689B6A638E013B9BB26386638E9BB2EB
:1034B000002B3CD104232B7500223823E254032334
:1034C0006372F90733D5201CE26890472FE0236828
:1034D0009A6AD205D20DD3B2A16A0B70A36A591CA5
:1034E000A162A179012904D1120A5A70A36A013399
:1034F000A362238E013B9BB22386238E9BB2002BBB
:1035000015D100223823E25404232B75637A022B51
:1035100005D17A070BD5201C6369984707E0637AC9
:10352000002B04D1B90702D5201C22699047B307AC
:1035300028D56379002B10D107232B7502232B7616
:10354000032363720023A386238638230022E254D8
:10355000F90602D5201CE26990476379012B11D14D
:10356000637A012B0ED1E379002B0BD102232B754B
:103570000323637200223823E254FB0702D5201C88
:10358000E168884732070AD56379002B07D1082301
:103590002B752B76BB0602D5201C216A8847F609BD
:1035A00007D080232B752B767A0602D5636A201C00
:1035B0009847F8BD802E00207C2E00207047C04622
:1035C00030B50B4B1B78002B0ED10A4C0A4D2560F1
:1035D0000A4B00221A6065605A60A5609A60E56037
:1035E000DA600122024B1A708000024BC15030BDDC
:1035F000E4010020E8010020BD350000802E0020FD
:1036000030B583B0051C01AC201C05490422054BD4
:103610009847281C044B9847205603B030BDC0463D
:10362000D8C90000554A0000612E000008B5024BC1
:103630001B680020984708BDE801002008B5024B30
:103640005B680120984708BDE801002008B5024BDF
:103650009B680220984708BDE801002008B5024B8E
:10366000DB680320984708BDE80100207047C0468A
:103670000C4B1B68002B10D1EFF31083002B09D1EA
:1036800072B6BFF35F8F0022074B1A700122074BFF
:103690001A7002E00022054B1A70024B1A680132C0
:1036A0001A607047F801002008010020FC0100208A
:1036B000084B1A68013A1A601B68002B09D1064BA7
:1036C0001B78002B05D00122044B1A70BFF35F8FCB
:1036D00062B67047F8010020FC01002008010020BC
:1036E000F0B55F4656464D464446F0B493B0051CCF
:1036F0000C1C161C2960081CA94B9847021C236847
:103700000520D90700D543E123681C209F0700D579
:103710003EE1A44B186A911C01278F40391C0143DC
:10372000196211A92D27F35D0B701432D2B29046A5
:10373000101C9D4B984740469C4B9847F05D0021DC
:103740009B4B9847F37A6B712423F35CAB71252371
:10375000F35CEB71F37E2B72337F6B7229688846C2
:10376000081C8F4B9847143000226B46DA85328A4A
:1037700003928023DB019A4221D08023DB019A420D
:1037800004D880239B019A4211D008E0C023DB01BA
:10379000039F9F420FD080231B029F4203D010271C
:1037A000089700270EE00327089700270AE0102754
:1037B0000897012706E008270897012702E0082755
:1037C0000897002731680491F2680592736906939F
:1037D000317E8A462623F35C9B4672689146002A16
:1037E00013D080235B059A422ED12723F35C002B54
:1037F0002ED1376AC0B26F4B9847011C381C6A46FD
:103800002E326D4B9847031C1FE02723F35C002BDF
:103810000AD008990091306AB16A6A462E323B1C80
:10382000664FB847031C10E0316A0991C0B2614B82
:103830009847011C089A009209986A462E323B1C50
:103840005E4FB847031C00E00023181E00D09FE025
:10385000737E002B02D0B37E41468B732A68039F90
:10386000D369002BFCD103976B462E331B8842464D
:103870009381059B049F3B43069F3B4349460B4373
:10388000039F1F43524613021F4359464B071F43D2
:103890002723F35C002B01D104231F43317F49020E
:1038A000737E9B021943737F1B0219432423F35C2D
:1038B0005B0419432523F35C1B041943F37A194372
:1038C0003389FF2B04D0802252041743194305E0AB
:1038D000F37E002B02D08023DB041F432C23F35CF8
:1038E000002B03D1364B9B789A0701D580231F43C9
:1038F0002A68D369002BFCD1434659602A68D369F2
:10390000002BFCD141460F6010AB80221A700022C0
:103910005A70DA709A70326B0C92736B0D93B76BAE
:103920000E97F66B0F96002710AEF9B2BB000CAAEB
:103930009858002802D1201C224A9047431C05D0E9
:103940003070000CC0B2311C1F4A90470137042F61
:10395000EBD10023EB602B616B61AB61EB612B6200
:10396000AB626B620022EB85AB853023EA543123D6
:10397000EA543223EA543323EA542868084B984720
:10398000041C1249124B9847A400124BE55000202A
:1039900013B03CBC90469946A246AB46F0BDC0462B
:1039A000612E000000040040F54100006941000064
:1039B000092D000011420000312B0000592B00009E
:1039C00000200041592D0000D1420000053B0000BD
:1039D000C1350000802E002010B5021C0368C47998
:1039E0001C20002C0DD0D28D92B20520002A08D1C7
:1039F000DA69002AFCD1198502211A7E0A42FCD01C
:103A0000002010BD10B5031C046882791C20002A18
:103A100033D09B8D9BB20520002B2ED1237E5A07DD
:103A20002BD5E369002BFCD1638BDBB29A0621D046
:103A30009A0703D5022363831A201EE05A0703D591
:103A4000042363831E2018E0DA0703D50123638370
:103A5000132012E0DA0605D5628B1023134363832B
:103A600042200AE09A0605D5628B20231343638324
:103A7000412002E0238D0B80002010BDF8B5041C0E
:103A80000E1C171C05680F4B9847A38D9BB2002B8B
:103A900003D00D4B9847052013E0A7850A4B9847A4
:103AA000666205223223E2540423AB75237A002B8D
:103AB00001D02023AB75637A0020002B01D00823AE
:103AC000AB75F8BD71360000B1360000931C9B0049
:103AD000C3185960012393401A1C3023C15C0A4368
:103AE000C254704710B51723002A06D084791C23CE
:103AF000002C02D0024B9847031C181C10BDC04676
:103B00007D3A0000F8B58000644BC5582C68E36925
:103B1000002BFCD1237EA67D1E403123EB5C30229E
:103B2000AF5C1F40F10720D5EB8D9BB2002B1AD064
:103B3000AB6A1A78D2B2591CA9626979012904D1F9
:103B4000597809020A430233AB62D305DB0D2385A2
:103B5000EB8D013B9BB2EB85002B06D10123237536
:103B60000223A37501E001232375B20709D50223BF
:103B7000237500223323EA54FB0702D5281CE96889
:103B8000884772076AD5AB8D9BB2002B64D0638BDC
:103B9000DBB2190702D43F22134001E03722134061
:103BA000002B37D09A0707D51A223223EA54628BAA
:103BB00002231343638327E0590707D51E223223CC
:103BC000EA54628B0423134363831DE0DA0707D5AD
:103BD00013223223EA54628B01231343638313E0DD
:103BE000D90607D542223223EA54628B10231343AD
:103BF000638309E020221A4206D041223223EA548C
:103C0000628B2023134363837A0727D5281C6B69B3
:103C1000984723E0228DD205D20DD3B2696A0B708A
:103C20006B6A591C69626979012904D1120A5A70B8
:103C30006B6A01336B62AB8D013B9BB2AB85002B92
:103C40000CD10423237500223223EA54BA0705D588
:103C5000281C2B69984701E004232375F10607D53A
:103C6000102323752376FA0602D5281CEB699847A2
:103C7000B10607D52023237523763A0702D5281CE1
:103C8000AB699847310707D5082323752376BA0611
:103C900002D52B6A281C9847F8BDC046802E00200C
:103CA00008B5082834D880001B4B1B589F4680203D
:103CB000000230E0194B18692DE0194B186A800595
:103CC000800F184BC340181C25E0144B586922E0A4
:103CD000124B1B68022018401DD011491022CB68DE
:103CE0001A42FCD00D4B1B685A0713D500200E4B0F
:103CF00098470A4B9B681B041B0C58430BE050234E
:103D0000074AD35C00205A0705D5044BD86802E067
:103D1000002000E0054808BDDCC9000000020020CA
:103D20000008004000127A0011420000006CDC0222
:103D300070B50C4B1C6A01788578407801221040E0
:103D400080014026B44304432A40D001802294439A
:103D5000221C0243032001400902034802400A4397
:103D60001A6270BD00080040FFFCFFFF10B5027A28
:103D70009206120C43899B059B0D1A43184B5A60FF
:103D8000818842881143C479827922430A43417869
:103D9000C9010A431A600378042B0FD1027B9206F3
:103DA000038A1A43C3891B040E490B401A430C4B68
:103DB0009A60196804220A431A6010E0202B0ED181
:103DC000027B9206038A1A43C3891B0405490B40F0
:103DD0001A43034B9A601A6803490A431A6010BDDC
:103DE000000200200000FF0324040000082849D836
:103DF0008000254B1B589F46002044E0234B196A46
:103E000002220A431A6200203DE0204B99690222F7
:103E10000A439A61002036E01C4B198A02220A43A9
:103E20001A8200202FE0194B998A02220A439A82B3
:103E3000002028E0164A1168022319431160134A32
:103E40009384111C1022CB681A42FCD0104A91684E
:103E50000E4BD96252689A6200229A84191C102271
:103E6000CB681A42FCD00A4B1A6892B2074B9A846C
:103E7000002008E0054A4423D05C02210143D154CC
:103E8000002000E01720704700CA00000008004032
:103E900000020020F0B54F464646C0B48BB0C222A7
:103EA000D2003C4B9A603C4B5A681E218A43022147
:103EB0000A435A60012201AB1A700024374DE0B268
:103EC00001A9A8470134252CF9D105AB00211970AF
:103ED0000022598099809A71DA713F215981062117
:103EE00019825A702E4B1B689B0E3F2B00D11F234B
:103EF00005A80372072303733F23C381294B984707
:103F000004A8002545700123994683700570264B4F
:103F100098470620254EB047254B984701AC657061
:103F20002572657204232370202302930220211C32
:103F3000204B9846984702201F4FB8474B46636076
:103F4000657006232370257265720320211CC0470B
:103F50000320B8470720B0470E491022CB681A4209
:103F6000FCD0164A0023137253729372D37201A9C4
:103F700001224A604B7006220A700B724B720020BD
:103F80000C4B984700200C4B98470BB00CBC90464C
:103F90009946F0BD0008004000400041F541000096
:103FA000246080006D3D0000313D0000ED3D0000CB
:103FB000C13F0000E53F00009940000000040040C0
:103FC000064B996908220A439A610122044B1A7030
:103FD000191C0B781342FCD17047C0460004004006
:103FE000000C0040F8B5061C071C0D782D02054397
:103FF0004B78002B02D08023DB021D434B7A002B31
:1040000002D080231B031D434C68012C17D9631E6B
:104010001C420FD1022C06D90223002201325B0080
:104020009C42FBD800E000221702374380235B0349
:104030001D4304E02702374380239B021D430B7A74
:10404000002B02D080239B031D430F4A53785BB2A1
:10405000002BFBDB0D4B98470D4B1E700A4A537823
:104060005BB2002BFBDB084B9F601A1C53785BB2E2
:10407000002BFBDB044B5968802252020A40154397
:104080005D60044B9847F8BD000C0040713600009D
:10409000080C0040B136000010B5041C0B4A5378E0
:1040A0005BB2002BFBDB0A4B98470A4B1C70074A9C
:1040B00053785BB2002BFBDB044B59688022520221
:1040C0000A435A60044B984710BDC046000C00409C
:1040D00071360000040C0040B136000070B5041CBD
:1040E0001A4A53785BB2002BFBDB194B9847194BEC
:1040F0001C70164A53785BB2002BFBDB134E7068C2
:10410000C004C00E144B9847051C124B1C707668F7
:10411000F602F60F114B1C700C4A53785BB2002B61
:10412000FBDB0A4B9C68240AA4B20D4B9847002E77
:1041300007D1012C07D9281C211C0A4B9847051CC4
:1041400001E00134E540281C70BDC046000C004071
:1041500071360000040C0040A13C0000080C004037
:10416000B1360000B188000010B5041C064B98471A
:10417000064B1C70064B59888022D2010A435A8094
:10418000044B984710BDC04671360000020C004039
:10419000000C0040B136000010B5041C0F4B9847CE
:1041A0000F4B1C700F4B58880005000F59880E4AA2
:1041B0000A405A8059880D4A0A405A80191C8022A8
:1041C000D2014B881342FCD1064B01025888064AA3
:1041D00002400A435A80064B984710BD71360000D2
:1041E000020C0040000C0040FFF0FFFFFFBFFFFF8C
:1041F000B136000010B50C7824020443024B9847F6
:10420000A4B2024B5C8010BD99410000000C00403C
:1042100010B5041C064B9847064B1C70064B5C8877
:104220002405240F054B9847201C054B984710BDCB
:1042300071360000020C0040000C0040B136000056
:10424000DD40000030B5D378002B1ED11378802BD1
:1042500004D01B0680246402234300E0002354782A
:104260000225AC430AD19478002C03D18024A40207
:10427000234302E0C024E402234341605478013C1C
:10428000012C04D8114C234001E0416000230D04AF
:104290002D0CA024E4052C431C4384620D0CD02477
:1042A00024062C431C438462D478002C0CD15C037C
:1042B00005D59378012B01D1816100E041615378EC
:1042C000013B012B00D8816030BDC046FFFFFBFFE2
:1042D00008B5031C0A1CC1090020002903D1580994
:1042E000C001044940181F210B4001219940024B95
:1042F000984708BD00440041454200007047C04651
:1043000008B5054B9847054B9847054B9847054B13
:104310009847054B984708BD953E00006D36000054
:10432000FD420000650D0000FD42000070B584B044
:10433000011C01AB0A4A70CA70C3019B83420AD0B8
:10434000029C844205D00020039D8D4205D10220AD
:1043500002E0012000E00020C0B204B070BDC04601
:1043600024CA0000F0B54F464646C0B487B0041CCE
:104370000D1C9046081C904B984781468F4F391C66
:104380000C3105A803228E4EB047391C103103A80A
:104390000622B0470023A360E360236163612376B4
:1043A000637648468200874BD450256041468B781F
:1043B000082B04D117204A46D20700D4F6E0237117
:1043C0002B880520D90700D5F0E0EB7B1C20DA060E
:1043D00000D5EBE02B88990700D5E7E04246137C37
:1043E000002B0CD002A901238B700022CA7040461A
:1043F000806908704B704246107D734B9847404669
:10440000037F002B0BD002A901238B700022CA70FE
:10441000426A0A704B70036AD8B26B4B98476B4B79
:10442000196A4846420003A8125A0A431A624146D2
:104430008B78082B08D1654B1A6A4846013040003A
:1044400003A9415A0A431A6201A9424613780B7024
:1044500005AB48461E5C301C5D4B9847301C5D4BDD
:104460009847414688880B89034388798A781043A6
:1044700018434B78002B02D080231B01184321687E
:104480007F22CB7B9343FCD128804246507B431E46
:1044900098418000937B002B01D0012318432168B1
:1044A0007F22CB7B9343FCD1FF232B71002805D0C7
:1044B00021687F22CB7B9343FCD168714346987A75
:1044C000DB7A002B01D01023184341460B7B002BD5
:1044D00001D02023184321687F22CB7B9343FCD15A
:1044E000A87122687F21D37B8B43FCD12379042BD5
:1044F00005D0082B41D01720002B57D124E07F2175
:10450000D37B8B43FCD128234246D35C2B74216898
:104510007F22CB7B9343FCD129234046C35C2B7580
:1045200021687F22CB7B9343FCD12A234146CB5C7D
:104530002B7621687F22CB7B9343FCD12B234246F1
:10454000D35C6B76002031E07F21D37B8B43FCD1A1
:104550004046038D2B8221687F22CB7B9343FCD185
:1045600041464B8D2B8321687F22CB7B9343FCD12B
:104570004246938D6B83002018E07F21D37B8B43D1
:10458000FCD143469B6A2B6121687F22CB7B9343FE
:10459000FCD14046C06AA86121687F22CB7B93434F
:1045A000FCD141460B6BEB610020FFE707B00CBC70
:1045B00090469946F0BDC0462D43000024CA000035
:1045C000554A0000902E0020D14200000004004017
:1045D000F54100006941000002687F21D37B8B43D5
:1045E000FCD10379042B05D0082B09D00020002B27
:1045F00008D102E0107CC0B204E0108A80B201E071
:104600001069FFE77047C046931C9B001950022AAF
:1046100004D1027E1023134303760CE0032A04D155
:10462000027E20231343037605E0012393401A1CE6
:10463000037E1A43027600207047C04638B58000DA
:10464000144BC4582268957B237E1D40637E1D4019
:10465000EB0705D5201CA2689047012322689373BD
:10466000AB0705D5201CE2689047022322689373AC
:10467000EB0605D5201C226990471023226893730E
:10468000AB0605D5201C62699047236820229A73E7
:1046900038BDC046902E002008B50020014B984739
:1046A00008BDC0463D46000008B50120014B9847B3
:1046B00008BDC0463D46000008B50220014B9847A2
:1046C00008BDC0463D4600007047C04670B52C4B43
:1046D0002C4A9A4203D02C4B294A9A4204D32B4BA2
:1046E0002B4A9A4210D31BE02A4B27480330C01AAA
:1046F00080080130800000232149224AD458CC5040
:1047000004338342FAD1EAE7214B1A1D1F490331D2
:10471000891A890889005218002102C39342FCD1EA
:104720001D4BFF211D4A8A439A60022190235B00A2
:104730001B4AD1501B4BD8780321884302221043D7
:10474000D870DD780C24A54308200543DD70164B96
:104750009E7B3025AE43202535439D739D7BA5432D
:1047600028439873987B884302439A730F4B596888
:1047700080220A435A600E4B98470E4B9847FEE73B
:1047800000000020F4CD0000AC010020AC2E002081
:10479000AC0100200400002000ED00E0000000005B
:1047A00000700041005000410048004100400041BD
:1047B000094A0000F1480000F0B5474680B40C1CDF
:1047C000904600280CD1002A0DDD8F18094E0A4DA5
:1047D0003068211C2B6898470134BC42F8D104E0B2
:1047E0000120404202E0002000E0404604BC904628
:1047F000F0BDC046A42E00209C2E0020F0B54746F8
:1048000080B40E1C151C0138022810D8002A11D0C3
:1048100000240D4B98460D4F43461868315D3B68A8
:104820009847002808DB0134A542F5D107E00120B4
:10483000404205E0002003E00120404200E0201C4F
:1048400004BC9046F0BDC046A42E0020A02E00203F
:10485000064B1B68002B02D1054A044B1A60034A21
:10486000136818181060181C7047C0461802002002
:10487000B04E0020012040427047C04680239B017B
:104880004B6000207047C0460120704700207047F1
:10489000014B18807047C04678060020014B5880B5
:1048A0007047C04678060020014B98807047C0468C
:1048B0007806002010B5074B9847074B1B78002B54
:1048C00006D0064B186859689A68DB68044CA04704
:1048D00010BDC04641160000BC0600205402002056
:1048E0000D1D000008B5014B984708BD4D1600008E
:1048F00070B586B0154B9847154B9847154B9847A0
:104900001548164B98470023039304930593144BC3
:104910000093144B0193144B029303206946134BED
:104920009847134B9847134B984701201249134B54
:104930009847134D134E144C8123EB5C012B00D18F
:10494000B047A047114B9847F6E7C0460143000027
:1049500009250000AD240000E5480000BD2400004A
:10496000A94800009D480000914800008501000012
:10497000B515000081220000B5480000FD1B0000B5
:104980004C0B00203D1D0000111700009D1400007D
:104990000B1C011C021C30B519430220002900D158
:1049A00030BD802109068B4216D00D4904205C18C9
:1049B0000C498C42F4D90C4D5C198C42F0D90B4C4B
:1049C000590049080320A142EAD9074C0020A1421E
:1049D000E6D150425041E3E7002AE1D0EFE7C0467C
:1049E0000000F0FFFFFFDF7F0000F07FFFFF0F0000
:1049F00008B5002100F070FF08BD08B500210A22AB
:104A000001F000F808BD000070B50E4B0E4D0024FB
:104A1000ED1AAD101E1CAC4204D0A300F358984709
:104A20000134F8E708F0D6F9084B094D0024ED1AD7
:104A3000AD101E1CAC4204D0A300F35898470134BB
:104A4000F8E770BDE0CD0000E0CD0000E0CD000053
:104A5000E4CD000010B50023934203D0CC5CC454D5
:104A60000133F9E710BD031C8218934202D019707C
:104A70000133FAE7704700000FB40B4B13B51C6805
:104A8000002C05D0A369002B02D1201C02F08AFD66
:104A900005ABA168201C049A019300F0E9FF16BC45
:104AA00008BC04B01847C0466C01002008B54A4253
:104AB0004A4180235200DB0000F002F808BD0000EC
:104AC000F7B51E1C3C4B041C1D680F1C0192002DE9
:104AD00005D0AA69002A02D1281C02F063FD374BD9
:104AE0009C4201D16C6808E0354B9C4201D1AC6816
:104AF00003E0344B9C4200D1EC68019B022B57D859
:104B0000002E55DB281C211C02F0CCFC0023636026
:104B1000A361A3891A0603D5281C216903F03CFD73
:104B2000A38983229343A381019B022B13D0002FDF
:104B300025D1002E01D18026F600301C03F00AF9A1
:104B4000071E18D18020C00003F004F9071E10D101
:104B50000120404200E00020A38902221343A381E8
:104B60000023A360231C4733236023610123636177
:104B700020E08026F600A38980221343A381019AB6
:104B8000012A04D1A3891343A3817342A3610E4B6D
:104B90000020AB62A3892760276166611A0709D5E7
:104BA000032213405A4253415B421E40A66001E07B
:104BB00001204042FEBDC0466C010020ECCB00004D
:104BC0000CCC00002CCC0000FD740000C9B20378AE
:104BD000002B03D08B4204D00130F8E7002900D02D
:104BE000181C704702780B7801300131002A01D07F
:104BF0009A42F7D0D01A70470023C25C0133002AD2
:104C0000FBD1581E704730B5031C002A07D00C7822
:104C100001335D1E013A2C700131002CF5D19A1838
:104C2000934203D0002119700133F9E730BD30B54C
:104C300002680C780132002C0AD013781D1C413D0B
:104C4000192D00D820330131A342F2D0002001E019
:104C50000260012030BD000070B5161C0D1C03F071
:104C600065FB002E0BD06B005B0D6B22D31A002B63
:104C700005DD034D1C056319002205F0D9F970BD4F
:104C80000000F03F00000000F0B5BE4FBC4EA1B0E8
:104C9000002308900A9119921C931B911B9A137878
:104CA0000D2B05D8092B15D2002B00D1C1E114E042
:104CB0002B2B07D02D2B02D0202B0ED10AE0012464
:104CC000169401E000251695531C1B935378002B76
:104CD00005D1AEE101321B92E0E7002416941B9D42
:104CE00000242B780D94302B5AD16B78582B01D09F
:104CF000782B49D1169C1CAB0093019408981BA9F2
:104D0000A14A1DAB02F009FD07240790044001D120
:104D100000F0B0FD062C02D101351B958BE11C9AE9
:104D2000002A07D01EA8352103F0F0FB08981C9933
:104D300003F05DF81D9B062C1CD8201C03F0AEFD73
:104D4000040A0714170A040000273E1C12E01E9EE6
:104D50001F9F0FE08D488E4A1B181F991B050A40A4
:104D60001F1C1E9E174305E08A4F002602E0012308
:104D7000894F5E42079C240701D400F07BFD80230D
:104D80001B061F4300F076FD1B9B5A1C1B925B7891
:104D9000302BF9D0002B01D100F06CFD01250D95D1
:104DA0001B9C002510940B950E9509951B9C25784E
:104DB0002B1C303BDAB2092A12D8099D0A22082D91
:104DC00004DC0E9D6A439B180E9303E00B9D6A431F
:104DD0009B180B93099D0134013509951B94E5E758
:104DE000089802F063FF00680790089802F05EFFE1
:104DF0000068FFF701FF0799021C201C03F0C6FCA6
:104E0000041E06D0099C00202B1C079484460C909D
:104E100063E008981B9D02F049FF0068FFF7ECFE75
:104E20002D181B952B78099D281E48D1302B05D1B4
:104E30001B9B01305A1C1B925B78F7E71A1C313A16
:104E4000082A45D81B9C8446002010940790303BCC
:104E5000421C002B2DD007999444079D01314C1B17
:104E600094420EDA4C1E082C04DC0E9D0A24654385
:104E70000E95F2E71029F0DC0B9D0A2465430B9593
:104E8000EBE7C243D21710402818441C07940828A7
:104E900006DC0E9D0A226A43D2180E92002208E018
:104EA000079C0022102C04DC0B9D0A216943C918C1
:104EB0000B911B9B101C591C1B915B7803E0099DF7
:104EC000201C0795A4461A1C303A092ABFD902E0D3
:104ED00000240794A44601210C912022191C91431F
:104EE000002245295FD1079B0D9C03432343934236
:104EF00000D19EE01B9D2B1C01331B936B780A9500
:104F00002B2B03D02D2B03D0119208E0119201E03E
:104F1000012111910A9B0A9C02331B93A3781A1C4E
:104F2000303A092A3CD8302B04D11B9B5A1C1B92C7
:104F30005B78F8E71C1C313C0022082C33D81D1C80
:104F40001B99303D1B9B5A1C1B925B781C1C303CF0
:104F5000092C04D80A225543ED18303DF2E7521AC5
:104F60000F920E4C0F99221C082903DC2A1EA24224
:104F700000DD221C119C002C15D0524213E0C046CB
:104F8000000000000000000070CA000033040000B0
:104F9000FFFFEFFF0000F07FFFFFFF7F1F4E0000CD
:104FA0000A9D00221B95079C002C48D10D9D28438B
:104FB00001D000F05FFC0C9800283AD14E2B1CD099
:104FC00002DC492B05D034E0692B02D06E2B14D0C3
:104FD0002FE01BA8A849FFF72AFE002829D01B9B19
:104FE0001BA8013BA5491B93FFF721FE002802D116
:104FF0001B9B01331B93A24F18E01BA8A149FFF78D
:1050000016FE002815D01B990B78282B0DD11BA854
:105010009D491EAA02F0B1FD052806D1984A1F9BA2
:10502000171C1F431E9E00F025FC984F002600F021
:1050300021FC0A9C1B940025169500F01BFC64467D
:10504000099D141B0A94002D01D1079C0994079C0B
:10505000102C00DD10240E9805F020FE061C0F1CFD
:10506000092C15DD231C8A4A093BDB00D3181A687A
:105070005B6804F0DDFF061C0B980F1C05F00EFEAC
:10508000021C0B1C301C391C04F046F8061C0F1CBB
:10509000079D0F2D3ADC0A9D002D01D100F0EAFB9F
:1050A00026DD162D07DC7A4BEA009A181068516845
:1050B0003B1C321C17E0079D25235B1B0A9D9D426C
:1050C00024DC079C0F22151B714CEB00E3181868B9
:1050D0005968321C3B1C04F0ABFF0A9A571BFF00B7
:1050E000E4192268636804F0A3FF061C0F1CC1E3E7
:1050F0000A9D16350ADB0A9C654BE2009A1A301CA1
:10510000391C5368126804F029FBEEE7079D2C1B3D
:105110000A9D2C19002C56DD0F2323400AD05C4A2F
:10512000DB00D31818685968321C3B1C04F080FF60
:10513000061C0F1C0F239C4300D1B7E09A235B0091
:105140009C420EDD00240794099410940E94089D4F
:10515000109C222300262B60494FB44200D075E3F7
:1051600088E32411301C391C0025012C0BDDE207DB
:1051700006D5484BEA00D3181A685B6804F058FF5C
:1051800001356410F1E7444BED00CF18414B061C8C
:105190005D19321C3B1C2868696804F049FF384BD4
:1051A0000F1C0B403D49061C8B42CBD83C498B421F
:1051B00003D901233B4F5E4202E0D425AD047F19A1
:1051C00000240B9474E0002C70D064420F23234021
:1051D0000AD02F4ADB00D318301C391C1A685B68D0
:1051E00004F0BCFA061C0F1C24115FD01F2C05DD37
:1051F00000250795099510950E9521E1E3066A258E
:10520000DB171D400B95284D301C391C002C08DD88
:10521000E20703D52A686B6804F00AFF64100835BA
:10522000F4E70B9C061C0F1C002C17D04B005B0DE9
:105230006B21CB1A002B11DD1F2B0BDD0026342B2D
:1052400002DDDC239F0409E00121203B4942994013
:105250000F4003E0012252429A401640301C391C94
:10526000044B034A03F0E4FB0028C1D120E0C04610
:105270000000000000000000AECA0000E1CB00000A
:105280000000F07FB6CA000084CA00000000F8FFEA
:1052900058CC000020CD00000000B0FC0000A07C35
:1052A0000000907CFFFFEF7F48CA000000250B95AF
:1052B0000E9C089800941099099A079B02F0EEFD45
:1052C0001090002800D13DE70A9D00246B42EA17A8
:1052D0001340179307940994109D08986D68291C32
:1052E000069502F04CFD0E90002800D12FE7109893
:1052F000109900690C31021C0E98023292000C3099
:10530000FFF7A8FB1DAB00931EAB01930898321C5E
:105310003B1C1296139703F07DF81C90002800D1D7
:1053200015E70898012102F042FE0990002800D1FB
:105330000DE70A9D00240D94AC4200DA0D951D9BEB
:10534000002B00DA86E0179D0D99EC180B9D1E9836
:105350005B1B36251A182D1AC7480123824200DB31
:1053600082E0801A2D1A1F2878DC834000201893D1
:1053700011900B9863194D190C932D18A34200DD61
:10538000231CAB4200DD2B1C002B04DD0C99ED1A15
:10539000C91A0C91E41A179A002A69D10C980028AE
:1053A0007EDC0D99002900D084E0002D00DD8BE02B
:1053B000002C00DD92E008981C990E9A02F04FFF35
:1053C0000790002800D1C2E6C4680025C56009998D
:1053D0000F9402F029FFA84200DB8EE0AC4200D01F
:1053E0001FE2AE4200D01CE23B03AB4200D018E209
:1053F000A24AD6233A40DB049A4200D811E2079829
:105400004069A84274D007990898012202F0BAFEB8
:105410000999079002F008FF002800DC01E20B9CCC
:10542000964B002C00D199E01A1CD6213A40C904B1
:105430008A4200D992E0DC239B049A4200D9F3E12E
:10544000089D109C2223834F814E2B60002C00D09E
:10545000FCE10FE20D9CE11A179C77E78848821A5D
:10546000181C9040119001E000221192189380E7DF
:105470000898099902F034FE0990002800D166E6E8
:10548000089809991C9A02F09BFD0F90002800D102
:105490005DE608981C9902F0AAFC0F9B1C937DE71F
:1054A00008981C990C9A02F06DFE1C90002800D000
:1054B00077E74CE608980E990D9A02F011FE0E90CF
:1054C000002800D071E742E608980E992A1C02F0E5
:1054D00059FE0E90002800D06AE738E6089809992E
:1054E000221C02F04FFE0990002800D063E72EE650
:1054F00007990969012986DC93E1002865D10F9C91
:105500003A03002C25D05F493B1C120B8A422ED156
:1055100001210B9D4942301C0A1C002D0AD0574C1A
:10552000D4253C40ED04AC4204D8240D6B22121B60
:1055300091400A1C90421AD1534A934202D1013041
:1055400000D104E64D4A8020134040031F18002676
:1055500067E1002A0BD1002E09D160E74B4D494A83
:105560003B405B19171C1F4301235E4259E1119C0C
:10557000002C03D03C4200D153E103E0189D35429A
:1055800000D14EE10F9C301C391C0B9A002C0AD024
:10559000FFF762FB021C0B1C1298139903F0BCFD71
:1055A000061C0F1C3DE1FFF757FB021C0B1C129859
:1055B000139904F0CDFF274B254A061C0F1C03F05E
:1055C00037FA002800D03BE72BE10798099902F051
:1055D00079FF214A214B041C0D1C03F039FA0028E5
:1055E0005AD00F98002806D0294A00211C4C1D4D86
:1055F0000C910D9261E0002E02D13B0305D10BE02E
:10560000012E02D1002F00D11AE721480023164CA9
:10561000164D0C930D9050E0201C291C104A114B84
:1056200003F00CFA002808D1201C291C104A114B49
:1056300004F0FEFC0C900D9103E00F9C154D0C94B2
:105640000D950D98802109060C9C451835E0C04643
:10565000000000000000000000000000000000400A
:10566000000000000000F03F000000000000F0BF5C
:10567000000000000000E03F03FCFFFF0000F07F9F
:10568000E3FBFFFFFFFF0F00FFFFEF7F0000F0FFD6
:105690000000F03F0000E03F201C804B7E4A291CA8
:1056A00004F0C6FC0F9C0C900D910B1C002C02D139
:1056B00080252D064B190C9C1D1C8148814B3840C0
:1056C000119098422BD11299139A149115927E4AF7
:1056D000301CBF18391C02F029FE021C0B1C201CB8
:1056E000291C04F0A5FC021C0B1C301C391C03F007
:1056F00013FD734A754B061C0A409A420BD9744B32
:10570000159C9C4203D1149D013500D11FE5012356
:105710006F4F5E4274E0D42080040F183AE00B997A
:10572000002925D0119AD423DB049A4220D80C9862
:105730000D995B4A5B4B03F08BF9002813D00C9852
:105740000D9903F019FA002800D1012005F0A6FAFE
:105750000F9C0C900D910B1C002C02D180252D0666
:105760004B190C9C1D1CD620C00411992B185D1AD6
:105770001298139902F0DAFD021C0B1C201C291C44
:1057800004F056FC021C0B1C1298139903F0C4FC85
:10579000061C0F1C0B9C1297002C31D1484B119DFD
:1057A0003B409D422CD10D990C9805F005FA05F06F
:1057B00037FA021C0B1C0C980D9904F0C9FE041C4E
:1057C0000F980D1C002804D1002E02D112990B0352
:1057D0000ED0201C291C344A344B03F02FF900282A
:1057E00034D1201C291C324A324B03F03BF905E02E
:1057F000201C291C304A314B03F020F9002825D108
:1058000008981C9902F0F3FA08980E9902F0EFFA42
:105810000898099902F0EBFA0898079902F0E7FA5C
:105820005AE50B9C002C11D02A4D002014901595A0
:10583000301C391C149A159B04F0FAFB061C0F1C33
:1058400004D1002802D1089C2223236008981C99C7
:1058500002F0CDFA08980E9902F0C9FA0898099951
:1058600002F0C5FA0898109902F0C1FA0898079951
:1058700002F0BDFA199D002D01D01B982860169CDE
:10588000321C3B1C002C02D080252D067B19101CDD
:10589000191C21B0F0BDC046000000000000E03F30
:1058A0000000C0FFFFFFDF419535A094FFFFDF3F01
:1058B00035E5AF350000E03F9535A094FFFFCF3FC1
:1058C0000000F07F0000E07F0000B0FCFFFF9F7C45
:1058D000FFFFEF7F0000503908B50A1C0349031C85
:1058E0000868191CFFF7D0F908BDC0466C010020FC
:1058F000F0B51D1C424B87B01B68059002930391C5
:1059000001920B1C1C78029F5E1C3A1951780822E8
:105910000A4001D0331CF5E72D2C04D101279E1C31
:105920005C78009704E000922B2C01D15C789E1CDF
:1059300010232A1C9A4311D1302C08D1327820210F
:105940008A43582A07D174781D1C023606E0002DC0
:1059500004D10A2502E0002D00D10825009F291C52
:105960007B427B4180273F06FF1A381C02F0E4FF90
:10597000381C0491291C02F09BFF0023021C181CF8
:10598000029F391949784F0701D5303C07E00327BA
:105990000F4017D05721012F00D13721641AAC4294
:1059A00010DA591C0BD0904207D802D1049FBC4298
:1059B00003DC68430123201801E001235B423478B3
:1059C0000136DDE7009F591C0BD180207B427B41D3
:1059D0000006059FC01A22233B60019F002F09D1BA
:1059E0000BE0002F00D04042019F002F05D0039A0A
:1059F000002B00D0721E019F3A6007B0F0BDC04678
:105A00007001002038B5131C044A051C0C1C1068DA
:105A1000291C221CFFF76CFF38BDC0466C0100201A
:105A2000936810B5013B9360002B05DA9469A3429B
:105A300008DBCBB20A2B05D01368581C1060197014
:105A4000C8B201E000F072FD10BDF8B5061C0F1CD5
:105A5000141CD518AC4208D02178301C3A1CFFF732
:105A6000DFFF0134431CF5D100E00020F8BD000049
:105A7000F0B59FB0061C0F1C03920593002804D0BC
:105A80008169002901D101F08DFD754B9F4201D143
:105A9000776808E0734B9F4201D1B76803E0724B0F
:105AA0009F4200D1F768BB891A070AD53B69002BD2
:105AB00007D006AD00236B6120236B763023AB76D5
:105AC0003BE0301C391C00F089FD0028F1D001209A
:105AD0004042C2E0059A111D12680591002A76DB4A
