S0100000746573745F7370692E73726563A9
S1130000302B0020513200004D3200004D320000F0
S113001000000000000000000000000000000000DC
S11300200000000000000000000000004D3200004D
S113003000000000000000004D3200004D320000BE
S11300404D3200004D3200004D3200002108000006
S11300504D3200004D3200004D3200004D320000A0
S11300604D32000061220000712200008122000054
S11300709122000000000000000000004D3200004A
S11300804D3200004D320000152D0000252D0000DA
S1130090352D00000000000000000000E5160000FF
S11300A04D3200004D3200004D3200004D32000050
S11300B010B5064C2378002B07D1054B002B02D03A
S11300C0044800E000BF0123237010BDAC000020F1
S11300D000000000F488000008B5084B002B03D092
S11300E00748084900E000BF07480368002B03D015
S11300F0064B002B00D0984708BDC0460000000006
S1130100F4880000B0000020F48800000000000023
S1130110F0B55F4656464D464446F0B485B058495E
S113012088464C690F6A0888564EB047564D211CC4
S1130130A847564C391CA047414688608B699946AC
S11301404F6A4888B0474946A847391CA0474146EA
S1130150C860CB6999468F6A8888B0474946A847E2
S1130160391CA047041C41460861494B9A46C8689B
S113017098470090019141468868D047061C0F1C9F
S1130180201CD047041C0D1C424B9946221C2B1CDE
S1130190C8470290039140498B46201C291C221C0D
S11301A02B1CC847041C0D1C301C391C321C3B1C66
S11301B0C847021C0B1C201C291CD847374CA047DD
S11301C0021C0B1C00980199354CA047354CA047E4
S11301D0284B274AC847284A284B314CA047324C61
S11301E0A0474146C8628868D047009001914346C1
S11301F0D868D047061C0F1C44462069D047041C0D
S11302000D1C301C391C321C3B1CC8470290039146
S1130210301C391C321C3B1CC847061C0F1C201CFC
S1130220291C221C2B1CC847021C0B1C301C391C0B
S1130230D8471A4CA047021C0B1C00980199184C73
S1130240A047184CA0470B4B094AC8470A4A0B4B16
S1130250134CA047144CA0474146086305B03CBC6E
S113026090469946A246AB46F0BDC046C046C0463D
S1130270000000000080664000000060FB2109408F
S1130280FC050020D1040000B1600000955A000074
S1130290218100004D7400003565000081370000A5
S11302A0796B000029340000C5810000C046C046B7
S11302B0F0B55F4656464D464446F0B493B0041C30
S11302C00F1C3348334B9847381C334EB04700203B
S11302D0324B9A469847381CB0476088304DA8473F
S11302E0A061A088A847E0612088A847834604202D
S11302F0D047381CB0472088A8476061A088A84729
S1130300284B9946E1699847274B9846FC21890573
S11303109847E0616088A84701900120D047381CC5
S1130320B0472088A8476169C847FC218905C047B0
S113033060616088A847A169C847FC218905C04756
S1130340A061A088A847061C184D58466169A847B3
S113035020620198A169A8476062301CE169A8473E
S1130360A06203ADAA232B7068460D30211C3422F1
S11303700F4B98470020291C0E4B98470E4B98476B
S113038013B03CBC90469946A246AB46F0BDC0466D
S1130390003C1C46610C0000A9080000F50B00009D
S11303A0D1040000BD5700005D5E0000B160000094
S11303B0C93A0000B53000008930000010B5074B81
S11303C09847162803D1064C0120A047FCE70028D3
S11303D003D0044B9847014B984710BD652E00008D
S11303E0F50B0000452F000030B59DB0051C134BE4
S11303F09847C820124B98470DAC0020211C114B84
S11304009847247868466946353134220E4B98471C
S1130410AA2C0DD1281C0D4B9847002808D10C4854
S113042069463422084B984705200A4B984703E055
S11304300748291C084B98471DB030BDBD03000078
S11304403912000021300000C93A00008D08000074
S1130450FC050020F50B0000B102000010B5144C9F
S11304602278144B1B68920013490888D358984784
S113047020780130C0B2114B1978114B9847C9B29A
S11304802170104B595C104B1B685A7E52B2002AE3
S1130490FBDB1A691F2082430A431A615A7E52B257
S11304A0002AFBDB084804490122084B984710BD89
S11304B0C8000020D40A0020F80100200000002019
S11304C0C555000018830000B40A0020B5170000C9
S11304D010B5094B98470949094B9847094B984768
S11304E0044B034A084CA047084B984710BDC0462C
S11304F06666666666660A409564000000FF7F478C
S1130500955A0000218100004D740000C58100004F
S1130510F0B58FB0051C0E1C02AC201C324B984762
S11305200023A360E022D20062800322627023735E
S1130530102323712D4F381C2D49221C2D4B984715
S11305403B685A7E52B2002AFBDB802109042A4A06
S11305501160197802220A431A70244B1A68537ED8
S11305605BB2002BFBDB214C201C24490022244BD2
S11305709847E27E01231343E37601A900224A70DF
S1130580CA708A7001220A7003201E4B9847032DFB
S113059013D002D8022D16D01BE0042D07D0052D50
S11305A017D101A901230B700420164B984701A908
S11305B001230B700620134B984701A901230B70EC
S11305C00520104B984701A901230B7004200D4B03
S11305D098470D4B1D700D4B1E6004480C490122B9
S11305E00C4B98470FB0F0BD65120000B40A002010
S11305F000400042AD12000000E100E05D04000094
S1130600A11700004529000000000020D40A0020A2
S1130610F8010020B517000010B5CA88C388D21AA3
S113062092060C7964044B799B0523438C7824034C
S1130630234313430279002A05D1CA78002A02D041
S1130640802252021343487880010A7810431843E9
S113065010BDC04610B58C0EC388E318D3808B013F
S11306601B0F53718B02DB0E13710379002B03D024
S1130670CB03DB0E937005E00B041B0F9370CB03CD
S1130680DB0FD3700B059B0E53703F231940117081
S113069010BDC04610B50268082480230B49CC5015
S11306A001688B7A5BB2002BFBDB138802218B433E
S11306B0138000230374437401688B7A5BB2002BAC
S11306C0FBDB118801230B43138010BD00E100E024
S11306D010B50468034B9847A37A5BB2002BFBDB8D
S11306E0206110BD1906000070B50E1C141C0568AD
S11306F01723012A0DD8084B9847AB7A5BB2002B1D
S1130700FBDBE4002D19A861327A0023062A00D805
S11307102A77181C70BDC0461906000030B583B096
S1130720041C151C01601C4B996920220A439A6120
S113073001A902230B700420184B98470420184B7E
S11307409847201C174B98472B792371EB786371DA
S1130750EB88E380144B1C6023682A8829790029DC
S113076002D008210A4301E048210A43A97800295C
S113077001D080210A431A80EA78002A04D05988DB
S11307808022D2010A435A80291C0831201C0022ED
S1130790064B984703B030BD0004004069280000B0
S11307A0DD27000095060000D80A0020E9060000B5
S11307B038B50C1C01681723012A08D8D2008D18FB
S11307C0A969221C034B98472B7F23720023181C12
S11307D038BDC04655060000012A01D917200AE099
S11307E0931C9B001950037C012191400A1C1A435D
S11307F0D2B202740020704710B50368012902D1F7
S11308008022DA7104E001228A4001242240DA7154
S1130810437C01228A40111C1943C9B2417410BDA2
S113082010B50E4B1B681C685A7C197C081C1040C0
S1130830227AE1790A40D10906D0810701D5DB6823
S113084098478023237207E0D10705D5C20701D555
S11308509B6898470123237210BDC046D80A002024
S113086030B583B0051C01AB80221A7000245C7083
S113087001229A70DC708170081C191C024B984785
S1130880AC72AC8003B030BD45290000031C007875
S1130890C0B2002806D05A78002A02D101225A7028
S11308A000E000207047C04638B5051C024C281CE7
S11308B0A0470028FBD038BD8D0800008378D909F3
S11308C00022002903D15A09D20112495218126A8E
S11308D01F210B40012199400B1C13405A1E9341C8
S11308E0827A9A420DD1838801339BB28380632B31
S11308F00ED90378002B0BD101230370002343701E
S113090006E04378002B01D000230370002383808A
S11309107047C0460044004108B505481321054B03
S11309209847054B9847FF20044B984708BDC0469D
S1130930300A00206108000045100000390F000053
S113094010B582B0094C201C094B984701A900231B
S11309504B7001228A70CB7002230B70A078C0B256
S1130960044B9847044B984702B010BD300A00204E
S1130970BD08000045290000450F000000B583B004
S11309802F4B1B78002B04D02E4A1178490011708C
S113099003E02C4A1178490811702A4A1278023A65
S11309A07D2A02D9DB43264A13702748274B9847F0
S11309B0002805D0264B1A78013203210A401A7008
S11309C0234B1B78012B12D0002B04D0022B1AD0FE
S11309D0032B24D02EE01F4B98681F4B984701AB84
S11309E000229A701A70174A12785A7022E0194B32
S11309F0D868194B984701AB00229A70114A1278B3
S1130A001A705A7016E0134B1869134B984701ABD0
S1130A1000229A700B49097819705A700AE00D4B3C
S1130A20D86A0D4B984701AB064A12789A70002297
S1130A301A705A700198094B984703B000BDC0461C
S1130A40C900002001000020300A00208D080000A9
S1130A50CA000020FC050020610C00004D0C0000C1
S1130A6038B50D4D0D4C281C211C00220C4B984709
S1130A700723237220780130C0B23C21094B9847E8
S1130A802170281C211C0022074B9847074B1B6828
S1130A90002B00D0984738BDDC0A0020CC00002091
S1130AA0B1070000C5550000E9060000F00A002067
S1130AB010B586B001AAA0231B01138000239370F4
S1130AC0D3701371FA21C900D18003A8037068465A
S1130AD04373684683736846C373012304A8037091
S1130AE0684643746B46598206231374094C201CD0
S1130AF009490A4B984721680822094B1A60226861
S1130B00937A5BB2002BFBDB0A88022313430B802E
S1130B1006B010BDDC0A0020001400401D070000D0
S1130B2000E100E010B5064B1860064C201C064995
S1130B300022064B9847201C0021054B984710BD06
S1130B40F00A0020DC0A0020610A0000D907000036
S1130B50F907000070B586B00D1C04AC00232370A7
S1130B606370A370E370012626710C4BE3800A23A3
S1130B7063710B4B9847281C0A4B98470A4D281C55
S1130B80211C0A4B984701A90B1C05CC05C30E7206
S1130B90281C0022064B984706B070BDDF070000F2
S1130BA0B10A0000250B0000DC0A0020D106000079
S1130BB0E906000000B583B009480A4900220A4B3F
S1130BC0984701A980230B7000234B7001228A707F
S1130BD0CB70064B9878C0B2054B984703B000BD64
S1130BE03C0A0020780A0020AD1E0000300A0020D4
S1130BF045290000134B00221A705A709A70052878
S1130C001ED88000104B1B589F46FF220D4B1A70B4
S1130C1016E0FF220B4B5A7012E0FF22094B9A7028
S1130C200EE0084BFF221A709A7009E0054BFF2270
S1130C305A701A7004E0034B6F225A701A709A703B
S1130C407047C046F40A00201C83000082B0021CD6
S1130C50000C024B1A80987002B07047F40A00200E
S1130C60F0B55F4656464D464446F0B483B0041C86
S1130C700021A14B9847002802D080231B06E418CA
S1130C80201C9E4B9847061C0F1C964B944A9C4D67
S1130C90A847002835D0201C9A4B984780469A4C88
S1130CA09A4D9B4B9946FA2189009847994F0A21FE
S1130CB0B847C8B2984E0A21B047C9B26B5C2370DA
S1130CC040466421C8470A21B847C8B20A21B04740
S1130CD0C9B26B5C637040460A21C8470A21B84711
S1130CE0C8B20A21B047C9B26B5CA37040460A215E
S1130CF0B847C8B20A21B047C9B26B5C803BE37005
S1130D00DEE0301C391C784A784B7D4DA84700281A
S1130D103CD0201C7B4B984780467B4D7B4E7C4BC4
S1130D209A46642198477B4B99460A219847C8B252
S1130D30794F0A21B847C9B2735C2B7040460A2127
S1130D40D0470A21C847C8B20A21B847C9B2735C60
S1130D506B7040460A21C847C8B20A21B847C9B2D5
S1130D60735C803BAB7040466C4B9847011C201C65
S1130D706B4B98476B496C4B98476C4B9847C0B288
S1130D800A21B847C9B2735CEB7099E0301C391C76
S1130D90574A584B5A4DA847002847D0594B9B46B1
S1130DA0201C98478046584D584E0A21584B984766
S1130DB0584B99460A219847C8B2574F0A21B84759
S1130DC0C9B2735C2B7040460A21C847C8B20A21D5
S1130DD0B847C9B2735C803B6B70504B9A4640462F
S1130DE09847011C4E4B9946201C98474E4B9846F9
S1130DF04C4998474D4B9847C0B20A21B847C9B2ED
S1130E00735CAB70201C4749C047041CD847D047CB
S1130E10011C201CC8474349C047444B9847C0B2F3
S1130E200A21B847C9B2735CEB7049E0354B9A4666
S1130E30201C9847051C344E344FC0B2364B98469C
S1130E400A219847C9B27B5C803B3370334B994687
S1130E50281C9847011C201C314B9847324D3149BE
S1130E60A847324B9B469847C0B20A21C047C9B233
S1130E707B5C7370201C2B49A8470190D047C8475E
S1130E80011C0198264B98472649A847D847C0B269
S1130E900A21C047C9B27B5CB370201C2449A8470F
S1130EA0041CD047C847011C201C1D4B98471D49F2
S1130EB0A847D847C0B20A21C047C9B27B5CF370C7
S1130EC01C4B1B78DBB20F2B02D81022194B1A7063
S1130ED003B03CBC90469946A246AB46F0BDC04622
S1130EE052B81E85EB3F8F408FC2F5285CFF5840F7
S1130EF0736891ED7CFF23403D5700002181000081
S1130F00F15600009D630000F80A002034830000BD
S1130F10D955000085560000C5550000DD6300006A
S1130F20B1600000000020415D5E00008D570000AC
S1130F300000C842000B0020014B18707047C046E7
S1130F40000B002008B5334B1B780133DBB2032BB5
S1130F5002D8304A137013E000222E4B1A702E4B25
S1130F601B785B00DBB2002B02D02B4A137002E02B
S1130F701022294B1A70284B19782848284B984777
S1130F80244B1B78274AD25C0F23111C9943264B10
S1130F901970214B1B7825480078184202D104317E
S1130FA02148017021494978194203D11E49087822
S1130FB0023008701D498978194203D11A4B1978F7
S1130FC0083119700F231A40174B5A7018481949E1
S1130FD00122194B9847194B1A780F4B1B781A4268
S1130FE00DD0114B0B4A127807218A1A0121914026
S1130FF0CA430F218A43597852185A7003E00A4BA6
S11310005A78103A5A700A48074902220C4B9847FA
S113101008BDC046D800002002000020980A002025
S11310204D2C0000F80A0020DC000020F40A002007
S11310303C0A0020780A0020AD1E0000000B0020AE
S1131040B11F0000F0B591B02C4C12232370002383
S11310506370A37001A901224A708B700A70122078
S1131060274B98472378D9090022002903D15A092C
S1131070D201244952181F273B400124211C9940C6
S1131080916102AA14700023536093601374537423
S11310909474D47413752421535409930A931A4BEA
S11310A0936180239B02D36001235B4293621749BF
S11310B0D1621363164B5363164E301C1649174BFB
S11310C098473568281C164B98470740BC40154B79
S11310D01C603268D369002BFCD12A6802231343B5
S11310E02B600C4C201C10490022104B98473723CE
S11310F0E15C01220A43E25411B0F0BD780A0020F9
S1131100AD1A00000044004140420F0002001100EB
S1131110020013003C0A0020000C0042951C000051
S11311203522000000E100E0B50B0000991F00002B
S113113010B58EB001AA002300211370937100240E
S1131140138154709172D17211739173517311742C
S1131150536193611177136253625385938504231A
S11311609370A023DB0093802A23D0542923D054E6
S11311702823D454074C201C0749084B984722685D
S11311807F21D37B8B43FCD1118802230B43138033
S11311900EB010BD980A0020002C0042D92900008E
S11311A008B5FF20014B984708BDC0463111000027
S11311B010B5011C0C4C201C00220C4B98472068D5
S11311C00B4B98470B4B1B5C1F21194001231A1C26
S11311D08A40111C084A1160617E01220A4362762A
S11311E02268537310BDC046980A0020852C000065
S11311F0A12900004083000000E100E010B50020B8
S1131200084B9847084CFA218900A047074B1860FF
S1131210FA218900A047064B18600522054B1A6085
S113122010BDC046512700003D55000008000020B5
S11312300400002010E000E030B5084B1C68084AA8
S113124000258021490206E0002C04D054609560FA
S113125013680B42FCD00138F6D230BD08000020E0
S113126010E000E010B5002200230270427000215B
S11312704280017103760262C26182600373C024FA
S11312806401C481037443748374C37403752A248E
S113129003554375837524240355C2840285C1759F
S11312A02B23C1542C23C15410BDC046F0B55F4656
S11312B056464D464446F0B499B0061C141C0160D1
S11312C0BC4B186A8022520202431A620B78052032
S11312D0DA0700D5F6E10B781C20990700D5F1E177
S11312E063783371002B00D0DCE1B34B196C04221A
S11312F00A431A64D6E1237D002B02D101237377BC
S113130001E0002373773268019223786846037200
S11313101E2002A9A94B98471E20A94B98472C23AD
S1131320E35C002B42D02B22A55C217B88464A1922
S1131330D2B2D318DBB299469A4221D2A14A93463B
S1131340A14B9A460F272F40237BFF1804A8594628
S11313505022D047132F0CD8BF0004ABF85803A970
S113136000234B70CB708B7001230B70C0B2974A73
S113137090470135EDB240464319DBB24B45E1D30A
S1131380E58904A88F4950228F4B9847132D37D8ED
S1131390AD0004ABE85803A900234B70CB708B70ED
S11313A001230B70C0B2894B984729E0257B04A820
S11313B084495022844B9847132D0CD8AD0004ABBC
S11313C0E85803A900234B70CB708B7001230B707A
S11313D0C0B27E4B9847E58904A87A4950227A4BDB
S11313E09847132D0CD8AD0004ABE85803A900238B
S11313F04B70CB708B7001230B70C0B2734B98474A
S1131400637D9B00DBB201990B70A37DDB016278E5
S11314101343DBB24B702379342B00D940E19B009A
S11314206B4AD3589F460222102501231AE0637C9D
S1131430227C102516E006221025012312E0082242
S1131440102500230EE00022302500230AE00022AC
S11314502025002306E000220025002302E00422C8
S1131460102502231B0170210B401343019A937032
S1131470E37D17203F2B00D924E1D3703268537EDB
S11314805BB2002BFBDBE27C638813432422A25C67
S1131490D2001343227D92001343A27C52001343D3
S11314A02B4301988380237E002B01D1316897E080
S11314B0102D5FD002D8002D3CD0F7E7202D19D095
S11314C0302DF3D1E27C002A0AD0E2698032172061
S11314D0FF2A00D9F6E0226A8032FF2A00D9F1E01F
S11314E01720E169FF2900DDECE0226AFF2A00DD14
S11314F0E8E0DBE7E27C002A11D0E0698022920078
S113150081181720334A914200D9DBE0206A8022F7
S11315109200811817202F4A914200D9D2E0172057
S11315202C4AE169914200DDCCE0216A914200DD60
S1131530C8E0BBE7E27C002A11D0E2698020000108
S113154011181720244A914200D9BBE0226A802056
S1131550000111181720204A914200D9B2E0172047
S11315601D4AE169914200DDACE0216A914200DD4F
S1131570A8E09BE7E27C002A11D0E2698020000207
S113158011181720154A914200D99BE0226A802045
S1131590000211181720114A914200D992E0172035
S11315A00E4AE169914200DD8CE0216A914200DD3E
S11315B088E07BE700040040000800406928000040
S11315C0DD27000018840000C93A00004529000006
S11315D044830000FF030000FF0F0000FFFF000032
S11315E04A7E52B2002AFBDB019A13723268537EA0
S11315F05BB2002BFBDBA38B019883833268537EA1
S11316005BB2002BFBDB238C01990B842C23E35C62
S1131610002B04D0013BDBB217200F2B52D82B2216
S1131620A25C17200F2A4DD83168487E40B20028AA
S1131630FBDBE089217B0143A068014312050A43D7
S11316401B04134301990B612A23E35C0B750F23DD
S11316508B752423E35C002B10D0E38C17201D4AE8
S113166093422FD88B84238D80200001191889B2CE
S11316701720184A914225D80199CB84164B1A6831
S11316805201E023DB001A40144B586841011B68E7
S1131690DB0E0B43DBB2134301990B85002011E0F1
S11316A017200FE00023B360F3603361B376F37661
S11316B0338333770A4B1E602A23E35C002B00D16B
S11316C019E61EE619B03CBC90469946A246AB46C4
S11316D0F0BDC046FF0F0000246080002060800041
S11316E0040B002038B52D4B1C6823681D7EEDB219
S11316F0E90735D5E27ED10732D5A27ED1072FD5B1
S113170001221A762268537E5BB2002BFBDB6369ED
S1131710991C6161528B92B21A80238B013B9BB25C
S11317202383002B11D0637F002B19D023685A7EAA
S113173052B2002AFBDB197B02220A431A73226885
S1131740537E5BB2002BFBDB0AE0237F052B07D122
S113175000232377012322689375201CA3689847EC
S113176069070BD5042322681376E37E990705D510
S1131770A37E9A0702D5201CE3689847A9070BD5D6
S1131780022322681376E37E590705D5A37E5A0700
S113179002D52369201C984738BDC046040B00209D
S11317A0931C9B001950012393401A1C837E1A43F7
S11317B08276704710B5031C048BA4B20520002C5C
S11317C01DD1187FC0B2052819D0052018771A83B7
S11317D0596101221968CA755A7F0020002A0ED067
S11317E01A68517E49B20029FBDB107B02210143B8
S11317F011731A68537E5BB2002BFBDB002010BD13
S113180010B5021C1C4BD86904210143D9611B4B40
S1131810188B2021FF31014319831B7D0520D90733
S113182028D511780902C0239B0019405378DB01A5
S1131830FF2003401943D3789B04194393785B003A
S11318401E200340194310790004C0239B02034067
S113185019430A4B596098684003400F084908240B
S113186084400C809868488052780A71188BC005AF
S1131870C00F000110BDC0460004004000400041FC
S1131880E000002030B51D4B5A881B885A431823AA
S11318908A4231D31A4B5C688022D20222435A60B6
S11318A01D8B2022FF322A431A831A7D0523D50774
S11318B022D545281FD88300124AD3589F46104B7F
S11318C01A8B1023D50517D4890849000C4BD9610C
S11318D003E0890849000A4BD961A5231B02184378
S11318E0074B1880191C01220B7D1342FCD0044BBA
S11318F05C60002300E01723181C30BDE0000020CA
S11319000040004168840000F8B5051C1D4B1C888C
S11319105B8863431820AB4233D3631E2B4230D120
S1131920172094422DD3184B1B7D0520DC0728D5A6
S11319301648154B18801C1C0120237D0342FCD043
S1131940114B1C8B2020FF30204318836808002A89
S113195012D040000023561ECC5CB34203DACF18E9
S11319607F783F023C43048002339BB202309A42A8
S1131970F2D800203F2A04D80420291C0022044B5A
S11319809847F8BDE00000200040004144A5FFFF57
S11319908518000070B5194B1C885D8865431823B1
S11319A0854229D3651E054226D11723944223D3A9
S11319B0134B1C7D0523E5071ED5114B1D8B2024DD
S11319C0FF342C431C834008002A12D0400000231B
S11319D0561E1C182588ADB21C04240C0D55B442A7
S11319E002DA0C192D0A657002339CB2A242F0D8B7
S11319F001E0002300E00023181C70BDE00000207B
S1131A00004000410E4B1A885988514318238142E3
S1131A1014D39200013A104210D10A4B1A7D0523C7
S1131A20D1070BD5074B198B2022FF320A431A83A7
S1131A3080084000D861044A1A800023181C7047AB
S1131A40E00000200040004102A5FFFF154B198B68
S1131A502022FF320A431A839B685A03520F08213B
S1131A60914001704380104B1B885B065B0F9AB258
S1131A70072A02D10023436004E00622D31A042279
S1131A809A404260084B1A8807231340072B02D15F
S1131A900023836004E00722D31A04229A40826060
S1131AA07047C046004000410040800000B583B04C
S1131AB001AB80221A700A785A704A789A708A7830
S1131AC0DA70191C014B984703B000BD452900008A
S1131AD010B5031C4908402099420CD30024C91AAC
S1131AE0601C80B28B4201D8041CF8E74020FF2C14
S1131AF001D81480002010BD10B582B0041C0F4B17
S1131B001B78002B01D000290DD001A90C701320E3
S1131B100B4B984713200B4B9847084B5C700122E2
S1131B201A70002007E0054B5A781D20141B621E12
S1131B3094416442204002B010BDC046E800002039
S1131B4069280000DD2700002E4B98421CD003D8E2
S1131B502D4B984207D04AE02C4B984225D02C4B71
S1131B60984233D043E0012943D0002904D002290C
S1131B7006D0032906D001E0264841E000203FE0DA
S1131B8025483DE025483BE0012934D0002904D014
S1131B90022906D0032906D001E0032030E000200A
S1131BA02EE01F482CE01F482AE0012925D00029F7
S1131BB004D0022906D0032906D001E01A481FE008
S1131BC000201DE019481BE0194819E0012916D02E
S1131BD0002904D0022906D0032906D001E01548C3
S1131BE00EE000200CE014480AE0144808E000204D
S1131BF006E0134804E0134802E0134800E01348E9
S1131C007047C046000C0042000800420010004229
S1131C100014004203000400030006000300070050
S1131C2003001E0003001F000300080003000A0055
S1131C3003000B0003001000030012000300130054
S1131C400300050003000100030009000300110064
S1131C5070B584B00E4A694670CA70C112680A60D1
S1131C60031C009A82420FD0019C844208D0029D3A
S1131C70854207D00020039E9E4207D1032004E042
S1131C80012002E0022000E00020C0B204B070BDD8
S1131C9080850000F0B5474680B488B0051C0C1C54
S1131CA0161C29600B681C209A0700D5DFE00B681E
S1131CB00520DA0700D5DAE0081C6F4B98476F4B14
S1131CC0196A821C012797403A1C0A431A6207A921
S1131CD02427F35D0B701430C0B28046684B9847DC
S1131CE04046684B9847F05D0021674B984733782E
S1131CF0012B03D122680C23134323603378002B78
S1131D0000D0B1E02268082313432360ACE0EA1852
S1131D10D16004331C2BFAD10023EB62AB620024A4
S1131D20AB862B863623EC543723EC543823EC54FF
S1131D3003236B722C7128684F4B9847071C534937
S1131D40534B9847BF00534BFD502F6802AB802282
S1131D501A705C7001229A70DC703378002B02D107
S1131D60002202AB9A70B36A0393F06A0490326B58
S1131D700592736B06930024E1B2A30003AA98585A
S1131D80002802D1381C444A9047431C06D06A46B6
S1131D901072000CC0B202A9404B98470134042CC5
S1131DA0EAD133786B71337CAB71B37CEB71337DE7
S1131DB02B7200226B46DA803378012B14D1286809
S1131DC02D4B98471430C0B2354B9847011CB0696D
S1131DD06A460632334B9847031C1720002B46D122
S1131DE06B4606331B783B733378002B0FD1B169F4
S1131DF0B38B786AF47F2404B27F224302437A626D
S1131E002022B25C002A04D04022134301E00023C4
S1131E100021B26870680243F06802430A43317CCF
S1131E200B43717C002903D11F498978880701D5A8
S1131E3080210A43B17C002902D0802189020B430E
S1131E40F17C002902D0802189000B43317D0029D7
S1131E5002D0802189010B4339680A433A607A68C9
S1131E6013437B60002002E0002300214FE708B009
S1131E7004BC9046F0BDC046511C00000004004064
S1131E8069280000DD270000F91A0000F91F00008E
S1131E90F52100000C0B0020491B0000452900001F
S1131EA085280000D11A00000020004110B54479B3
S1131EB01523012C6CD1047A0023002C68D1002A4C
S1131EC057D04B78002B44D00268137EDC070FD424
S1131ED00B78D9090022002903D15A09D2012D49CE
S1131EE052181F210B4001219940916105234FE0B5
S1131EF00B78DC090022002C03D15A09D201254CAD
S1131F0012191F24234001249C40546189780368DA
S1131F101A7ED40700D59962C2790023002A37D1EA
S1131F2002680421137E0B42FCD0117E00234C076F
S1131F302ED5538B590703D5518B04230B4353835D
S1131F408379012B02D1936A002321E0936A002351
S1131F501EE00B78D9090022002903D15A09D201C5
S1131F600C4C12191F210B4001219940516100238F
S1131F700EE00B78D9090022002903D15A09D201B5
S1131F80044952181F210B400121994091610023FB
S1131F90181C10BD00440041931C9B00C3185960D9
S1131FA0012393401A1C3623C15C0A43C254704770
S1131FB0031C1720002A1DD03820185CC0B2052845
S1131FC018D09A865A86D96205213822995401225A
S1131FD05A721A685979002902D102211176917531
S1131FE0DB79002B03D005239375002002E0012345
S1131FF0937500207047C046F8B580007A4BC458EA
S113200025683623E35C3722A75C1F402B7EAE7D18
S11320101E40F10741D56379012B16D1637A002B59
S11320200FD1724B1B88AB62638E013B9BB26386FC
S1132030638E9BB2002B01D101232B756379012B95
S113204003D1637A002B05D127E0002B25D1637AD5
S1132050002B22D02268E36A1978C9B2581CE062C6
S1132060A079012804D15878000201430233E362C5
S1132070CB05DB0D9362A38E013B9BB2A386A38E9B
S11320809BB2002B09D101232B75637A012B04D158
S1132090E379002B01D10223AB75720761D56B8BF9
S11320A0590714D5637A012B0BD01E223823E2542E
S11320B00323637205232B753A0702D5201CA369F9
S11320C09847AB6A6A8B042313436B8349E0637AB2
S11320D0012B16D123689B6A638E013B9BB26386F6
S11320E0638E9BB2002B3CD104232B750022382332
S11320F0E25403236372F90733D5201CE268904746
S11321002FE023689A6AD205D20DD3B2A16A0B706C
S1132110A36A591CA162A179012904D1120A5A7037
S1132120A36A0133A362238E013B9BB22386238ED1
S11321309BB2002B15D100223823E25404232B75C3
S1132140637A022B05D17A070BD5201C6369984763
S113215007E0637A002B04D1B90702D5201C226959
S11321609047B30728D56379002B10D107232B752B
S113217002232B76032363720023A386238638234A
S11321800022E254F90602D5201CE26990476379E3
S1132190012B11D1637A012B0ED1E379002B0BD1E2
S11321A002232B750323637200223823E254FB07B6
S11321B002D5201CE168884732070AD56379002BD1
S11321C007D108232B752B76BB0602D5201C216A68
S11321D08847F60907D080232B752B767A0602D51B
S11321E0636A201C9847F8BD0C0B0020080B0020E4
S11321F07047C04630B50B4B1B78002B0ED10A4CF0
S11322000A4D25600A4B00221A6065605A60A56079
S11322109A60E560DA600122024B1A708000024B7A
S1132220C15030BDEC000020F0000020F12100007E
S11322300C0B002030B583B0051C01AC201C0549F3
S11322400422054B9847281C044B9847205603B09A
S113225030BDC04690850000C93A0000511C000002
S113226008B5024B1B680020984708BDF000002009
S113227008B5024B5B680120984708BDF0000020B8
S113228008B5024B9B680220984708BDF000002067
S113229008B5024BDB680320984708BDF000002016
S11322A07047C0460C4B1B68002B10D1EFF3108312
S11322B0002B09D172B6BFF35F8F0022074B1A704F
S11322C00122074B1A7002E00022054B1A70024BE0
S11322D01A6801321A607047000100200C000020C7
S11322E004010020084B1A68013A1A601B68002B8D
S11322F009D1064B1B78002B05D00122044B1A7020
S1132300BFF35F8F62B67047000100200401002014
S11323100C00002008B5082834D880001B4B1B583B
S11323209F468020000230E0194B18692DE0194BBC
S1132330186A8005800F184BC340181C25E0144B05
S1132340586922E0124B1B68022018401DD0114925
S11323501022CB681A42FCD00D4B1B685A0713D5C8
S113236000200E4B98470A4B9B681B041B0C5843D8
S11323700BE05023074AD35C00205A0705D5044BD1
S1132380D86802E0002000E0054808BD94850000FC
S1132390080100200008004000127A00852800008F
S11323A0006CDC0270B50C4B1C6A017885784078AF
S11323B00122104080014026B44304432A40D00146
S11323C080229443221C0243032001400902034853
S11323D002400A431A6270BD00080040FFFCFFFF80
S11323E010B5027A9206120C43899B059B0D1A4381
S11323F0184B5A60818842881143C47982792243F8
S11324000A434178C9010A431A600378042B0FD1A7
S1132410027B9206038A1A43C3891B040E490B40AC
S11324201A430C4B9A60196804220A431A6010E09C
S1132430202B0ED1027B9206038A1A43C3891B0404
S113244005490B401A43034B9A601A6803490A432F
S11324501A6010BD080100200000FF0324040000DE
S1132460082849D88000254B1B589F46002044E08B
S1132470234B196A02220A431A6200203DE0204BD2
S1132480996902220A439A61002036E01C4B198A9A
S113249002220A431A8200202FE0194B998A022251
S11324A00A439A82002028E0164A1168022319433D
S11324B01160134A9384111C1022CB681A42FCD079
S11324C0104A91680E4BD96252689A6200229A842B
S11324D0191C1022CB681A42FCD00A4B1A6892B21B
S11324E0074B9A84002008E0054A4423D05C02216B
S11324F00143D154002000E017207047B885000044
S11325000008004008010020F0B54F464646C0B41C
S11325108BB0C222D2003C4B9A603C4B5A681E21BD
S11325208A4302210A435A60012201AB1A70002433
S1132530374DE0B201A9A8470134252CF9D105ABE8
S1132540002119700022598099809A71DA713F2113
S11325505981062119825A702E4B1B689B0E3F2B02
S113256000D11F2305A80372072303733F23C381EC
S1132570294B984704A80025457001239946837088
S11325800570264B98470620254EB047254B9847A3
S113259001AC6570257265720423237020230293B5
S11325A00220211C204B9846984702201F4FB84711
S11325B04B466360657006232370257265720320A1
S11325C0211CC0470320B8470720B0470E491022FA
S11325D0CB681A42FCD0164A0023137253729372CA
S11325E0D37201A901224A604B7006220A700B7251
S11325F04B7200200C4B984700200C4B98470BB0B3
S11326000CBC90469946F0BD0008004000400041D3
S11326106928000024608000E1230000A523000055
S11326206124000035260000592600000D27000013
S113263000040040064B996908220A439A6101226A
S1132640044B1A70191C0B781342FCD17047C04616
S113265000040040000C0040F8B5061C071C0D786F
S11326602D0205434B78002B02D08023DB021D434F
S11326704B7A002B02D080231B031D434C68012C92
S113268017D9631E1C420FD1022C06D90223002243
S113269001325B009C42FBD800E000221702374362
S11326A080235B031D4304E02702374380239B02FE
S11326B01D430B7A002B02D080239B031D430F4A3A
S11326C053785BB2002BFBDB0D4B98470D4B1E7010
S11326D00A4A53785BB2002BFBDB084B9F601A1C41
S11326E053785BB2002BFBDB044B59688022520207
S11326F00A4015435D60044B9847F8BD000C004048
S1132700A5220000080C0040E522000010B5041CBE
S11327100B4A53785BB2002BFBDB0A4B98470A4BFE
S11327201C70074A53785BB2002BFBDB044B5968DF
S1132730802252020A435A60044B984710BDC04697
S1132740000C0040A5220000040C0040E52200001B
S113275070B5041C1A4A53785BB2002BFBDB194B8F
S11327609847194B1C70164A53785BB2002BFBDB5D
S1132770134E7068C004C00E144B9847051C124BCE
S11327801C707668F602F60F114B1C700C4A5378D5
S11327905BB2002BFBDB0A4B9C68240AA4B20D4BF2
S11327A09847002E07D1012C07D9281C211C0A4B5D
S11327B09847051C01E00134E540281C70BDC04663
S11327C0000C0040A5220000040C0040152300006A
S11327D0080C0040E52200003D55000010B5041C23
S11327E0064B9847064B1C70064B59888022D20131
S11327F00A435A80044B984710BDC046A5220000E6
S1132800020C0040000C0040E522000010B5041C3E
S11328100F4B98470F4B1C700F4B58880005000F47
S113282059880E4A0A405A8059880D4A0A405A80EB
S1132830191C8022D2014B881342FCD1064B0102A1
S11328405888064A02400A435A80064B984710BDEE
S1132850A5220000020C0040000C0040FFF0FFFF26
S1132860FFBFFFFFE522000010B50C7824020443EB
S1132870024B9847A4B2024B5C8010BD0D280000A7
S1132880000C004010B5041C064B9847064B1C7006
S1132890064B5C882405240F054B9847201C054BE8
S11328A0984710BDA5220000020C0040000C004017
S11328B0E52200005127000030B5D378002B1ED14B
S11328C01378802B04D01B0680246402234300E089
S11328D0002354780225AC430AD19478002C03D108
S11328E08024A402234302E0C024E4022343416081
S11328F05478013C012C04D8114C234001E0416080
S113290000230D042D0CA024E4052C431C438462F5
S11329100D0CD02424062C431C438462D478002C50
S11329200CD15C0305D59378012B01D1816100E0C2
S113293041615378013B012B00D8816030BDC04612
S1132940FFFFFBFF08B5031C0A1CC1090020002976
S113295003D15809C001044940181F210B4001212B
S11329609940024B984708BD00440041B928000033
S11329707047C04608B5054B9847054B9847054B2B
S11329809847054B9847054B984708BD0925000013
S1132990A1220000712900007129000071290000A2
S11329A070B584B0011C01AB0A4A70CA70C3019BA4
S11329B083420AD0029C844205D00020039D8D42AC
S11329C005D1022002E0012000E00020C0B204B0E2
S11329D070BDC046DC850000F0B54F464646C0B425
S11329E087B0041C0D1C9046081C904B98478146E8
S11329F08F4F391C0C3105A803228E4EB047391C69
S1132A00103103A80622B0470023A360E3602361CA
S1132A1063612376637648468200874BD4502560F1
S1132A2041468B78082B04D117204A46D20700D49C
S1132A30F6E023712B880520D90700D5F0E0EB7B65
S1132A401C20DA0600D5EBE02B88990700D5E7E0D7
S1132A504246137C002B0CD002A901238B70002268
S1132A60CA704046806908704B704246107D734BB3
S1132A7098474046037F002B0BD002A901238B709B
S1132A800022CA70426A0A704B70036AD8B26B4B58
S1132A9098476B4B196A4846420003A8125A0A43E6
S1132AA01A6241468B78082B08D1654B1A6A48464E
S1132AB00130400003A9415A0A431A6201A942465F
S1132AC013780B7005AB48461E5C301C5D4B984771
S1132AD0301C5D4B9847414688880B8903438879AD
S1132AE08A78104318434B78002B02D080231B01B3
S1132AF0184321687F22CB7B9343FCD12880424634
S1132B00507B431E98418000937B002B01D001230E
S1132B10184321687F22CB7B9343FCD1FF232B7185
S1132B20002805D021687F22CB7B9343FCD16871B8
S1132B304346987ADB7A002B01D010231843414690
S1132B400B7B002B01D02023184321687F22CB7BF1
S1132B509343FCD1A87122687F21D37B8B43FCD1A2
S1132B602379042B05D0082B41D01720002B57D1F3
S1132B7024E07F21D37B8B43FCD128234246D35CC2
S1132B802B7421687F22CB7B9343FCD129234046BD
S1132B90C35C2B7521687F22CB7B9343FCD12A2312
S1132BA04146CB5C2B7621687F22CB7B9343FCD1BF
S1132BB02B234246D35C6B76002031E07F21D37B0C
S1132BC08B43FCD14046038D2B8221687F22CB7B33
S1132BD09343FCD141464B8D2B8321687F22CB7BD1
S1132BE09343FCD14246938D6B83002018E07F21F0
S1132BF0D37B8B43FCD143469B6A2B6121687F22A4
S1132C00CB7B9343FCD14046C06AA86121687F22F4
S1132C10CB7B9343FCD141460B6BEB610020FFE778
S1132C2007B00CBC90469946F0BDC046A1290000EF
S1132C30DC850000C93A00001C0B00204529000077
S1132C400004004069280000DD27000010B5026878
S1132C507F24D37BA343FCD10379042B05D0082B19
S1132C600BD01720002B0BD103E0C9B21175002043
S1132C7006E089B21183002002E091610020FFE7A1
S1132C8010BDC046931C9B001950022A04D1027E39
S1132C901023134303760CE0032A04D1027E20237D
S1132CA01343037605E0012393401A1C037E1A4361
S1132CB0027600207047C04638B58000144BC458D3
S1132CC02268957B237E1D40637E1D40EB0705D55E
S1132CD0201CA2689047012322689373AB0705D593
S1132CE0201CE2689047022322689373EB0605D503
S1132CF0201C22699047102322689373AB0605D5E4
S1132D00201C62699047236820229A7338BDC0460C
S1132D101C0B002008B50020014B984708BDC04695
S1132D20B92C000008B50120014B984708BDC046E6
S1132D30B92C000008B50220014B984708BDC046D5
S1132D40B92C0000F0B5254B188900283AD09F7A99
S1132D505A680023451E214EAB4206D01178FF2944
S1132D6003D0B94201D27118CB720133403299B207
S1132D708842F1D83F218723184AD15486082CD0A1
S1132D80546800210023012501380027AC4601E0E6
S1132D903B1C65468A009A1892B2824203D0920183
S1132DA0125DFF2A13D10133DBB2032BF2D9002DBC
S1132DB003D08723094AD1540FE0013189B2B142CB
S1132DC0E6D30AE03F218723044AD15405E00133C6
S1132DD0DBB23D1C032BDDD9EFE7F0BD2001002061
S1132DE0F8B50F1C8601054D054C6B689819391C04
S1132DF04022A0470528F8D0F8BDC0462001002095
S1132E009519000070B50602034D044C6B689819BF
S1132E10A0470528FAD070BD20010020051A000043
S1132E20F8B50F1C8601054D054C6B689819391CC3
S1132E304022A0470528F8D0F8BDC0462001002054
S1132E400919000070B58601044D054C6B68991989
S1132E5004200022A0470528F8D070BD20010020DE
S1132E608518000030B599B016AB00221A702E49AF
S1132E704968C906090F9970DA701A7101225A70EB
S1132E802A4C16A8A0470528FBD013A8284B98471E
S1132E90149B16200B2B44D9264C23811A1C083A68
S1132EA05208A2721B049B0A5B428020C0021B18BA
S1132EB063600022C823E2541F4B98478723E35CD6
S1132EC01A203F2B2DD06B461C4A31CA31C3194BF3
S1132ED01889013880B203A9194B9847039A009BBB
S1132EE09A4219D1049C019DAC4217D10598029ACB
S1132EF0904215D103ABDB7B1020012B11D103AB26
S1132F001B7B012B0DD103AB5B7B002B09D1012271
S1132F10084B1A70002004E01A2002E01A2000E096
S1132F201A2019B030BDC04600400041011800000D
S1132F304D1A000020010020452D0000F4850000FA
S1132F40E12D000070B594B02E4C00228723E2548A
S1132F5000202D4B98472589042D24D900260424CC
S1132F60013DAC4219D00323234004D1A008C0B2D0
S1132F70254B984701E0012B0FD804AD281CFF21F5
S1132F804022224B98472E70201C291C204B984726
S1132F90201C204988470136B6B20134A4B2194B2B
S1132FA01D89A542DCD801AE1B4B321C13CB13C2C6
S1132FB004AC201CFF213D22144B9847019B049331
S1132FC070686060B668A6600123E373237300230E
S1132FD06373A373013DE817800F4519A810C0B2AD
S1132FE0094B9847074D2889013880B2211C084BAA
S1132FF098472889013880B2064B9847074B984771
S113300014B070BD20010020052E0000DB3A000042
S1133010212E0000452E0000F4850000452D0000FF
S113302010B590B00C1C154B1A781F23002A21D020
S1133030124B9A7A182382421CD9C8230F4AD35CB4
S1133040002B0BD08823D35C834207D1081C111CAE
S11330508C313C220A4B984700230BE0074B18188D
S1133060C07A6946074B9847201C01A93C22044BAF
S113307098470023181C10B010BDC0462001002042
S1133080C93A0000E12D000010B5C823074AD35CFB
S1133090002B09D0141C8823D35CD318D87A044B92
S11330A098470022C823E254002010BD20010020CC
S11330B0452E0000F0B55F4656464D464446F0B4F2
S11330C085B0041C0D1C5B4B1B781F20002B00D10A
S11330D0A8E0584B9B7A1820A34200D8A2E0C8234A
S11330E0544AD35C002B05D08823D35CA34201D07F
S11330F0514B98474F4B1B19DB7A9E080322134010
S1133100032B75D8B000C718FFB24A4A5168BA01F8
S1133110525CFF2A06D156E0C718FFB2BA01525CCE
S1133120FF2A50D00133DBB2042BF5D160E04A70A2
S11331300233634509D0191C1878B84201D15046AE
S1133140587008784845F3D1F1E7002739498831A8
S11331500091384A8C320192B346A1464446AA46AD
S113316087233448C65CB600F61933498847A0461D
S113317023784B4509D1882348462E4AD0540198D8
S113318051463C222D4B984703E0607800992C4B24
S11331909847B0B2274D291C88312A4B984741469D
S11331A00B78EB18DE720122C823EA54013702348B
S11331B0022FD5D15E465846234B984787231D4A94
S11331C0D65400202EE01B4E8823F454301C8C303F
S11331D0291C3C22194B9847311C8831381C194B47
S11331E098473419E7720122C823F254002019E0E9
S11331F03102104B5B68591803AB0A781A70B2009D
S11332005A704020085C9870501CD870984604A8E6
S1133210844680200F5CC020085C8146911C8A464D
S1133220033288E705B03CBC90469946A246AB46BB
S1133230F0BDC0462001002089300000C93A0000DA
S1133240E12D0000212E0000052E00007047C0462D
S113325070B52C4B2C4A9A4203D02C4B294A9A42E3
S113326004D32B4B2B4A9A4210D31BE02A4B2748FA
S11332700330C01A80080130800000232149224A0B
S1133280D458CC5004338342FAD1EAE7214B1A1DB7
S11332901F490331891A890889005218002102C381
S11332A09342FCD11D4BFF211D4A8A439A6002219F
S11332B090235B001B4AD1501B4BD87803218843D1
S11332C002221043D870DD780C24A543082005435E
S11332D0DD70164B9E7B3025AE43202535439D7310
S11332E09D7BA54328439873987B884302439A7334
S11332F00F4B596880220A435A600E4B98470E4B75
S11333009847FEE700000020F4880000AC0000208D
S11333102C0B0020AC0000200400002000ED00E095
S113332000000000007000410050004100480041CE
S1133330004000417D3A000095330000064B1B68B5
S1133340002B02D1054A044B1A60034A136818186B
S11333501060181C7047C046EC010020302B002080
S1133360014B18807047C046FC050020014B588073
S11333707047C046FC050020014B98807047C0464A
S1133380FC0500207047C04608B5014B984708BDAE
S11333904109000030B587B0124B9847124B98474B
S11333A0124B98471248134B9847002303930493F6
S11333B00593114B0093114B0193114B029303207E
S11333C06946104B9847104B98471048104B984744
S11333D001201049104B9847104D114CA847A047A5
S11333E0FCE7C04675290000FD110000A111000092
S11333F089330000B1110000793300006D330000FF
S1133400613300001105000019090000300A002092
S1133410E903000085330000550B00001101000092
S11334207D09000000000000F8B556464D464446AC
S11334305F46C54BF0B44E00814688468A467608FE
S11334409E420CDDC14B9E4200DDA7E000D1A2E00C
S11334505046BF4A002800DCE3E0BE4BA6E0BE4B6A
S11334609E4200DDB8E0BD4B9E4200DCA6E0012494
S11334706442A3464A4643464846414603F0E6FFB3
S1133480061C0F1C321C3B1C03F0E0FF8F4B8E4AC2
S1133490041C0D1C03F0DAFF8D4A8E4B03F04AF82E
S11334A0221C2B1C03F0D2FF8B4A8C4B03F042F8F6
S11334B0221C2B1C03F0CAFF894A8A4B03F03AF8FA
S11334C0221C2B1C03F0C2FF874A884B03F032F8FE
S11334D0221C2B1C03F0BAFF854A864B03F02AF802
S11334E0321C3B1C03F0B2FF834A844B061C0F1CA6
S11334F0201C291C03F0AAFF814A824B04F036FAEF
S1133500221C2B1C03F0A2FF7F4A804B04F02EFAEE
S1133510221C2B1C03F09AFF7D4A7E4B04F026FAF2
S1133520221C2B1C03F092FF7B4A7C4B04F01EFAF6
S1133530221C2B1C03F08AFF021C58460B1C013072
S113354000D170E05946CC00301C391C02F0F2FF67
S11335504A46434603F07AFF814D0B1C81492D19DD
S1133560021C0C19101C191C2268636804F0FEF973
S11335704A46434604F0FAF9021C0B1C28686968A1
S113358004F0F4F9021C50460B1C00280EDA8020CB
S113359000060B180AE0002800D159E74A464346C2
S11335A04846414602F0C6FF021C0B1C101C191CA5
S11335B03CBC90469946A246AB46F8BD584A594B86
S11335C002F0B8FF584A594B02F092F8002800D193
S11335D04DE74A464346E9E700F0CEF8624B041C47
S11335E00D1C9E4230DC614B9E4256DC221C2B1C7F
S11335F002F0A0FF4C4A4D4B04F0B8F94C4A4D4B35
S1133600061C0F1C201C291C02F094FF021C0B1C1E
S1133610301C391C03F0B0FA8846002181468B46E1
S113362028E7534BC2E7301C391C02F083FF4A469B
S1133630434603F00BFF021C0B1C4846414604F0B2
S113364095F9021C0B1CB1E74A4B9E421ADC3A4A1C
S11336503A4B04F08BF9384A384B061C0F1C201CDB
S1133660291C03F0F3FE304A304B02F063FF021CC6
S11336700B1C301C391C03F07FFA8146022088465B
S11336808346F7E62E482F49221C2B1C03F074FABC
S11336908846032181468B46ECE6234A234B04F0FB
S11336A065F9214A214B061C0F1C201C291C02F021
S11336B041FF0B1C021C391C301C03F05DFA012372
S11336C0814688469B46D5E611DA22E33AAD903F1F
S11336D0EB0D76244B7BA93F513DD0A0660DB13F45
S11336E06E204CC5CD45B73FFF8300922449C23FAD
S11336F00D5555555555D53F2F6C6A2C44B4A2BF72
S11337009AFDDE522DDEAD3F6D9A74AFF2B0B33F39
S1133710711623FEC671BC3FC4EB98999999C93FB1
S11337209C7500883CE4377E000000000000F03FF8
S11337300000000000000040000000000000F83F0E
S1133740000000000000F0BFFFFF0F440000F07F06
S1133750182D4454FB21F93FFFFFDB3FFFFF1F3EC1
S11337602086000000860000FFFFF23FFFFFE53FD8
S1133770FB21F9BFFF7F03404B0059087047C04647
S1133780F0B5474680B48AB0041C0D1C00F058F80C
S1133790294A0023D3569046061C0F1C01330DD032
S11337A0201C291C00F032F9002807D0201C291CF9
S11337B0204B1F4A01F088FF002805D1301C391C1A
S11337C00AB004BC9046F0BD012300931B4B049443
S11337D005950193002308934346029403951C78AE
S11337E0002C0ED1134B124A06920793684600F040
S11337F03DF900280FD0089B002B11D1069E079F8E
S1133800DCE70C490A48021C0B1C03F0B5F90690CE
S11338100791022CEAD100F02BF921230360EAE797
S113382000F026F9089C0460E8E7C046C046C0469C
S113383000000000000000000D0000204086000091
S1133840F0B55F4656464D464446F0B46C4E0D1CEA
S1133850371C83B0041C021C0B1C2F40B74200D140
S1133860ADE0002900DC8BE02F1500D194E0654D1C
S113387009038023090B5B037F190B43FE0700D563
S113388070E07F10C20FB8465B00002780219B18B0
S11338901624420000970020890345189D4204DC49
S11338A068185B1B009D6D180095D50F5B00013CEB
S11338B05B1952004908002CEFD18021002609062B
S11338C020250196B446894609E0834246D0D40FA8
S11338D05B00013D1B1952004908002D1CD06646AF
S11338E08C198342F1DD6718E60FBC46F607824661
S11338F04E452CD01B1AA24280414042019F1B1A04
S1133900121B7F18D40F5B00013D019750461B1911
S113391052004908002DE2D1134328D101984308ED
S1133920009D394E6A109219ED0702D580210906CF
S11339300B4340460705B9181C1C0D1C201C291CF0
S113394003B03CBC90469946A246AB46F0BDFF0F7F
S1133950FF077E427E41B2468244CBE79442C2D9FD
S1133960181CB4E7C20F5B009B18400089E701995B
S113397001312FD0019C012323401B195B08CFE7A1
S11339806B005B081A43D9D0002700292BD1C10A48
S1133990153F40050029FAD08022520311421ED15E
S11339A00023490001331142FBD001242022E41AF0
S11339B0D21A3F19041CD4402143984057E7201CD5
S11339C0291C03F043FD221C2B1C02F0B3FD041C34
S11339D00D1CB3E7009A002301320092A0E72022D5
S11339E001240023E5E7221C2B1C201C291C03F0C6
S11339F0BDFF021C0B1C03F0BFF8041C0D1C9DE74B
S1133A000000F07F01FCFFFF0000E03F0B1C011CE5
S1133A10021C30B519430220002900D130BD802199
S1133A2009068B4216D00D4904205C180C498C42BF
S1133A30F4D90C4D5C198C42F0D90B4C590049084F
S1133A400320A142EAD9074C0020A142E6D150420A
S1133A505041E3E7002AE1D0EFE7C0460000F0FF61
S1133A60FFFFDF7F0000F07FFFFF0F0000207047A3
S1133A70014B18687047C0467000002070B50E4BAB
S1133A800E4D0024ED1AAD101E1CAC4204D0A30050
S1133A90F35898470134F8E704F01CFF084B094D2C
S1133AA00024ED1AAD101E1CAC4204D0A300F35840
S1133AB098470134F8E770BDE0880000E088000012
S1133AC0E0880000E488000010B50023934203D08E
S1133AD0CC5CC4540133F9E710BD031C8218934233
S1133AE002D019700133FAE770470023C25C013336
S1133AF0002AFBD1581E7047F0B58BB0161C1C1C55
S1133B00129904D580221206A4182D2300E0002364
S1133B10149F0B7020239F43462F08D03A1C453A2C
S1133B2051424A41109902238918109100E003235D
S1133B300093139B109A029308AB039309AB019271
S1133B400493321C231C00F0A3FB051C472F02D155
S1133B501199C9072CD5109969180791462F14D1CA
S1133B602B78302B0CD1301C211C164B144A01F03D
S1133B70A5FD002804D1109A012313999B1A0B6008
S1133B80139A07991368C9180791301C211C0D4B0F
S1133B900B4A01F093FD002801D0079A0992099B72
S1133BA007998B4204D25A1C099230221A70F6E704
S1133BB0099B281C5A1B159B1A600BB0F0BDC0460C
S1133BC00000000000000000F0B52B2385B0051CA8
S1133BD00C1C0270861C002901DA4C422D236B70E8
S1133BE0092C1EDD6F460E37201C0A21019701F0B7
S1133BF049FD30313970201C0A2101F0EDFC013FF0
S1133C00041E092CF0DC019B3034013B1C706A4615
S1133C100F32301C934209D21A78013332700136C4
S1133C20F5E73023E4183370B01C7470401B05B002
S1133C30F0BD000000000000F0B593B00C1C0A9227
S1133C400B93189E051C01F0FFF800680C90FFF719
S1133C504CFF0023109333680722073393431A1C45
S1133C6008320D90277E186859683260A064E164B8
S1133C70FFF7CCFE012819D1A06CE16CB94BB84A0E
S1133C8001F022FD002803D0231C2D2243331A7097
S1133C90472F01D8B44E00E0B44E032320682361BB
S1133CA00423984300212060099191E0A06CE16C09
S1133CB0FFF7ACFE236800280CD1472F01D8AC4E87
S1133CC000E0AC4E032222610422934300222360CD
S1133CD009927DE06268561C01D1062207E020218A
S1133CE0381C8843472803D1002A01D1012262608D
S1133CF08022D2001343236001936B463B3302932B
S1133D000FAB6168039310AB0593002300910693F6
S1133D100497A26CE36C281CFFF7EEFE20233A1CE8
S1133D20061C9A430F99472A07D1CB1C02DB606813
S1133D3081422EDD023FFFB201E0652F12D8201C24
S1133D4001393A1C50300F91FFF73EFF109B099048
S1133D50C2182261012B02DC2168C9072FD5013268
S1133D6022612CE0662F15D16368002908DD2161EA
S1133D70002B02D12268D2071DD50133C91811E0E6
S1133D80002B03D120680122104200D09A1C22612A
S1133D9011E06727109A914206DB22682161D2075D
S1133DA009D50131216106E00123002901DC022348
S1133DB05B1AD31823610F9B0020A36509906B46FF
S1133DC03B331B78002B03D0231C2D2243331A7062
S1133DD00B99281C009111AA211C0A9B00F058F988
S1133DE0013002D1012040424CE12268530504D441
S1133DF0281C0A99321C236967E0652F00D8E0E08B
S1133E00A06CE16C574B564A01F058FC00282BD0AB
S1133E10281C0A99584A01230B9EB0470130E1D06F
S1133E200F9F1098874207DB2168C90704D42768CD
S1133E30BF0700D50EE113E1281C0A990C9A0D9BCB
S1133E400B9EB0470130CDD00026109B013B9E4213
S1133E50EDDA221C281C0A991A3201230B9FB84759
S1133E600130BFD00136F0E70F98002830DC281C61
S1133E700A99414A01230B9FB8470130B2D00F98E9
S1133E80002805D11099002902D12268D207CED585
S1133E90281C0A990C9A0D9B0B9FB8470130A1D09E
S1133EA000270F980997099F43420A99281C9F42AB
S1133EB009DA221C1A3201230B9FB847013091D032
S1133EC0099F0137EDE7109B321C0B9EB047B5E00C
S1133ED0109FA36D08979F4200DD0893089F002F51
S1133EE001DC002714E0281C0A99321C089B0B9F54
S1133EF0B8470130F5D175E7221C281C0A991A32FB
S1133F0001230B9FB847013000D16BE7099F0137AC
S1133F100997089FA36DFA43D2173A40099F9A1A4A
S1133F209742E9DB0F981099F318099388420EDB46
S1133F302268D2070BD4109B0F9FF618DB1B099F36
S1133F40F61B9E4200DD1E1C002E17DC1FE0281C01
S1133F500A990C9A0D9B0B9FB8470130EBD141E7AE
S1133F6000000000000000004A8600004E860000A9
S1133F7052860000568600005A860000281C0A99C2
S1133F80099A331C0B9FB847013000D12AE7002758
S1133F900BE0221C281C0A991A3201230B9FB847F4
S1133FA0013000D11EE7099F0137099710980F9936
S1133FB0F343DB17099F421A3340D31A9F42E8DBCD
S1133FC035E71098012802DC01231A423AD0281C54
S1133FD00A99321C01230B9FB847013000D101E735
S1133FE0281C0A990C9A0D9BB847013000D1F9E6B8
S1133FF0A06CE16C254B244A01F060FB002801D041
S1134000002610E0109B721C013B281C0A991CE03E
S1134010221C281C0A991A3201230B9FB84701302D
S113402000D1DFE60136109B013B9E42F0DB221CEF
S1134030281C0A995032099B0B9FB847013000D0C5
S1134040F5E6CFE60A99281C321C0B9EB0470130D6
S1134050EDD1C7E60026E0681199431A9E4205DBBC
S1134060119BE06898420DDA181C0BE0221C281CF6
S11340700A99193201230B9FB847013000D1B1E6E8
S11340800136E8E713B0F0BD0000000000000000B6
S1134090F7B5151C01930A698B68061C0C1C934226
S11340A000DA131C221C2B6043321278002A01D040
S11340B001332B602068800602D52B6802332B6005
S11340C0216806270F401FD0231C43331B785A1E38
S11340D09341226892061FD5E11840313020C87000
S11340E0211C5A1C45310978A21840320233D17080
S11340F012E0221C301C019919320123089FB84791
S1134100013011D0009F01370097E0682968009FB3
S1134110431A9F42EDDBD7E7221C301C019943323E
S1134120089FB847013002D10120404223E02068B3
S113413006212B68E26801400025042903D1D51A21
S1134140EB43DB171D40A26823699A4201DDD31AB1
S1134150ED1800270097009FAF420BDA221C301C99
S113416001991A320123089FB8470130DCD0009F1F
S11341700137EFE70020FEBDF0B589B006910B6969
S11341800169051C002699427FDB069C5F1E1434DE
S113419004940499BC000919021C0B68143205919B
S11341A01419191C01312068039201F0C7F9029017
S11341B0B04238D00499039B8C4601960796624618
S11341C004329446043A40CA0299B0B24843310CCE
S11341D0029E019A71431018020C51180A0C0192A4
S11341E01A6880B296B2079A89B2B618301A1E6855
S11341F0320C521A06149219111480B21204059E3C
S11342001043079101C36645D9D2216800290AD118
S1134210039E043CB44201D82F6104E021680029C4
S1134220FAD1013FF4E7281C069901F02FF8002881
S11342302ADB029C039A0134049B02940024116833
S113424040CB88B200191468B1B2401A360C210C64
S1134250891B041409190C1480B20904059E014336
S113426002C29E42EBD2039CBB00E3181E68002EE0
S11342700AD1039C043BA34201D82F6104E01E68C9
S1134280002EFAD1013FF4E7029E301C09B0F0BDC4
S1134290F0B5446A9BB00790239D04920593002CCB
S11342A008D1102000F0D4FD07994862446084606E
S11342B00460C460079C636A196800290AD05B68BB
S11342C001229A404B608A60201C00F003FE636A5E
S11342D000221A600598002805DA01232B604300A8
S11342E05B08059301E000232B60059EBE4B321C46
S11342F01A409A4218D1BD4B229C049D2360002D84
S113430001D1360301D0BA4800E0BA48249C002CFD
S113431001D100F093FDC278C31C002A00D00533FC
S1134320249D2B6000F08AFD049C059DA54BA44AA6
S1134330201C291C01F0C2F9071E0CD0229C249DCC
S113434001232360002D01D100F075FDAA482860E7
S1134350013800F073FD19AB009318AB0193079873
S11343602B1C221C01F014F873000A905B0D09D079
S1134370201CA24C2A03120B211C1143A04A16979D
S11343809E181BE0189B199C1D199E4B9D4209DB2E
S11343909D49049A9D4B6818C2405B1B101C9E40AB
S11343A0304304E09A48049B401B8340181C03F0EC
S11343B083FE984C6E1E012509191695824A834B7B
S11343C003F0D4FA824A834B03F040F8824A834BC9
S11343D002F0B0F8041C301C0D1C03F02FFE804AC0
S11343E0804B03F033F8021C0B1C201C291C02F028
S11343F0A1F8041C0D1C03F0EDFD724B704A0690ED
S1134400291C201C01F060F900280DD0069803F047
S113441015FE0B1C021C291C201C01F04FF9069CE4
S113442043424341E41A0694069C01251395162C35
S113443010D8794AE300D31818685968049A059B80
S113444001F056F9002804D0013C00250694139588
S113445000E0139018980024861B351C0294013D3B
S1134460099504D5099C0025644202940995069C8B
S1134470002C06DB099D12942D19002409950D9436
S113448007E0069C029D2D1B0295654200240D95B4
S11344901294209D0124092D24D8052D02DD043D0C
S11344A02095002420980238032823D801F03CF8F2
S11344B0060E0204012502E0012508E000251095FE
S11344C0219D002D1FDD0C95089509E00025109510
S11344D00698219D2D180C9501350895002D18DDA1
S11344E02B1C17E0634200250C930893209510942D
S11344F0122306E001256B4210950C9308930025C6
S11345001223219506E001250C9508952B1C219575
S113451000E0012307980022456A6A600422101C07
S113452014306968984203D8013169605200F6E793
S1134530079800F097FC2860079D6B6A089D1B682C
S11345400B930E2D00D987E1002C00D184E1049C4B
S1134550059D14941595069D002D61DD2A1C0F23DD
S11345601A402D49D2008A18146855680E940F9584
S1134570069D2A4C2F110225F80617D51F401498C2
S11345801599226A636A02F0F7FA032504900591EB
S11345900CE0F90708D50E980F992268636802F0B9
S11345A055FF0E900F9101357F100834002FF0D184
S11345B0049805990E9A0F9B02F0DEFA4EE0C0466D
S11345C00000000000000000000000000000F83FB0
S11345D061436F63A787D23FB3C8608B288AC63F05
S11345E0FB799F501344D33F0000F07F0F27000056
S11345F0658600005C8600005B8600000000F03FDA
S113460001FCFFFFEFFBFFFF120400000EFCFFFFA5
S1134610EEFBFFFF000010FED8860000A08700001C
S1134620069C02256742002F1AD00F233B40CC4A38
S1134630DB00D318149815991A685B6802F006FF1A
S1134640C84E3F11002F09D0FA0704D532687368A9
S1134650013502F0FBFE7F100836F3E70490059164
S1134660139C002C1ED0049E059FB44BB24A301CF0
S1134670391C01F029F8002814D0089C002C11D012
S11346800C9C002C00DCE3E0069C301C013C391C33
S1134690AB4AAC4B119402F0D9FE0135049005915C
S11346A00C9C02E0069C1194089C281C049E059F07
S11346B00E9403F0C3FC321C3B1C02F0C7FEA24A5A
S11346C0A24B01F037FF041CA74808180E99049068
S11346D0051C00291BD19E4A9E4B301C391C03F03B
S11346E045F9221C049B061C0F1C01F001F800284C
S11346F000D05CE2221C8025049C2D06301C391C51
S1134700631900F0E1FF002800D047E2A0E00E9A10
S1134710934B013A1098D2009B18002849D01A688C
S11347205B688D488D4902F027FA2B1C221C03F08C
S11347301DF9049005910B9D391C301C03F04AFCB3
S1134740041C03F07BFC021C0B1C301C391C03F002
S11347500DF901356B1E30341C70049A059B061C40
S11347600F1C00F0B1FF002800D053E3321C3B1CA7
S11347707249714803F0FAF8049A059B00F0A4FF0B
S1134780002800D0CBE00B9C2B1B0E9CA3425FDACD
S1134790049805996A4A6B4B02F058FE684A694BC3
S11347A004900591301C391C02F050FE061C0F1CAD
S11347B0C2E718685968221C2B1C02F047FE0B9CA8
S11347C00E9D0490059165191795391C301C03F052
S11347D001FC051C03F032FC021C0B1C301C391CB0
S11347E003F0C4F830352570179D0134061C0F1CE6
S11347F0AC4226D10E980B9C574A584B2518049866
S1134800059901F097FE021C0B1C301C391C00F0AA
S11348106FFF002800D082E0049A059B4E484F4960
S113482003F0A4F8021C0B1C301C391C00F04CFFD4
S113483000280DD06B1E1A78302A00D0EAE21D1C25
S1134840F8E73F4A3F4B02F001FE061C0F1CBCE791
S1134850149C159D04940595199B002B00DA9FE088
S1134860069D0E2D00DD9BE03D4AEB00D3181C682D
S11348705D6802940395219D002D14DA089C002C98
S113488011DC00D08CE1324A324B0298039902F0D9
S1134890DDFD049A059B00F035FF089F3E1C0028AF
S11348A000D07FE187E10B9D049E059F029A039B44
S11348B0301C391C02F060F903F08CFB041C03F07B
S11348C0BDFB029A039B02F0C1FD021C0B1C301CB1
S11348D0391C03F04BF80135021C201C30300B1C32
S11348E0691E08700B98291A0898814248D1101C37
S11348F0191C01F01FFE029A039B061C0F1C00F0FA
S1134900F7FE00280DD1301C391C029A039B00F0DD
S1134910D5FE002800D17FE2E10702D47CE2119C9D
S113492006946B1E1A78392A26D10B9CA3421DD0FB
S11349301D1CF6E7C046C046000000000000F03F22
S113494000000000000024400000000000001C40A3
S11349500000000000001440000000000000E03FE0
S1134960D8860000A08700000000C0FC069C30220E
S1134970013406940B9C22701A7801321A704BE2AF
S1134980101C191CC94BC84A02F060FDC84AC94B27
S1134990061C0F1C00F092FE002800D186E73BE2C3
S11349A0109D002D31D0209C012C0BDC169D002D78
S11349B002D0C1481B1802E0189936235B1A0D9DDA
S11349C0029C16E0089D0D9C013DAC4201DB651B79
S11349D006E00D9C0D952B1B129C0025E4181294E7
S11349E0089C002C03DA02980023041B01E0029CBB
S11349F0089B0299099AC9180291D21807980121B3
S1134A00099200F007FB061C02E00D9D029C109E1B
S1134A10002C0CD0099B002B09DDA34200DD231CD4
S1134A2002980999C01AC91A0290E41A09910D9AB8
S1134A30002A21DD109B002B18D0002D10DD311C25
S1134A402A1C079800F07EFB061C311C0A9A079862
S1134A5000F0E9FA0A99071C079800F03BFA0A9754
S1134A600D98421B08D007980A9902E007980A9902
S1134A700D9A00F067FB0A900798012100F0CAFA2A
S1134A80129D071C002D05DD391C07982A1C00F017
S1134A9059FB071C20980025012810DC0499A94221
S1134AA00DD1059A1303AB4209D1844B134206D0AE
S1134AB0029D01350295099D01350995012512993B
S1134AC00120002908D03B6903339B00FB18586878
S1134AD000F057FA2023181A099A1F238018184047
S1134AE00DD020231B1A042B06DD1C23181A029B4D
S1134AF024181B18029308E0042B08D0181C0299F0
S1134B001C300918099A0291241812180992029B60
S1134B10002B05DD07980A991A1C00F065FB0A9022
S1134B200998002805DD391C0798099A00F05CFBF8
S1134B30071C139900291BD00A98391C00F0A6FB06
S1134B40002815DA069A0023013A069207980A9972
S1134B500A2200F0D8F90C9B0A90109808930028B8
S1134B6006D0311C07980A22002300F0CCF9061C59
S1134B70089900292ADC209A022A27DD002911D16C
S1134B80391C07980522089B00F0BDF9071C391C45
S1134B900A9800F07BFB00280DDC03E00E9F00E088
S1134BA000273E1C219C0B9DE44306940BE0119DC1
S1134BB00E9F06953E1C0B9C31232370069C0B9D77
S1134BC0013401350694029600260FE1109800285E
S1134BD000D1C5E0002C05DD311C0798221C00F033
S1134BE003FB061C0296002D12D07168079800F092
S1134BF039F93269311C0232041C92000C310C3038
S1134C00FEF762FF0798211C012200F0EDFA0290E2
S1134C100B9C089D231C013B5B1909941093391CC0
S1134C200A98FFF7A9FA311C0D90041C0A9800F0A9
S1134C302DFB391C0C90029A079800F042FB051CCE
S1134C40C0683034002805D10A98291C00F01EFBE6
S1134C50089001E001210891291C079800F03AF915
S1134C60089B209D2B430DD104980123034209D1B5
S1134C70392C44D00C9D002D01DD0D9C3134099D4F
S1134C80013544E00C9D002D03DA089D002D17DC4E
S1134C9028E00C9B209D2B4329D104980123034237
S1134CA025D1F2E7C046C0460000000000002440C1
S1134CB00000000000000000330400000000F07F4A
S1134CC00A990798012200F08FFA391C0A9000F023
S1134CD0DDFA002802DC05D1E10703D5392C0ED01A
S1134CE00D9C3134099D099A013514707EE0099DAB
S1134CF001350C95089D002D0CDD392C05D1099D3D
S1134D00099C3923013523705BE00C9D013409981B
S1134D1004706BE00999109A0C9D0C7091423DD07F
S1134D200A990A220023079800F0EDF8029C0A90E1
S1134D30311C07980A220023A64204D100F0E3F8AC
S1134D40061C029009E000F0DEF80299061C0A2213
S1134D500798002300F0D7F802900C9D09955EE7B0
S1134D600B9D391C0A98FFF707FA041C30340B9882
S1134D7008992C7001352B1A8B4207DB0B1E00DCC3
S1134D8001230B9A0296D518002607E007980A9982
S1134D900A22002300F0B7F80A90E2E70A9907987C
S1134DA0012200F021FA391C0A9000F06FFA002861
S1134DB007DC15D1E30704D412E00B9CA34205D011
S1134DC01D1C6B1E1A78392AF7D006E0069C312385
S1134DD0013406940B9C237008E001321A7005E03C
S1134DE06B1E1A78302A01D11D1CF9E70798391C6B
S1134DF000F070F8029C002C0ED0002E05D0A642C4
S1134E0003D00798311C00F065F80798029900F068
S1134E1061F801E0119C069407980A9900F05AF889
S1134E2000232B70069B229C01332360249C002CBE
S1134E3003D0256001E0024800E00B981BB0F0BDF0
S1134E405A860000C046C0460048704774000020DF
S1134E5008B5034B011C186800F000FB08BDC046F0
S1134E607000002070B5456A041C0E1C002D07D18B
S1134E701020FFF7EDFF6062456085600560C56046
S1134E80656AEB68002B09D0636AB200DB689A1884
S1134E90106800280ED00368136017E0201C04215A
S1134EA0212200F0CDFA636AE860DB68002BEBD1C5
S1134EB000200EE001210D1CB5406A1D9200201C4B
S1134EC000F0BEFA0028F3D046608560002202613B
S1134ED0C26070BD70B5446A061C0D1C002C07D15D
S1134EE01020FFF7B5FF7062446084600460C46002
S1134EF0002D07D0726A6968D2688B00D3181A68CB
S1134F002A601D6070BDF7B50C1C1E1C0D69071CC2
S1134F10143100230868013380B250438019844659
S1134F20060C0868000C50433018060C000401906D
S1134F30604680B2844601988444604601C1AB4215
S1134F40E8DB002E1BD0A3689D4212DB6168381C8D
S1134F500131FFF787FF2269211C023201900C31D5
S1134F6092000C30FEF7B0FD211C381CFFF7B2FF95
S1134F70019C2B1D9B00E31801355E602561201CFC
S1134F80FEBD0022031C010C914201D10304102236
S1134F90190E01D108321B02190F01D104321B0171
S1134FA0990F01D102329B00002B04DB2020590011
S1134FB002D5501C00E0101C704703680722011C36
S1134FC01A400BD001220020134222D102200342B6
S1134FD001D0D3401BE09B080B601AE098B2002874
S1134FE001D11B0C1022D8B2002801D108321B0AAF
S1134FF0180701D104321B09980701D102329B081A
S1135000D80704D45B082020002B02D001320B60A7
S1135010101C704710B50C1C0121FFF723FF01235E
S11350204461036110BDF0B50C1C151C09691269BB
S11350308BB0914202DA231C2C1C1D1C27692E699B
S1135040A268BB1961680293934200DD0131FFF746
S113505009FF031C03900298143382009A18191C48
S1135060914202D2002001C1FAE714351434BF0082
S1135070AC46B600E7196644049407970996099E5E
S1135080B44556D265462D880595002D1FD0049C45
S1135090191C00200F6840CCBFB2059D0697B7B21B
S11350A06F43069D360CEF193F1808680891050CEC
S11350B005984643380CAD192D18280CBFB22D04A1
S11350C03D4320C1079DAC42E4D3089E706067460F
S11350D07D88002D22D000261868049C191C019696
S11350E0278880B26F430697069E4F880591F6196C
S11350F0019FF71906973F043843086001CC8F8855
S1135100000C6843C019069F04313E0C8019079FA8
S1135110060C0196A742E3D8059948600425AC44DF
S11351205B19ACE7043A1068002805D1029F013FDF
S11351300297029D002DF5DC039F029E381C3E6100
S11351400BB0F0BD0323F7B51340051C0E1C141C53
S1135150002B07D0224A013B9B009A580023FFF7FB
S1135160D2FE061CA410019437D06C6A002C07D11F
S11351701020FFF76DFE6862446084600460C460C0
S11351806F6ABC68002C10D1281C1649FFF742FF37
S11351900023B860041C036007E0019B5B100193CB
S11351A01BD0206800280FD0041C019BDB07F4D51A
S11351B0311C221C281CFFF736FF311C071C281C3D
S11351C0FFF788FE3E1CE8E7281C211C221CFFF781
S11351D02AFF002320600360E6E7301CFEBDC046C2
S11351E0C887000071020000F0B50C1C85B0039064
S11351F0206955112818029049680130A368171CCA
S11352000090009A9A4202DD01315B00F9E70398AD
S1135210FFF728FE021C061C14320023AB4204DAFA
S11352209900002050500133F8E7EB43DB171D4091
S1135230AD0020695519221C143283009B189C462A
S11352401F231F4014D02023DB1B0193002310686D
S1135250291CB840034308C508CA0198C3409445B3
S1135260F5D84B60002B07D002990231009103E07E
S113527008CA08C59445FBD8009B0398013B3361D9
S1135280211CFFF727FE301C05B0F0BD10B50269E4
S11352900C69031C101B13D11A1CA0001432143106
S11352A013180918043B04391C680868844204D0A4
S11352B0844280410123184302E09342F2D8002043
S11352C010BDF0B5071C85B0081C0D1C111C141C66
S11352D0FFF7DCFF061E07D1381C311CFFF7C2FDA7
S11352E001230361466150E0002801DB002603E04E
S11352F02B1C0126251C1C1C6968381CFFF7B2FDF9
S11353002A692B1C14339100591802912169251C18
S1135310143589006918041C0391C66014340021F3
S113532040CB80CDB446B6B27118BEB28E1B614676
S113533001963F0C0E0CF71B019E043431147F18A8
S113534039143F040097019F261FB446BEB2009F44
S1135350374366463760039FBD42E1D3029E251C56
S1135360B3420BD280CBBDB26D182E143F0CF6198C
S11353703114ADB23604354320C4EFE7043D2F6841
S1135380002F01D1013AF9E7026105B0F0BD000038
S1135390F7B501211D1C141CFFF764FD6F002B03DE
S11353A0061C1B0B7F0D02D0802252031343019372
S11353B0002C19D068460094FFF7FFFD009A0028DE
S11353C009D0019B20211C1C091A8C402243C34094
S11353D07261019300E07261019CB46163426341B4
S11353E00224E41A346107E001A8FFF7E6FD0199FD
S11353F00124716134612030002F09D00D4A089CCA
S1135400BF183F1827603523099C181A20600EE046
S11354100949089A40180949106063189B00F31859
S11354205869FFF7AEFD6401099A241A1460301C10
S1135430FEBDC046CDFBFFFFCEFBFFFFFFFFFF3FDE
S113544038B5151C4D43291C00F008F8041E03D080
S113545000212A1CFEF741FB201C38BD70B5032334
S1135460CD1C9D430835061C0C2D01D20C2501E0F2
S1135470002D3FDB8D423DD3204B1C681A1C211CA0
S1135480002913D00868431B0DD40B2B02D90B60E1
S1135490CC181EE08C4202D1636813601AE048689D
S11354A060600C1C16E00C1C4968E9E7144C206889
S11354B0002803D1301C00F025F82060301C291C82
S11354C000F020F8431C15D0C41C03239C438442E1
S11354D00AD12560201C0B300722231D9043C31AD8
S11354E00BD05A42E25008E0211A301C00F00AF8AE
S11354F00130EED10C233360002070BDF401002094
S1135500F001002038B5074C0023051C081C23605B
S1135510FDF714FF431C03D12368002B00D02B603C
S113552038BDC046280B002002B471464908490022
S1135530095C49008E4402BC7047C046002934D03F
S11355400123002210B488422CD301242407A14251
S113555004D2814202D209011B01F8E7E400A1420E
S113556004D2814202D249005B00F8E7884201D3A9
S1135570401A1A434C08A04202D3001B5C08224381
S11355808C08A04202D3001B9C082243CC08A042F2
S113559002D3001BDC082243002803D01B0901D0DE
S11355A00909E3E7101C10BC7047002801D0002053
S11355B0C04307B4024802A14018029003BDC0468C
S11355C0D90000000029F0D003B5FFF7B9FF0EBCE5
S11355D04243891A1847C046002941D010B4041C1C
S11355E04C40A44601230022002900D5494200284A
S11355F000D5404288422CD301242407A14204D27E
S1135600814202D209011B01F8E7E400A14204D25D
S1135610814202D249005B00F8E7884201D3401A74
S11356201A434C08A04202D3001B5C0822438C0896
S1135630A04202D3001B9C082243CC08A04202D300
S1135640001BDC082243002803D01B0901D00909F0
S1135650E3E7101C6446002C00D5404210BC7047A0
S1135660002806D003DB0020C043400801E080206E
S1135670000607B4024802A14018029003BDC046C8
S1135680190000000029EBD003B5FFF7A7FF0EBCFB
S11356904243891A1847C0467047C0468446101CC6
S11356A062468C46191C634600E0C0461FB501F0F3
S11356B04FFE002801D40021C8421FBD10B501F0DF
S11356C07FFD4042013010BD10B501F041FE0028BD
S11356D001DB002010BD012010BDC04610B501F053
S11356E037FE002801DD002010BD012010BDC0469A
S11356F010B501F0AFFD002801DC002010BD012031
S113570010BDC04610B501F0A5FD002801DA002047
S113571010BD012010BDC0468446081C6146FFE749
S11357201FB500F04FFB002801D40021C8421FBD63
S113573010B500F0D5FA4042013010BD10B500F0AC
S113574041FB002801DB002010BD012010BDC04634
S113575010B500F037FB002801DD002010BD01204A
S113576010BDC04610B500F0E5FA002801DC0020A9
S113577010BD012010BDC04610B500F0DBFA0028B2
S113578001DA002010BD012010BDC0469E2110B5D5
S1135790C905041CFFF7F0FF002803D1201C00F00A
S11357A0FDFD10BD9E21C905201C00F081FC00F008
S11357B0F5FD80231B06C018F3E7C046F8B5430285
S11357C04400C50F4E024800240E2A1C9B09000EFB
S11357D0C90FB6098D425BD0221A002A00DC89E089
S11357E000281DD1002E00D075E0580704D00F22E8
S11357F01A40042A00D004338021C90419402A1C09
S113580000293AD00134FF2C00D17FE09B015B0AD0
S11358105B02E4B2E405580AD20720431043F8BD02
S1135820FF2CE2D08021C9040E431B2A00DD2DE1A8
S1135830311C2020D140821A9640721E96410E439C
S11358409B1B5801D1D59B019F09381C02F046FDD2
S1135850421F974094425BDC141B1F231B1B3A1C02
S11358609F40611C3B1CCA405F1EBB411343002484
S1135870BBE7131EB9D100230022DB08FF2C04D19F
S1135880002B43D08020C00303435B025B0ABFE7C5
S1135890211A002940DD002823D0FF2CA5D0802028
S11358A0C00406431B2900DDEEE0301C2027C8405D
S11358B0791A8E40711E8E4106439B19590100D4FA
S11358C093E70134FF2C55D0714901221A400B4053
S11358D05B08134389E7013A002AB1D0FF2CA4D115
S11358E083E7002E00D180E701390029E5D0FF2CA1
S11358F0D8D17AE7002A1BD1621CD2B2012A4BDD2F
S11359009F1B7A0123D5F71A0D1C9EE700237FE71E
S11359105F4BA41A3B4068E7002946D1611CC8B21A
S1135920012829DDFF2924D0F3185B080C1C5CE74F
S1135930002C13D0FF2818D08024E40452422343BF
S11359401B2A4DDD0123F31A041C0D1C79E7002FDB
S113595000D07AE70023002200248EE7002B3BD0FE
S1135960D243002AEFD0FF28EAD1331CFF240D1CB8
S11359703BE7FF24002380E7002C5CD1002B00D1FF
S113598080E0002E00D130E79B19580100D42CE7A9
S11359903F4A0124134028E7002C15D1002B40D1A5
S11359A0002E63D0331C0D1C1FE7002C21D1002BCB
S11359B054D0C943002904D0FF284CD01B2958DDFA
S11359C001239B19041C79E7002B19D1002E48D020
S11359D0331C0D1CFF2408E7331C041C0D1C04E7B6
S11359E01C1C2025D440AA1A93405A1E93412343D9
S11359F0A9E7FF282FD08024E40449422343DDE7AC
S1135A00FF24002E00D1F0E68022DB08D2031342EB
S1135A1004D0F608164201D1331C0D1CDB00FF2410
S1135A20E3E6002E00D1E0E69A1B500100D420E703
S1135A30F31A0D1CD9E6002B0DD0FF24002E00D143
S1135A40D3E68022DB08D2031342E7D0F6081642DD
S1135A50E4D1331CE2E7331CFF24C6E6331C041CE8
S1135A60C3E6802300229B04FF2406E7231C0022B4
S1135A7003E71C1C2027CC40791A8B40591E8B410C
S1135A8023439EE7331CB0E6012616E70126D7E63A
S1135A90FFFFFFFBF0B55F4656464D464446F0B463
S1135AA046024500C00F85B00F1C760A2D0E8046B5
S1135AB041D0FF2D26D08024240400212643F60063
S1135AC07F3D89468B46F90F7C027800640A000EFC
S1135AD000918A463CD0FF2834D080231B041C4309
S1135AE00023E4007F380193009F4346019A7B40E2
S1135AF049469C4611430F2900D971E0764F89002D
S1135B007F58BF46002E3ED10822022391469B4671
S1135B10D9E75A46341CC24601920199022937D06A
S1135B20032900D1CFE0012900D0ABE053460B405C
S1135B300022002632E0002E19D1042101228946D8
S1135B409346C0E7221C531E9A4102320192CBE7CE
S1135B5001270197002CC7D0201C02F0BFFB431F74
S1135B609C4076235B420021181A0191BCE7301C4B
S1135B7002F0B4FB7625431F9E406D4200232D1A8C
S1135B8099469B469FE70C23032199468B469AE747
S1135B90D446012367463B40FF2200267602D20505
S1135BA0700ADB071043184305B03CBC9046994685
S1135BB0A246AB46F0BD80260023F603FF22EDE7A4
S1135BC000220026EAE78020C00306423BD00442BC
S1135BD039D1061C26437602760A009BFF22DDE7B4
S1135BE0281A039076016401A64239D3361B1A227F
S1135BF001230120311C5B007600002901DBB44243
S1135C0001D8361B0343013A002AF3DC741EA64173
S1135C10341C1C43039A7F32002A27DD630704D017
S1135C200F232340042B00D00434270103D52B4B2E
S1135C30039A1C408032FE2A0BDD012361460B408F
S1135C40FF220026AAE706437602760A4346FF228D
S1135C50A4E7A40101236746660AD2B23B409DE74C
S1135C60039F1B22013F03970023C2E77E23039F68
S1135C705B42DB1B1B2B07DD012361460B4000222B
S1135C8000268BE7D446C5E7221CDA40039B9E33EB
S1135C909C40231C5C1EA34113435A0704D00F22CB
S1135CA01A40042A00D004335F0105D5012361465C
S1135CB00B400122002671E79E0162460123134036
S1135CC0760A00226AE78026F60326437602760ADD
S1135CD05346FF2262E7C046D4870000FFFFFFF768
S1135CE04A02430270B55C0A550A43004A001B0E7F
