:10000000D84D002001410000FD400000FD400000EF
:1000100000000000000000000000000000000000E0
:10002000000000000000000000000000FD40000093
:100030000000000000000000FD400000FD40000046
:10004000FD400000FD400000FD400000B50500003F
:1000500015030000FD400000FD400000FD400000D1
:10006000FD40000059300000693000007930000088
:10007000893000000000000000000000FD4000008A
:10008000FD400000FD400000CD400000DD400000CC
:10009000ED4000000000000000000000D525000039
:1000A000FD400000FD400000FD400000FD4000005C
:1000B00010B5064C2378002B07D1054B002B02D03E
:1000C000044800E000BF0123237010BDB0000020F1
:1000D0000000000044B7000008B5084B002B03D017
:1000E0000748084900E000BF07480368002B03D019
:1000F000064B002B00D0984708BDC046000000000A
:1001000044B70000B400002044B700000000000025
:1001100010B5144C2278144B1B68920013490888C0
:10012000D358984720780130C0B2114B1978114B41
:100130009847C9B22170104B595C104B1B685A7E0E
:1001400052B2002AFBDB1A691F2082430A431A615C
:100150005A7E52B2002AFBDB084804490122084BB0
:10016000984710BDCC000020280A0020280100205C
:10017000000000200187000018AF0000EC090020FB
:10018000A5260000F0B58FB0051C0E1C02AC201C8B
:10019000324B98470023A360E022D2006280032202
:1001A00062702373102323712D4F381C2D49221C9C
:1001B0002D4B98473B685A7E52B2002AFBDB8021C8
:1001C00009042A4A1160197802220A431A70244B42
:1001D0001A68537E5BB2002BFBDB214C201C2449A8
:1001E0000022244B9847E27E01231343E37601A9C2
:1001F00000224A70CA708A7001220A7003201E4BC6
:100200009847032D13D002D8022D16D01BE0042DE1
:1002100007D0052D17D101A901230B700420164B1F
:10022000984701A901230B700620134B984701A999
:1002300001230B700520104B984701A901230B7077
:1002400004200D4B98470D4B1D700D4B1E6004484C
:100250000C4901220C4B98470FB0F0BD552100000E
:10026000EC090020004000429D21000000E100E078
:100270001101000091260000FD3C0000000000205C
:10028000280A002028010020A5260000054B197827
:1002900002220A431A701A1C53785BB2002BFBDB54
:1002A0007047C0460018004000B583B0124B9969F2
:1002B00040220A439A6101A900230B7005200F4BCD
:1002C000984705200E4B98470E4B197801220A4398
:1002D0001A701A1C53785BB2002BFBDB0A4B191CFB
:1002E0004031002204C38B42FCD11022074B1A601C
:1002F000074B984703B000BD00040040213C0000BC
:10030000953B0000001800402C0A002000E100E0AE
:100310008D02000070B50022164B1A7000231F26B4
:10032000154D144C1F2B10D919E0144900E0002181
:100330000A619B005B59002B00D09847237801335A
:10034000DBB223700F2B14D8ECE7321C1A400121CA
:1003500091400A1C094909691142E6D1EEE7321CB5
:100360001A40012191400A1C002109691142DED185
:10037000E4E770BD6C0A00202C0A00200018004041
:1003800010B5CA88C388D21A92060C7964044B79D6
:100390009B0523438C782403234313430279002ACB
:1003A00005D1CA78002A02D080225202134348782D
:1003B00080010A781043184310BDC04610B58C0E5A
:1003C000C388E318D3808B011B0F53718B02DB0EA4
:1003D00013710379002B03D0CB03DB0E937005E080
:1003E0000B041B0F9370CB03DB0FD3700B059B0E1D
:1003F00053703F231940117010BDC04610B50268FC
:10040000082480230B49CC5001688B7A5BB2002B07
:10041000FBDB138802218B43138000230374437496
:1004200001688B7A5BB2002BFBDB118801230B4345
:10043000138010BD00E100E010B50468034B98473D
:10044000A37A5BB2002BFBDB206110BD81030000AF
:1004500010B50A1C03684179002906D10549598065
:100460000468A17A49B20029FBDB1969024B98475D
:1004700010BDC0460080FFFFBD03000070B50E1C1C
:10048000141C05681723012A0DD8084B9847AB7A2E
:100490005BB2002BFBDBE4002D19A861327A00234C
:1004A000062A00D82A77181C70BDC04681030000B8
:1004B00030B583B0041C151C01601C4B99692022C7
:1004C0000A439A6101A902230B700420184B984734
:1004D0000420184B9847201C174B98472B79237101
:1004E000EB786371EB88E380144B1C6023682A88E7
:1004F0002979002902D008210A4301E048210A4352
:10050000A978002901D080210A431A80EA78002ABC
:1005100004D059888022D2010A435A80291C08310C
:10052000201C0022064B984703B030BD0004004059
:10053000213C0000953B0000FD030000CC0A002098
:100540007D04000038B50C1C01681723012A08D867
:10055000D2008D18A969221C034B98472B7F237268
:100560000023181C38BDC046BD030000012A01D974
:1005700017200AE0931C9B001950037C0121914035
:100580000A1C1A43D2B202740020704710B50368E7
:10059000012902D18022DA7104E001228A4001247B
:1005A0002240DA71437C01228A40111C1943C9B2EE
:1005B000417410BD10B50E4B1B681C685A7C197C29
:1005C000081C1040227AE1790A40D10906D081073F
:1005D00001D5DB6898478023237207E0D10705D552
:1005E000C20701D59B6898470123237210BDC046FE
:1005F000CC0A002030B583B0051C01AB80221A70F4
:1006000000245C7001229A70DC708170081C191C37
:10061000034B98472C706C70AC72AC8003B030BD4B
:10062000FD3C0000031C0078C0B2002806D05A78B8
:10063000002A02D101225A7000E000207047C04613
:100640008378D9090022002903D15A09D20112491D
:100650005218126A1F210B40012199400B1C1340B4
:100660005A1E9341827A9A420DD1838801339BB2FC
:100670008380222B0ED90378002B0BD1012303702A
:100680000023437006E04378002B01D00023037061
:10069000002383807047C04600440041F8B5061C23
:1006A0000C1C171C1D1C06AB1B78012B07D00888DF
:1006B000431C0B8030180F4902220F4B98472088AB
:1006C00030180E493A1C0E4B9847381C0D4B984772
:1006D00023880333181880B22080002D09D03018E9
:1006E000291C094B9847281C064B98472388C0189B
:1006F0002080F8BD1CAF00009D44000020AF00002A
:100700001546000095460000854600002C22FF3269
:10071000074BC2520023074A8352074A8352074AB3
:1007200083520122064BC2548423C3607047C046E3
:10073000E0200000E4200000E6200000E2200000AD
:10074000E820000084B0F0B5059006910792089368
:100750000C990E4D4C5BE000001B80000818103017
:10076000031C05AAC1CAC1C3C1CAC1C312681A60A9
:100770000134A4B24C53064BCB5AA34201D1002200
:100780004A53F0BC08BC04B01847C046E220000041
:10079000E0200000F0B50D4A94468C5AE200121B8E
:1007A00092008A181032031CE0CAE0C3E0CAE0C31A
:1007B00012681A600134A4B262468C52044BCB5AC0
:1007C000A34202D100226346CA52F0BDE4200000D9
:1007D000E0200000F0B55F4656464D464446F0B472
:1007E000994CA5440027994B1F70994D994BEF5494
:1007F0001CAC201C0021984A984B98470122904637
:100800006E236B441A807B232380EA6810A89449E6
:10081000944B984742460092201C69466E31924A9A
:1008200010AB924EB0470097201C69466E31904A3B
:100830000023B0476E226A441088431C138020189E
:100840008C4902228C4B98478C4BEA5A8C4BEB5AC2
:1008500092B29A4200D0E6E0AAE014A87C49894B03
:100860009847039E002E0AD06E226A441088431CCB
:1008700013801CAA1018844902227F4B98476F46A8
:100880006E373888431C3B801CAB18187F49022206
:10089000794EB04714AE10A85146149A714DA8472E
:1008A000012300931CA869466E31794A10AB6F4C46
:1008B000A047784A9346784B994670689847021C3F
:1008C0000B1C10A85946A8470022904600921CA86D
:1008D00069466E31714A10ABA047B068C847021C28
:1008E0000B1C10A85946A847424600921CA869460E
:1008F0006E316B4A10ABA0476A4B9B46F068C84705
:10090000021C0B1C10A85946A847424600921CA87E
:1009100069466E31644A10ABA047327C10A851463C
:10092000A847434600931CA869466E315F4A10AB46
:10093000A047727C10A85146A847424600921CA8C6
:1009400069466E315A4A10ABA0477069C847021C0D
:100950000B1C10A85946A847434600931CA869469B
:100960006E31544A10ABA047328B10A85146A847AD
:10097000464600961CA869466E314F4A10ABA04708
:100980003888431C3B801CAA10184C4902223A4E5E
:10099000B047039B0133DBB20393282B08D02C4BC9
:1009A000364A9A5A36495B5A92B29A4200D054E774
:1009B0006E226A4414881CAB1819414902222E4D3C
:1009C000A847A31C6E266E443380601C80B21CAA0C
:1009D00010183A490222A8471CA83A4CA04780B2F6
:1009E0006B46D8871CA8A047021C04A836491D4B9B
:1009F00098470BAB00221A7204A834490D9A0E9B3B
:100A0000334CA047FA204000324B9847002813D0BF
:100A10001CA8314B9847314B314A5A6001221A7257
:100A2000304ADA6008E014A80949164B98470026B6
:100A300003960B4A924622E72B4B9D443CBC9046C2
:100A40009946A246AB46F0BD94F2FFFF710A002022
:100A5000F80B0020E8200000F80C0000AF44000074
:100A600028AF0000154600002CAF00009D060000D6
:100A700034AF00003CAF00009D440000E2200000C5
:100A8000E4200000950700001CAF000040AF00000C
:100A900044AF000048AF000021AD000050AF00009F
:100AA00054AF000058AF000060AF000064AF00001A
:100AB00068AF00006CAF000070AF000074AF0000C2
:100AC00078AF0000954600007CAF000094AF0000B6
:100AD0002114000005150000C1440000340B002063
:100AE000A0AF00004D0D00006C0D000008B5064BD6
:100AF0001B78002B06D1054B054AD35C002B01D097
:100B0000044B984708BDC046710A0020E820000049
:100B1000F80B0020D507000070B58CB005AB0F4A6C
:100B200090681169069154690794D26908920E225F
:100B30005A740B4A0A92FA2252001A83094A5278CE
:100B40001A74094A039209AA694670CA70C10699C3
:100B5000079A089B054CA0470CB070BD900A002076
:100B6000A4700D40C40A0020F80B002045070000C7
:100B7000F0B583B000AF041C2E21174B9847061B1D
:100B8000F31DDB08DB006A46D21A9546811E381C2D
:100B90000722124DA847B21E6846211CA847684686
:100BA0000F4EB047041C0D1C381CB047094B084AB7
:100BB0000C4EB047021C0B1C201C291C0A4CA047E1
:100BC0000A4B9847BD4603B0F0BDC046C046C0467C
:100BD0000000000000004E4059460000A3460000FF
:100BE000394400007997000035910000C5AD000040
:100BF00082B000226B46DA7102B070477047C0467F
:100C000010B5064C201C1321054B9847201C054BA2
:100C10009847FF20044B984710BDC0466809002044
:100C2000F50500002D1F0000211E000010B582B048
:100C3000094C201C094B984701A900234B70012245
:100C40008A70CB7002230B70A078C0B2044B984717
:100C5000044B984702B010BD68090020410600000F
:100C6000FD3C00002D1E000000B583B02F4B1B780B
:100C7000002B04D02E4A11784900117003E02C4A51
:100C80001178490811702A4A1278023A7D2A02D94D
:100C9000DB43264A13702748274B9847002805D086
:100CA000264B1A78013203210A401A70234B1B7815
:100CB000012B12D0002B04D0022B1AD0032B24D0EE
:100CC0002EE01F4B98681F4B984701AB00229A708B
:100CD0001A70174A12785A7022E0194BD868194BCB
:100CE000984701AB00229A70114A12781A705A7014
:100CF00016E0134B1869134B984701AB00229A700A
:100D00000B49097819705A700AE00D4BD86A0D4BDF
:100D1000984701AB064A12789A7000221A705A70EE
:100D20000198094B984703B000BDC046CD00002094
:100D3000010000206809002025060000CE000020E8
:100D40002C050020491B0000351B000010B584B0A5
:100D50006B46D87107331B78012B11D1094B1868EA
:100D600059689A68DB68084CA047FA204000074B96
:100D700098476B46D873064B01221A72054A5A608F
:100D800004B010BDE80B0020211400000515000080
:100D9000340B0020D4AF000010B584B00C1C6B469F
:100DA000D87107331B78002B36D01C4B58681C4970
:100DB0001C4B9847002803D11B4A184B5A602BE064
:100DC0001A4B01211A4A99541A4A9A5A1A495B5ADB
:100DD00092B29A4202D10122184B1A70201C184B71
:100DE0009847C0B26B46D8730023A374201C0F3001
:100DF000144B984780B2C8235B00984206D10B4B36
:100E00000C4A995A89B2104A995205E0074B0E4A8A
:100E1000995A89B2074A995204B010BD340B002088
:100E2000A0AF000071460000D4AF0000F80B002016
:100E3000E8200000E4200000E2200000710A002009
:100E40009546000043440000E620000082B06B4657
:100E5000D871024A024B5A6002B07047D4AF00000A
:100E6000340B002000000000F0B587B00E1C6B466C
:100E7000D871D9790733C9B26A46D1751B78DBB20C
:100E8000D375301C2C21404B9847002872D0002786
:100E90003E4C6AE019781170013301328342F9D176
:100EA000811B061C00E00021002202AB5A540B2FCC
:100EB00052D8BB00E3589F4602A8354B9847354BA4
:100EC000986049E002AB1A78324B1A7344E0314B18
:100ED0001B7B562B05D002A82F4B98472D4B186132
:100EE0003AE000222B4B1A6136E002AB1A78294B0C
:100EF0001A7631E0274B1B7B562B05D002A8264BD8
:100F00009847244B586127E00022224B5A6123E086
:100F100002AB1A781F4B5A761EE002A81F4B984767
:100F2000184B174A1E4DA8471E4B9847194BD861BE
:100F300012E002A8194B98471A4B9847154B1862B4
:100F40000AE002A8124B9847124B586204E002AB29
:100F50001A7828230F49CA5401360137FFB2301CD2
:100F60002C21094B9847002804D086429BD202AA24
:100F7000331C8FE70C480D4B984707B0F0BDC046B7
:100F80006F1283C0CAA1FD3F59460000A4AF000004
:100F900043440000900A0020710B00003944000017
:100FA0004DA00000C5AD0000F80B0020190B00009B
:100FB000F0B5474680B482B01F4869461F4B98473A
:100FC0001F4B1B7A002B32D01E4C251C0C3D6A4651
:100FD000137822789A4209D16A469178A278914290
:100FE00004D16A4651786278914205D014351434A0
:100FF0002B7A002BEBD11AE06A789046AF782878EC
:101000001B18D8B23C21104B98472170607840449F
:10101000C0B23C210C4A90476170A0783818C0B229
:101020001821094B9847A1706A689047DEE702B023
:1010300004BC9046F0BDC046242D002051040000A1
:10104000382D0020442D002001870000F8B54F46C0
:101050004646C0B4174F184C381C211C0022174BB1
:10106000984707232372164D6B789946AB789846BC
:1010700020782B78C018C0B2124E3C21B0472170A6
:1010800060784844C0B23C21B0476170A0784044C9
:10109000C0B21821B047A170381C211C00220A4B95
:1010A00098476B68002B00D098470CBC9046994637
:1010B000F8BDC046242D0020D000002045050000CA
:1010C000182D0020018700007D04000010B588B0B5
:1010D00003AAA0231B01138000239370D370137104
:1010E000FA21C900D18005A8037068464375684697
:1010F00083756846C375012306A803706846437666
:101100006B46598306231374114C201C1149124B52
:10111000984721680822114B1A602268937A5BB2C3
:10112000002BFBDB0A88022313430B8001A9002359
:101130000B704B708B70CB7001230B71084BCB8005
:101140000A234B710248074B984708B010BDC046B0
:10115000242D002000140040B104000000E100E054
:10116000DF07000039040000F0B55F4656464D46E3
:101170004446F0B487B0041C0E1C002A4BD1002951
:1011800049D0284D284FE1210901B847A8702748C8
:101190008046201CE1210901C04788B23C21B847A4
:1011A0006870201C3C21C047297001232B72204904
:1011B000894604AC081C211C1E4B984701AF3B1C00
:1011C000221C03CA03C303233B726B789B46A87897
:1011D000824628782378C018C0B23C21C0472170CD
:1011E00060785844C0B23C21C0476170A078504438
:1011F000C0B21821C047A1704846391C00220E4BCE
:1012000098476E6048460D4900220D4B9847484666
:1012100000210C4B984707B03CBC90469946A2462B
:10122000AB46F0BD182D0020798600000187000034
:10123000242D0020510400007D0400004D1000000A
:101240006D0500008D05000010B5044C2278044B9C
:10125000984723780133237010BDC046CF0000208B
:101260006911000008B5034B984701200249034B60
:10127000984708BDCD100000B10F000049120000D2
:10128000F0B55F4656464D464446F0B485B08146BB
:101290000191304F3E78304CB00080468519AD004A
:1012A0002E498B464846E1210901D8472D19AA4607
:1012B000A8702B4D4846E1210901A84788B23C217E
:1012C000D84752465070404683199B009A4648467C
:1012D0003C21A84752461155A6180123337202AE8D
:1012E0002048311C204B98473B7898465B0043448C
:1012F0009B001E4A9B185878824699788946187830
:101300003378C018C0B23C21A8473170707850447F
:10131000C0B23C21A8477170B0784844C0B21821CF
:10132000A847B17043469A00D3189B00E3180C33CA
:1013300003CE03C342449200A418019A626043465C
:1013400001333B7005B03CBC90469946A246AB4683
:10135000F0BDC046DC000020382D0020798600005A
:1013600001870000242D002051040000182D0020CA
:101370007047C04608B5154B1B780A2B0FD1802348
:10138000134AD35CDBB2012B19D9131C80229A5C5F
:10139000D2B2002199540121812299540FE00B4BC4
:1013A0001B780D2B0BD00A4B8022995CC9B20748E1
:1013B0000078C0B25854995C0131C9B299540548BB
:1013C00002490122044B984708BDC046000B00208B
:1013D000640B0020E42C00201135000070B582B0B1
:1013E000051C0E1C00226B46DA80064C281C694640
:1013F0000631A0470028F9D16B4606331B883370AD
:1014000002B070BD3134000070B5061C0D1C034CD9
:10141000301C291CA0470028FAD170BD05340000FB
:1014200070B584B06C46009001910292054A111C7F
:1014300061CC61C10B6004480099044B984704B02B
:1014400070BDC046340B0020E0AF0000C144000076
:1014500070B582B000226B46DA71254E8023F35CB2
:10146000DBB26C46A371234B5D68281C224B984766
:10147000C0B26B46607162790533D2B2B15CC9B259
:1014800001AA1170A2791B78D2B29A4205D96B4693
:1014900005331B78DBB20021F1541548291C174B8A
:1014A0009847002802D101226B46DA716B4605335A
:1014B0001B78DBB201AA1178C9B20D4AD1540D4B89
:1014C0001B7A002B06D06B46D879C0B2094BDB687B
:1014D000111C98470648002381228354802283549C
:1014E0000021074B98476B46D879C0B202B070BD57
:1014F000640B0020340B002095460000714600006C
:10150000AF440000F0B583B0051C6B460022DA80C2
:1015100006331B889BB298421CD981230F4AD35CA7
:10152000012B07D103E08123FB5C012B06D10C4B7F
:10153000984710E00B4E6C460634084F0120B04728
:10154000238801339BB2238023889BB2AB42EAD32A
:10155000002000E0002003B0F0BDC046640B002076
:10156000511400002921000070B50E4D802636056B
:101570006E610D480D4CA047AE616420A0476E61BE
:10158000FA200001A047AE61094B186859689A68B3
:10159000DB68084DA847FA204000074B9847C82051
:1015A000A04770BD00440041B80B00002921000095
:1015B000140B00202114000005150000F0B55F4653
:1015C00056464D464446F0B487B000226B46DA7565
:1015D00001AB484902911A724748484B984700238B
:1015E0009A466C46173401239B46454E5B46237052
:1015F00044480299039A049BB047FA235B0099463A
:10160000181C414DA847C8235B009846181C3F4F43
:10161000B8473F480299039A049BB0474846A847F9
:101620004046B8473B480299039A049BB047FA27C3
:10163000FF00381CA84738480299039A049BB0471A
:10164000381CA847002801D1002323703348029991
:10165000039A049B2A4DA847FA20C0002A4B9847BA
:10166000002801D1002323702D480299039A049B7E
:10167000234DA847FA20C000234B9847002801D1EA
:101680000023237027480299039A049B1C4DA84706
:10169000FA20C0001C4B9847002801D1002323707A
:1016A000214801900299039A049B154DA847FA20FE
:1016B000C000154B9847002801D1002323702378E0
:1016C000002B0CD15346022B03D9184B984700230B
:1016D0009A4653460133DBB29A46154B9847237816
:1016E000002B83D007B03CBC90469946A246AB463F
:1016F000F0BDC046A0AF0000F80B00200D070000B1
:1017000021140000E8AF00000515000029210000A9
:1017100008B0000030B000003CB0000050B0000045
:1017200068B0000094B00000DCB00000F10B0000D5
:1017300069150000F0B587B001226B46DA7501AC7F
:1017400013490291002323721248039A049B124FFB
:10175000B847124E301C124DA847FA20C000114B5A
:101760009847114801906168A268E368B847301C47
:10177000A847002802D100226B46DA75FA20400003
:10178000084B98476B46D87DC0B207B0F0BDC04645
:10179000A0AF0000F8B000002114000010270000E6
:1017A000051500002921000008B1000070B590B0B7
:1017B0008023DB05009300230193FF22684602810A
:1017C00000228372C372012124206C4621542520FB
:1017D000215426216354272163540A938821490305
:1017E00003912C2163542D21635405932382E376C6
:1017F0002276227762761323A3766277204B0C93AE
:10180000204B0D9301235B420E930F93E1235B0268
:1018100008931D4E1D4D1E4C301C291C6A46A047C6
:101820000028F9D1184C1B4B1C601B4A1B4B1A603B
:101830001B4A1C4B1A60201C14496A46144B9847DB
:10184000194E336898680021184DA84733685868C6
:101850000021A8472568281C154B98471F231840CE
:1018600001238340181C134B18602268D369002B96
:10187000FCD12A68022313432B6010B070BDC04610
:1018800002000A0002000900E42C002000080042C7
:101890000D310000CC2D002009140000C82D0020BF
:1018A000DD130000C42D002070000020F54400006E
:1018B0002D30000000E100E010B5064C201C064968
:1018C0000022064B98473123E15C03220A43E2548D
:1018D00010BDC046E42C002071130000F934000054
:1018E00010B51C491C4B0B601C4B4B6000220A724C
:1018F0001B491C4808604B600A721B491B48086062
:101900004B600A721A491B4808604B600A721A49F8
:101910001A48086001200872194C4C60194CCC60C0
:1019200019491A4C0C600A72194C4C6019491A4C2E
:101930000C6008724B601948C86019491948086062
:101940000A724B601848C8601849194808600A7242
:101950004B6010BD240B002018B10000A0AF0000A8
:10196000D00A002020B10000140B002028B1000094
:10197000540B002038B10000F00A002048B10000EC
:1019800058B10000690E0000E00A002064B10000B8
:1019900074B10000040B002080B100004D0E000067
:1019A000E80B002090B10000990D0000440B0020CE
:1019B000A0B1000070B50124374B1C7037494C7042
:1019C00000238B700C701B20354B9847802212052A
:1019D000344B9A61344B9847344B9847344B984773
:1019E000344B1C70BFF35F8F62B6334C201C3349FD
:1019F0000122334B9847201C32490122324B984731
:101A0000324B186859689A68DB68314CA047FA2055
:101A10004000304B984700280AD1C82040002E4E85
:101A2000B047204C80252D0565612C48B047A56145
:101A3000214C3125635D022293436355284B18687E
:101A400059689A68DB68224EB047C8204000224B94
:101A50009847244B186859689A68DB68B047625DFC
:101A6000022313436355201C16490122164B984745
:101A7000FA256D00281C174CA0471B4B18685968A5
:101A80009A68DB68B047281CA047184D184CA84737
:101A9000A0470028FBD070BD710A0020C00A0020BA
:101AA000F126000000440041AD170000B918000005
:101AB000E11800000C000020E42C00207513000049
:101AC000F9340000000B002011350000440B002009
:101AD0002114000005150000292100001027000036
:101AE000240B0020D00A0020140B0020BD1500009C
:101AF0003517000000B583B009480A4900220A4B97
:101B0000984701A980230B7000234B7001228A7033
:101B1000CB70064B1B689878054B984703B000BD07
:101B200074090020B0090020A52C0000982D002089
:101B3000FD3C000082B0021C000C024B1A80987021
:101B400002B070478C2D0020F0B55F4656464D46DA
:101B50004446F0B483B0041C0021A14B98470028F0
:101B600002D080231B06E418201C9E4B9847061CBD
:101B70000F1C964B944A9C4DA847002835D0201C3A
:101B80009A4B984780469A4C9A4D9B4B9946FA211E
:101B900089009847994F0A21B847C8B2984E0A2140
:101BA000B047C9B26B5C237040466421C8470A2124
:101BB000B847C8B20A21B047C9B26B5C63704046EF
:101BC0000A21C8470A21B847C8B20A21B047C9B29A
:101BD0006B5CA37040460A21B847C8B20A21B047DF
:101BE000C9B26B5C803BE370DEE0301C391C784A84
:101BF000784B7D4DA84700283CD0201C7B4B984754
:101C000080467B4D7B4E7C4B9A46642198477B4BAC
:101C100099460A219847C8B2794F0A21B847C9B2F4
:101C2000735C2B7040460A21D0470A21C847C8B2CE
:101C30000A21B847C9B2735C6B7040460A21C84795
:101C4000C8B20A21B847C9B2735C803BAB7040464A
:101C50006C4B9847011C201C6B4B98476B496C4B95
:101C600098476C4B9847C0B20A21B847C9B2735C19
:101C7000EB7099E0301C391C574A584B5A4DA84715
:101C8000002847D0594B9B46201C98478046584D0A
:101C9000584E0A21584B9847584B99460A21984765
:101CA000C8B2574F0A21B847C9B2735C2B7040467F
:101CB0000A21C847C8B20A21B847C9B2735C803B41
:101CC0006B70504B9A4640469847011C4E4B9946C4
:101CD000201C98474E4B98464C4998474D4B984787
:101CE000C0B20A21B847C9B2735CAB70201C474927
:101CF000C047041CD847D047011C201CC847434993
:101D0000C047444B9847C0B20A21B847C9B2735C78
:101D1000EB7049E0354B9A46201C9847051C344E21
:101D2000344FC0B2364B98460A219847C9B27B5C03
:101D3000803B3370334B9946281C9847011C201C6C
:101D4000314B9847324D3149A847324B9B46984713
:101D5000C0B20A21C047C9B27B5C7370201C2B49FA
:101D6000A8470190D047C847011C0198264B9847C7
:101D70002649A847D847C0B20A21C047C9B27B5CF0
:101D8000B370201C2449A847041CD047C847011C35
:101D9000201C1D4B98471D49A847D847C0B20A21AF
:101DA000C047C9B27B5CF3701C4B1B78DBB20F2BB6
:101DB00002D81022194B1A7003B03CBC90469946C9
:101DC000A246AB46F0BDC04652B81E85EB3F8F40E1
:101DD0008FC2F5285CFF5840736891ED7CFF23406B
:101DE0007988000021AD00002D8800003D900000A2
:101DF000902D0020A4B1000015870000C1870000CD
:101E0000018700007D900000518D000000002041FE
:101E1000FD8A00000D8900000000C8429C2D0020B2
:101E2000014B18707047C0469C2D002008B5334BFD
:101E30001B780133DBB2032B02D8304A137013E056
:101E400000222E4B1A702E4B1B785B00DBB2002B4E
:101E500002D02B4A137002E01022294B1A70284B33
:101E600019782848284B9847244B1B78274AD25C7E
:101E70000F23111C9943264B1970214B1B782548C1
:101E80000078184202D10431214801702149497873
:101E9000194203D11E490878023008701D4989781B
:101EA000194203D11A4B1978083119700F231A40BF
:101EB000174B5A70184819490122194B9847194B6A
:101EC0001A780F4B1B781A420DD0114B0B4A12781F
:101ED00007218A1A01219140CA430F218A43597868
:101EE00052185A7003E00A4B5A78103A5A700A484E
:101EF000074902220C4B984708BDC046DD00002070
:101F000002000020D009002005400000902D002094
:101F1000E00000208C2D002074090020B009002072
:101F2000A52C00009C2D0020A92D0000F0B591B03B
:101F30002D4B18602D4C1223237000236370A37067
:101F400001A901224A708B700A701220284B984711
:101F50002378D9090022002903D15A09D201254941
:101F600052181F273B400124211C9940916102AA6D
:101F70001470002353609360137453749474D47476
:101F800013752421535409930A931B4B93618023A7
:101F90009B02D36001235B4293621849D1621363B1
:101FA000174B5363174E301C1749184B9847356829
:101FB000281C174B98470740BC40164B1C603268E2
:101FC000D369002BFCD12A68022313432B600D4CEC
:101FD000201C11490022114B98473723E15C012254
:101FE0000A43E25411B0F0BD982D0020B009002042
:101FF000F12600000044004140420F0002001100A1
:102000000200130074090020000C00428D2A000019
:102010002D30000000E100E0F51A0000912D0000D5
:1020200010B58EB001AA0023002113709371002413
:10203000138154709172D172117391735173117431
:10204000536193611177136253625385938504231F
:102050009370A023DB0093802A23D0542923D054EB
:102060002823D454074C201C0749084B9847226862
:102070007F21D37B8B43FCD1118802230B43138038
:102080000EB010BDD0090020002C0042913D000090
:1020900008B5FF20014B984708BDC046212000002D
:1020A00010B5011C0C4C201C00220C4B98472068DA
:1020B0000B4B98470B4B1B5C1F21194001231A1C2B
:1020C0008A40111C084A1160617E01220A4362762F
:1020D0002268537310BDC046D00900203D40000067
:1020E000593D0000B0B1000000E100E010B5002053
:1020F000084B9847084CFA218900A047074B186005
:10210000FA218900A047064B18600522054B1A608A
:1021100010BDC046093B0000798600000800002081
:102120000400002010E000E030B5084B1C68084AAD
:1021300000258021490206E0002C04D054609560FF
:1021400013680B42FCD00138F6D230BD08000020E5
:1021500010E000E010B50022002302704270002160
:102160004280017103760262C26182600373C024FF
:102170006401C481037443748374C37403752A2493
:1021800003554375837524240355C2840285C175A4
:102190002B23C1542C23C15410BDC046F0B55F465B
:1021A00056464D464446F0B499B0061C141C0160D6
:1021B000BC4B186A8022520202431A620B78052037
:1021C000DA0700D5F6E10B781C20990700D5F1E17C
:1021D00063783371002B00D0DCE1B34B196C04221F
:1021E0000A431A64D6E1237D002B02D101237377C1
:1021F00001E0002373773268019223786846037206
:102200001E2002A9A94B98471E20A94B98472C23B2
:10221000E35C002B42D02B22A55C217B88464A1927
:10222000D2B2D318DBB299469A4221D2A14A934640
:10223000A14B9A460F272F40237BFF1804A859462D
:102240005022D047132F0CD8BF0004ABF85803A975
:1022500000234B70CB708B7001230B70C0B2974A78
:1022600090470135EDB240464319DBB24B45E1D30F
:10227000E58904A88F4950228F4B9847132D37D8F2
:10228000AD0004ABE85803A900234B70CB708B70F2
:1022900001230B70C0B2894B984729E0257B04A825
:1022A00084495022844B9847132D0CD8AD0004ABC1
:1022B000E85803A900234B70CB708B7001230B707F
:1022C000C0B27E4B9847E58904A87A4950227A4BE0
:1022D0009847132D0CD8AD0004ABE85803A9002390
:1022E0004B70CB708B7001230B70C0B2734B98474F
:1022F000637D9B00DBB201990B70A37DDB016278EB
:102300001343DBB24B702379342B00D940E19B009F
:102310006B4AD3589F460222102501231AE0637CA2
:10232000227C102516E006221025012312E0082247
:10233000102500230EE00022302500230AE00022B1
:102340002025002306E000220025002302E00422CD
:10235000102502231B0170210B401343019A937037
:10236000E37D17203F2B00D924E1D3703268537EE0
:102370005BB2002BFBDBE27C638813432422A25C6C
:10238000D2001343227D92001343A27C52001343D8
:102390002B4301988380237E002B01D1316897E085
:1023A000102D5FD002D8002D3CD0F7E7202D19D09A
:1023B000302DF3D1E27C002A0AD0E2698032172066
:1023C000FF2A00D9F6E0226A8032FF2A00D9F1E024
:1023D0001720E169FF2900DDECE0226AFF2A00DD19
:1023E000E8E0DBE7E27C002A11D0E069802292007D
:1023F00081181720334A914200D9DBE0206A8022FD
:102400009200811817202F4A914200D9D2E017205C
:102410002C4AE169914200DDCCE0216A914200DD65
:10242000C8E0BBE7E27C002A11D0E269802000010D
:1024300011181720244A914200D9BBE0226A80205B
:10244000000111181720204A914200D9B2E017204C
:102450001D4AE169914200DDACE0216A914200DD54
:10246000A8E09BE7E27C002A11D0E269802000020C
:1024700011181720154A914200D99BE0226A80204A
:10248000000211181720114A914200D992E017203A
:102490000E4AE169914200DD8CE0216A914200DD43
:1024A00088E07BE70004004000080040213C000079
:1024B000953B000088B200009D440000FD3C0000F8
:1024C000B4B10000FF030000FF0F0000FFFF000099
:1024D0004A7E52B2002AFBDB019A13723268537EA5
:1024E0005BB2002BFBDBA38B019883833268537EA6
:1024F0005BB2002BFBDB238C01990B842C23E35C68
:10250000002B04D0013BDBB217200F2B52D82B221B
:10251000A25C17200F2A4DD83168487E40B20028AF
:10252000FBDBE089217B0143A068014312050A43DC
:102530001B04134301990B612A23E35C0B750F23E2
:102540008B752423E35C002B10D0E38C17201D4AED
:1025500093422FD88B84238D80200001191889B2D3
:102560001720184A914225D80199CB84164B1A6836
:102570005201E023DB001A40144B586841011B68EC
:10258000DB0E0B43DBB2134301990B85002011E0F6
:1025900017200FE00023B360F3603361B376F37666
:1025A000338333770A4B1E602A23E35C002B00D170
:1025B00019E61EE619B03CBC90469946A246AB46C9
:1025C000F0BDC046FF0F0000246080002060800046
:1025D000A02D002038B52D4B1C6823681D7EEDB260
:1025E000E90735D5E27ED10732D5A27ED1072FD5B6
:1025F00001221A762268537E5BB2002BFBDB6369F3
:10260000991C6161528B92B21A80238B013B9BB261
:102610002383002B11D0637F002B19D023685A7EAF
:1026200052B2002AFBDB197B02220A431A7322688A
:10263000537E5BB2002BFBDB0AE0237F052B07D127
:1026400000232377012322689375201CA3689847F1
:1026500069070BD5042322681376E37E990705D515
:10266000A37E9A0702D5201CE3689847A9070BD5DB
:10267000022322681376E37E590705D5A37E5A0705
:1026800002D52369201C984738BDC046A02D0020E4
:10269000931C9B001950012393401A1C837E1A43FC
:1026A0008276704710B5031C048BA4B20520002C61
:1026B0001DD1187FC0B2052819D0052018771A83BC
:1026C000596101221968CA755A7F0020002A0ED06C
:1026D0001A68517E49B20029FBDB107B02210143BD
:1026E00011731A68537E5BB2002BFBDB002010BD18
:1026F00000B583B001AB80221A700A785A704A780C
:102700009A708A78DA70191C014B984703B000BDA3
:10271000FD3C000010B5031C4908402099420CD331
:102720000024C91A601C80B28B4201D8041CF8E74F
:102730004020FF2C01D81480002010BD00000000B4
:10274000F0B55F4656464D464446F0B487B0061C89
:102750000D1C049210AA1078321C424340248A4275
:1027600000D9B3E0002B4BD10021321C5E4CA047B6
:1027700083462E1C002700200021002200233F2436
:10278000A4460125A846029003916146203903D44E
:1027900040468840814605E0202165464C1B404666
:1027A000E040814641466446A1408A46101C191CFF
:1027B00080185941021C0B1C5D464C46254202D034
:1027C000424602430B1C9F420CD801D1964209D8C5
:1027D000921BBB415046029D28434946039C21431E
:1027E000029003916546013DAC46CED20298039912
:1027F0003C4B3B4A121A8B41120C1B041A4362E0F9
:102800000022012B5FD14F0FB946CD00AB4600210E
:10281000321C0023344CA047061C0F1C002301254A
:10282000029603979A465046C0B20590002188460A
:10283000002200233F24271C203F03D42E1CBE402F
:10284000019604E02020071B291CF94001912E1C51
:10285000A6400096101C191C80185941021C0B1C24
:102860005F463740BC46019E4F463E4067463E436A
:1028700002D02A1C02430B1C039898420BD802D1A9
:102880000299914207D8029E039F921BBB41474683
:1028900000980743B846013CCDD2414652468B1AB8
:1028A000DB08124CA34208D9059A0132D2B2059234
:1028B0000126B2445746082FB5D140240598082870
:1028C00004D042031A43049C22800024201C07B039
:1028D0003CBC90469946A246AB46F0BDC046C046B9
:1028E0000000000001000000C9880000FF1F000078
:1028F00010B582B0041C0F4B1B78002B01D00029AF
:102900000DD001A90C7013200B4B984713200B4BD3
:102910009847084B5C7001221A70002007E0054BB5
:102920005A781D20141B621E94416442204002B05C
:1029300010BDC046E4000020213C0000953B000093
:102940002E4B98421CD003D82D4B984207D04AE01A
:102950002C4B984225D02C4B984233D043E0012990
:1029600043D0002904D0022906D0032906D001E073
:10297000264841E000203FE025483DE025483BE077
:10298000012934D0002904D0022906D0032906D019
:1029900001E0032030E000202EE01F482CE01F481B
:1029A0002AE0012925D0002904D0022906D00329D4
:1029B00006D001E01A481FE000201DE019481BE086
:1029C000194819E0012916D0002904D0022906D09F
:1029D000032906D001E015480EE000200CE0144861
:1029E0000AE0144808E0002006E0134804E0134819
:1029F00002E0134800E013487047C046000C004254
:102A000000080042001000420014004203000400CD
:102A1000030006000300070003001E0003001F0060
:102A20000300080003000A0003000B00030010006D
:102A3000030012000300130003000500030001005F
:102A4000030009000300110070B584B00E4A694606
:102A500070CA70C112680A60031C009A82420FD0CB
:102A6000019C844208D0029D854207D00020039E2D
:102A70009E4207D1032004E0012002E0022000E092
:102A80000020C0B204B070BDD8B20000F0B5474617
:102A900080B488B0051C0C1C161C29600B681C2017
:102AA0009A0700D5DFE00B680520DA0700D5DAE0E9
:102AB000081C6F4B98476F4B196A821C012797407F
:102AC0003A1C0A431A6207A92427F35D0B701430DD
:102AD000C0B28046684B98474046684B9847F05DC7
:102AE0000021674B98473378012B03D122680C23D0
:102AF000134323603378002B00D0B1E02268082311
:102B000013432360ACE0EA18D16004331C2BFAD1E4
:102B10000023EB62AB620024AB862B863623EC5499
:102B20003723EC543823EC5403236B722C71286840
:102B30004F4B9847071C5349534B9847BF00534B83
:102B4000FD502F6802AB80221A705C7001229A70CF
:102B5000DC703378002B02D1002202AB9A70B36A8A
:102B60000393F06A0490326B0592736B0693002412
:102B7000E1B2A30003AA9858002802D1381C444AA5
:102B80009047431C06D06A461072000CC0B202A9DE
:102B9000404B98470134042CEAD133786B71337C75
:102BA000AB71B37CEB71337D2B7200226B46DA8004
:102BB0003378012B14D128682D4B98471430C0B2BC
:102BC000354B9847011CB0696A460632334B98472B
:102BD000031C1720002B46D16B4606331B783B7332
:102BE0003378002B0FD1B169B38B786AF47F24045A
:102BF000B27F224302437A622022B25C002A04D0D0
:102C00004022134301E000230021B26870680243B0
:102C1000F06802430A43317C0B43717C002903D1E5
:102C20001F498978880701D580210A43B17C002992
:102C300002D0802189020B43F17C002902D080213F
:102C400089000B43317D002902D0802189010B438B
:102C500039680A433A607A6813437B60002002E0D7
:102C6000002300214FE708B004BC9046F0BDC046E9
:102C7000492A000000040040213C0000953B000070
:102C8000F1280000F12D0000ED2F0000A82D0020FC
:102C900041290000FD3C00003D3C000015270000DC
:102CA0000020004110B544791523012C6CD1047A21
:102CB0000023002C68D1002A57D04B78002B44D039
:102CC0000268137EDC070FD40B78D9090022002993
:102CD00003D15A09D2012D4952181F210B4001215D
:102CE0009940916105234FE00B78DC090022002C0C
:102CF00003D15A09D201254C12191F242340012463
:102D00009C405461897803681A7ED40700D5996283
:102D1000C2790023002A37D102680421137E0B42B6
:102D2000FCD0117E00234C072ED5538B590703D5B9
:102D3000518B04230B4353838379012B02D1936A74
:102D4000002321E0936A00231EE00B78D9090022BA
:102D5000002903D15A09D2010C4C12191F210B4032
:102D600001219940516100230EE00B78D90900221E
:102D7000002903D15A09D201044952181F210B40DE
:102D80000121994091610023181C10BD00440041AD
:102D9000931C9B00C3185960012393401A1C3623CF
:102DA000C15C0A43C2547047031C1720002A1DD07F
:102DB0003820185CC0B2052818D09A865A86D96285
:102DC00005213822995401225A721A68597900292A
:102DD00002D1022111769175DB79002B03D00523F6
:102DE0009375002002E00123937500207047C046D0
:102DF000F8B580007A4BC45825683623E35C372247
:102E0000A75C1F402B7EAE7D1E40F10741D5637944
:102E1000012B16D1637A002B0FD1724B1B88AB624A
:102E2000638E013B9BB26386638E9BB2002B01D104
:102E300001232B756379012B03D1637A002B05D114
:102E400027E0002B25D1637A002B22D02268E36A89
:102E50001978C9B2581CE062A079012804D15878C9
:102E6000000201430233E362CB05DB0D9362A38EC4
:102E7000013B9BB2A386A38E9BB2002B09D10123F9
:102E80002B75637A012B04D1E379002B01D1022346
:102E9000AB75720761D56B8B590714D5637A012B1B
:102EA0000BD01E223823E2540323637205232B75B3
:102EB0003A0702D5201CA3699847AB6A6A8B0423A2
:102EC00013436B8349E0637A012B16D123689B6A15
:102ED000638E013B9BB26386638E9BB2002B3CD119
:102EE00004232B7500223823E25403236372F9076D
:102EF00033D5201CE26890472FE023689A6AD205F8
:102F0000D20DD3B2A16A0B70A36A591CA162A17938
:102F1000012904D1120A5A70A36A0133A362238ED5
:102F2000013B9BB22386238E9BB2002B15D100223E
:102F30003823E25404232B75637A022B05D17A07D8
:102F40000BD5201C6369984707E0637A002B04D1F6
:102F5000B90702D5201C22699047B30728D56379A9
:102F6000002B10D107232B7502232B7603236372CA
:102F70000023A386238638230022E254F90602D5D3
:102F8000201CE26990476379012B11D1637A012BF0
:102F90000ED1E379002B0BD102232B75032363722F
:102FA00000223823E254FB0702D5201CE168884741
:102FB00032070AD56379002B07D108232B752B76AE
:102FC000BB0602D5201C216A8847F60907D080235A
:102FD0002B752B767A0602D5636A201C9847F8BDBC
:102FE000A82D0020A42D00207047C04630B50B4B03
:102FF0001B78002B0ED10A4C0A4D25600A4B00228B
:103000001A6065605A60A5609A60E560DA60012226
:10301000024B1A708000024BC15030BDE800002006
:10302000EC000020E92F0000A82D002030B583B06F
:10303000051C01AC201C05490422054B9847281C9F
:10304000044B9847205603B030BDC046E8B200009C
:103050009D440000492A000008B5024B1B6800206F
:10306000984708BDEC00002008B5024B5B680120C2
:10307000984708BDEC00002008B5024B9B68022071
:10308000984708BDEC00002008B5024BDB68032020
:10309000984708BDEC0000207047C0460C4B1B68E9
:1030A000002B10D1EFF31083002B09D172B6BFF3C0
:1030B0005F8F0022074B1A700122074B1A7002E043
:1030C0000022054B1A70024B1A6801321A607047D1
:1030D000FC0000200C00002000010020084B1A68B2
:1030E000013A1A601B68002B09D1064B1B78002B94
:1030F00005D00122044B1A70BFF35F8F62B6704790
:10310000FC000020000100200C000020F0B55F460C
:1031100056464D464446F0B493B0051C0C1C161C94
:103120002960081CA94B9847021C23680520D90771
:1031300000D543E123681C209F0700D53EE1A44B46
:10314000186A911C01278F40391C0143196211A98B
:103150002D27F35D0B701432D2B29046101C9D4B9C
:10316000984740469C4B9847F05D00219B4B984701
:10317000F37A6B712423F35CAB712523F35CEB7161
:10318000F37E2B72337F6B7229688846081C8F4B45
:103190009847143000226B46DA85328A03928023E6
:1031A000DB019A4221D08023DB019A4204D880239C
:1031B0009B019A4211D008E0C023DB01039F9F428C
:1031C0000FD080231B029F4203D0102708970027AF
:1031D0000EE00327089700270AE010270897012729
:1031E00006E008270897012702E00827089700272C
:1031F00031680491F268059273690693317E8A46BC
:103200002623F35C9B4672689146002A13D08023E4
:103210005B059A422ED12723F35C002B2ED1376A0F
:10322000C0B26F4B9847011C381C6A462E326D4B5A
:103230009847031C1FE02723F35C002B0AD0089952
:103240000091306AB16A6A462E323B1C664FB8471D
:10325000031C10E0316A0991C0B2614B9847011C10
:10326000089A009209986A462E323B1C5E4FB84776
:10327000031C00E00023181E00D09FE0737E002B8B
:1032800002D0B37E41468B732A68039FD369002B1B
:10329000FCD103976B462E331B8842469381059BD6
:1032A000049F3B43069F3B4349460B43039F1F43F9
:1032B000524613021F4359464B071F432723F35C13
:1032C000002B01D104231F43317F4902737E9B02EF
:1032D0001943737F1B0219432423F35C5B041943D6
:1032E0002523F35C1B041943F37A19433389FF2B1D
:1032F00004D0802252041743194305E0F37E002BCB
:1033000002D08023DB041F432C23F35C002B03D16A
:10331000364B9B789A0701D580231F432A68D369CF
:10332000002BFCD1434659602A68D369002BFCD19D
:1033300041460F6010AB80221A7000225A70DA707A
:103340009A70326B0C92736B0D93B76B0E97F66B92
:103350000F96002710AEF9B2BB000CAA98580028AF
:1033600002D1201C224A9047431C05D03070000C2B
:10337000C0B2311C1F4A90470137042FEBD1002304
:10338000EB602B616B61AB61EB612B62AB626B62DB
:103390000022EB85AB853023EA543123EA543223F3
:1033A000EA543323EA542868084B9847041C12490E
:1033B000124B9847A400124BE550002013B03CBCC0
:1033C00090469946A246AB46F0BDC046492A000049
:1033D00000040040213C0000953B0000F128000063
:1033E0003D3C00001527000041270000002000415F
:1033F00041290000FD3C000031350000ED2F0000A8
:10340000A82D002010B5021C0368C4791C20002CD4
:103410000DD0D28D92B20520002A08D1DA69002A97
:10342000FCD1198502211A7E0A42FCD0002010BD71
:1034300010B5031C046882791C20002A33D09B8DB0
:103440009BB20520002B2ED1237E5A072BD5E36992
:10345000002BFCD1638BDBB29A0621D09A0703D5EF
:10346000022363831A201EE05A0703D504236383D3
:103470001E2018E0DA0703D501236383132012E02E
:10348000DA0605D5628B10231343638342200AE0DA
:103490009A0605D5628B202313436383412002E003
:1034A000238D0B80002010BDF8B5041C0E1C171CCA
:1034B00005680F4B9847A38D9BB2002B03D00D4B93
:1034C0009847052013E0A7850A4B984766620522B6
:1034D0003223E2540423AB75237A002B01D020233E
:1034E000AB75637A0020002B01D00823AB75F8BDC3
:1034F0009D300000DD300000931C9B00C318596014
:10350000012393401A1C3023C15C0A43C254704704
:1035100010B51723002A06D084791C23002C02D072
:10352000024B9847031C181C10BDC046A93400006C
:10353000F8B58000644BC5582C68E369002BFCD1BA
:10354000237EA67D1E403123EB5C3022AF5C1F4002
:10355000F10720D5EB8D9BB2002B1AD0AB6A1A78FD
:10356000D2B2591CA9626979012904D1597809029A
:103570000A430233AB62D305DB0D2385EB8D013BA0
:103580009BB2EB85002B06D1012323750223A37583
:1035900001E001232375B20709D502232375002218
:1035A0003323EA54FB0702D5281CE96888477207D1
:1035B0006AD5AB8D9BB2002B64D0638BDBB219074D
:1035C00002D43F22134001E037221340002B37D0B2
:1035D0009A0707D51A223223EA54628B0223134337
:1035E000638327E0590707D51E223223EA54628BF2
:1035F0000423134363831DE0DA0707D51322322324
:10360000EA54628B01231343638313E0D90607D581
:1036100042223223EA54628B10231343638309E06E
:1036200020221A4206D041223223EA54628B202300
:10363000134363837A0727D5281C6B69984723E0D7
:10364000228DD205D20DD3B2696A0B706B6A591CF8
:1036500069626979012904D1120A5A706B6A0133CF
:103660006B62AB8D013B9BB2AB85002B0CD104236D
:10367000237500223223EA54BA0705D5281C2B698A
:10368000984701E004232375F10607D5102323751D
:103690002376FA0602D5281CEB699847B10607D5B0
:1036A0002023237523763A0702D5281CAB69984757
:1036B000310707D5082323752376BA0602D52B6A6E
:1036C000281C9847F8BDC046A82D002008B508283A
:1036D00034D880001B4B1B589F468020000230E0EE
:1036E000194B18692DE0194B186A8005800F184B8B
:1036F000C340181C25E0144B586922E0124B1B688C
:10370000022018401DD011491022CB681A42FCD06B
:103710000D4B1B685A0713D500200E4B98470A4BD8
:103720009B681B041B0C58430BE05023074AD35CD7
:1037300000205A0705D5044BD86802E0002000E0BD
:10374000054808BDECB2000004010020000800405C
:1037500000127A003D3C0000006CDC0270B50C4B9E
:103760001C6A01788578407801221040800140264B
:10377000B44304432A40D00180229443221C0243D4
:10378000032001400902034802400A431A6270BD47
:1037900000080040FFFCFFFF10B5027A9206120CF1
:1037A00043899B059B0D1A43184B5A6081884288B8
:1037B0001143C479827922430A434178C9010A43FB
:1037C0001A600378042B0FD1027B9206038A1A43F6
:1037D000C3891B040E490B401A430C4B9A601968AD
:1037E00004220A431A6010E0202B0ED1027B9206BD
:1037F000038A1A43C3891B0405490B401A43034B30
:103800009A601A6803490A431A6010BD0401002037
:103810000000FF0324040000082849D88000254B3D
:103820001B589F46002044E0234B196A02220A439A
:103830001A6200203DE0204B996902220A439A61F6
:10384000002036E01C4B198A02220A431A8200200B
:103850002FE0194B998A02220A439A82002028E01D
:10386000164A1168022319431160134A9384111CEC
:103870001022CB681A42FCD0104A91680E4BD962D4
:1038800052689A6200229A84191C1022CB681A424C
:10389000FCD00A4B1A6892B2074B9A84002008E0C9
:1038A000054A4423D05C02210143D154002000E0AA
:1038B0001720704710B300000008004004010020EA
:1038C000F0B54F464646C0B48BB0C222D2003C4B46
:1038D0009A603C4B5A681E218A4302210A435A606F
:1038E000012201AB1A700024374DE0B201A9A847AC
:1038F0000134252CF9D105AB002119700022598023
:1039000099809A71DA713F215981062119825A7082
:103910002E4B1B689B0E3F2B00D11F2305A8037263
:10392000072303733F23C381294B984704A800252D
:1039300045700123994683700570264B98470620F1
:10394000254EB047254B984701AC657025726572CE
:1039500004232370202302930220211C204B98462D
:10396000984702201F4FB8474B4663606570062397
:103970002370257265720320211CC0470320B847BD
:103980000720B0470E491022CB681A42FCD0164AD5
:103990000023137253729372D37201A901224A60F9
:1039A0004B7006220A700B724B7200200C4B98472A
:1039B00000200C4B98470BB00CBC90469946F0BDCC
:1039C0000008004000400041213C000024608000CD
:1039D000993700005D37000019380000ED3900000C
:1039E000113A0000C53A000000040040064B9969F6
:1039F00008220A439A610122044B1A70191C0B78A1
:103A00001342FCD17047C04600040040000C004047
:103A1000F8B5061C071C0D782D0205434B78002BCA
:103A200002D08023DB021D434B7A002B02D080237F
:103A30001B031D434C68012C17D9631E1C420FD178
:103A4000022C06D90223002201325B009C42FBD8E3
:103A500000E000221702374380235B031D4304E08C
:103A60002702374380239B021D430B7A002B02D091
:103A700080239B031D430F4A53785BB2002BFBDB73
:103A80000D4B98470D4B1E700A4A53785BB2002BC2
:103A9000FBDB084B9F601A1C53785BB2002BFBDBEF
:103AA000044B5968802252020A4015435D60044B62
:103AB0009847F8BD000C00409D300000080C004005
:103AC000DD30000010B5041C0B4A53785BB2002BAC
:103AD000FBDB0A4B98470A4B1C70074A53785BB2D2
:103AE000002BFBDB044B5968802252020A435A60C8
:103AF000044B984710BDC046000C00409D300000AC
:103B0000040C0040DD30000070B5041C1A4A5378E4
:103B10005BB2002BFBDB194B9847194B1C70164A04
:103B200053785BB2002BFBDB134E7068C004C00EF1
:103B3000144B9847051C124B1C707668F602F60F62
:103B4000114B1C700C4A53785BB2002BFBDB0A4B09
:103B50009C68240AA4B20D4B9847002E07D1012C73
:103B600007D9281C211C0A4B9847051C01E0013489
:103B7000E540281C70BDC046000C00409D30000090
:103B8000040C0040CD360000080C0040DD30000081
:103B90007986000010B5041C064B9847064B1C7034
:103BA000064B59888022D2010A435A80044B984719
:103BB00010BDC0469D300000020C0040000C0040CB
:103BC000DD30000010B5041C0F4B98470F4B1C70E4
:103BD0000F4B58880005000F59880E4A0A405A803A
:103BE00059880D4A0A405A80191C8022D2014B88FC
:103BF0001342FCD1064B01025888064A02400A4390
:103C00005A80064B984710BD9D300000020C0040C2
:103C1000000C0040FFF0FFFFFFBFFFFFDD300000A2
:103C200010B50C7824020443024B9847A4B2024B0F
:103C30005C8010BDC53B0000000C004010B5041CAA
:103C4000064B9847064B1C70064B5C882405240FD6
:103C5000054B9847201C054B984710BD9D30000030
:103C6000020C0040000C0040DD300000093B000069
:103C700030B5D378002B1ED11378802B04D01B06CF
:103C800080246402234300E0002354780225AC43DF
:103C90000AD19478002C03D18024A402234302E0AB
:103CA000C024E402234341605478013C012C04D831
:103CB000114C234001E0416000230D042D0CA02491
:103CC000E4052C431C4384620D0CD02424062C43B1
:103CD0001C438462D478002C0CD15C0305D5937806
:103CE000012B01D1816100E041615378013B012B3F
:103CF00000D8816030BDC046FFFFFBFF08B5031C44
:103D00000A1CC1090020002903D15809C001044937
:103D100040181F210B4001219940024B984708BDD4
:103D200000440041713C00007047C04608B5054B97
:103D30009847054B9847054B9847054B9847054BC7
:103D4000984708BDC138000099300000293D0000A7
:103D5000A9020000293D000070B584B0011C01AB30
:103D60000A4A70CA70C3019B83420AD0029C8442F3
:103D700005D00020039D8D4205D1022002E00120E4
:103D800000E00020C0B204B070BDC04634B30000F3
:103D9000F0B54F464646C0B487B0041C0D1C904693
:103DA000081C904B984781468F4F391C0C3105A851
:103DB00003228E4EB047391C103103A80622B047AB
:103DC0000023A360E3602361636123766376484642
:103DD0008200874BD450256041468B78082B04D154
:103DE00017204A46D20700D4F6E023712B8805201D
:103DF000D90700D5F0E0EB7B1C20DA0600D5EBE01C
:103E00002B88990700D5E7E04246137C002B0CD0A5
:103E100002A901238B700022CA7040468069087095
:103E20004B704246107D734B98474046037F002BF2
:103E30000BD002A901238B700022CA70426A0A705B
:103E40004B70036AD8B26B4B98476B4B196A484664
:103E5000420003A8125A0A431A6241468B78082B83
:103E600008D1654B1A6A48460130400003A9415AFF
:103E70000A431A6201A9424613780B7005AB484603
:103E80001E5C301C5D4B9847301C5D4B984741468B
:103E900088880B89034388798A78104318434B78C4
:103EA000002B02D080231B01184321687F22CB7B8B
:103EB0009343FCD128804246507B431E98418000AA
:103EC000937B002B01D00123184321687F22CB7BF9
:103ED0009343FCD1FF232B71002805D021687F225A
:103EE000CB7B9343FCD168714346987ADB7A002BF5
:103EF00001D01023184341460B7B002B01D0202317
:103F0000184321687F22CB7B9343FCD1A8712268A0
:103F10007F21D37B8B43FCD12379042B05D0082B45
:103F200041D01720002B57D124E07F21D37B8B4336
:103F3000FCD128234246D35C2B7421687F22CB7BA3
:103F40009343FCD129234046C35C2B7521687F2213
:103F5000CB7B9343FCD12A234146CB5C2B76216853
:103F60007F22CB7B9343FCD12B234246D35C6B76E1
:103F7000002031E07F21D37B8B43FCD14046038D71
:103F80002B8221687F22CB7B9343FCD141464B8D12
:103F90002B8321687F22CB7B9343FCD14246938DB8
:103FA0006B83002018E07F21D37B8B43FCD14346F9
:103FB0009B6A2B6121687F22CB7B9343FCD14046D7
:103FC000C06AA86121687F22CB7B9343FCD1414624
:103FD0000B6BEB610020FFE707B00CBC90469946E5
:103FE000F0BDC046593D000034B300009D440000C0
:103FF000B82D0020FD3C000000040040213C0000E2
:10400000953B000010B502687F24D37BA343FCD10D
:104010000379042B05D0082B0BD01720002B0BD1D4
:1040200003E0C9B21175002006E089B211830020B7
:1040300002E091610020FFE710BDC046931C9B0089
:104040001950022A04D1027E1023134303760CE098
:10405000032A04D1027E20231343037605E00123C3
:1040600093401A1C037E1A43027600207047C04614
:1040700038B58000144BC4582268957B237E1D40C0
:10408000637E1D40EB0705D5201CA26890470123E5
:1040900022689373AB0705D5201CE2689047022382
:1040A00022689373EB0605D5201C226990471023E4
:1040B00022689373AB0605D5201C6269904723687C
:1040C00020229A7338BDC046B82D002008B50020C4
:1040D000014B984708BDC0467140000008B501205B
:1040E000014B984708BDC0467140000008B502204A
:1040F000014B984708BDC046714000007047C0465C
:1041000070B52C4B2C4A9A4203D02C4B294A9A4228
:1041100004D32B4B2B4A9A4210D31BE02A4B27483F
:104120000330C01A80080130800000232149224A50
:10413000D458CC5004338342FAD1EAE7214B1A1DFC
:104140001F490331891A890889005218002102C3C6
:104150009342FCD11D4BFF211D4A8A439A600221E4
:1041600090235B001B4AD1501B4BD8780321884316
:1041700002221043D870DD780C24A54308200543A3
:10418000DD70164B9E7B3025AE43202535439D7355
:104190009D7BA54328439873987B884302439A7379
:1041A0000F4B596880220A435A600E4B98470E4BBA
:1041B0009847FEE70000002044B70000B000002050
:1041C000D42D0020B00000200400002000ED00E00D
:1041D0000000000000700041005000410048004114
:1041E000004000415144000025430000F0B547461F
:1041F00080B40C1C904600280CD1002A0DDD8F18CD
:10420000094E0A4D3068211C2B6898470134BC4286
:10421000F8D104E00120404202E0002000E04046E6
:1042200004BC9046F0BDC046CC2D0020C42D00201B
:10423000F0B5474680B40E1C151C0138022810D872
:10424000002A11D000240D4B98460D4F43461868A4
:10425000315D3B689847002808DB0134A542F5D161
:1042600007E00120404205E0002003E00120404239
:1042700000E0201C04BC9046F0BDC046CC2D0020C0
:10428000C82D0020064B1B68002B02D1054A044BA9
:104290001A60034A136818181060181C7047C0464B
:1042A0001C010020D84D0020012040427047C0462C
:1042B00080239B014B6000207047C046012070475F
:1042C00000207047014B18807047C0462C05002025
:1042D000014B58807047C0462C050020014B988048
:1042E0007047C0462C05002010B5074B9847074B78
:1042F0001B78002B06D0064B186859689A68DB6853
:10430000044CA04710BDC046FD0B0000710A002000
:10431000F00A00202114000008B5014B984708BDA1
:104320002D0C000070B586B0184B9847184B984775
:10433000184B98471848194B984700230393049348
:104340000593174B0093174B0193174B02930320D0
:104350006946164B9847164B9847164B9847164B8D
:10436000984701201549164CA04796204000154952
:10437000A047154D154E164C8123EB5C012B00D147
:10438000B047A047134B9847F6E7C0462D3D0000C5
:10439000ED2000009120000019430000A120000042
:1043A000DD420000D1420000C5420000850100004E
:1043B000010C0000B519000065120000E942000080
:1043C00081120000D5070000640B0020511400008A
:1043D000ED0A0000690C00000B1C011C021C30B52A
:1043E00019430220002900D130BD802109068B42EB
:1043F00016D00D4904205C180C498C42F4D90C4DA0
:104400005C198C42F0D90B4C590049080320A14299
:10441000EAD9074C0020A142E6D150425041E3E7DF
:10442000002AE1D0EFE7C0460000F0FFFFFFDF7F8A
:104430000000F07FFFFF0F0008B5002100F098FF9B
:1044400008BD08B500210A2201F028F808BD0000C7
:1044500070B50E4B0E4D0024ED1AAD101E1CAC4273
:1044600004D0A300F35898470134F8E707F05AF94D
:10447000084B094D0024ED1AAD101E1CAC4204D0AF
:10448000A300F35898470134F8E770BD30B7000037
:1044900030B7000030B7000034B7000010B500237B
:1044A000934203D0CC5CC4540133F9E710BD031C24
:1044B0008218934202D019700133FAE77047000066
:1044C0000FB40B4B13B51C68002C05D0A369002B4F
:1044D00002D1201C02F002FF05ABA168201C049A47
:1044E000019301F061F916BC08BC04B01847C0463E
:1044F0007000002008B54A424A4180235200DB0088
:1045000000F002F808BD0000F7B51E1C3C4B041C6F
:104510001D680F1C0192002D05D0AA69002A02D146
:10452000281C02F0DBFE374B9C4201D16C6808E08E
:10453000354B9C4201D1AC6803E0344B9C4200D126
:10454000EC68019B022B57D8002E55DB281C211C40
:1045500002F044FE00236360A361A3891A0603D519
:10456000281C216903F0CCFEA38983229343A381F5
:10457000019B022B13D0002F25D1002E01D18026C4
:10458000F600301C03F082FA071E18D18020C0000C
:1045900003F07CFA071E10D10120404200E0002009
:1045A000A38902221343A3810023A360231C473362
:1045B000236023610123636120E08026F600A38944
:1045C00080221343A381019A012A04D1A3891343B2
:1045D000A3817342A3610E4B0020AB62A3892760C5
:1045E000276166611A0709D5032213405A425341D5
:1045F0005B421E40A66001E001204042FEBDC04675
:1046000070000020FCB400001CB500003CB50000A8
:10461000357200000EB400B59CB01DAB04CB8222F5
:1046200002A992008A810A4A02908A604A610122A4
:104630005242CA81074A086110681D9A019300F02E
:104640009BFF029A002313701CB008BC03B01847EC
:10465000FFFFFF7F70000020C9B20378002B03D05A
:104660008B4204D00130F8E7002900D0181C7047B5
:1046700002780B7801300131002A01D09A42F7D03C
:10468000D01A7047031C0A7801311A700133002ACE
:10469000F9D170470023C25C0133002AFBD1581EB8
:1046A000704730B5031C002A07D00C7801335D1E1B
:1046B000013A2C700131002CF5D19A18934203D0A5
:1046C000002119700133F9E730BD30B502680C786C
:1046D0000132002C0AD013781D1C413D192D00D841
:1046E00020330131A342F2D0002001E0026001201A
:1046F00030BD000070B5161C0D1C03F0CBFC002E65
:104700000BD06B005B0D6B22D31A002B05DD034D24
:104710001C056319002205F099FC70BD0000F03FF4
:10472000F0B5BE4FBC4EA1B0002308900A9119927B
:104730001C931B911B9A13780D2B05D8092B15D2AE
:10474000002B00D1C1E114E02B2B07D02D2B02D080
:10475000202B0ED10AE00124169401E000251695C5
:10476000531C1B935378002B05D1AEE101321B92F1
:10477000E0E7002416941B9D00242B780D94302B29
:104780005AD16B78582B01D0782B49D1169C1CAB91
:104790000093019408981BA9A14A1DAB02F059FE91
:1047A00007240790044001D100F0B0FD062C02D18F
:1047B00001351B958BE11C9A002A07D01EA83521D4
:1047C00003F058FD08981C9903F0C6F91D9B062CB0
:1047D0001CD8201C03F046FF040A0714170A040023
:1047E00000273E1C12E01E9E1F9F0FE08D488E4A40
:1047F0001B181F991B050A401F1C1E9E174305E02E
:104800008A4F002602E00123894F5E42079C24075D
:1048100001D400F07BFD80231B061F4300F076FDD2
:104820001B9B5A1C1B925B78302BF9D0002B01D1BB
:1048300000F06CFD01250D951B9C002510940B9537
:104840000E9509951B9C25782B1C303BDAB2092A62
:1048500012D8099D0A22082D04DC0E9D6A439B187C
:104860000E9303E00B9D6A439B180B93099D013443
:10487000013509951B94E5E7089803F0B3F8006843
:104880000790089803F0AEF80068FFF703FF079958
:10489000021C201C03F054FE041E06D0099C0020BC
:1048A0002B1C079484460C9063E008981B9D03F032
:1048B00099F80068FFF7EEFE2D181B952B78099DDF
:1048C000281E48D1302B05D11B9B01305A1C1B924E
:1048D0005B78F7E71A1C313A082A45D81B9C8446B6
:1048E000002010940790303B421C002B2DD00799DC
:1048F0009444079D01314C1B94420EDA4C1E082C47
:1049000004DC0E9D0A2465430E95F2E71029F0DCC5
:104910000B9D0A2465430B95EBE7C243D217104069
:104920002818441C0794082806DC0E9D0A226A43B6
:10493000D2180E92002208E0079C0022102C04DC02
:104940000B9D0A216943C9180B911B9B101C591C14
:104950001B915B7803E0099D201C0795A4461A1C57
:10496000303A092ABFD902E000240794A446012165
:104970000C912022191C9143002245295FD1079BED
:104980000D9C03432343934200D19EE01B9D2B1CAF
:1049900001331B936B780A952B2B03D02D2B03D05F
:1049A000119208E0119201E0012111910A9B0A9CE9
:1049B00002331B93A3781A1C303A092A3CD8302BB7
:1049C00004D11B9B5A1C1B925B78F8E71C1C313CE2
:1049D0000022082C33D81D1C1B99303D1B9B5A1CF0
:1049E0001B925B781C1C303C092C04D80A225543CE
:1049F000ED18303DF2E7521A0F920E4C0F99221C1F
:104A0000082903DC2A1EA24200DD221C119C002C76
:104A100015D0524213E0C046000000000000000024
:104A200080B3000033040000FFFFEFFF0000F07FC1
:104A3000FFFFFF7F1F4E00000A9D00221B95079C71
:104A4000002C48D10D9D284301D000F05FFC0C984C
:104A500000283AD14E2B1CD002DC492B05D034E083
:104A6000692B02D06E2B14D02FE01BA8A849FFF7AA
:104A70002CFE002829D01B9B1BA8013BA5491B939A
:104A8000FFF723FE002802D11B9B01331B93A24F8B
:104A900018E01BA8A149FFF718FE002815D01B99A4
:104AA0000B78282B0DD11BA89D491EAA02F001FFEF
:104AB000052806D1984A1F9B171C1F431E9E00F015
:104AC00025FC984F002600F021FC0A9C1B94002531
:104AD000169500F01BFC6446099D141B0A94002DDA
:104AE00001D1079C0994079C102C00DD10240E981E
:104AF00006F0E2F8061C0F1C092C15DD231C8A4A5F
:104B0000093BDB00D3181A685B6805F09FFA061CA6
:104B10000B980F1C06F0D0F8021C0B1C301C391C23
:104B200004F008FB061C0F1C079D0F2D3ADC0A9DA4
:104B3000002D01D100F0EAFB26DD162D07DC7A4BB3
:104B4000EA009A18106851683B1C321C17E0079D58
:104B500025235B1B0A9D9D4224DC079C0F22151B0D
:104B6000714CEB00E31818685968321C3B1C05F0C7
:104B70006DFA0A9A571BFF00E4192268636805F072
:104B800065FA061C0F1CC1E30A9D16350ADB0A9C58
:104B9000654BE2009A1A301C391C5368126804F005
:104BA000EBFDEEE7079D2C1B0A9D2C19002C56DD12
:104BB0000F2323400AD05C4ADB00D31818685968D9
:104BC000321C3B1C05F042FA061C0F1C0F239C43B1
:104BD00000D1B7E09A235B009C420EDD00240794CD
:104BE000099410940E94089D109C222300262B609B
:104BF000494FB44200D075E388E32411301C391CBE
:104C00000025012C0BDDE20706D5484BEA00D3183E
:104C10001A685B6805F01AFA01356410F1E7444B35
:104C2000ED00CF18414B061C5D19321C3B1C286857
:104C3000696805F00BFA384B0F1C0B403D49061C08
:104C40008B42CBD83C498B4203D901233B4F5E4278
:104C500002E0D425AD047F1900240B9474E0002CED
:104C600070D064420F2323400AD02F4ADB00D318B0
:104C7000301C391C1A685B6804F07EFD061C0F1C92
:104C800024115FD01F2C05DD00250795099510958F
:104C90000E9521E1E3066A25DB171D400B95284D93
:104CA000301C391C002C08DDE20703D52A686B682C
:104CB00005F0CCF964100835F4E70B9C061C0F1CBA
:104CC000002C17D04B005B0D6B21CB1A002B11DD94
:104CD0001F2B0BDD0026342B02DDDC239F0409E0B3
:104CE0000121203B494299400F4003E001225242FA
:104CF0009A401640301C391C044B034A03F07CFDDB
:104D00000028C1D120E0C0460000000000000000E3
:104D1000BEB30000F1B400000000F07FC6B3000095
:104D200094B300000000F8FF68B5000030B6000042
:104D30000000B0FC0000A07C0000907CFFFFEF7F33
:104D400058B3000000250B950E9C0898009410990C
:104D5000099A079B02F057FF1090002800D13DE709
:104D60000A9D00246B42EA17134017930794099495
:104D7000109D08986D68291C069502F0B5FE0E90EE
:104D8000002800D12FE71098109900690C31021CFF
:104D90000E98023292000C30FFF780FB1DAB00939F
:104DA0001EAB01930898321C3B1C1296139703F01C
:104DB000E5F91C90002800D115E70898012102F0C0
:104DC000ABFF0990002800D10DE70A9D00240D9447
:104DD000AC4200DA0D951D9B002B00DA86E0179D92
:104DE0000D99EC180B9D1E985B1B36251A182D1A71
:104DF000C7480123824200DB82E0801A2D1A1F2857
:104E000078DC83400020189311900B9863194D199A
:104E10000C932D18A34200DD231CAB4200DD2B1C9C
:104E2000002B04DD0C99ED1AC91A0C91E41A179A9B
:104E3000002A69D10C9800287EDC0D99002900D049
:104E400084E0002D00DD8BE0002C00DD92E008986E
:104E50001C990E9A03F0B7F80790002800D1C2E61B
:104E6000C4680025C56009990F9403F091F8A84221
:104E700000DB8EE0AC4200D01FE2AE4200D01CE26C
:104E80003B03AB4200D018E2A24AD6233A40DB04EF
:104E90009A4200D811E207984069A84274D0079955
:104EA0000898012203F022F80999079003F070F89E
:104EB000002800DC01E20B9C964B002C00D199E00D
:104EC0001A1CD6213A40C9048A4200D992E0DC2358
:104ED0009B049A4200D9F3E1089D109C2223834F42
:104EE000814E2B60002C00D0FCE10FE20D9CE11AFA
:104EF000179C77E78848821A181C9040119001E0AF
:104F000000221192189380E70898099902F09CFFFB
:104F10000990002800D166E6089809991C9A02F0C9
:104F200004FF0F90002800D15DE608981C9902F05C
:104F300013FE0F9B1C937DE708981C990C9A02F0B6
:104F4000D5FF1C90002800D077E74CE608980E9912
:104F50000D9A02F079FF0E90002800D071E742E62A
:104F600008980E992A1C02F0C1FF0E90002800D06C
:104F70006AE738E608980999221C02F0B7FF099001
:104F8000002800D063E72EE607990969012986DC2D
:104F900093E1002865D10F9C3A03002C25D05F498E
:104FA0003B1C120B8A422ED101210B9D4942301C21
:104FB0000A1C002D0AD0574CD4253C40ED04AC42CD
:104FC00004D8240D6B22121B91400A1C90421AD166
:104FD000534A934202D1013000D104E64D4A802069
:104FE000134040031F18002667E1002A0BD1002E52
:104FF00009D160E74B4D494A3B405B19171C1F43E1
:1050000001235E4259E1119C002C03D03C4200D1A7
:1050100053E103E0189D354200D14EE10F9C301C56
:10502000391C0B9A002C0AD0FFF764FB021C0B1CE6
:105030001298139904F07EF8061C0F1C3DE1FFF74F
:1050400059FB021C0B1C1298139905F08FFA274B81
:10505000254A061C0F1C03F0CFFB002800D03BE7BD
:105060002BE10798099903F0E1F8214A214B041C30
:105070000D1C03F0D1FB00285AD00F98002806D051
:10508000294A00211C4C1D4D0C910D9261E0002E0F
:1050900002D13B0305D10BE0012E02D1002F00D13C
:1050A0001AE721480023164C164D0C930D9050E042
:1050B000201C291C104A114B03F0A4FB002808D126
:1050C000201C291C104A114B04F0C0FF0C900D91BC
:1050D00003E00F9C154D0C940D950D988021090649
:1050E0000C9C451835E0C0460000000000000000A0
:1050F0000000000000000040000000000000F03F41
:10510000000000000000F0BF000000000000E03FD1
:1051100003FCFFFF0000F07FE3FBFFFFFFFF0F003A
:10512000FFFFEF7F0000F0FF0000F03F0000E03FD6
:10513000201C804B7E4A291C04F088FF0F9C0C9099
:105140000D910B1C002C02D180252D064B190C9CB7
:105150001D1C8148814B3840119098422BD11299E7
:10516000139A149115927E4A301CBF18391C02F014
:1051700091FF021C0B1C201C291C04F067FF021C61
:105180000B1C301C391C03F0D5FF734A754B061CF1
:105190000A409A420BD9744B159C9C4203D1149D32
:1051A000013500D11FE501236F4F5E4274E0D4202A
:1051B00080040F183AE00B99002925D0119AD423C6
:1051C000DB049A4220D80C980D995B4A5B4B03F0A4
:1051D00023FB002813D00C980D9903F0B1FB002895
:1051E00000D1012005F068FD0F9C0C900D910B1C67
:1051F000002C02D180252D064B190C9C1D1CD6209D
:10520000C00411992B185D1A1298139902F042FFED
:10521000021C0B1C201C291C04F018FF021C0B1C78
:105220001298139903F086FF061C0F1C0B9C129713
:10523000002C31D1484B119D3B409D422CD10D9902
:105240000C9805F0C7FC05F0F9FC021C0B1C0C982F
:105250000D9905F08BF9041C0F980D1C002804D142
:10526000002E02D112990B030ED0201C291C344AA7
:10527000344B03F0C7FA002834D1201C291C324AD1
:10528000324B03F0D3FA05E0201C291C304A314B85
:1052900003F0B8FA002825D108981C9902F05CFCAC
:1052A00008980E9902F058FC0898099902F054FCED
:1052B0000898079902F050FC5AE50B9C002C11D07D
:1052C0002A4D002014901595301C391C149A159BFA
:1052D00004F0BCFE061C0F1C04D1002802D1089C5F
:1052E0002223236008981C9902F036FC08980E9936
:1052F00002F032FC0898099902F02EFC08981099E7
:1053000002F02AFC0898079902F026FC199D002D4E
:1053100001D01B982860169C321C3B1C002C02D02C
:1053200080252D067B19101C191C21B0F0BDC0462C
:10533000000000000000E03F0000C0FFFFFFDF4171
:105340009535A094FFFFDF3F35E5AF350000E03F26
:105350009535A094FFFFCF3F0000F07F0000E07F75
:105360000000B0FCFFFF9F7CFFFFEF7F0000503983
:1053700008B50A1C0349031C0868191CFFF7D0F97B
:1053800008BDC04670000020F0B51D1C424B87B020
:105390001B6805900293039101920B1C1C78029FDD
:1053A0005E1C3A19517808220A4001D0331CF5E7F7
:1053B0002D2C04D101279E1C5C78009704E00092FC
:1053C0002B2C01D15C789E1C10232A1C9A4311D1EE
:1053D000302C08D1327820218A43582A07D174789A
:1053E0001D1C023606E0002D04D10A2502E0002D26
:1053F00000D10825009F291C7B427B4180273F0666
:10540000FF1A381C03F07CF9381C0491291C03F0A6
:1054100033F90023021C181C029F391949784F07E1
:1054200001D5303C07E003270F4017D05721012F4B
:1054300000D13721641AAC4210DA591C0BD09042CB
:1054400007D802D1049FBC4203DC68430123201823
:1054500001E001235B4234780136DDE7009F591CEF
:105460000BD180207B427B410006059FC01A22237E
:105470003B60019F002F09D10BE0002F00D040427C
:10548000019F002F05D0039A002B00D0721E019FB0
:105490003A6007B0F0BDC0467400002038B5131C58
:1054A000044A051C0C1C1068291C221CFFF76CFF09
:1054B00038BDC04670000020F0B58D6885B0071C6F
:1054C0000C1C03920193AB4245D390228B89D200EE
:1054D00013423DD062690326564309692068F20FE2
:1054E000401A96190290021C019801321218761087
:1054F000964200D2161C381C5A050FD5311C02F0FA
:1055000047FF051E13D0029A2169FEF7C7FFA28943
:10551000184B134080221343A38111E0321C02F088
:105520008BFF051E0CD1381C216902F0E9FE0C230B
:105530003B60A389402213430120A381404217E02E
:10554000029B2561ED1825606661019DF61AA66033
:105550000198A84200D2019D2A1C2068039902F0FC
:10556000AAFAA2680020531BA36023685D19256076
:1055700005B0F0BD7FFBFFFFF0B59FB00390059332
:105580008B890E1C171C19060FD53269002A0CD105
:10559000402102F0FDFE30603061002803D1039904
:1055A0000C230B60C9E04023736106AD00236B61DF
:1055B00020236B763023AB763C1C2378002B03D161
:1055C000E21B029211D003E0252BF9D00134F4E75D
:1055D0000398311C3A1C029BFFF76EFF013000D18B
:1055E000A6E06969029A8B186B612378002B00D1C1
:1055F0009EE0012252426A606A4600235B32013417
:105600002B60EB60AB601370AB654E4F2178381C9C
:10561000052202F045FA002807D0C71B2B6801209D
:10562000B840184328600134EFE72B68D90603D54A
:105630006A4620215B3211701A0703D56A462B2176
:105640005B32117022782A2A01D0099B0EE0059A5C
:10565000111D12680591002A01DB099204E05242F3
:10566000EA60022213432B60013409E02278303AC9
:10567000092A04D80A214B4301349B18F6E7099301
:1056800023782E2B18D163782A2B09D1059B02345D
:105690001A1D1B680592002B0DDA01235B420AE0FC
:1056A000013400232278303A092A04D80A214B43D6
:1056B00001349B18F6E70793234F2178381C032207
:1056C00002F0EEF9002806D0C71B2B684020B84036
:1056D00018432860013421781C480622671C29766B
:1056E00002F0DEF9002812D0194B002B06D1059BE1
:1056F0000722073393430833059314E005AB009367
:105700000398291C321C134B00F0F6F907E005AB97
:1057100000930398291C321C0E4B00F08DFC049062
:105720000499013104D06A69049953186B6143E705
:10573000B3895A0601D40B9801E0012040421FB002
:10574000F0BDC046A8B30000AEB30000B2B3000085
:10575000F95A0000B9540000936810B5013B9360FA
:10576000002B05DA9469A34208DBCBB20A2B05D0E3
:105770001368581C10601970C8B201E000F072FD87
:1057800010BDF8B5061C0F1C141CD518AC4208D06F
:105790002178301C3A1CFFF7DFFF0134431CF5D1A0
:1057A00000E00020F8BD0000F0B59FB0061C0F1C03
:1057B00003920593002804D08169002901D101F0EA
:1057C0008DFD754B9F4201D1776808E0734B9F4276
:1057D00001D1B76803E0724B9F4200D1F768BB89E3
:1057E0001A070AD53B69002B07D006AD00236B6171
:1057F00020236B763023AB763BE0301C391C00F065
:1058000089FD0028F1D001204042C2E0059A111D17
:1058100012680591002A76DB0992013423782E2B39
:1058200000D181E021785F48032202F039F9002895
:1058300007D05C492A68431A4020984010432860EA
:1058400001342178631C584806220393297602F01C
:1058500027F9002800D18AE0544B002B7ED1059B0C
:10586000072207339343083305936A690499531851
:105870006B61039C2378002B04D10399611A029178
:1058800010D003E0252BF8D00134F3E7301C391C8D
:10589000039A029BFFF775FF013075D06A69029980
:1058A00053186B612378002B6ED0012252426A603C
:1058B0006A4600235B3201342B60EB60AB601370EF
:1058C000AB6521783A48052202F0EAF8002808D0B2
:1058D000374A0134831A012098402B681843286006
:1058E000EFE72B68D90603D56A4620215B32117099
:1058F0001A0703D56A462B215B32117022782A2AB7
:1059000084D0099B05E05242EA60022213432B60D7
:1059100083E72278303A092A04D80A214B4301341C
:105920009B18F6E7099379E763782A2B09D1059B41
:1059300002341A1D1B680592002B0DDA01235B420D
:105940000AE0013400232278303A092A04D80A21D7
:105950004B4301349B18F6E7079363E705AB0093CD
:10596000301C291C3A1C134B00F0C6F807E005ABAD
:105970000093301C291C3A1C0E4B00F05DFB049078
:105980000499013100D070E7BB895A0600D53AE787
:105990000B981FB0F0BDC046FCB400001CB5000061
:1059A0003CB50000AEB30000B2B30000F95A0000ED
:1059B000A8B3000083570000F0B58BB0161C1C1C68
:1059C000129904D580221206A4182D2300E000238A
:1059D000149F0B7020239F43462F08D03A1C453A52
:1059E00051424A41109902238918109100E0032383
:1059F0000093139B109A029308AB039309AB019297
:105A00000493321C231C00F083FD051C472F02D198
:105A10001199C9072CD5109969180791462F14D1EF
:105A20002B78302B0CD1301C211C164B144A02F061
:105A3000E3FE002804D1109A012313999B1A0B60EE
:105A4000139A07991368C9180791301C211C0D4B34
:105A50000B4A02F0D1FE002801D0079A0992099B57
:105A600007998B4204D25A1C099230221A70F6E729
:105A7000099B281C5A1B159B1A600BB0F0BDC04631
:105A80000000000000000000F0B52B2385B0051CCD
:105A90000C1C0270861C002901DA4C422D236B700D
:105AA000092C1EDD6F460E37201C0A21019702F0DB
:105AB00087FE30313970201C0A2102F02BFE013F95
:105AC000041E092CF0DC019B3034013B1C706A463B
:105AD0000F32301C934209D21A78013332700136EA
