S0100000746573745F7370692E73726563A9
S113000020230020A5300000A1300000A130000012
S113001000000000000000000000000000000000DC
S1130020000000000000000000000000A1300000FB
S11300300000000000000000A1300000A13000001A
S1130040A1300000A1300000A1300000A130000068
S1130050A1300000A1300000A1300000A130000058
S1130060A1300000A91B0000B91B0000C91B00003F
S1130070D91B00000000000000000000A1300000B7
S1130080A1300000A1300000692B0000792B000092
S1130090892B00000000000000000000790E000021
S11300A0A1300000A1300000A1300000A130000008
S11300B010B5064C2378002B07D1054B002B02D03A
S11300C0044800E000BF0123237010BDAC000020F1
S11300D000000000BC9D000008B5084B002B03D0B5
S11300E00748084900E000BF07480368002B03D015
S11300F0064B002B00D0984708BDC0460000000006
S1130100BC9D0000B0000020BC9D00000000000069
S1130110F8B53F4B1C78012C1CD0002C02D0022CCB
S113012030D047E03B4B18883B4DA8803B4B984769
S11301303B4E3C49B0473C4B9847344B324A3B4FCB
S1130140B8473B4B9847E9693A4B9847A96AB04787
S1130150286151E02F4B18882F4D68802F4B98470A
S11301602F4E3049B047304B9847284B264A2F4FE3
S1130170B8472F4B9847A9692E4B9847696AB047EF
S1130180E86039E0234B1888234C2080234B9847A0
S1130190234D2449A847244B98471C4B1A4A234E05
S11301A0B047234B98476169224B9847216AA84777
S11301B0A06005E00134E4B2154B1C70032C02D19D
S11301C00022134B1A70124B1B781B4AD15C1B4B39
S11301D01B685A7E52B2002AFBDB1A691F20824335
S11301E00A431A615A7E52B2002AFBDB13480949BA
S11301F00122134B984703E00134054B1C70E2E7DE
S1130200F8BDC046C046C0466666666666660A4075
S1130210C8000020F0010020F40100201177000044
S1130220116D000000FF7F479D930000C986000008
S1130230419400002D7300009495000020020020DA
S1130240490F0000C046C04610B5094B98470949FC
S1130250094B9847094B9847044B034A084CA0475D
S1130260084B984710BDC0466666666666660A40D7
S11302701177000000FF7F47116D00009D9300007F
S1130280C986000041940000F0B58FB002AC201C78
S1130290224B98470023A360E022D200628003220D
S11302A062702373102323711D4D281C1D49221CC9
S11302B01D4B98472B685A7E52B2002AFBDB8021E3
S11302C009041A4A1160197802220A431A70144B5D
S11302D01A68537E5BB2002BFBDB114D281C1449BA
S11302E00022144B98470127EA7E01231343EB763F
S11302F001AC00236370E370A37027700420211CF9
S11303000D4EB04727700520211CB047281C0B490F
S113031001220B4B98470FB0F0BDC046F90900000D
S11303202002002000400042410A000000E100E0F9
S113033011010000350F000099270000F001002092
S1130340490F00000023837283807047031C0078E8
S1130350C0B2002806D05A78002A02D101225A706D
S113036000E000207047C04638B5051C024C281C2C
S1130370A0470028FBD038BD4D03000000B583B072
S1130380084809490022094B984701A980230B70AA
S113039000234B7001228A70CB700A20044B9847CB
S11303A003B000BD4C02002088020020F5170000B5
S11303B099270000134B00221A705A709A7005286E
S11303C01ED88000104B1B589F46FF220D4B1A70FD
S11303D016E0FF220B4B5A7012E0FF22094B9A7071
S11303E00EE0084BFF221A709A7009E0054BFF22B9
S11303F05A701A7004E0034B6F225A701A709A7084
S11304007047C046400200209895000082B0021C4C
S1130410000C024B1A80987002B070474002002012
S1130420F0B55F4656464D464446F0B483B0041CCE
S113043000219D4B9847002802D080231B06E41816
S1130440201C9A4B9847061C0F1C924B904A984DBF
S1130450A847002835D0201C964B98478046964CD8
S1130460964D974B9946FA2189009847954F0A2152
S1130470B847C8B2944E0A21B047C9B26B5C237026
S113048040466421C8470A21B847C8B20A21B04788
S1130490C9B26B5C637040460A21C8470A21B84759
S11304A0C8B20A21B047C9B26B5CA37040460A21A6
S11304B0B847C8B20A21B047C9B26B5C803BE3704D
S11304C0DEE0301C391C744A744B794DA84700286F
S11304D03CD0201C774B98478046774D774E784B1D
S11304E09A4664219847774B99460A219847C8B29F
S11304F0754F0A21B847C9B2735C2B7040460A2174
S1130500D0470A21C847C8B20A21B847C9B2735CA8
S11305106B7040460A21C847C8B20A21B847C9B21D
S1130520735C803BAB704046684B9847011C201CB1
S1130530674B98476749684B9847684B9847C0B2E0
S11305400A21B847C9B2735CEB7099E0301C391CBE
S1130550534A544B564DA847002847D0554B9B4609
S1130560201C98478046544D544E0A21544B9847BA
S1130570544B99460A219847C8B2534F0A21B847A9
S1130580C9B2735C2B7040460A21C847C8B20A211D
S1130590B847C9B2735C803B6B704C4B9A4640467B
S11305A09847011C4A4B9946201C98474A4B984649
S11305B048499847494B9847C0B20A21B847C9B23D
S11305C0735CAB70201C4349C047041CD847D04718
S11305D0011C201CC8473F49C047404B9847C0B244
S11305E00A21B847C9B2735CEB7049E0314B9A46B3
S11305F0201C9847051C304E304FC0B2324B9846F1
S11306000A219847C9B27B5C803B33702F4B9946D3
S1130610281C9847011C201C2D4B98472E4D2D4912
S1130620A8472E4B9B469847C0B20A21C047C9B27F
S11306307B5C7370201C2749A8470190D047C847AA
S1130640011C0198224B98472249A847D847C0B2B9
S11306500A21C047C9B27B5CB370201C2049A8475B
S1130660041CD047C847011C201C194B9847194942
S1130670A847D847C0B20A21C047C9B27B5CF3700F
S113068003B03CBC90469946A246AB46F0BDC0467A
S113069052B81E85EB3F8F408FC2F5285CFF58404F
S11306A0736891ED7CFF2340756900009D93000001
S11306B0296900001976000044020020B09500006A
S11306C011680000BD680000FD6700005976000055
S11306D02D73000000002041D9700000096A000059
S11306E00000C842C046C04608B5334B1B780133EE
S11306F0DBB2032B02D8304A137013E000222E4BD6
S11307001A702E4B1B785B00DBB2002B02D02B4AF5
S1130710137002E01022294B1A70284B19782848CC
S1130720284B9847244B1B78274AD25C0F23111C73
S11307309943264B1970214B1B78254800781842A1
S113074002D104312148017021494978194203D169
S11307501E490878023008701D498978194203D16E
S11307601A4B1978083119700F231A40174B5A7015
S1130770184819490122194B9847194B1A780F4BFD
S11307801B781A420DD0114B0B4A127807218A1A92
S113079001219140CA430F218A43597852185A7053
S11307A003E00A4B5A78103A5A700A480749022261
S11307B00C4B984708BDC046D00000200000002024
S11307C08C020020A12A000044020020CC0000205A
S11307D0400200204C02002088020020F51700008F
S11307E0A8020020F9180000F0B591B02C4C0923A0
S11307F0237000236370A37001A901224A708B70D7
S11308000A700920274B98472378D9090022002928
S113081003D15A09D201244952181F273B4001240D
S1130820211C9940916102AA1470002353609360C3
S113083080214902D160137453749474D474137571
S11308402421535409930A93184B936101235B4267
S11308509362D362164B1363164B5363164E301CCC
S11308601649174B98473568281C164B984707407C
S1130870BC40154B1C603268D369002BFCD12A683C
S1130880022313432B600C4C201C10490022104BF4
S113089098473723E15C01220A43E25411B0F0BDCA
S11308A088020020411200000044004140420F0031
S11308B002000A0002000B004C0200200008004263
S11308C0DD1500007D1B000000E100E07D03000059
S11308D0E118000010B58EB001AA002300211370A6
S11308E093710024138154709172D17211739173B6
S11308F05173117453619361117713625362538579
S1130900938504239370A023DB0093802A23D0547F
S11309102923D0542823D454074C201C0749084BBE
S1130920984722687F21D37B8B43FCD11188022313
S11309300B4313800EB010BD8C020020002C00422B
S11309402D28000010B5011C0C4C201C00220C4B5F
S1130950984720680B4B98470B4B1B5C1F21194091
S113096001231A1C8A40111C084A1160617E01226D
S11309700A4362762268537310BDC0468C0200207D
S1130980D92A0000F5270000BC95000000E100E032
S113099010B50020084B9847084CFA218900A0475D
S11309A0074B1860FA218900A047064B18600522FE
S11309B0054B1A6010BDC046A525000075670000F0
S11309C0080000200400002010E000E030B5084BCF
S11309D01C68084A00258021490206E0002C04D046
S11309E05460956013680B42FCD00138F6D230BDD8
S11309F00800002010E000E010B50022002302707F
S1130A00427000214280017103760262C2618260F9
S1130A100373C0246401C481037443748374C37472
S1130A2003752A2403554375837524240355C2840E
S1130A300285C1752B23C1542C23C15410BDC0465B
S1130A40F0B55F4656464D464446F0B499B0061C90
S1130A50141C0160BC4B186A8022520202431A62C1
S1130A600B780520DA0700D5F6E10B781C209907EE
S1130A7000D5F1E163783371002B00D0DCE1B34B96
S1130A80196C04220A431A64D6E1237D002B02D197
S1130A900123737701E0002373773268019223788E
S1130AA0684603721E2002A9A94B98471E20A94B31
S1130AB098472C23E35C002B42D02B22A55C217B9E
S1130AC088464A19D2B2D318DBB299469A4221D247
S1130AD0A14A9346A14B9A460F272F40237BFF1828
S1130AE004A859465022D047132F0CD8BF0004AB9A
S1130AF0F85803A900234B70CB708B7001230B7043
S1130B00C0B2974A90470135EDB240464319DBB273
S1130B104B45E1D3E58904A88F4950228F4B984770
S1130B20132D37D8AD0004ABE85803A900234B704C
S1130B30CB708B7001230B70C0B2894B984729E0AE
S1130B40257B04A884495022844B9847132D0CD844
S1130B50AD0004ABE85803A900234B70CB708B7035
S1130B6001230B70C0B27E4B9847E58904A87A49EB
S1130B7050227A4B9847132D0CD8AD0004ABE8589B
S1130B8003A900234B70CB708B7001230B70C0B290
S1130B90734B9847637D9B00DBB201990B70A37D77
S1130BA0DB0162781343DBB24B702379342B00D919
S1130BB040E19B006B4AD3589F4602221025012333
S1130BC01AE0637C227C102516E0062210250123FE
S1130BD012E00822102500230EE000223025002315
S1130BE00AE000222025002306E00022002500233D
S1130BF002E00422102502231B0170210B40134341
S1130C00019A9370E37D17203F2B00D924E1D37020
S1130C103268537E5BB2002BFBDBE27C63881343B8
S1130C202422A25CD2001343227D92001343A27CAF
S1130C30520013432B4301988380237E002B01D160
S1130C40316897E0102D5FD002D8002D3CD0F7E733
S1130C50202D19D0302DF3D1E27C002A0AD0E2698C
S1130C6080321720FF2A00D9F6E0226A8032FF2A58
S1130C7000D9F1E01720E169FF2900DDECE0226AE8
S1130C80FF2A00DDE8E0DBE7E27C002A11D0E0691E
S1130C908022920081181720334A914200D9DBE068
S1130CA0206A80229200811817202F4A914200D98D
S1130CB0D2E017202C4AE169914200DDCCE0216AA0
S1130CC0914200DDC8E0BBE7E27C002A11D0E26972
S1130CD08020000111181720244A914200D9BBE05A
S1130CE0226A8020000111181720204A914200D95D
S1130CF0B2E017201D4AE169914200DDACE0216AAF
S1130D00914200DDA8E09BE7E27C002A11D0E26971
S1130D108020000211181720154A914200D99BE047
S1130D20226A8020000211181720114A914200D92A
S1130D3092E017200E4AE169914200DD8CE0216ABD
S1130D40914200DD88E07BE7000400400008004099
S1130D50BD2600003126000094960000D13F00001B
S1130D6099270000C0950000FF030000FF0F00005A
S1130D70FFFF00004A7E52B2002AFBDB019A137285
S1130D803268537E5BB2002BFBDBA38B0198838319
S1130D903268537E5BB2002BFBDB238C01990B84FE
S1130DA02C23E35C002B04D0013BDBB217200F2B78
S1130DB052D82B22A25C17200F2A4DD83168487EC6
S1130DC040B20028FBDBE089217B0143A06801439A
S1130DD012050A431B04134301990B612A23E35CA4
S1130DE00B750F238B752423E35C002B10D0E38C4D
S1130DF017201D4A93422FD88B84238D8020000115
S1130E00191889B21720184A914225D80199CB8420
S1130E10164B1A685201E023DB001A40144B586841
S1130E2041011B68DB0E0B43DBB2134301990B85B5
S1130E30002011E017200FE00023B360F36033615A
S1130E40B376F376338333770A4B1E602A23E35C4D
S1130E50002B00D119E61EE619B03CBC9046994619
S1130E60A246AB46F0BDC046FF0F000024608000E0
S1130E7020608000AC02002038B52D4B1C6823682C
S1130E801D7EEDB2E90735D5E27ED10732D5A27ECB
S1130E90D1072FD501221A762268537E5BB2002B2C
S1130EA0FBDB6369991C6161528B92B21A80238BBC
S1130EB0013B9BB22383002B11D0637F002B19D0FD
S1130EC023685A7E52B2002AFBDB197B02220A43B2
S1130ED01A732268537E5BB2002BFBDB0AE0237F8C
S1130EE0052B07D100232377012322689375201C47
S1130EF0A368984769070BD5042322681376E37E19
S1130F00990705D5A37E9A0702D5201CE368984764
S1130F10A9070BD5022322681376E37E590705D56A
S1130F20A37E5A0702D52369201C984738BDC046C2
S1130F30AC020020931C9B001950012393401A1CFF
S1130F40837E1A438276704710B5031C048BA4B2C7
S1130F500520002C1DD1187FC0B2052819D005200A
S1130F6018771A83596101221968CA755A7F0020BB
S1130F70002A0ED01A68517E49B20029FBDB107B8F
S1130F800221014311731A68537E5BB2002BFBDB11
S1130F90002010BD10B5021C1C4BD869042101436C
S1130FA0D9611B4B188B2021FF31014319831B7D11
S1130FB00520D90728D511780902C0239B001940C0
S1130FC05378DB01FF2003401943D3789B04194372
S1130FD093785B001E200340194310790004C0235A
S1130FE09B02034019430A4B596098684003400F21
S1130FF00849082484400C809868488052780A7113
S1131000188BC005C00F000110BDC046000400408D
S113101000400041D400002030B51D4B5A881B8885
S11310205A4318238A4231D31A4B5C688022D20275
S113103022435A601D8B2022FF322A431A831A7DD1
S11310400523D50722D545281FD88300124AD35833
S11310509F46104B1A8B1023D50517D489084900D5
S11310600C4BD96103E0890849000A4BD961A523D7
S11310701B021843074B1880191C01220B7D1342D5
S1131080FCD0044B5C60002300E01723181C30BD27
S1131090D400002000400041E4960000F8B5051C8F
S11310A01D4B1C885B8863431820AB4233D3631EFB
S11310B02B4230D1172094422DD3184B1B7D052091
S11310C0DC0728D51648154B18801C1C0120237DED
S11310D00342FCD0114B1C8B2020FF30204318838B
S11310E06808002A12D040000023561ECC5CB3428C
S11310F003DACF187F783F023C43048002339BB26B
S113110002309A42F2D800203F2A04D80420291C35
S11311100022044B9847F8BDD40000200040004151
S113112044A5FFFF1910000070B5194B1C885D8899
S113113065431823854229D3651E054226D117230A
S1131140944223D3134B1C7D0523E5071ED5114B75
S11311501D8B2024FF342C431C834008002A12D00A
S113116040000023561E1C182588ADB21C04240C14
S11311700D55B44202DA0C192D0A657002339CB283
S1131180A242F0D801E0002300E00023181C70BD47
S1131190D4000020004000410E4B1A885988514366
S11311A01823814214D39200013A104210D10A4B01
S11311B01A7D0523D1070BD5074B198B2022FF324B
S11311C00A431A8380084000D861044A1A80002325
S11311D0181C7047D40000200040004102A5FFFF06
S11311E0154B198B2022FF320A431A839B685A033A
S11311F0520F0821914001704380104B1B885B06FD
S11312005B0F9AB2072A02D10023436004E006224E
S1131210D31A04229A404260084B1A8807231340C9
S1131220072B02D10023836004E00722D31A04228F
S11312309A4082607047C0460040004100408000F0
S113124000B583B001AB80221A700A785A704A78CC
S11312509A708A78DA70191C014B984703B000BD64
S11312609927000010B5031C4908402099420CD36B
S11312700024C91A601C80B28B4201D8041CF8E710
S11312804020FF2C01D81480002010BD0000000075
S1131290F0B55F4656464D464446F0B487B0061C4A
S11312A00D1C049210AA1078321C424340248A4236
S11312B000D9B3E0002B4BD10021321C5E4CA04777
S11312C083462E1C002700200021002200233F24F7
S11312D0A4460125A846029003916146203903D40F
S11312E040468840814605E0202165464C1B404627
S11312F0E040814641466446A1408A46101C191CC0
S113130080185941021C0B1C5D464C46254202D0F4
S1131310424602430B1C9F420CD801D1964209D885
S1131320921BBB415046029D28434946039C2143DE
S1131330029003916546013DAC46CED202980399D2
S11313403C4B3B4A121A8B41120C1B041A4362E0B9
S11313500022012B5FD14F0FB946CD00AB460021CF
S1131360321C0023344CA047061C0F1C002301250B
S1131370029603979A465046C0B2059000218846CB
S1131380002200233F24271C203F03D42E1CBE40F0
S1131390019604E02020071B291CF94001912E1C12
S11313A0A6400096101C191C80185941021C0B1CE5
S11313B05F463740BC46019E4F463E4067463E432B
S11313C002D02A1C02430B1C039898420BD802D16A
S11313D00299914207D8029E039F921BBB41474644
S11313E000980743B846013CCDD2414652468B1A79
S11313F0DB08124CA34208D9059A0132D2B20592F5
S11314000126B2445746082FB5D140240598082830
S113141004D042031A43049C22800024201C07B0F9
S11314203CBC90469946A246AB46F0BDC046C04679
S11314300000000001000000C5690000FF1F00005B
S113144010B582B0041C0F4B1B78002B01D000296F
S11314500DD001A90C7013200B4B984713200B4B94
S11314609847084B5C7001221A70002007E0054B76
S11314705A781D20141B621E94416442204002B01D
S113148010BDC046DC000020BD260000312600004F
S11314902E4B98421CD003D82D4B984207D04AE0DB
S11314A02C4B984225D02C4B984233D043E0012951
S11314B043D0002904D0022906D0032906D001E034
S11314C0264841E000203FE025483DE025483BE038
S11314D0012934D0002904D0022906D0032906D0DA
S11314E001E0032030E000202EE01F482CE01F48DC
S11314F02AE0012925D0002904D0022906D0032995
S113150006D001E01A481FE000201DE019481BE046
S1131510194819E0012916D0002904D0022906D05F
S1131520032906D001E015480EE000200CE0144821
S11315300AE0144808E0002006E0134804E01348D9
S113154002E0134800E013487047C046000C004214
S1131550000800420010004200140042030004008E
S1131560030006000300070003001E0003001F0021
S11315700300080003000A0003000B00030010002E
S11315800300120003001300030005000300010020
S1131590030009000300110070B584B00E4A6946C7
S11315A070CA70C112680A60031C009A82420FD08C
S11315B0019C844208D0029D854207D00020039EEE
S11315C09E4207D1032004E0012002E0022000E053
S11315D00020C0B204B070BDFC970000F0B54746CF
S11315E080B488B0051C0C1C161C29600B681C20D8
S11315F09A0700D5DFE00B680520DA0700D5DAE0AA
S1131600081C6F4B98476F4B196A821C012797403F
S11316103A1C0A431A6207A92427F35D0B7014309D
S1131620C0B28046684B98474046684B9847F05D87
S11316300021674B98473378012B03D122680C2390
S1131640134323603378002B00D0B1E022680823D1
S113165013432360ACE0EA18D16004331C2BFAD1A5
S11316600023EB62AB620024AB862B863623EC545A
S11316703723EC543823EC5403236B722C71286801
S11316804F4B9847071C5349534B9847BF00534B44
S1131690FD502F6802AB80221A705C7001229A7090
S11316A0DC703378002B02D1002202AB9A70B36A4B
S11316B00393F06A0490326B0592736B06930024D3
S11316C0E1B2A30003AA9858002802D1381C444A66
S11316D09047431C06D06A461072000CC0B202A99F
S11316E0404B98470134042CEAD133786B71337C36
S11316F0AB71B37CEB71337D2B7200226B46DA80C5
S11317003378012B14D128682D4B98471430C0B27C
S1131710354B9847011CB0696A460632334B9847EB
S1131720031C1720002B46D16B4606331B783B73F2
S11317303378002B0FD1B169B38B786AF47F24041A
S1131740B27F224302437A622022B25C002A04D090
S11317504022134301E000230021B2687068024371
S1131760F06802430A43317C0B43717C002903D1A6
S11317701F498978880701D580210A43B17C002953
S113178002D0802189020B43F17C002902D0802100
S113179089000B43317D002902D0802189010B434C
S11317A039680A433A607A6813437B60002002E098
S11317B0002300214FE708B004BC9046F0BDC046AA
S11317C09915000000040040BD26000031260000E9
S11317D041140000411900003D1B0000B402002028
S11317E09114000099270000D9260000651200001A
S11317F00020004110B544791523012C6CD1047AE2
S11318000023002C68D1002A57D04B78002B44D0F9
S11318100268137EDC070FD40B78D9090022002953
S113182003D15A09D2012D4952181F210B4001211D
S11318309940916105234FE00B78DC090022002CCC
S113184003D15A09D201254C12191F242340012423
S11318509C405461897803681A7ED40700D5996244
S1131860C2790023002A37D102680421137E0B4277
S1131870FCD0117E00234C072ED5538B590703D57A
S1131880518B04230B4353838379012B02D1936A35
S1131890002321E0936A00231EE00B78D90900227B
S11318A0002903D15A09D2010C4C12191F210B40F3
S11318B001219940516100230EE00B78D9090022DF
S11318C0002903D15A09D201044952181F210B409F
S11318D00121994091610023181C10BD004400416E
S11318E0931C9B00C3185960012393401A1C362390
S11318F0C15C0A43C2547047031C1720002A1DD040
S11319003820185CC0B2052818D09A865A86D96245
S113191005213822995401225A721A6859790029EA
S113192002D1022111769175DB79002B03D00523B6
S11319309375002002E00123937500207047C04690
S1131940F8B580007A4BC45825683623E35C372207
S1131950A75C1F402B7EAE7D1E40F10741D5637905
S1131960012B16D1637A002B0FD1724B1B88AB620B
S1131970638E013B9BB26386638E9BB2002B01D1C5
S113198001232B756379012B03D1637A002B05D1D5
S113199027E0002B25D1637A002B22D02268E36A4A
S11319A01978C9B2581CE062A079012804D158788A
S11319B0000201430233E362CB05DB0D9362A38E85
S11319C0013B9BB2A386A38E9BB2002B09D10123BA
S11319D02B75637A012B04D1E379002B01D1022307
S11319E0AB75720761D56B8B590714D5637A012BDC
S11319F00BD01E223823E2540323637205232B7574
S1131A003A0702D5201CA3699847AB6A6A8B042362
S1131A1013436B8349E0637A012B16D123689B6AD5
S1131A20638E013B9BB26386638E9BB2002B3CD1D9
S1131A3004232B7500223823E25403236372F9072D
S1131A4033D5201CE26890472FE023689A6AD205B8
S1131A50D20DD3B2A16A0B70A36A591CA162A179F9
S1131A60012904D1120A5A70A36A0133A362238E96
S1131A70013B9BB22386238E9BB2002B15D10022FF
S1131A803823E25404232B75637A022B05D17A0799
S1131A900BD5201C6369984707E0637A002B04D1B7
S1131AA0B90702D5201C22699047B30728D563796A
S1131AB0002B10D107232B7502232B76032363728B
S1131AC00023A386238638230022E254F90602D594
S1131AD0201CE26990476379012B11D1637A012BB1
S1131AE00ED1E379002B0BD102232B7503236372F0
S1131AF000223823E254FB0702D5201CE168884702
S1131B0032070AD56379002B07D108232B752B766E
S1131B10BB0602D5201C216A8847F60907D080231A
S1131B202B752B767A0602D5636A201C9847F8BD7C
S1131B30B4020020B00200207047C04630B50B4B01
S1131B401B78002B0ED10A4C0A4D25600A4B00224B
S1131B501A6065605A60A5609A60E560DA600122E7
S1131B60024B1A708000024BC15030BDE0000020CF
S1131B70E4000020391B0000B402002030B583B01B
S1131B80051C01AC201C05490422054B9847281C60
S1131B90044B9847205603B030BDC0460C98000053
S1131BA0D13F00009915000008B5024B1B680020C6
S1131BB0984708BDE400002008B5024B5B6801208B
S1131BC0984708BDE400002008B5024B9B6802203A
S1131BD0984708BDE400002008B5024BDB680320E9
S1131BE0984708BDE40000207047C0460C4B1B68B2
S1131BF0002B10D1EFF31083002B09D172B6BFF381
S1131C005F8F0022074B1A700122074B1A7002E003
S1131C100022054B1A70024B1A6801321A60704791
S1131C20F40000200C000020F8000020084B1A6883
S1131C30013A1A601B68002B09D1064B1B78002B54
S1131C4005D00122044B1A70BFF35F8F62B6704750
S1131C50F4000020F80000200C000020F0B55F46DE
S1131C6056464D464446F0B493B0051C0C1C161C55
S1131C702960081CA94B9847021C23680520D90732
S1131C8000D543E123681C209F0700D53EE1A44B07
S1131C90186A911C01278F40391C0143196211A94C
S1131CA02D27F35D0B701432D2B29046101C9D4B5D
S1131CB0984740469C4B9847F05D00219B4B9847C2
S1131CC0F37A6B712423F35CAB712523F35CEB7122
S1131CD0F37E2B72337F6B7229688846081C8F4B06
S1131CE09847143000226B46DA85328A03928023A7
S1131CF0DB019A4221D08023DB019A4204D880235D
S1131D009B019A4211D008E0C023DB01039F9F424C
S1131D100FD080231B029F4203D01027089700276F
S1131D200EE00327089700270AE0102708970127E9
S1131D3006E008270897012702E0082708970027EC
S1131D4031680491F268059273690693317E8A467C
S1131D502623F35C9B4672689146002A13D08023A5
S1131D605B059A422ED12723F35C002B2ED1376AD0
S1131D70C0B26F4B9847011C381C6A462E326D4B1B
S1131D809847031C1FE02723F35C002B0AD0089913
S1131D900091306AB16A6A462E323B1C664FB847DE
S1131DA0031C10E0316A0991C0B2614B9847011CD1
S1131DB0089A009209986A462E323B1C5E4FB84737
S1131DC0031C00E00023181E00D09FE0737E002B4C
S1131DD002D0B37E41468B732A68039FD369002BDC
S1131DE0FCD103976B462E331B8842469381059B97
S1131DF0049F3B43069F3B4349460B43039F1F43BA
S1131E00524613021F4359464B071F432723F35CD3
S1131E10002B01D104231F43317F4902737E9B02AF
S1131E201943737F1B0219432423F35C5B04194396
S1131E302523F35C1B041943F37A19433389FF2BDD
S1131E4004D0802252041743194305E0F37E002B8B
S1131E5002D08023DB041F432C23F35C002B03D12B
S1131E60364B9B789A0701D580231F432A68D36990
S1131E70002BFCD1434659602A68D369002BFCD15E
S1131E8041460F6010AB80221A7000225A70DA703B
S1131E909A70326B0C92736B0D93B76B0E97F66B53
S1131EA00F96002710AEF9B2BB000CAA9858002870
S1131EB002D1201C224A9047431C05D03070000CEC
S1131EC0C0B2311C1F4A90470137042FEBD10023C5
S1131ED0EB602B616B61AB61EB612B62AB626B629C
S1131EE00022EB85AB853023EA543123EA543223B4
S1131EF0EA543323EA542868084B9847041C1249CF
S1131F00124B9847A400124BE550002013B03CBC80
S1131F1090469946A246AB46F0BDC04699150000CE
S1131F2000040040BD2600003126000041140000DA
S1131F30D926000065120000911200000020004123
S1131F409114000099270000F91F00003D1B0000B8
S1131F50B402002010B5021C0368C4791C20002CB4
S1131F600DD0D28D92B20520002A08D1DA69002A58
S1131F70FCD1198502211A7E0A42FCD0002010BD32
S1131F8010B5031C046882791C20002A33D09B8D71
S1131F909BB20520002B2ED1237E5A072BD5E36953
S1131FA0002BFCD1638BDBB29A0621D09A0703D5B0
S1131FB0022363831A201EE05A0703D50423638394
S1131FC01E2018E0DA0703D501236383132012E0EF
S1131FD0DA0605D5628B10231343638342200AE09B
S1131FE09A0605D5628B202313436383412002E0C4
S1131FF0238D0B80002010BDF8B58000644BC558BC
S11320002C68E369002BFCD1237EA67D1E4031237E
S1132010EB5C3022AF5C1F40F10720D5EB8D9BB207
S1132020002B1AD0AB6A1A78D2B2591CA96269790A
S1132030012904D1597809020A430233AB62D3055A
S1132040DB0D2385EB8D013B9BB2EB85002B06D189
S1132050012323750223A37501E001232375B2072D
S113206009D50223237500223323EA54FB0702D542
S1132070281CE968884772076AD5AB8D9BB2002B90
S113208064D0638BDBB2190702D43F22134001E012
S113209037221340002B37D09A0707D51A22322350
S11320A0EA54628B02231343638327E0590707D55D
S11320B01E223223EA54628B0423134363831DE0FC
S11320C0DA0707D513223223EA54628B0123134320
S11320D0638313E0D90607D542223223EA54628B84
S11320E010231343638309E020221A4206D04122BD
S11320F03223EA54628B2023134363837A0727D560
S1132100281C6B69984723E0228DD205D20DD3B2E7
S1132110696A0B706B6A591C69626979012904D177
S1132120120A5A706B6A01336B62AB8D013B9BB22E
S1132130AB85002B0CD10423237500223223EA54EF
S1132140BA0705D5281C2B69984701E00423237599
S1132150F10607D5102323752376FA0602D5281C29
S1132160EB699847B10607D52023237523763A07F0
S113217002D5281CAB699847310707D50823237576
S11321802376BA0602D52B6A281C9847F8BDC046A8
S1132190B402002008B5082834D880001B4B1B5813
S11321A09F468020000230E0194B18692DE0194B3E
S11321B0186A8005800F184BC340181C25E0144B87
S11321C0586922E0124B1B68022018401DD01149A7
S11321D01022CB681A42FCD00D4B1B685A0713D54A
S11321E000200E4B98470A4B9B681B041B0C58435A
S11321F00BE05023074AD35C00205A0705D5044B53
S1132200D86802E0002000E0054808BD10980000EE
S1132210FC0000200008004000127A00D9260000CB
S1132220006CDC0270B50C4B1C6A01788578407830
S11322300122104080014026B44304432A40D001C7
S113224080229443221C02430320014009020348D4
S113225002400A431A6270BD00080040FFFCFFFF01
S113226010B5027A9206120C43899B059B0D1A4302
S1132270184B5A60818842881143C4798279224379
S11322800A434178C9010A431A600378042B0FD129
S1132290027B9206038A1A43C3891B040E490B402E
S11322A01A430C4B9A60196804220A431A6010E01E
S11322B0202B0ED1027B9206038A1A43C3891B0486
S11322C005490B401A43034B9A601A6803490A43B1
S11322D01A6010BDFC0000200000FF03240400006D
S11322E0082849D88000254B1B589F46002044E00D
S11322F0234B196A02220A431A6200203DE0204B54
S1132300996902220A439A61002036E01C4B198A1B
S113231002220A431A8200202FE0194B998A0222D2
S11323200A439A82002028E0164A116802231943BE
S11323301160134A9384111C1022CB681A42FCD0FA
S1132340104A91680E4BD96252689A6200229A84AC
S1132350191C1022CB681A42FCD00A4B1A6892B29C
S1132360074B9A84002008E0054A4423D05C0221EC
S11323700143D154002000E0172070473498000036
S113238000080040FC00002070B58AB0C222D200D0
S1132390324B9A60324B5A681E218A4302210A4307
S11323A05A60012201AB1A7000242E4DE0B201A93B
S11323B0A8470134252CF9D105AB0021197000225E
S11323C0598099809A71DA713F21598106211982C5
S11323D05A70254B1B689B0E3F2B00D11F2305A869
S11323E00372072303733F23C381204B984704A838
S11323F0002444700126867004701D4B9847062003
S11324001C4DA8471C4B984701A94E604C700623ED
S11324100B700C724C720320184B98470320184B16
S113242098470720A8470D491022CB681A42FCD0D0
S1132430144A0023137253729372D37201A90122B6
S11324404A604B7006220A700B724B7200200B4BD1
S1132450984700200A4B98470AB070BD0008004016
S113246000400041BD26000024608000612200007D
S113247025220000E122000089240000AD24000090
S11324806125000000040040064B996908220A43B4
S11324909A610122044B1A70191C0B781342FCD167
S11324A07047C04600040040000C0040F8B5061C0C
S11324B0071C0D782D0205434B78002B02D0802396
S11324C0DB021D434B7A002B02D080231B031D43E8
S11324D04C68012C17D9631E1C420FD1022C06D95B
S11324E00223002201325B009C42FBD800E0002260
S11324F01702374380235B031D4304E0270237435D
S113250080239B021D430B7A002B02D080239B0364
S11325101D430F4A53785BB2002BFBDB0D4B9847EE
S11325200D4B1E700A4A53785BB2002BFBDB084B41
S11325309F601A1C53785BB2002BFBDB044B596879
S1132540802252020A4015435D60044B9847F8BD4F
S1132550000C0040ED1B0000080C00402D1C000086
S113256010B5041C0B4A53785BB2002BFBDB0A4BFF
S113257098470A4B1C70074A53785BB2002BFBDB6D
S1132580044B5968802252020A435A60044B98470C
S113259010BDC046000C0040ED1B0000040C0040C0
S11325A02D1C000070B5041C1A4A53785BB2002B32
S11325B0FBDB194B9847194B1C70164A53785BB2D6
S11325C0002BFBDB134E7068C004C00E144B9847FD
S11325D0051C124B1C707668F602F60F114B1C702A
S11325E00C4A53785BB2002BFBDB0A4B9C68240A31
S11325F0A4B20D4B9847002E07D1012C07D9281CF3
S1132600211C0A4B9847051C01E00134E540281CB5
S113261070BDC046000C0040ED1B0000040C0040DF
S113262095210000080C00402D1C00007567000077
S113263010B5041C064B9847064B1C70064B598872
S11326408022D2010A435A80044B984710BDC046E9
S1132650ED1B0000020C0040000C00402D1C00008B
S113266010B5041C0F4B98470F4B1C700F4B588828
S11326700005000F59880E4A0A405A8059880D4AAD
S11326800A405A80191C8022D2014B881342FCD183
S1132690064B01025888064A02400A435A80064BF8
S11326A0984710BDED1B0000020C0040000C0040D8
S11326B0FFF0FFFFFFBFFFFF2D1C000010B50C78DB
S11326C024020443024B9847A4B2024B5C8010BD21
S11326D061260000000C004010B5041C064B98470E
S11326E0064B1C70064B5C882405240F054B984749
S11326F0201C054B984710BDED1B0000020C004048
S1132700000C00402D1C0000A525000030B5D37836
S1132710002B1ED11378802B04D01B068024640266
S1132720234300E0002354780225AC430AD1947873
S1132730002C03D18024A402234302E0C024E40239
S1132740234341605478013C012C04D8114C2340AC
S113275001E0416000230D042D0CA024E4052C436A
S11327601C4384620D0CD02424062C431C43846235
S1132770D478002C0CD15C0305D59378012B01D1BE
S1132780816100E041615378013B012B00D88160F5
S113279030BDC046FFFFFBFF08B5031C0A1CC1097E
S11327A00020002903D15809C001044940181F2101
S11327B00B4001219940024B984708BD0044004159
S11327C00D2700007047C04608B5054B9847054BD8
S11327D09847054B9847054B9847054B984708BDC4
S11327E089230000E91B0000C5270000C52700005D
S11327F0C527000070B584B0011C01AB0A4A70CA39
S113280070C3019B83420AD0029C844205D00020FD
S1132810039D8D4205D1022002E0012000E000204A
S1132820C0B204B070BDC04658980000F0B54F4621
S11328304646C0B487B0041C0D1C9046081C904B3F
S1132840984781468F4F391C0C3105A803228E4EC0
S1132850B047391C103103A80622B0470023A360F7
S1132860E360236163612376637648468200874B85
S1132870D450256041468B78082B04D117204A4652
S1132880D20700D4F6E023712B880520D90700D5A0
S1132890F0E0EB7B1C20DA0600D5EBE02B889907EF
S11328A000D5E7E04246137C002B0CD002A901239B
S11328B08B700022CA704046806908704B70424693
S11328C0107D734B98474046037F002B0BD002A921
S11328D001238B700022CA70426A0A704B70036A2B
S11328E0D8B26B4B98476B4B196A4846420003A811
S11328F0125A0A431A6241468B78082B08D1654B59
S11329001A6A48460130400003A9415A0A431A6230
S113291001A9424613780B7005AB48461E5C301C77
S11329205D4B9847301C5D4B9847414688880B891E
S1132930034388798A78104318434B78002B02D0DC
S113294080231B01184321687F22CB7B9343FCD156
S113295028804246507B431E98418000937B002B85
S113296001D00123184321687F22CB7B9343FCD100
S1132970FF232B71002805D021687F22CB7B934352
S1132980FCD168714346987ADB7A002B01D010237E
S1132990184341460B7B002B01D0202318432168A8
S11329A07F22CB7B9343FCD1A87122687F21D37B08
S11329B08B43FCD12379042B05D0082B41D017205D
S11329C0002B57D124E07F21D37B8B43FCD12823D8
S11329D04246D35C2B7421687F22CB7B9343FCD18A
S11329E029234046C35C2B7521687F22CB7B93430C
S11329F0FCD12A234146CB5C2B7621687F22CB7BFA
S1132A009343FCD12B234246D35C6B76002031E008
S1132A107F21D37B8B43FCD14046038D2B822168DD
S1132A207F22CB7B9343FCD141464B8D2B83216882
S1132A307F22CB7B9343FCD14246938D6B83002052
S1132A4018E07F21D37B8B43FCD143469B6A2B61E7
S1132A5021687F22CB7B9343FCD14046C06AA861A6
S1132A6021687F22CB7B9343FCD141460B6BEB6106
S1132A700020FFE707B00CBC90469946F0BDC04665
S1132A80F527000058980000D13F0000C402002040
S1132A909927000000040040BD26000031260000F4
S1132AA010B502687F24D37BA343FCD10379042BA4
S1132AB005D0082B0BD01720002B0BD103E0C9B293
S1132AC01175002006E089B21183002002E09161B3
S1132AD00020FFE710BDC046931C9B001950022A3A
S1132AE004D1027E1023134303760CE0032A04D19D
S1132AF0027E20231343037605E0012393401A1C2E
S1132B00037E1A43027600207047C04638B5800021
S1132B10144BC4582268957B237E1D40637E1D4060
S1132B20EB0705D5201CA268904701232268937304
S1132B30AB0705D5201CE2689047022322689373F3
S1132B40EB0605D5201C2269904710232268937355
S1132B50AB0605D5201C62699047236820229A732E
S1132B6038BDC046C402002008B50020014B984778
S1132B7008BDC0460D2B000008B50120014B984745
S1132B8008BDC0460D2B000008B50220014B984734
S1132B9008BDC0460D2B0000F0B5254B1889002850
S1132BA03AD09F7A5A680023451E214EAB4206D084
S1132BB01178FF2903D0B94201D27118CB720133C5
S1132BC0403299B28842F1D83F218723184AD15420
S1132BD086082CD0546800210023012501380027E1
S1132BE0AC4601E03B1C65468A009A1892B28242C8
S1132BF003D09201125DFF2A13D10133DBB2032B00
S1132C00F2D9002D03D08723094AD1540FE00131B2
S1132C1089B2B142E6D30AE03F218723044AD15462
S1132C2005E00133DBB23D1C032BDDD9EFE7F0BD3A
S1132C3014010020F8B50F1C8601054D054C6B6886
S1132C409819391C4022A0470528F8D0F8BDC04681
S1132C50140100202911000070B50602034D044C34
S1132C606B689819A0470528FAD070BD140100209C
S1132C7099110000F8B50F1C8601054D054C6B68D1
S1132C809819391C4022A0470528F8D0F8BDC04641
S1132C90140100209D10000070B58601044D054C00
S1132CA06B68991904200022A0470528F8D070BD4C
S1132CB0140100201910000030B599B016AB0022A1
S1132CC01A702E494968C906090F9970DA701A7189
S1132CD001225A702A4C16A8A0470528FBD013A835
S1132CE0284B9847149B16200B2B44D9264C238140
S1132CF01A1C083A5208A2721B049B0A5B428020E9
S1132D00C0021B1863600022C823E2541F4B98477B
S1132D108723E35C1A203F2B2DD06B461C4A31CA13
S1132D2031C3194B1889013880B203A9194B98474C
S1132D30039A009B9A4219D1049C019DAC4217D17D
S1132D400598029A904215D103ABDB7B1020012B2E
S1132D5011D103AB1B7B012B0DD103AB5B7B002B90
S1132D6009D10122084B1A70002004E01A2002E065
S1132D701A2000E01A2019B030BDC04600400041BE
S1132D80950F0000E111000014010020992B0000B0
S1132D9070980000352C000070B594B02E4C0022C1
S1132DA08723E25400202D4B98472589042D24D9EC
S1132DB000260424013DAC4219D00323234004D14E
S1132DC0A008C0B2254B984701E0012B0FD804ADF1
S1132DD0281CFF214022224B98472E70201C291CBE
S1132DE0204B9847201C204988470136B6B201344D
S1132DF0A4B2194B1D89A542DCD801AE1B4B321C71
S1132E0013CB13C204AC201CFF213D22144B984762
S1132E10019B049370686060B668A6600123E37345
S1132E20237300236373A373013DE817800F4519CF
S1132E30A810C0B2094B9847074D2889013880B2C1
S1132E40211C084B98472889013880B2064B9847C3
S1132E50074B984714B070BD14010020592C000092
S1132E60E33F0000752C0000992C000070980000CE
S1132E70992B000010B590B00C1C154B1A781F2329
S1132E80002A21D0124B9A7A182382421CD9C823D3
S1132E900F4AD35C002B0BD08823D35C834207D129
S1132EA0081C111C8C313C220A4B984700230BE070
S1132EB0074B1818C07A6946074B9847201C01A98C
S1132EC03C22044B98470023181C10B010BDC04688
S1132ED014010020D13F0000352C000010B5C82398
S1132EE0074AD35C002B09D0141C8823D35CD31865
S1132EF0D87A044B98470022C823E254002010BD1E
S1132F0014010020992C0000F0B55F4656464D464A
S1132F104446F0B485B0041C0D1C5B4B1B781F2089
S1132F20002B00D1A8E0584B9B7A1820A34200D86C
S1132F30A2E0C823544AD35C002B05D08823D35C79
S1132F40A34201D0514B98474F4B1B19DB7A9E0883
S1132F5003221340032B75D8B000C718FFB24A4AA6
S1132F605168BA01525CFF2A06D156E0C718FFB275
S1132F70BA01525CFF2A50D00133DBB2042BF5D1E5
S1132F8060E04A700233634509D0191C1878B842CE
S1132F9001D15046587008784845F3D1F1E700272D
S1132FA0394988310091384A8C320192B346A1469E
S1132FB04446AA4687233448C65CB600F61933490A
S1132FC08847A04623784B4509D1882348462E4A92
S1132FD0D054019851463C222D4B984703E0607829
S1132FE000992C4B9847B0B2274D291C88312A4BA5
S1132FF0984741460B78EB18DE720122C823EA5445
S113300001370234022FD5D15E465846234B9847E8
S113301087231D4AD65400202EE01B4E8823F454E7
S1133020301C8C30291C3C22194B9847311C8831A8
S1133030381C194B98473419E7720122C823F254FB
S1133040002019E03102104B5B68591803AB0A7871
S11330501A70B2005A704020085C9870501CD870E6
S1133060984604A8844680200F5CC020085C8146F2
S1133070911C8A46033288E705B03CBC90469946C9
S1133080A246AB46F0BDC04614010020DD2E000070
S1133090D13F0000352C0000752C0000592C000095
S11330A0FEE7C04670B52C4B2C4A9A4203D02C4BF9
S11330B0294A9A4204D32B4B2B4A9A4210D31BE041
S11330C02A4B27480330C01A8008013080000023AF
S11330D02149224AD458CC5004338342FAD1EAE736
S11330E0214B1A1D1F490331891A89088900521876
S11330F0002102C39342FCD11D4BFF211D4A8A4388
S11331009A60022190235B001B4AD1501B4BD87854
S11331100321884302221043D870DD780C24A54390
S113312008200543DD70164B9E7B3025AE432025D9
S113313035439D739D7BA54328439873987B8843AF
S113314002439A730F4B596880220A435A600E4B0C
S113315098470E4B9847FEE700000020BC9D0000F6
S1133160AC00002020030020AC000020040000205C
S113317000ED00E00000000000700041005000413C
S11331800048004100400041853F00000933000031
S1133190F0B5474680B40C1C904600280CD1002A98
S11331A00DDD8F18094E0A4D3068211C2B68984795
S11331B00134BC42F8D104E00120404202E0002086
S11331C000E0404604BC9046F0BDC046D802002052
S11331D0D0020020F0B5474680B40E1C151C0138FF
S11331E0022810D8002A11D000240D4B98460D4F08
S11331F043461868315D3B689847002808DB013472
S1133200A542F5D107E00120404205E0002003E09B
S11332100120404200E0201C04BC9046F0BDC046A2
S1133220D8020020D4020020064B1B68002B02D1D8
S1133230054A044B1A60034A136818181060181CD6
S11332407047C046E00100202023002001204042B6
S11332507047C04680239B014B6000207047C046E6
S1133260012070470020704700B583B001A90023F6
S11332704B7001228A70CB7002230B700A20034B1F
S11332809847034B984703B000BDC04699270000F8
S1133290E906000070B582B0051C0E1C00226B46C6
S11332A0DA80064C281C69460631A0470028F9D16B
S11332B06B4606331B88337002B070BD811F00005B
S11332C070B5061C0D1C034C301C291CA04700289B
S11332D0FAD170BD551F000010B5074B984716284A
S11332E003D1064C0120A047FCE7002803D0044B7F
S11332F09847014B984710BDB92C0000B503000056
S1133300992D000000000000F0B55F4656464D467A
S11333104446F0B4BBB0954B9847954B984728ABBF
S11333208022D205289200225A60FF2119810021AF
S11333309A72DA720120242418552524185526205F
S11333401A5427201A549A6288204003D8602C20EB
S11333501A545A611A82DA76197619775976132231
S11333609A76597703212D229954824A1A63824A04
S11333705A63012252429A63DA63804A1A62804E87
S1133380804D814C301C291C28AAA0470028F9D163
S11333907B4C7E4B1C607E4A7E4B1A607E4A7F4B80
S11333A01A60201C774928AA774B98477C4E3368CB
S11333B0986800217B4DA847336858680021A847C6
S11333C02568281C784B98471F2210400122824010
S11333D0764B1A602368DA69002AFCD12A68022332
S11333E013432B607248734B984739AC01266670BF
S11333F00025A57026701120211C6F4FB84710209E
S1133400211CB8471220211CB84738A94D70CD7033
S11334108D700E700320694B9847FF20684B9847C6
S11334206848694B9847694B9847694B9847694C7A
S1133430A047FA204000684B9847A04719AC0020E9
S1133440211C664B984725780EA8694665312C22C5
S1133450634B98476B4679331A78597809021143BC
S11334609A7812040A43DC782406144304331A7845
S11334705978090211439A7812040A43DB781B062F
S113348013439A466B4681331A78597809021143DB
S11334909A7812040A43DB781B06134398466B465A
S11334A085331A785978090211439A7812040A4329
S11334B0DB781B0613439B466B4689331A7859788D
S11334C0090211439A7812040A43DB781B0613435A
S11334D099466B468D331A785978090211439A78C4
S11334E012040A43DF783F061743AA2D00D085E073
S11334F02F483C4B9847002800D07FE01394504657
S11335001490414615915B4616934D4617951897AE
S113351035490EAA0B1C61CA61C343CA43C361CABD
S113352061C322CA22C3314E201CB047041C0D1CA7
S11335305846B047009001915046B047029003911D
S11335404846B047049005914046B047069007911D
S1133550381CB047089009912548221C2B1C25498A
S113356088470520244B9847D4E0C046C92700006B
S1133570910900000200180002001700EC2C000062
S1133580DC020020001400425D1C0000D802002070
S1133590C1320000D402002095320000D002002085
S11335A070000020294000007D1B000000E100E0C5
S11335B01003002045030000411200009927000079
S11335C0D5080000693200004509000089020000A6
S11335D0E9070000D9320000CD090000752E000073
S11335E0D13F00004D030000F40100209D93000032
S11335F07C980000F53F0000B5030000AA48AB4EDC
S1133600B146B047AA48AB4B9847AB488046AB4F4E
S1133610B847AB48B0470020AA498A468847404685
S1133620B847A94E7088A94CA047B061B088A0479C
S1133630F0613088A0470A90A548C8470420D047C5
S11336404046B8473088A0477061B088A047A14B76
S11336509B46F1699847A04DFC218905A847F06174
S11336607088A0470C909D48C8470120D047404629
S1133670B8473088A0477169D847FC218905A84715
S113368070617088A047B169D847FC218905A847B3
S1133690B061B088A047041C914D0A987169A8478D
S11336A030620C98B169A8477062201CF169A84780
S11336B0B06228ACAA2323706846A130311C2C22A6
S11336C0884B98470020211C874B9847874B984785
S11336D0874DAB467069A847041C0D1C306AD84757
S11336E000900191B069D84702900391706AD8475D
S11336F004900591F069D84706900791B06AD847BD
S1133700089009917B48221C2B1CC8470520D047F0
S11337104046B8476C4EB046754C41460869A047D0
S11337200A900B9143469868A047061C0F1C454617
S1133730E868A047041C0D1C6F488246201C221C0C
S11337402B1CD0470C900D916C498946201C291CD8
S1133750221C2B1CD047041C0D1C301C391C321C91
S11337603B1CD047021C0B1C201C291CC847644B63
S11337709847021C0B1C0A980B99624CA047624B99
S11337809847041C0D1C614B1B78002B04D0604A25
S113379011784900117003E05D4A117849081170ED
S11337A05B4A1278023A7D2A02D9DB43574A1370E6
S11337B04148584B9847002805D0574B1A78013296
S11337C003210A401A70544B1B78012B12D0002B92
S11337D004D0022B1AD0032B24D038E03A4B98683B
S11337E0344B984728AB00229A701A70484A1278D2
S11337F05A702CE0344BD8682E4B984728AB0022E3
S11338009A70434A12781A705A7020E02E4B186945
S1133810284B984728AB00229A703D4909781970C3
S11338205A7014E0201C291C1C4B1B4A324CA04724
S11338301B4A1C4B334CA047384B98471D4B9847A9
S113384028AB334A12789A7000221A705A7028985A
S1133850334B9847334F80239B029946BB611A4BE5
S11338609A46234E9868B047041C0D1C5146C868FC
S1133870B0470090019153461869B04702900391F4
S11338802948221C2B1C094CA0472848A0474D4618
S11338907D6141E7C046C0460000000000806640EC
S11338A0F1D4C853FB2109400C990000F53F0000F6
S11338B0003C1C46210400001003002069030000A2
S11338C058990000B5030000F401002049020000EB
S11338D0AC990000396A0000D9700000E499000036
S11338E02D730000D13F0000092F0000DD2E0000E1
S11338F09D930000249A0000C9860000B17700005F
S1133900893C0000F57D000031390000E40100200D
S11339100D0000204D030000E5010020419400004B
S11339200D04000000440041789A0000E099000072
S1133930F8B556464D4644465F46C54BF0B44E0076
S1133940814688468A4676089E420CDDC14B9E42DB
S113395000DDA7E000D1A2E05046BF4A002800DC09
S1133960E3E0BE4BA6E0BE4B9E4200DDB8E0BD4B9B
S11339709E4200DCA6E001246442A3464A46434634
S11339804846414604F0A0FE061C0F1C321C3B1C9A
S113399004F09AFE8F4B8E4A041C0D1C04F094FE16
S11339A08D4A8E4B03F004FF221C2B1C04F08CFE6A
S11339B08B4A8C4B03F0FCFE221C2B1C04F084FE6F
S11339C0894A8A4B03F0F4FE221C2B1C04F07CFE73
S11339D0874A884B03F0ECFE221C2B1C04F074FE77
S11339E0854A864B03F0E4FE321C3B1C04F06CFE5B
S11339F0834A844B061C0F1C201C291C04F064FE03
S1133A00814A824B05F0F0F8221C2B1C04F05CFE6A
S1133A107F4A804B05F0E8F8221C2B1C04F054FE6E
S1133A207D4A7E4B05F0E0F8221C2B1C04F04CFE72
S1133A307B4A7C4B05F0D8F8221C2B1C04F044FE76
S1133A40021C58460B1C013000D170E05946CC00D2
S1133A50301C391C03F0ACFE4A46434604F034FEE5
S1133A60814D0B1C81492D19021C0C19101C191CA9
S1133A702268636805F0B8F84A46434605F0B4F88E
S1133A80021C0B1C2868696805F0AEF8021C50463D
S1133A900B1C00280EDA802000060B180AE0002810
S1133AA000D159E74A4643464846414603F080FE62
S1133AB0021C0B1C101C191C3CBC90469946A246C7
S1133AC0AB46F8BD584A594B03F072FE584A594B5D
S1133AD002F02AFF002800D14DE74A464346E9E7B1
S1133AE000F0CEF8624B041C0D1C9E4230DC614B8E
S1133AF09E4256DC221C2B1C03F05AFE4C4A4D4BB2
S1133B0005F072F84C4A4D4B061C0F1C201C291C56
S1133B1003F04EFE021C0B1C301C391C04F06AF925
S1133B208846002181468B4628E7534BC2E7301C68
S1133B30391C03F03DFE4A46434604F0C5FD021C11
S1133B400B1C4846414605F04FF8021C0B1CB1E71C
S1133B504A4B9E421ADC3A4A3A4B05F045F8384A39
S1133B60384B061C0F1C201C291C04F0ADFD304AE8
S1133B70304B03F01DFE021C0B1C301C391C04F0DE
S1133B8039F98146022088468346F7E62E482F49B4
S1133B90221C2B1C04F02EF98846032181468B46F7
S1133BA0ECE6234A234B05F01FF8214A214B061C5F
S1133BB00F1C201C291C03F0FBFD0B1C021C391CD0
S1133BC0301C04F017F90123814688469B46D5E64C
S1133BD011DA22E33AAD903FEB0D76244B7BA93FFB
S1133BE0513DD0A0660DB13F6E204CC5CD45B73FC9
S1133BF0FF8300922449C23F0D5555555555D53F75
S1133C002F6C6A2C44B4A2BF9AFDDE522DDEAD3F68
S1133C106D9A74AFF2B0B33F711623FEC671BC3F08
S1133C20C4EB98999999C93F9C7500883CE4377E08
S1133C30000000000000F03F000000000000004011
S1133C40000000000000F83F000000000000F0BF8A
S1133C50FFFF0F440000F07F182D4454FB21F93F6F
S1133C60FFFFDB3FFFFF1F3EB09A0000909A000069
S1133C70FFFFF23FFFFFE53FFB21F9BFFF7F03405A
S1133C804B0059087047C046F0B5474680B48AB027
S1133C90041C0D1C00F058F8294A0023D356904602
S1133CA0061C0F1C01330DD0201C291C00F032F916
S1133CB0002807D0201C291C204B1F4A02F020FE9C
S1133CC0002805D1301C391C0AB004BC9046F0BD54
S1133CD0012300931B4B049405950193002308933F
S1133CE04346029403951C78002C0ED1134B124AC0
S1133CF006920793684600F03DF900280FD0089B10
S1133D00002B11D1069E079FDCE70C490A48021CD0
S1133D100B1C04F06FF806900791022CEAD100F016
S1133D202BF921230360EAE700F026F9089C0460DC
S1133D30E8E7C046C046C04600000000000000009E
S1133D400E000020D09A0000F0B55F4656464D465E
S1133D504446F0B46C4E0D1C371C83B0041C021C8A
S1133D600B1C2F40B74200D1ADE0002900DC8BE0F2
S1133D702F1500D194E0654D09038023090B5B03E3
S1133D807F190B43FE0700D570E07F10C20FB846C1
S1133D905B00002780219B18162442000097002016
S1133DA0890345189D4204DC68185B1B009D6D184F
S1133DB00095D50F5B00013C5B1952004908002CAB
S1133DC0EFD180210026090620250196B4468946B4
S1133DD009E0834246D0D40F5B00013D1B19520019
S1133DE04908002D1CD066468C198342F1DD671802
S1133DF0E60FBC46F60782464E452CD01B1AA2425B
S1133E0080414042019F1B1A121B7F18D40F5B0094
S1133E10013D019750461B1952004908002DE2D17B
S1133E20134328D101984308009D394E6A10921912
S1133E30ED0702D5802109060B4340460705B91852
S1133E401C1C0D1C201C291C03B03CBC904699462C
S1133E50A246AB46F0BDFF0FFF077E427E41B2464D
S1133E608244CBE79442C2D9181CB4E7C20F5B006A
S1133E709B18400089E7019901312FD0019C01234F
S1133E8023401B195B08CFE76B005B081A43D9D0AA
S1133E90002700292BD1C10A153F40050029FAD07B
S1133EA08022520311421ED10023490001331142E2
S1133EB0FBD001242022E41AD21A3F19041CD44056
S1133EC02143984057E7201C291C04F0FDFB221CC9
S1133ED02B1C03F06DFC041C0D1CB3E7009A00239B
S1133EE001320092A0E7202201240023E5E7221CEE
S1133EF02B1C201C291C04F077FE021C0B1C03F055
S1133F0079FF041C0D1C9DE70000F07F01FCFFFFFE
S1133F100000E03F0B1C011C021C30B519430220B9
S1133F20002900D130BD802109068B4216D00D49ED
S1133F3004205C180C498C42F4D90C4D5C198C4259
S1133F40F0D90B4C590049080320A142EAD9074C87
S1133F500020A142E6D150425041E3E7002AE1D0DB
S1133F60EFE7C0460000F0FFFFFFDF7F0000F07FB7
S1133F70FFFF0F0000207047014B18687047C046D0
S1133F807000002070B50E4B0E4D0024ED1AAD10DC
S1133F901E1CAC4204D0A300F35898470134F8E740
S1133FA005F0FCFE084B094D0024ED1AAD101E1C53
S1133FB0AC4204D0A300F35898470134F8E770BD2D
S1133FC0A89D0000A89D0000A89D0000AC9D0000D5
S1133FD010B50023934203D0CC5CC4540133F9E7F9
S1133FE010BD031C8218934202D019700133FAE702
S1133FF0704700000FB40B4B13B51C68002C05D0A0
S1134000A369002B02D1201C01F060FE05ABA1685E
S1134010201C049A019300F0BFF816BC08BC04B03D
S11340201847C0467000002008B54A424A41802320
S11340305200DB0000F002F808BD0000F7B51E1CBA
S11340403C4B041C1D680F1C0192002D05D0AA696D
S1134050002A02D1281C01F039FE374B9C4201D1C1
S11340606C6808E0354B9C4201D1AC6803E0344BEA
S11340709C4200D1EC68019B022B57D8002E55DBE3
S1134080281C211C01F0A2FD00236360A361A38905
S11340901A0603D5281C216902F0EEF9A3898322AC
S11340A09343A381019B022B13D0002F25D1002E13
S11340B001D18026F600301C01F0CCFE071E18D179
S11340C08020C00001F0C6FE071E10D1012040422E
S11340D000E00020A38902221343A3810023A360EC
S11340E0231C4733236023610123636120E080267E
S11340F0F600A38980221343A381019A012A04D1E3
S1134100A3891343A3817342A3610E4B0020AB62C6
S1134110A3892760276166611A0709D50322134022
S11341205A4253415B421E40A66001E001204042D6
S1134130FEBDC04670000020349B0000549B00006C
S1134140749B0000255C0000936810B5013B9360EC
S1134150002B05DA9469A34208DBCBB20A2B05D005
S11341601368581C10601970C8B201E000F072FDA9
S113417010BDF8B5061C0F1C141CD518AC4208D091
S11341802178301C3A1CFFF7DFFF0134431CF5D1C2
S113419000E00020F8BD0000F0B59FB0061C0F1C25
S11341A003920593002804D08169002901D101F00C
S11341B08DFD754B9F4201D1776808E0734B9F4298
S11341C001D1B76803E0724B9F4200D1F768BB8905
S11341D01A070AD53B69002B07D006AD00236B6193
S11341E020236B763023AB763BE0301C391C00F087
S11341F089FD0028F1D001204042C2E0059A111D3A
S113420012680591002A76DB0992013423782E2B5B
S113421000D181E021785F48032201F025FE0028C7
S113422007D05C492A68431A40209840104328600C
S113423001342178631C584806220393297601F03F
S113424013FE002800D18AE0544B002B7ED1059B3D
S1134250072207339343083305936A690499531873
S11342606B61039C2378002B04D10399611A02919A
S113427010D003E0252BF8D00134F3E7301C391CAF
S1134280039A029BFFF775FF013075D06A690299A2
S113429053186B612378002B6ED0012252426A605E
S11342A06A4600235B3201342B60EB60AB60137011
S11342B0AB6521783A48052201F0D6FD002808D0E4
S11342C0374A0134831A012098402B681843286028
S11342D0EFE72B68D90603D56A4620215B321170BB
S11342E01A0703D56A462B215B32117022782A2AD9
S11342F084D0099B05E05242EA60022213432B60FA
S113430083E72278303A092A04D80A214B4301343E
S11343109B18F6E7099379E763782A2B09D1059B63
S113432002341A1D1B680592002B0DDA01235B422F
S11343300AE0013400232278303A092A04D80A21F9
S11343404B4301349B18F6E7079363E705AB0093EF
S1134350301C291C3A1C134B00F0C6F807E005ABCF
S11343600093301C291C3A1C0E4B00F05DFB04909A
S11343700499013100D070E7BB895A0600D53AE7A9
S11343800B981FB0F0BDC046349B0000549B000046
S1134390749B0000E69A0000EA9A0000E9440000D9
S11343A0E09A000073410000F0B58BB0161C1C1C91
S11343B0129904D580221206A4182D2300E00023AC
S11343C0149F0B7020239F43462F08D03A1C453A74
S11343D051424A41109902238918109100E00323A5
S11343E00093139B109A029308AB039309AB0192B9
S11343F00493321C231C00F083FD051C472F02D1BB
S11344001199C9072CD5109969180791462F14D111
S11344102B78302B0CD1301C211C164B144A02F083
S113442069FA002804D1109A012313999B1A0B608E
S1134430139A07991368C9180791301C211C0D4B56
S11344400B4A02F057FA002801D0079A0992099BF7
S113445007998B4204D25A1C099230221A70F6E74B
S1134460099B281C5A1B159B1A600BB0F0BDC04653
S11344700000000000000000F0B52B2385B0051CEF
S11344800C1C0270861C002901DA4C422D236B702F
S1134490092C1EDD6F460E37201C0A21019702F0FD
S11344A00DFA30313970201C0A2102F0B1F9013FB4
S11344B0041E092CF0DC019B3034013B1C706A465D
S11344C00F32301C934209D21A780133327001360C
S11344D0F5E73023E4183370B01C7470401B05B04A
S11344E0F0BD000000000000F0B593B00C1C0A926F
S11344F00B93189E051C01F059FC00680C9002F007
S1134500B5F80023109333680722073393431A1C2A
S113451008320D90277E186859683260A064E164FF
S1134520FFF7F8FC012819D1A06CE16CB94BB84A2B
S113453002F0E6F9002803D0231C2D2243331A701D
S1134540472F01D8B44E00E0B44E03232068236102
S11345500423984300212060099191E0A06CE16C50
S1134560FFF7D8FC236800280CD1472F01D8AC4EA4
S113457000E0AC4E03222261042293430022236014
S113458009927DE06268561C01D1062207E02021D1
S1134590381C8843472803D1002A01D101226260D4
S11345A08022D2001343236001936B463B33029372
S11345B00FAB6168039310AB05930023009106933E
S11345C00497A26CE36C281CFFF7EEFE20233A1C30
S11345D0061C9A430F99472A07D1CB1C02DB60685B
S11345E081422EDD023FFFB201E0652F12D8201C6C
S11345F001393A1C50300F91FFF73EFF109B099090
S1134600C2182261012B02DC2168C9072FD50132AF
S113461022612CE0662F15D16368002908DD216131
S1134620002B02D12268D2071DD50133C91811E02D
S1134630002B03D120680122104200D09A1C226171
S113464011E06727109A914206DB22682161D207A4
S113465009D50131216106E00123002901DC02238F
S11346605B1AD31823610F9B0020A36509906B4646
S11346703B331B78002B03D0231C2D2243331A70A9
S11346800B99281C009111AA211C0A9B00F058F9CF
S1134690013002D1012040424CE12268530504D488
S11346A0281C0A99321C236967E0652F00D8E0E0D2
S11346B0A06CE16C574B564A02F01CF900282BD031
S11346C0281C0A99584A01230B9EB0470130E1D0B7
S11346D00F9F1098874207DB2168C90704D4276815
S11346E0BF0700D50EE113E1281C0A990C9A0D9B13
S11346F00B9EB0470130CDD00026109B013B9E425B
S1134700EDDA221C281C0A991A3201230B9FB847A0
S11347100130BFD00136F0E70F98002830DC281CA8
S11347200A99414A01230B9FB8470130B2D00F9830
S1134730002805D11099002902D12268D207CED5CC
S1134740281C0A990C9A0D9B0B9FB8470130A1D0E5
S113475000270F980997099F43420A99281C9F42F2
S113476009DA221C1A3201230B9FB847013091D079
S1134770099F0137EDE7109B321C0B9EB047B5E053
S1134780109FA36D08979F4200DD0893089F002F98
S113479001DC002714E0281C0A99321C089B0B9F9B
S11347A0B8470130F5D175E7221C281C0A991A3242
S11347B001230B9FB847013000D16BE7099F0137F4
S11347C00997089FA36DFA43D2173A40099F9A1A92
S11347D09742E9DB0F981099F318099388420EDB8E
S11347E02268D2070BD4109B0F9FF618DB1B099F7E
S11347F0F61B9E4200DD1E1C002E17DC1FE0281C49
S11348000A990C9A0D9B0B9FB8470130EBD141E7F5
S11348100000000000000000F19A0000F59A00007A
S1134820F99A0000FD9A0000019B0000281C0A99D7
S1134830099A331C0B9FB847013000D12AE700279F
S11348400BE0221C281C0A991A3201230B9FB8473B
S1134850013000D11EE7099F0137099710980F997D
S1134860F343DB17099F421A3340D31A9F42E8DB14
S113487035E71098012802DC01231A423AD0281C9B
S11348800A99321C01230B9FB847013000D101E77C
S1134890281C0A990C9A0D9BB847013000D1F9E6FF
S11348A0A06CE16C254B244A02F024F8002801D0C6
S11348B0002610E0109B721C013B281C0A991CE086
S11348C0221C281C0A991A3201230B9FB847013075
S11348D000D1DFE60136109B013B9E42F0DB221C37
S11348E0281C0A995032099B0B9FB847013000D00D
S11348F0F5E6CFE60A99281C321C0B9EB04701301E
S1134900EDD1C7E60026E0681199431A9E4205DB03
S1134910119BE06898420DDA181C0BE0221C281C3D
S11349200A99193201230B9FB847013000D1B1E62F
S11349300136E8E713B0F0BD0000000000000000FD
S1134940F7B5151C01930A698B68061C0C1C93426D
S113495000DA131C221C2B6043321278002A01D087
S113496001332B602068800602D52B6802332B604C
S1134970216806270F401FD0231C43331B785A1E7F
S11349809341226892061FD5E11840313020C87047
S1134990211C5A1C45310978A21840320233D170C7
S11349A012E0221C301C019919320123089FB847D8
S11349B0013011D0009F01370097E0682968009FFB
S11349C0431A9F42EDDBD7E7221C301C0199433286
S11349D0089FB847013002D10120404223E02068FB
S11349E006212B68E26801400025042903D1D51A69
S11349F0EB43DB171D40A26823699A4201DDD31AF9
S1134A00ED1800270097009FAF420BDA221C301CE0
S1134A1001991A320123089FB8470130DCD0009F66
S1134A200137EFE70020FEBDF0B50D1C8BB0433518
S1134A3006920590079304950B7E0C1C109A6E2B1E
S1134A4000D1A7E011D8632B22D009D8002B00D1C4
S1134A50B0E0582B00D0C0E045310B707B4D4EE0E8
S1134A60642B1CD0692B1AD0B7E0732B00D1A5E0BE
S1134A7009D86F2B29D0702B00D0AEE00E6820230C
S1134A8033430B6036E0752B1FD0782B32D0A4E073
S1134A9013680D1C191D423511601B689FE02168C5
S1134AA013680E0603D5191D11601E6805E048063B
S1134AB0F9D5191D116000215E5E644B002E3BDAAE
S1134AC0049D2D2276422A7036E0216813680E0672
S1134AD003D5191D11601E6804E04806F9D5191D97
S1134AE01E881160594B227E039308276F2A1ED01B
S1134AF00A271CE0231C78214533554D1970116891
S1134B002368081D039510601E0601D50E6802E097
S1134B105806FBD50E88D90702D5202213432360FB
S1134B201027002E03D1226820239A432260231CDD
S1134B30002243331A7001E003930A276368A360D9
S1134B40002B03DB2568042295432560002E02D147
S1134B50049D002B0ED0049D301C391C01F04EFE28
S1134B600398013D435C301C2B70391C01F002FE9C
S1134B70061EF1D1082F09D12168C90706D562683C
S1134B8023699A4202DC013D30232B70049E731B7F
S1134B9023612AE0086813684969050604D5181DCD
S1134BA010601B68196005E04606F8D5181D1060F2
S1134BB01B68198000232361049D16E01368191DE6
S1134BC011601D68281C01F051FD63682061984242
S1134BD000D923612069606004E0251C42352B70F4
S1134BE001232361049E00233370079E05980096D9
S1134BF0211C09AA069BFFF7A3FE013002D1012064
S1134C00404221E02A1C059806992369079DA8477C
S1134C100130F4D02668B60705D4099BE0689842B1
S1134C2012DA181C10E00025E0680999431A9D4225
S1134C30F3DA221C0598069919320123079EB0471E
S1134C400130DCD00135EFE70BB0F0BD039B000071
S1134C50149B000070B5051C0E1C141C002804D005
S1134C608269002A01D101F031F8234B9C4201D121
S1134C706C6808E0214B9C4201D1AC6803E0204BF6
S1134C809C4200D1EC68A369A360A3891A070AD5E2
S1134C902369002B07D022682369F6B2D01A62690F
S1134CA090420FDB08E0281C211C00F02BF80028A0
S1134CB0F1D0012040421DE0281C211C00F086FF99
S1134CC00028F6D1A3680130013BA36023685A1C75
S1134CD022601E706369984205D0A389301CDA07EC
S1134CE008D50A2E06D1281C211C00F06FFF0028CD
S1134CF0DFD1301C70BDC046349B0000549B0000C3
S1134D00749B0000344B70B51D68061C0C1C002DF0
S1134D1005D0A969002902D1281C00F0D7FF2F4B28
S1134D209C4201D16C6808E02D4B9C4201D1AC68D7
S1134D3003E02C4B9C4200D1EC68A28993B2190782
S1134D4021D4D90605D40923336040231A43A28110
S1134D503FE05A0713D5616B002908D0231C443364
S1134D60994202D0301C01F087FB00236363A389BE
S1134D7024229343A3810023636023692360A389CE
S1134D8008221343A381216900290BD1A389A022FE
S1134D9092001A4080239B009A4203D0301C211CAD
S1134DA001F008F8A38901221A4005D061690022A4
S1134DB0A2604A42A26103E0990700D46269A2603A
S1134DC022690020824206D1190604D540221343E9
S1134DD0A3810120404270BD70000020349B00007C
S1134DE0549B0000749B0000F0B589B006910B69D8
S1134DF00169051C002699427FDB069C5F1E143462
S1134E0004940499BC000919021C0B68143205911E
S1134E101419191C01312068039201F0ABFC0290B3
S1134E20B04238D00499039B8C460196079662469B
S1134E3004329446043A40CA0299B0B24843310C51
S1134E40029E019A71431018020C51180A0C019227
S1134E501A6880B296B2079A89B2B618301A1E68D8
S1134E60320C521A06149219111480B21204059EBF
S1134E701043079101C36645D9D2216800290AD19C
S1134E80039E043CB44201D82F6104E02168002948
S1134E90FAD1013FF4E7281C069901F005FA00282D
S1134EA02ADB029C039A0134049B029400241168B7
S1134EB040CB88B200191468B1B2401A360C210CE8
S1134EC0891B041409190C1480B20904059E0143BA
S1134ED002C29E42EBD2039CBB00E3181E68002E64
S1134EE00AD1039C043BA34201D82F6104E01E684D
S1134EF0002EFAD1013FF4E7029E301C09B0F0BD48
S1134F00F0B5446A9BB00790239D04920593002C4E
S1134F1008D1102000F09EFF079948624460846025
S1134F200460C460079C636A196800290AD05B683E
S1134F3001229A404B608A60201C00F0D8FF636A0B
S1134F4000221A600598002805DA01232B6043002B
S1134F505B08059301E000232B60059EBE4B321CC9
S1134F601A409A4218D1BD4B229C049D2360002D07
S1134F7001D1360301D0BA4800E0BA48249C002C81
S1134F8001D100F093FDC278C31C002A00D0053380
S1134F90249D2B6000F08AFD049C059DA54BA44A2A
S1134FA0201C291C01F0A6FC071E0CD0229C249D69
S1134FB001232360002D01D100F075FDAA4828606B
S1134FC0013800F073FD19AB009318AB01930798F7
S1134FD02B1C221C01F0EAF973000A905B0D09D026
S1134FE0201CA24C2A03120B211C1143A04A169721
S1134FF09E181BE0189B199C1D199E4B9D4209DBB2
S11350009D49049A9D4B6818C2405B1B101C9E402E
S1135010304304E09A48049B401B8340181C04F06E
S113502089F9984C6E1E012509191695824A834BFD
S113503003F0DAFD824A834B03F046FB824A834B3A
S113504002F0B6FB041C301C0D1C04F035F9804A38
S1135050804B03F039FB021C0B1C201C291C02F0A2
S1135060A7FB041C0D1C04F0F3F8724B704A069065
S1135070291C201C01F044FC00280DD0069804F0E3
S11350801BF90B1C021C291C201C01F033FC069C80
S113509043424341E41A0694069C01251395162CB9
S11350A010D8794AE300D31818685968049A059B04
S11350B001F03AFC002804D0013C00250694139525
S11350C000E0139018980024861B351C0294013DBF
S11350D0099504D5099C0025644202940995069C0F
S11350E0002C06DB099D12942D19002409950D94BA
S11350F007E0069C029D2D1B0295654200240D9538
S11351001294209D0124092D24D8052D02DD043D8F
S11351102095002420980238032823D801F020FB8E
S1135120060E0204012502E0012508E00025109581
S1135130219D002D1FDD0C95089509E00025109593
S11351400698219D2D180C9501350895002D18DD24
S11351502B1C17E0634200250C93089320951094B0
S1135160122306E001256B4210950C930893002549
S11351701223219506E001250C9508952B1C2195F9
S113518000E0012307980022456A6A600422101C8B
S113519014306968984203D8013169605200F6E717
S11351A0079800F06CFE2860079D6B6A089D1B68D9
S11351B00B930E2D00D987E1002C00D184E1049CCF
S11351C0059D14941595069D002D61DD2A1C0F2361
S11351D01A402D49D2008A18146855680E940F9508
S11351E0069D2A4C2F110225F80617D51F40149846
S11351F01599226A636A02F0FDFD03250490059166
S11352000CE0F90708D50E980F992268636803F03B
S11352105BFA0E900F9101357F100834002FF0D106
S1135220049805990E9A0F9B02F0E4FD4EE0C046E7
S11352300000000000000000000000000000F83F33
S113524061436F63A787D23FB3C8608B288AC63F88
S1135250FB799F501344D33F0000F07F0F270000D9
S11352602E9B0000259B0000029B00000000F03FE5
S113527001FCFFFFEFFBFFFF120400000EFCFFFF29
S1135280EEFBFFFF000010FEA09B0000689C0000E6
S1135290069C02256742002F1AD00F233B40CC4ABC
S11352A0DB00D318149815991A685B6803F00CFA9C
S11352B0C84E3F11002F09D0FA0704D5326873682D
S11352C0013503F001FA7F100836F3E704900591E5
S11352D0139C002C1ED0049E059FB44BB24A301C74
S11352E0391C01F00DFB002814D0089C002C11D0AF
S11352F00C9C002C00DCE3E0069C301C013C391CB7
S1135300AB4AAC4B119403F0DFF9013504900591DD
S11353100C9C02E0069C1194089C281C049E059F8A
S11353200E9403F0C9FF321C3B1C03F0CDF9A24AD2
S1135330A24B02F03DFA041CA74808180E990490E9
S1135340051C00291BD19E4A9E4B301C391C03F0BE
S11353504BFC221C049B061C0F1C01F0E5FA0028E0
S113536000D05CE2221C8025049C2D06301C391CD4
S1135370631901F0C5FA002800D047E2A0E00E9AB4
S1135380934B013A1098D2009B18002849D01A6810
S11353905B688D488D4902F02DFD2B1C221C03F007
S11353A023FC049005910B9D391C301C03F050FF25
S11353B0041C03F081FF021C0B1C301C391C03F07D
S11353C013FC01356B1E30341C70049A059B061CBB
S11353D00F1C01F095FA002800D053E3321C3B1C4B
S11353E07249714803F000FC049A059B01F088FAA5
S11353F0002800D0CBE00B9C2B1B0E9CA3425FDA51
S1135400049805996A4A6B4B03F05EF9684A694B44
S113541004900591301C391C03F056F9061C0F1C2E
S1135420C2E718685968221C2B1C03F04DF90B9C29
S11354300E9D0490059165191795391C301C03F0D5
S113544007FF051C03F038FF021C0B1C301C391C21
S113545003F0CAFB30352570179D0134061C0F1C60
S1135460AC4226D10E980B9C574A584B25180498E9
S1135470059902F09DF9021C0B1C301C391C01F02B
S113548053FA002800D082E0049A059B4E484F4905
S113549003F0AAFB021C0B1C301C391C01F030FA6F
S11354A000280DD06B1E1A78302A00D0EAE21D1CA9
S11354B0F8E73F4A3F4B03F007F9061C0F1CBCE713
S11354C0149C159D04940595199B002B00DA9FE00C
S11354D0069D0E2D00DD9BE03D4AEB00D3181C68B1
S11354E05D6802940395219D002D14DA089C002C1C
S11354F011DC00D08CE1324A324B0298039903F05C
S1135500E3F8049A059B01F019FA089F3E1C002851
S113551000D07FE187E10B9D049E059F029A039BC7
S1135520301C391C02F066FC03F092FE041C03F0EC
S1135530C3FE029A039B03F0C7F8021C0B1C301C29
S1135540391C03F051FB0135021C201C30300B1CAC
S1135550691E08700B98291A0898814248D1101CBA
S1135560191C02F025F9029A039B061C0F1C01F07A
S1135570DBF900280DD1301C391C029A039B01F081
S1135580B9F9002800D17FE2E10702D47CE2119C42
S113559006946B1E1A78392A26D10B9CA3421DD07F
S11355A01D1CF6E7C046C046000000000000F03FA6
S11355B000000000000024400000000000001C4027
S11355C00000000000001440000000000000E03F64
S11355D0A09B0000689C00000000C0FC069C3022D8
S11355E0013406940B9C22701A7801321A704BE233
S11355F0101C191CC94BC84A03F066F8C84AC94BA9
S1135600061C0F1C01F076F9002800D186E73BE266
S1135610109D002D31D0209C012C0BDC169D002DFB
S113562002D0C1481B1802E0189936235B1A0D9D5D
S1135630029C16E0089D0D9C013DAC4201DB651BFC
S113564006E00D9C0D952B1B129C0025E41812946A
S1135650089C002C03DA02980023041B01E0029C3E
S1135660089B0299099AC9180291D2180798012136
S1135670099200F0DCFC061C02E00D9D029C109EC9
S1135680002C0CD0099B002B09DDA34200DD231C58
S113569002980999C01AC91A0290E41A09910D9A3C
S11356A0002A21DD109B002B18D0002D10DD311CA9
S11356B02A1C079800F054FD061C311C0A9A07980E
S11356C000F0BEFC0A99071C079800F010FC0A972A
S11356D00D98421B08D007980A9902E007980A9986
S11356E00D9A00F03DFD0A900798012100F09FFCFF
S11356F0129D071C002D05DD391C07982A1C00F09B
S11357002FFD071C20980025012810DC0499A942CC
S11357100DD1059A1303AB4209D1844B134206D031
S1135720029D01350295099D0135099501251299BE
S11357300120002908D03B6903339B00FB185868FB
S113574000F02CFC2023181A099A1F2380181840F3
S11357500DD020231B1A042B06DD1C23181A029BD0
S113576024181B18029308E0042B08D0181C029973
S11357701C300918099A0291241812180992029BE4
S1135780002B05DD07980A991A1C00F03BFD0A90CE
S11357900998002805DD391C0798099A00F032FDA4
S11357A0071C139900291BD00A98391C00F07CFDB2
S11357B0002815DA069A0023013A069207980A99F6
S11357C00A2200F0ADFB0C9B0A9010980893002865
S11357D006D0311C07980A22002300F0A1FB061C06
S11357E0089900292ADC209A022A27DD002911D1F0
S11357F0391C07980522089B00F092FB071C391CF2
S11358000A9800F051FD00280DDC03E00E9F00E033
S113581000273E1C219C0B9DE44306940BE0119D44
S11358200E9F06953E1C0B9C31232370069C0B9DFA
S1135830013401350694029600260FE110980028E1
S113584000D1C5E0002C05DD311C0798221C00F0B6
S1135850D9FC061C0296002D12D07168079800F03E
S11358600EFB3269311C0232041C92000C310C30E4
S1135870FEF7AEFB0798211C012200F0C3FC029046
S11358800B9C089D231C013B5B1909941093391C44
S11358900A98FFF7A9FA311C0D90041C0A9800F02D
S11358A003FD391C0C90029A079800F018FD051CA2
S11358B0C0683034002805D10A98291C00F0F4FC93
S11358C0089001E001210891291C079800F00FFBC2
S11358D0089B209D2B430DD104980123034209D139
S11358E0392C44D00C9D002D01DD0D9C3134099DD3
S11358F0013544E00C9D002D03DA089D002D17DCD2
S113590028E00C9B209D2B4329D1049801230342BA
S113591025D1F2E7C046C046000000000000244044
S11359200000000000000000330400000000F07FCD
S11359300A990798012200F065FC391C0A9000F0CE
S1135940B3FC002802DC05D1E10703D5392C0ED0C5
S11359500D9C3134099D099A013514707EE0099D2E
S113596001350C95089D002D0CDD392C05D1099DC0
S1135970099C3923013523705BE00C9D013409989F
S113598004706BE00999109A0C9D0C7091423DD003
S11359900A990A220023079800F0C2FA029C0A908E
S11359A0311C07980A220023A64204D100F0B8FA59
S11359B0061C029009E000F0B3FA0299061C0A22C0
S11359C00798002300F0ACFA02900C9D09955EE75D
S11359D00B9D391C0A98FFF707FA041C30340B9806
S11359E008992C7001352B1A8B4207DB0B1E00DC47
S11359F001230B9A0296D518002607E007980A9906
S1135A000A22002300F08CFA0A90E2E70A99079828
S1135A10012200F0F7FB391C0A9000F045FC002835
S1135A2007DC15D1E30704D412E00B9CA34205D094
S1135A301D1C6B1E1A78392AF7D006E0069C312308
S1135A40013406940B9C237008E001321A7005E0BF
S1135A506B1E1A78302A01D11D1CF9E70798391CEE
S1135A6000F045FA029C002C0ED0002E05D0A64270
S1135A7003D00798311C00F03AFA0798029900F015
S1135A8036FA01E0119C069407980A9900F02FFA5F
S1135A9000232B70069B229C01332360249C002C42
S1135AA003D0256001E0024800E00B981BB0F0BD74
S1135AB0019B0000C046C046F7B58B89051C0C1C31
S1135AC019075ED46268002A02DC276C002F1ADDF5
S1135AD0E76A002F17D000222E682A608022520124
S1135AE01A4001D0626D15E0281C216A0123B847D1
S1135AF0021C411C0ED12B68002B0BD01D2B01D096
S1135B00162B02D12E6000205EE0A38940210B43B6
S1135B10A38159E0A3895F0706D56168636B521AB4
S1135B20002B01D0276CD21B281C216A0023E76AB2
S1135B30B847A289411C06D12B68002B03D01D2B2A
S1135B4001D0162B19D10023636023692360D70485
S1135B5005D5411C02D12A68002A00D16065616B19
S1135B602E600029CFD0231C4433994202D0281C34
S1135B7000F082FC0020606326E040231A43A281E7
S1135B8022E02669002EBED027680022BF1B0197A1
S1135B902660990700D16269A260019F002FB2DDDF
S1135BA0281C216A321C019BA76AB847002806DC1E
S1135BB0A389402213430120A381404204E0019FB2
S1135BC036183F1A0197E8E7FEBD00000A6938B5A8
S1135BD0051C0C1C002A01D100201CE0002804D064
S1135BE08369002B01D100F071F80B4B9C4201D169
S1135BF06C6808E0094B9C4201D1AC6803E0084B97
S1135C009C4200D1EC680C22A35E002BE4D0281C3B
S1135C10211CFFF751FF38BD349B0000549B00004A
S1135C20749B0000F8B5041C071C4834002C12D0E7
S1135C30A5686668013E0CD4AB89012B07D90E22F6
S1135C40AB5E013303D0381C291CFFF7BFFF683556
S1135C50F0E72468EAE7F8BD002310B5041C0360EC
S1135C604360836081814366C281036143618361D0
S1135C70191C08225C30FEF7B4F9054B24626362F8
S1135C80044BA362044BE362044B236310BDC04680
S1135C90D5650000FD650000356600006166000002
S1135CA070B54B1E68255D430E1C291C743100F031
S1135CB02BFC041E08D00021016046602A1C0C3015
S1135CC0A0606832FEF78DF9201C70BD836913B59E
S1135CD0041C002B27D18364C3640365124B134A4D
S1135CE01B688262984201D101238361201C00F069
