:10000000183D0020013B0000FD3A0000FD3A0000D1
:1000100000000000000000000000000000000000E0
:10002000000000000000000000000000FD3A000099
:100030000000000000000000FD3A0000FD3A000052
:10004000FD3A0000FD3A0000FD3A00009109000071
:10005000FD3A0000FD3A0000FD3A0000FD3A0000C4
:10006000FD3A0000D9250000E9250000F92500002F
:10007000092600000000000000000000FD3A00001A
:10008000FD3A0000FD3A0000C5350000D5350000FE
:10009000E53500000000000000000000AD18000081
:1000A000FD3A0000FD3A0000FD3A0000FD3A000074
:1000B00010B5064C2378002B07D1054B002B02D03E
:1000C000044800E000BF0123237010BDAC000020F5
:1000D0000000000084A3000008B5084B002B03D0EB
:1000E0000748084900E000BF07480368002B03D019
:1000F000064B002B00D0984708BDC046000000000A
:1001000084A30000B000002084A3000000000000D1
:10011000F0B55F4656464D464446F0B485B0584962
:1001200088464C690F6A0888564EB047564D211CC8
:10013000A847564C391CA047414688608B699946B0
:100140004F6A4888B0474946A847391CA0474146EE
:10015000C860CB6999468F6A8888B0474946A847E6
:10016000391CA047041C41460861494B9A46C8689F
:1001700098470090019141468868D047061C0F1CA3
:10018000201CD047041C0D1C424B9946221C2B1CE2
:10019000C8470290039140498B46201C291C221C11
:1001A0002B1CC847041C0D1C301C391C321C3B1C6A
:1001B000C847021C0B1C201C291CD847374CA047E1
:1001C000021C0B1C00980199354CA047354CA047E8
:1001D000284B274AC847284A284B314CA047324C65
:1001E000A0474146C8628868D047009001914346C5
:1001F000D868D047061C0F1C44462069D047041C11
:100200000D1C301C391C321C3B1CC847029003914A
:10021000301C391C321C3B1CC847061C0F1C201C00
:10022000291C221C2B1CC847021C0B1C301C391C0F
:10023000D8471A4CA047021C0B1C00980199184C77
:10024000A047184CA0470B4B094AC8470A4A0B4B1A
:10025000134CA047144CA0474146086305B03CBC72
:1002600090469946A246AB46F0BDC046C046C04641
:10027000000000000080664000000060FB21094093
:100280001802002041060000E5780000C972000055
:1002900055990000818C0000697D000041420000FA
:1002A000AD830000E93E0000F9990000C046C04659
:1002B000F0B55F4656464D464446F0B49DB0061C28
:1002C00088464648464FB8474648474B98474046B9
:1002D000464DA8474648B8470020464B9B4698479E
:1002E0004046A8477088444CA047B061B088A047FA
:1002F000F0613088A0470A904048B8470420D847AA
:100300004046A8473088A0477061B088A0473C4B62
:100310009A46F16998473B4B9946FC2189059847D5
:10032000F0617088A0470B903748B8470120D84744
:100330004046A8473088A0477169D047FC2189050D
:10034000C84770617088A047B169D047FC21890512
:10035000C847B061B088A047051C2C4C0A98716949
:10036000A04730620B98B169A0477062281CF16900
:10037000A047B0620DACAA23237068463530311C0B
:100380003422234B98470020211C224B9847224BB4
:100390009847224B984670699847041C0D1C306A98
:1003A000C04700900191B069C04702900391706A04
:1003B000C04704900591F069C04706900791B06A64
:1003C000C047089009911648221C2B1CB8471DB045
:1003D0003CBC90469946A246AB46F0BD4C9B000003
:1003E000AD450000003C1C46290E0000F509000048
:1003F000989B0000BD0D000041060000EC9B000032
:10040000F16F000091760000249C0000E578000068
:100410008945000065390000393900005599000010
:10042000649C000010B5074B9847162803D1064C72
:100430000120A047FCE7002803D0044B9847014B5C
:10044000984710BD15370000BD0D0000F5370000BE
:10045000F0B55F4656464D464446F0B4A9B0071C79
:100460004F4B9847C8204F4B984719AC0020211C90
:100470004D4B98472478A3460CA869466531342231
:100480004A4B98476B46793319785A7812020A43D7
:10049000997809040A43DB781B0613439A466B4696
:1004A0007D3319785A7812020A43997809040A436D
:1004B000DB781B06134398466B4681331A785D78C8
:1004C0002D0215439A7812041543DB781B061D4351
:1004D0006B46853319785A7812020A4399780904D1
:1004E0000A43DB781B06134399466B4689331A7817
:1004F0005E78360216439A7812041643DB781B06A0
:100500001E436B468D331A785C78240214439A7824
:1005100012041443DB781B061C435B46AA2B34D120
:10052000381C234B984700282FD15346119343463C
:10053000129313954B461493159616941D480CA9C7
:1005400034221A4B98471C4F5046B8470A900B91DB
:100550004846B847009001914046B8470290039141
:10056000301CB84704900591281CB84706900791A5
:10057000201CB8470890099110480A9A0B9B104913
:10058000884705200F4B984703E00A48391C0E4B5B
:10059000984729B03CBC90469946A246AB46F0BD70
:1005A0002504000001140000D13800008945000036
:1005B000D90900001802002055990000B89C0000DD
:1005C000AD450000BD0D0000B102000010B5144C97
:1005D0002278144B1B68920013490888D358984717
:1005E00020780130C0B2114B1978114B9847C9B22D
:1005F0002170104B595C104B1B685A7E52B2002A76
:10060000FBDB1A691F2082430A431A615A7E52B2E9
:10061000002AFBDB084804490122084B984710BD1B
:10062000C8000020E4020020140200200000002086
:10063000B56D0000489D0000C40200207D19000037
:1006400010B5094B98470949094B9847094B9847FA
:10065000044B034A084CA047084B984710BDC046BE
:100660006666666666660A40C97C000000FF7F47D2
:10067000C972000055990000818C0000F9990000B2
:10068000F0B58FB0051C0E1C02AC201C324B9847F5
:100690000023A360E022D2006280032262702373F1
:1006A000102323712D4F381C2D49221C2D4B9847A8
:1006B0003B685A7E52B2002AFBDB802109042A4A99
:1006C0001160197802220A431A70244B1A68537E6B
:1006D0005BB2002BFBDB214C201C24490022244B65
:1006E0009847E27E01231343E37601A900224A7072
:1006F000CA708A7001220A7003201E4B9847032D8E
:1007000013D002D8022D16D01BE0042D07D0052DE2
:1007100017D101A901230B700420164B984701A99A
:1007200001230B700620134B984701A901230B707E
:100730000520104B984701A901230B7004200D4B95
:1007400098470D4B1D700D4B1E6004480C4901224B
:100750000C4B98470FB0F0BD2D140000C4020020D0
:10076000004000427514000000E100E0CD050000EB
:1007700069190000F531000000000020E4020020AB
:10078000140200207D19000010B5CA88C388D21A4F
:1007900092060C7964044B799B0523438C782403DF
:1007A000234313430279002A05D1CA78002A02D0D4
:1007B000802252021343487880010A78104318437C
:1007C00010BDC04610B58C0EC388E318D3808B01D2
:1007D0001B0F53718B02DB0E13710379002B03D0B7
:1007E000CB03DB0E937005E00B041B0F9370CB0360
:1007F000DB0FD3700B059B0E53703F231940117014
:1008000010BDC04610B50268082480230B49CC50A7
:1008100001688B7A5BB2002BFBDB138802218B43D0
:10082000138000230374437401688B7A5BB2002B3E
:10083000FBDB118801230B43138010BD00E100E0B6
:1008400010B50468034B9847A37A5BB2002BFBDB1F
:10085000206110BD8907000070B50E1C141C0568CE
:100860001723012A0DD8084B9847AB7A5BB2002BAF
:10087000FBDBE4002D19A861327A0023062A00D898
:100880002A77181C70BDC0468907000030B583B0B8
:10089000041C151C01601C4B996920220A439A61B3
:1008A00001A902230B700420184B98470420184B11
:1008B0009847201C174B98472B792371EB7863716D
:1008C000EB88E380144B1C6023682A88297900296F
:1008D00002D008210A4301E048210A43A9780029EF
:1008E00001D080210A431A80EA78002A04D059886E
:1008F0008022D2010A435A80291C0831201C002280
:10090000064B984703B030BD000400401931000089
:100910008D30000005080000E802002059080000A2
:1009200038B50C1C01681723012A08D8D2008D188D
:10093000A969221C034B98472B7F23720023181CA4
:1009400038BDC046C5070000012A01D917200AE0BA
:10095000931C9B001950037C012191400A1C1A43EF
:10096000D2B202740020704710B50368012902D189
:100970008022DA7104E001228A4001242240DA71E7
:10098000437C01228A40111C1943C9B2417410BD35
:1009900010B50E4B1B681C685A7C197C081C104053
:1009A000227AE1790A40D10906D0810701D5DB68B6
:1009B00098478023237207E0D10705D5C20701D5E8
:1009C0009B6898470123237210BDC046E8020020AF
:1009D0000023837283807047031C0078C0B2002814
:1009E00006D05A78002A02D101225A7000E0002075
:1009F0007047C04638B5051C024C281CA04700288B
:100A0000FBD038BDD90900008378D909002200291C
:100A100003D15A09D20112495218126A1F210B4000
:100A2000012199400B1C13405A1E9341827A9A422D
:100A30000DD1838801339BB28380632B0ED9037859
:100A4000002B0BD1012303700023437006E0437891
:100A5000002B01D000230370002383807047C04621
:100A60000044004130B583B00E4C201C0E4B98471B
:100A70000A23A37001AC012363700022A2702370CB
:100A80001120211C094DA8471020211CA847122025
:100A9000211CA847064B9847FF20064B984703B0F8
:100AA00030BDC046CC000020D1090000751C0000FC
:100AB0000D1200000111000000B583B00848094B79
:100AC000984701A900234B7001228A70CB70022342
:100AD0000B700A20044B9847044B984703B000BDA5
:100AE000CC000020090A0000F53100000D110000C3
:100AF000F0B54F464646C0B487B0404B1B78002B3C
:100B000004D03F4A11784900117003E03C4A117843
:100B1000490811703A4A1278023A7D2A02D9DB4319
:100B2000364A13703748384B9847002805D0374B62
:100B30001A78013203210A401A70344B1B78012BBA
:100B400012D0002B04D0022B1AD0032B24D02EE07D
:100B50002F4B98682F4B984705AB00229A701A705C
:100B6000274A12785A7022E0294BD868294B9847B7
:100B700005AB00229A70224A12781A705A7016E059
:100B8000234B1869234B984705AB00229A701C49E8
:100B9000097819705A700AE01D4BD86A1D4B9847A6
:100BA00005AB174A12789A7000221A705A7005988D
:100BB000194B9847194E8027BF02B761144B9946CD
:100BC000174B98464B469868C047041C0D1C4B4673
:100BD000D868C047009001914B461869C047029001
:100BE00003911048221C2B1C0F4CA0470F48A04714
:100BF000776107B00CBC90469946F0BDD900002043
:100C000001000020CC000020D9090000D8000020FD
:100C100018020020290E0000150E000000440041BB
:100C2000559900004C9D0000AD450000209C00003F
:100C300038B50D4D0D4C281C211C00220C4B98473B
:100C40000723237220780130C0B23C21094B98471A
:100C50002170281C211C0022074B9847074B1B685A
:100C6000002B00D0984738BDEC020020DC000020AB
:100C700021090000B56D00005908000000030020A4
:100C800010B586B001AAA0231B0113800023937026
:100C9000D3701371FA21C900D18003A8037068468C
:100CA0004373684683736846C373012304A80370C3
:100CB000684643746B46598206231374094C201C02
:100CC00009490A4B984721680822094B1A60226893
:100CD000937A5BB2002BFBDB0A88022313430B8061
:100CE00006B010BDEC020020001400408D0800008A
:100CF00000E100E010B5064B1860064C201C0649C8
:100D00000022064B9847201C0021054B984710BD38
:100D100000030020EC020020310C00004909000013
:100D20006909000070B586B00D1C04AC0023237067
:100D30006370A370E370012626710C4BE3800A23D5
:100D400063710B4B9847281C0A4B98470A4D281C87
:100D5000211C0A4B984701A90B1C05CC05C30E7238
:100D6000281C0022064B984706B070BDDF07000024
:100D7000810C0000F50C0000EC020020410800008E
:100D80005908000000B583B0084809490022094B02
:100D9000984701A980230B7000234B7001228A70B1
:100DA000CB700A20044B984703B000BD4C020020D2
:100DB0008802002025220000F5310000134B00229C
:100DC0001A705A709A7005281ED88000104B1B5854
:100DD0009F46FF220D4B1A7016E0FF220B4B5A70F4
:100DE00012E0FF22094B9A700EE0084BFF221A70A6
:100DF0009A7009E0054BFF225A701A7004E0034B09
:100E00006F225A701A709A707047C046040300200F
:100E1000649D000082B0021C000C024B1A80987086
:100E200002B0704704030020F0B55F4656464D46B9
:100E30004446F0B483B0041C0021A14B984700281D
:100E400002D080231B06E418201C9E4B9847061CEA
:100E50000F1C964B944A9C4DA847002835D0201C67
:100E60009A4B984780469A4C9A4D9B4B9946FA214B
:100E700089009847994F0A21B847C8B2984E0A216D
:100E8000B047C9B26B5C237040466421C8470A2151
:100E9000B847C8B20A21B047C9B26B5C637040461C
:100EA0000A21C8470A21B847C8B20A21B047C9B2C7
:100EB0006B5CA37040460A21B847C8B20A21B0470C
:100EC000C9B26B5C803BE370DEE0301C391C784AB1
:100ED000784B7D4DA84700283CD0201C7B4B984781
:100EE00080467B4D7B4E7C4B9A46642198477B4BDA
:100EF00099460A219847C8B2794F0A21B847C9B222
:100F0000735C2B7040460A21D0470A21C847C8B2FB
:100F10000A21B847C9B2735C6B7040460A21C847C2
:100F2000C8B20A21B847C9B2735C803BAB70404677
:100F30006C4B9847011C201C6B4B98476B496C4BC2
:100F400098476C4B9847C0B20A21B847C9B2735C46
:100F5000EB7099E0301C391C574A584B5A4DA84742
:100F6000002847D0594B9B46201C98478046584D37
:100F7000584E0A21584B9847584B99460A21984792
:100F8000C8B2574F0A21B847C9B2735C2B704046AC
:100F90000A21C847C8B20A21B847C9B2735C803B6E
:100FA0006B70504B9A4640469847011C4E4B9946F1
:100FB000201C98474E4B98464C4998474D4B9847B4
:100FC000C0B20A21B847C9B2735CAB70201C474954
:100FD000C047041CD847D047011C201CC8474349C0
:100FE000C047444B9847C0B20A21B847C9B2735CA6
:100FF000EB7049E0354B9A46201C9847051C344E4F
:10100000344FC0B2364B98460A219847C9B27B5C30
:10101000803B3370334B9946281C9847011C201C99
:10102000314B9847324D3149A847324B9B46984740
:10103000C0B20A21C047C9B27B5C7370201C2B4927
:10104000A8470190D047C847011C0198264B9847F4
:101050002649A847D847C0B20A21C047C9B27B5C1D
:10106000B370201C2449A847041CD047C847011C62
:10107000201C1D4B98471D49A847D847C0B20A21DC
:10108000C047C9B27B5CF3701C4B1B78DBB20F2BE3
:1010900002D81022194B1A7003B03CBC90469946F6
:1010A000A246AB46F0BDC04652B81E85EB3F8F400E
:1010B0008FC2F5285CFF5840736891ED7CFF234098
:1010C0002D6F000055990000E16E0000D17B0000FB
:1010D000080300207C9D0000C96D0000756E0000B3
:1010E000B56D0000117C0000E57800000000204193
:1010F00091760000C16F00000000C842100300207C
:10110000014B18707047C0461003002008B5334BE0
:101110001B780133DBB2032B02D8304A137013E083
:1011200000222E4B1A702E4B1B785B00DBB2002B7B
:1011300002D02B4A137002E01022294B1A70284B60
:1011400019782848284B9847244B1B78274AD25CAB
:101150000F23111C9943264B1970214B1B782548EE
:101160000078184202D104312148017021494978A0
:10117000194203D11E490878023008701D49897848
:10118000194203D11A4B1978083119700F231A40EC
:10119000174B5A70184819490122194B9847194B97
:1011A0001A780F4B1B781A420DD0114B0B4A12784C
:1011B00007218A1A01219140CA430F218A43597895
:1011C00052185A7003E00A4B5A78103A5A700A487B
:1011D000074902220C4B984708BDC046EC0000208E
:1011E00002000020A8020020FD34000008030020B7
:1011F000E8000020040300204C02002088020020A8
:10120000252200001003002029230000F0B591B032
:101210002C4C0923237000236370A37001A90122C1
:101220004A708B700A700920274B98472378D90998
:101230000022002903D15A09D201244952181F273C
:101240003B400124211C9940916102AA14700023A3
:101250005360936080214902D16013745374947475
:10126000D47413752421535409930A93184B936132
:1012700001235B429362D362164B1363164B536395
:10128000164E301C1649174B98473568281C164BCC
:1012900098470740BC40154B1C603268D369002B4F
:1012A000FCD12A68022313432B600C4C201C1049EC
:1012B0000022104B98473723E15C01220A43E25495
:1012C00011B0F0BD88020020751C000000440041F0
:1012D00040420F0002000A0002000B004C020020F6
:1012E000000800420D200000AD25000000E100E0F4
:1012F000850D00001123000010B58EB001AA002357
:101300000021137093710024138154709172D17273
:101310001173917351731174536193611177136257
:1013200053625385938504239370A023DB0093803D
:101330002A23D0542923D0542823D454074C201CCA
:101340000749084B984722687F21D37B8B43FCD108
:10135000118802230B4313800EB010BDA802002099
:10136000002C00428932000008B5FF20014B98474D
:1013700008BDC046F912000010B5011C0C4C201C21
:1013800000220C4B984720680B4B98470B4B1B5C7B
:101390001F21194001231A1C8A40111C084A1160A0
:1013A000617E01220A4362762268537310BDC046F3
:1013B000A80200203535000051320000889D000051
:1013C00000E100E010B50020084B9847084CFA21D6
:1013D0008900A047074B1860FA218900A047064BF7
:1013E00018600522054B1A6010BDC0460130000090
:1013F0002D6D0000080000200400002010E000E037
:1014000030B5084B1C68084A00258021490206E0D7
:10141000002C04D05460956013680B42FCD0013856
:10142000F6D230BD0800002010E000E010B5002228
:101430000023027042700021428001710376026233
:10144000C26182600373C0246401C4810374437465
:101450008374C37403752A24035543758375242448
:101460000355C2840285C1752B23C1542C23C1545A
:1014700010BDC046F0B55F4656464D464446F0B4F2
:1014800099B0061C141C0160BC4B186A80225202E1
:1014900002431A620B780520DA0700D5F6E10B78D3
:1014A0001C20990700D5F1E163783371002B00D03F
:1014B000DCE1B34B196C04220A431A64D6E1237DA4
:1014C000002B02D10123737701E000237377326888
:1014D00001922378684603721E2002A9A94B9847FF
:1014E0001E20A94B98472C23E35C002B42D02B22D3
:1014F000A55C217B88464A19D2B2D318DBB2994643
:101500009A4221D2A14A9346A14B9A460F272F40D7
:10151000237BFF1804A859465022D047132F0CD81C
:10152000BF0004ABF85803A900234B70CB708B703D
:1015300001230B70C0B2974A90470135EDB2404687
:101540004319DBB24B45E1D3E58904A88F4950220A
:101550008F4B9847132D37D8AD0004ABE85803A93B
:1015600000234B70CB708B7001230B70C0B2894B82
:10157000984729E0257B04A884495022844B98474A
:10158000132D0CD8AD0004ABE85803A900234B7011
:10159000CB708B7001230B70C0B27E4B9847E589EE
:1015A00004A87A4950227A4B9847132D0CD8AD00E5
:1015B00004ABE85803A900234B70CB708B70012358
:1015C0000B70C0B2734B9847637D9B00DBB20199EF
:1015D0000B70A37DDB0162781343DBB24B70237980
:1015E000342B00D940E19B006B4AD3589F4602221E
:1015F000102501231AE0637C227C102516E00622C8
:101600001025012312E00822102500230EE00022FD
:10161000302500230AE000222025002306E00022D6
:101620000025002302E00422102502231B01702163
:101630000B401343019A9370E37D17203F2B00D991
:1016400024E1D3703268537E5BB2002BFBDBE27C7B
:10165000638813432422A25CD2001343227D9200AC
:101660001343A27C520013432B4301988380237EB3
:10167000002B01D1316897E0102D5FD002D8002DEA
:101680003CD0F7E7202D19D0302DF3D1E27C002A91
:101690000AD0E26980321720FF2A00D9F6E0226AD8
:1016A0008032FF2A00D9F1E01720E169FF2900DD2F
:1016B000ECE0226AFF2A00DDE8E0DBE7E27C002ABA
:1016C00011D0E0698022920081181720334A91429C
:1016D00000D9DBE0206A80229200811817202F4A6F
:1016E000914200D9D2E017202C4AE169914200DDF5
:1016F000CCE0216A914200DDC8E0BBE7E27C002A31
:1017000011D0E2698020000111181720244A91426B
:1017100000D9BBE0226A8020000111181720204A5E
:10172000914200D9B2E017201D4AE169914200DDE3
:10173000ACE0216A914200DDA8E09BE7E27C002A50
:1017400011D0E2698020000211181720154A914239
:1017500000D99BE0226A8020000211181720114A4C
:10176000914200D992E017200E4AE169914200DDD2
:101770008CE0216A914200DD88E07BE700040040B4
:1017800000080040193100008D300000609E00000C
:1017900089450000F53100008C9D0000FF0300002A
:1017A000FF0F0000FFFF00004A7E52B2002AFBDB61
:1017B000019A13723268537E5BB2002BFBDBA38B62
:1017C000019883833268537E5BB2002BFBDB238C52
:1017D00001990B842C23E35C002B04D0013BDBB28A
:1017E00017200F2B52D82B22A25C17200F2A4DD87E
:1017F0003168487E40B20028FBDBE089217B014351
:10180000A068014312050A431B04134301990B61AD
:101810002A23E35C0B750F238B752423E35C002BD9
:1018200010D0E38C17201D4A93422FD88B84238D30
:1018300080200001191889B21720184A914225D832
:101840000199CB84164B1A685201E023DB001A4041
:10185000144B586841011B68DB0E0B43DBB213438A
:1018600001990B85002011E017200FE00023B360E1
:10187000F3603361B376F376338333770A4B1E60BC
:101880002A23E35C002B00D119E61EE619B03CBC0C
:1018900090469946A246AB46F0BDC046FF0F0000F9
:1018A00024608000206080001403002038B52D4B98
:1018B0001C6823681D7EEDB2E90735D5E27ED107AD
:1018C00032D5A27ED1072FD501221A762268537E07
:1018D0005BB2002BFBDB6369991C6161528B92B296
:1018E0001A80238B013B9BB22383002B11D0637F93
:1018F000002B19D023685A7E52B2002AFBDB197BD9
:1019000002220A431A732268537E5BB2002BFBDB70
:101910000AE0237F052B07D10023237701232268C8
:101920009375201CA368984769070BD50423226888
:101930001376E37E990705D5A37E9A0702D5201C6E
:10194000E3689847A9070BD5022322681376E37E44
:10195000590705D5A37E5A0702D52369201C98474D
:1019600038BDC04614030020931C9B00195001236E
:1019700093401A1C837E1A438276704710B5031C6D
:10198000048BA4B20520002C1DD1187FC0B20528FD
:1019900019D0052018771A83596101221968CA7570
:1019A0005A7F0020002A0ED01A68517E49B20029C1
:1019B000FBDB107B0221014311731A68537E5BB27B
:1019C000002BFBDB002010BD10B5021C1C4BD8699E
:1019D00004210143D9611B4B188B2021FF310143A6
:1019E00019831B7D0520D90728D511780902C0234A
:1019F0009B0019405378DB01FF2003401943D37843
:101A00009B04194393785B001E200340194310790F
:101A10000004C0239B02034019430A4B5960986895
:101A20004003400F0849082484400C80986848808F
:101A300052780A71188BC005C00F000110BDC04656
:101A40000004004000400041F000002030B51D4B74
:101A50005A881B885A4318238A4231D31A4B5C6830
:101A60008022D20222435A601D8B2022FF322A4359
:101A70001A831A7D0523D50722D545281FD8830050
:101A8000124AD3589F46104B1A8B1023D50517D4F2
:101A9000890849000C4BD96103E0890849000A4BC9
:101AA000D961A5231B021843074B1880191C01227A
:101AB0000B7D1342FCD0044B5C60002300E0172335
:101AC000181C30BDF000002000400041B09E000016
:101AD000F8B5051C1D4B1C885B8863431820AB427E
:101AE00033D3631E2B4230D1172094422DD3184B91
:101AF0001B7D0520DC0728D51648154B18801C1CBB
:101B00000120237D0342FCD0114B1C8B2020FF3091
:101B1000204318836808002A12D040000023561E74
:101B2000CC5CB34203DACF187F783F023C43048099
:101B300002339BB202309A42F2D800203F2A04D8E6
:101B40000420291C0022044B9847F8BDF000002017
:101B50000040004144A5FFFF4D1A000070B5194B2D
:101B60001C885D8865431823854229D3651E05427C
:101B700026D11723944223D3134B1C7D0523E5075D
:101B80001ED5114B1D8B2024FF342C431C83400891
:101B9000002A12D040000023561E1C182588ADB222
:101BA0001C04240C0D55B44202DA0C192D0A657080
:101BB00002339CB2A242F0D801E0002300E00023EF
:101BC000181C70BDF0000020004000410E4B1A8828
:101BD000598851431823814214D39200013A10428C
:101BE00010D10A4B1A7D0523D1070BD5074B198B52
:101BF0002022FF320A431A8380084000D861044A39
:101C00001A800023181C7047F0000020004000419B
:101C100002A5FFFF154B198B2022FF320A431A83BE
:101C20009B685A03520F0821914001704380104B6A
:101C30001B885B065B0F9AB2072A02D10023436020
:101C400004E00622D31A04229A404260084B1A8804
:101C500007231340072B02D10023836004E00722EF
:101C6000D31A04229A4082607047C0460040004167
:101C70000040800000B583B001AB80221A700A7862
:101C80005A704A789A708A78DA70191C014B984712
:101C900003B000BDF531000010B5031C4908402019
:101CA00099420CD30024C91A601C80B28B4201D81F
:101CB000041CF8E74020FF2C01D81480002010BD40
:101CC000F0B55F4656464D464446F0B487B0061C14
:101CD0000D1C049210AA1078321C424340248A4200
:101CE00000D9B3E0002B4BD10021321C5E4CA04741
:101CF00083462E1C002700200021002200233F24C1
:101D0000A4460125A846029003916146203903D4D8
:101D100040468840814605E0202165464C1B4046F0
:101D2000E040814641466446A1408A46101C191C89
:101D300080185941021C0B1C5D464C46254202D0BE
:101D4000424602430B1C9F420CD801D1964209D84F
:101D5000921BBB415046029D28434946039C2143A8
:101D6000029003916546013DAC46CED2029803999C
:101D70003C4B3B4A121A8B41120C1B041A4362E083
:101D80000022012B5FD14F0FB946CD00AB46002199
:101D9000321C0023344CA047061C0F1C00230125D5
:101DA000029603979A465046C0B205900021884695
:101DB000002200233F24271C203F03D42E1CBE40BA
:101DC000019604E02020071B291CF94001912E1CDC
:101DD000A6400096101C191C80185941021C0B1CAF
:101DE0005F463740BC46019E4F463E4067463E43F5
:101DF00002D02A1C02430B1C039898420BD802D134
:101E00000299914207D8029E039F921BBB4147460D
:101E100000980743B846013CCDD2414652468B1A42
:101E2000DB08124CA34208D9059A0132D2B20592BE
:101E30000126B2445746082FB5D1402405980828FA
:101E400004D042031A43049C22800024201C07B0C3
:101E50003CBC90469946A246AB46F0BDC046C04643
:101E600000000000010000007D6F0000FF1F000067
:101E700010B582B0041C0F4B1B78002B01D0002939
:101E80000DD001A90C7013200B4B984713200B4B5E
:101E90009847084B5C7001221A70002007E0054B40
:101EA0005A781D20141B621E94416442204002B0E7
:101EB00010BDC046F8000020193100008D30000030
:101EC0002E4B98421CD003D82D4B984207D04AE0A5
:101ED0002C4B984225D02C4B984233D043E001291B
:101EE00043D0002904D0022906D0032906D001E0FE
:101EF000264841E000203FE025483DE025483BE002
:101F0000012934D0002904D0022906D0032906D0A3
:101F100001E0032030E000202EE01F482CE01F48A5
:101F20002AE0012925D0002904D0022906D003295E
:101F300006D001E01A481FE000201DE019481BE010
:101F4000194819E0012916D0002904D0022906D029
:101F5000032906D001E015480EE000200CE01448EB
:101F60000AE0144808E0002006E0134804E01348A3
:101F700002E0134800E013487047C046000C0042DE
:101F80000008004200100042001400420300040058
:101F9000030006000300070003001E0003001F00EB
:101FA0000300080003000A0003000B0003001000F8
:101FB00003001200030013000300050003000100EA
:101FC000030009000300110070B584B00E4A694691
:101FD00070CA70C112680A60031C009A82420FD056
:101FE000019C844208D0029D854207D00020039EB8
:101FF0009E4207D1032004E0012002E0022000E01D
:102000000020C0B204B070BDC89F0000F0B54746C4
:1020100080B488B0051C0C1C161C29600B681C20A1
:102020009A0700D5DFE00B680520DA0700D5DAE073
:10203000081C6F4B98476F4B196A821C0127974009
:102040003A1C0A431A6207A92427F35D0B70143067
:10205000C0B28046684B98474046684B9847F05D51
:102060000021674B98473378012B03D122680C235A
:10207000134323603378002B00D0B1E0226808239B
:1020800013432360ACE0EA18D16004331C2BFAD16F
:102090000023EB62AB620024AB862B863623EC5424
:1020A0003723EC543823EC5403236B722C712868CB
:1020B0004F4B9847071C5349534B9847BF00534B0E
:1020C000FD502F6802AB80221A705C7001229A705A
:1020D000DC703378002B02D1002202AB9A70B36A15
:1020E0000393F06A0490326B0592736B069300249D
:1020F000E1B2A30003AA9858002802D1381C444A30
:102100009047431C06D06A461072000CC0B202A968
:10211000404B98470134042CEAD133786B71337CFF
:10212000AB71B37CEB71337D2B7200226B46DA808E
:102130003378012B14D128682D4B98471430C0B246
:10214000354B9847011CB0696A460632334B9847B5
:10215000031C1720002B46D16B4606331B783B73BC
:102160003378002B0FD1B169B38B786AF47F2404E4
:10217000B27F224302437A622022B25C002A04D05A
:102180004022134301E000230021B268706802433B
:10219000F06802430A43317C0B43717C002903D170
:1021A0001F498978880701D580210A43B17C00291D
:1021B00002D0802189020B43F17C002902D08021CA
:1021C00089000B43317D002902D0802189010B4316
:1021D00039680A433A607A6813437B60002002E062
:1021E000002300214FE708B004BC9046F0BDC04674
:1021F000C91F000000040040193100008D300000AC
:10220000711E0000712300006D2500001C030020DA
:10221000C11E0000F531000035310000991C00009E
:102220000020004110B544791523012C6CD1047AAB
:102230000023002C68D1002A57D04B78002B44D0C3
:102240000268137EDC070FD40B78D909002200291D
:1022500003D15A09D2012D4952181F210B400121E7
:102260009940916105234FE00B78DC090022002C96
:1022700003D15A09D201254C12191F2423400124ED
:102280009C405461897803681A7ED40700D599620E
:10229000C2790023002A37D102680421137E0B4241
:1022A000FCD0117E00234C072ED5538B590703D544
:1022B000518B04230B4353838379012B02D1936AFF
:1022C000002321E0936A00231EE00B78D909002245
:1022D000002903D15A09D2010C4C12191F210B40BD
:1022E00001219940516100230EE00B78D9090022A9
:1022F000002903D15A09D201044952181F210B4069
:102300000121994091610023181C10BD0044004137
:10231000931C9B00C3185960012393401A1C362359
:10232000C15C0A43C2547047031C1720002A1DD009
:102330003820185CC0B2052818D09A865A86D9620F
:1023400005213822995401225A721A6859790029B4
:1023500002D1022111769175DB79002B03D0052380
:102360009375002002E00123937500207047C0465A
:10237000F8B580007A4BC45825683623E35C3722D1
:10238000A75C1F402B7EAE7D1E40F10741D56379CF
:10239000012B16D1637A002B0FD1724B1B88AB62D5
:1023A000638E013B9BB26386638E9BB2002B01D18F
:1023B00001232B756379012B03D1637A002B05D19F
:1023C00027E0002B25D1637A002B22D02268E36A14
:1023D0001978C9B2581CE062A079012804D1587854
:1023E000000201430233E362CB05DB0D9362A38E4F
:1023F000013B9BB2A386A38E9BB2002B09D1012384
:102400002B75637A012B04D1E379002B01D10223D0
:10241000AB75720761D56B8B590714D5637A012BA5
:102420000BD01E223823E2540323637205232B753D
:102430003A0702D5201CA3699847AB6A6A8B04232C
:1024400013436B8349E0637A012B16D123689B6A9F
:10245000638E013B9BB26386638E9BB2002B3CD1A3
:1024600004232B7500223823E25403236372F907F7
:1024700033D5201CE26890472FE023689A6AD20582
:10248000D20DD3B2A16A0B70A36A591CA162A179C3
:10249000012904D1120A5A70A36A0133A362238E60
:1024A000013B9BB22386238E9BB2002B15D10022C9
:1024B0003823E25404232B75637A022B05D17A0763
:1024C0000BD5201C6369984707E0637A002B04D181
:1024D000B90702D5201C22699047B30728D5637934
:1024E000002B10D107232B7502232B760323637255
:1024F0000023A386238638230022E254F90602D55E
:10250000201CE26990476379012B11D1637A012B7A
:102510000ED1E379002B0BD102232B7503236372B9
:1025200000223823E254FB0702D5201CE1688847CB
:1025300032070AD56379002B07D108232B752B7638
:10254000BB0602D5201C216A8847F60907D08023E4
:102550002B752B767A0602D5636A201C9847F8BD46
:102560001C030020180300207047C04630B50B4BF9
:102570001B78002B0ED10A4C0A4D25600A4B002215
:102580001A6065605A60A5609A60E560DA600122B1
:10259000024B1A708000024BC15030BDFC0000207D
:1025A00000010020692500001C03002030B583B025
:1025B000051C01AC201C05490422054B9847281C2A
:1025C000044B9847205603B030BDC046D89F00004A
:1025D00089450000C91F000008B5024B1B68002098
:1025E000984708BD0001002008B5024B5B68012038
:1025F000984708BD0001002008B5024B9B680220E7
:10260000984708BD0001002008B5024BDB68032095
:10261000984708BD000100207047C0460C4B1B685E
:10262000002B10D1EFF31083002B09D172B6BFF34A
:102630005F8F0022074B1A700122074B1A7002E0CD
:102640000022054B1A70024B1A6801321A6070475B
:10265000100100200C00002014010020084B1A6813
:10266000013A1A601B68002B09D1064B1B78002B1E
:1026700005D00122044B1A70BFF35F8F62B670471A
:1026800010010020140100200C000020F0B55F466E
:1026900056464D464446F0B493B0051C0C1C161C1F
:1026A0002960081CA94B9847021C23680520D907FC
:1026B00000D543E123681C209F0700D53EE1A44BD1
:1026C000186A911C01278F40391C0143196211A916
:1026D0002D27F35D0B701432D2B29046101C9D4B27
:1026E000984740469C4B9847F05D00219B4B98478C
:1026F000F37A6B712423F35CAB712523F35CEB71EC
:10270000F37E2B72337F6B7229688846081C8F4BCF
:102710009847143000226B46DA85328A0392802370
:10272000DB019A4221D08023DB019A4204D8802326
:102730009B019A4211D008E0C023DB01039F9F4216
:102740000FD080231B029F4203D010270897002739
:102750000EE00327089700270AE0102708970127B3
:1027600006E008270897012702E0082708970027B6
:1027700031680491F268059273690693317E8A4646
:102780002623F35C9B4672689146002A13D080236F
:102790005B059A422ED12723F35C002B2ED1376A9A
:1027A000C0B26F4B9847011C381C6A462E326D4BE5
:1027B0009847031C1FE02723F35C002B0AD00899DD
:1027C0000091306AB16A6A462E323B1C664FB847A8
:1027D000031C10E0316A0991C0B2614B9847011C9B
:1027E000089A009209986A462E323B1C5E4FB84701
:1027F000031C00E00023181E00D09FE0737E002B16
:1028000002D0B37E41468B732A68039FD369002BA5
:10281000FCD103976B462E331B8842469381059B60
:10282000049F3B43069F3B4349460B43039F1F4383
:10283000524613021F4359464B071F432723F35C9D
:10284000002B01D104231F43317F4902737E9B0279
:102850001943737F1B0219432423F35C5B04194360
:102860002523F35C1B041943F37A19433389FF2BA7
:1028700004D0802252041743194305E0F37E002B55
:1028800002D08023DB041F432C23F35C002B03D1F5
:10289000364B9B789A0701D580231F432A68D3695A
:1028A000002BFCD1434659602A68D369002BFCD128
:1028B00041460F6010AB80221A7000225A70DA7005
:1028C0009A70326B0C92736B0D93B76B0E97F66B1D
:1028D0000F96002710AEF9B2BB000CAA985800283A
:1028E00002D1201C224A9047431C05D03070000CB6
:1028F000C0B2311C1F4A90470137042FEBD100238F
:10290000EB602B616B61AB61EB612B62AB626B6265
:102910000022EB85AB853023EA543123EA5432237D
:10292000EA543323EA542868084B9847041C124998
:10293000124B9847A400124BE550002013B03CBC4A
:1029400090469946A246AB46F0BDC046C91F00005E
:1029500000040040193100008D300000711E00009D
:1029600035310000991C0000C11C0000002000410E
:10297000C11E0000F5310000292A00006D2500006D
:102980001C03002010B5021C0368C4791C20002C15
:102990000DD0D28D92B20520002A08D1DA69002A22
:1029A000FCD1198502211A7E0A42FCD0002010BDFC
:1029B00010B5031C046882791C20002A33D09B8D3B
:1029C0009BB20520002B2ED1237E5A072BD5E3691D
:1029D000002BFCD1638BDBB29A0621D09A0703D57A
:1029E000022363831A201EE05A0703D5042363835E
:1029F0001E2018E0DA0703D501236383132012E0B9
:102A0000DA0605D5628B10231343638342200AE064
:102A10009A0605D5628B202313436383412002E08D
:102A2000238D0B80002010BDF8B58000644BC55885
:102A30002C68E369002BFCD1237EA67D1E40312348
:102A4000EB5C3022AF5C1F40F10720D5EB8D9BB2D1
:102A5000002B1AD0AB6A1A78D2B2591CA9626979D4
:102A6000012904D1597809020A430233AB62D30524
:102A7000DB0D2385EB8D013B9BB2EB85002B06D153
:102A8000012323750223A37501E001232375B207F7
:102A900009D50223237500223323EA54FB0702D50C
:102AA000281CE968884772076AD5AB8D9BB2002B5A
:102AB00064D0638BDBB2190702D43F22134001E0DC
:102AC00037221340002B37D09A0707D51A2232231A
:102AD000EA54628B02231343638327E0590707D527
:102AE0001E223223EA54628B0423134363831DE0C6
:102AF000DA0707D513223223EA54628B01231343EA
:102B0000638313E0D90607D542223223EA54628B4D
:102B100010231343638309E020221A4206D0412286
:102B20003223EA54628B2023134363837A0727D529
:102B3000281C6B69984723E0228DD205D20DD3B2B1
:102B4000696A0B706B6A591C69626979012904D141
:102B5000120A5A706B6A01336B62AB8D013B9BB2F8
:102B6000AB85002B0CD10423237500223223EA54B9
:102B7000BA0705D5281C2B69984701E00423237563
:102B8000F10607D5102323752376FA0602D5281CF3
:102B9000EB699847B10607D52023237523763A07BA
:102BA00002D5281CAB699847310707D50823237540
:102BB0002376BA0602D52B6A281C9847F8BDC04672
:102BC0001C03002008B5082834D880001B4B1B5874
:102BD0009F468020000230E0194B18692DE0194B08
:102BE000186A8005800F184BC340181C25E0144B51
:102BF000586922E0124B1B68022018401DD0114971
:102C00001022CB681A42FCD00D4B1B685A0713D513
:102C100000200E4B98470A4B9B681B041B0C584323
:102C20000BE05023074AD35C00205A0705D5044B1C
:102C3000D86802E0002000E0054808BDDC9F0000E5
:102C4000180100200008004000127A003531000011
:102C5000006CDC0270B50C4B1C6A017885784078FA
:102C60000122104080014026B44304432A40D00191
:102C700080229443221C024303200140090203489E
:102C800002400A431A6270BD00080040FFFCFFFFCB
:102C900010B5027A9206120C43899B059B0D1A43CC
:102CA000184B5A60818842881143C4798279224343
:102CB0000A434178C9010A431A600378042B0FD1F3
:102CC000027B9206038A1A43C3891B040E490B40F8
:102CD0001A430C4B9A60196804220A431A6010E0E8
:102CE000202B0ED1027B9206038A1A43C3891B0450
:102CF00005490B401A43034B9A601A6803490A437B
:102D00001A6010BD180100200000FF032404000019
:102D1000082849D88000254B1B589F46002044E0D6
:102D2000234B196A02220A431A6200203DE0204B1D
:102D3000996902220A439A61002036E01C4B198AE5
:102D400002220A431A8200202FE0194B998A02229C
:102D50000A439A82002028E0164A11680223194388
:102D60001160134A9384111C1022CB681A42FCD0C4
:102D7000104A91680E4BD96252689A6200229A8476
:102D8000191C1022CB681A42FCD00A4B1A6892B266
:102D9000074B9A84002008E0054A4423D05C0221B6
:102DA0000143D154002000E01720704700A000002C
:102DB0000008004018010020F0B54F464646C0B458
:102DC0008BB0C222D2003C4B9A603C4B5A681E2109
:102DD0008A4302210A435A60012201AB1A7000247F
:102DE000374DE0B201A9A8470134252CF9D105AB34
:102DF000002119700022598099809A71DA713F215F
:102E00005981062119825A702E4B1B689B0E3F2B4D
:102E100000D11F2305A80372072303733F23C38137
:102E2000294B984704A800254570012399468370D3
:102E30000570264B98470620254EB047254B9847EE
:102E400001AC657025726572042323702023029300
:102E50000220211C204B9846984702201F4FB8475C
:102E60004B466360657006232370257265720320EC
:102E7000211CC0470320B8470720B0470E49102245
:102E8000CB681A42FCD0164A002313725372937215
:102E9000D37201A901224A604B7006220A700B729C
:102EA0004B7200200C4B984700200C4B98470BB0FE
:102EB0000CBC90469946F0BD00080040004000411F
:102EC0001931000024608000912C0000552C000076
:102ED000112D0000E52E0000092F0000BD2F00007D
:102EE00000040040064B996908220A439A610122B6
:102EF000044B1A70191C0B781342FCD17047C04662
:102F000000040040000C0040F8B5061C071C0D78BA
:102F10002D0205434B78002B02D08023DB021D439A
:102F20004B7A002B02D080231B031D434C68012CDD
:102F300017D9631E1C420FD1022C06D9022300228E
:102F400001325B009C42FBD800E0002217023743AD
:102F500080235B031D4304E02702374380239B0249
:102F60001D430B7A002B02D080239B031D430F4A85
:102F700053785BB2002BFBDB0D4B98470D4B1E705B
:102F80000A4A53785BB2002BFBDB084B9F601A1C8C
:102F900053785BB2002BFBDB044B59688022520252
:102FA0000A4015435D60044B9847F8BD000C004093
:102FB0001D260000080C00405D26000010B5041C12
:102FC0000B4A53785BB2002BFBDB0A4B98470A4B4A
:102FD0001C70074A53785BB2002BFBDB044B59682B
:102FE000802252020A435A60044B984710BDC046E3
:102FF000000C00401D260000040C00405D2600006F
:1030000070B5041C1A4A53785BB2002BFBDB194BDA
:103010009847194B1C70164A53785BB2002BFBDBA8
:10302000134E7068C004C00E144B9847051C124B19
:103030001C707668F602F60F114B1C700C4A537820
:103040005BB2002BFBDB0A4B9C68240AA4B20D4B3D
:103050009847002E07D1012C07D9281C211C0A4BA8
:103060009847051C01E00134E540281C70BDC046AE
:10307000000C00401D260000040C0040C52B000081
:10308000080C00405D2600002D6D000010B5041CEA
:10309000064B9847064B1C70064B59888022D2017C
:1030A0000A435A80044B984710BDC0461D260000B5
:1030B000020C0040000C00405D26000010B5041C0E
:1030C0000F4B98470F4B1C700F4B58880005000F93
:1030D00059880E4A0A405A8059880D4A0A405A8037
:1030E000191C8022D2014B881342FCD1064B0102ED
:1030F0005888064A02400A435A80064B984710BD3A
:103100001D260000020C0040000C0040FFF0FFFFF5
:10311000FFBFFFFF5D26000010B50C7824020443BA
:10312000024B9847A4B2024B5C8010BDBD3000003A
:10313000000C004010B5041C064B9847064B1C7051
:10314000064B5C882405240F054B9847201C054B33
:10315000984710BD1D260000020C0040000C0040E6
:103160005D2600000130000030B5D378002B1ED161
:103170001378802B04D01B0680246402234300E0D4
:10318000002354780225AC430AD19478002C03D153
:103190008024A402234302E0C024E40223434160CC
:1031A0005478013C012C04D8114C234001E04160CB
:1031B00000230D042D0CA024E4052C431C43846241
:1031C0000D0CD02424062C431C438462D478002C9C
:1031D0000CD15C0305D59378012B01D1816100E00E
:1031E00041615378013B012B00D8816030BDC0465E
:1031F000FFFFFBFF08B5031C0A1CC10900200029C2
:1032000003D15809C001044940181F210B40012176
:103210009940024B984708BD0044004169310000C5
:103220007047C04608B5054B9847054B9847054B76
:103230009847054B9847054B984708BDB92D0000A6
:103240001926000021320000213200002132000046
:1032500070B584B0011C01AB0A4A70CA70C3019BEF
:1032600083420AD0029C844205D00020039D8D42F7
:1032700005D1022002E0012000E00020C0B204B02D
:1032800070BDC04624A00000F0B54F464646C0B40D
:1032900087B0041C0D1C9046081C904B9847814633
:1032A0008F4F391C0C3105A803228E4EB047391CB4
:1032B000103103A80622B0470023A360E360236116
:1032C00063612376637648468200874BD45025603D
:1032D00041468B78082B04D117204A46D20700D4E8
:1032E000F6E023712B880520D90700D5F0E0EB7BB1
:1032F0001C20DA0600D5EBE02B88990700D5E7E023
:103300004246137C002B0CD002A901238B700022B3
:10331000CA704046806908704B704246107D734BFE
:1033200098474046037F002B0BD002A901238B70E6
:103330000022CA70426A0A704B70036AD8B26B4BA3
:1033400098476B4B196A4846420003A8125A0A4331
:103350001A6241468B78082B08D1654B1A6A484699
:103360000130400003A9415A0A431A6201A94246AA
:1033700013780B7005AB48461E5C301C5D4B9847BC
:10338000301C5D4B9847414688880B8903438879F8
:103390008A78104318434B78002B02D080231B01FE
:1033A000184321687F22CB7B9343FCD1288042467F
:1033B000507B431E98418000937B002B01D001235A
:1033C000184321687F22CB7B9343FCD1FF232B71D1
:1033D000002805D021687F22CB7B9343FCD1687104
:1033E0004346987ADB7A002B01D0102318434146DC
:1033F0000B7B002B01D02023184321687F22CB7B3D
:103400009343FCD1A87122687F21D37B8B43FCD1ED
:103410002379042B05D0082B41D01720002B57D13E
:1034200024E07F21D37B8B43FCD128234246D35C0D
:103430002B7421687F22CB7B9343FCD12923404608
:10344000C35C2B7521687F22CB7B9343FCD12A235D
:103450004146CB5C2B7621687F22CB7B9343FCD10A
:103460002B234246D35C6B76002031E07F21D37B57
:103470008B43FCD14046038D2B8221687F22CB7B7E
:103480009343FCD141464B8D2B8321687F22CB7B1C
:103490009343FCD14246938D6B83002018E07F213B
:1034A000D37B8B43FCD143469B6A2B6121687F22EF
:1034B000CB7B9343FCD14046C06AA86121687F2240
:1034C000CB7B9343FCD141460B6BEB610020FFE7C4
:1034D00007B00CBC90469946F0BDC0465132000082
:1034E00024A00000894500002C030020F5310000D5
:1034F00000040040193100008D30000010B5026852
:103500007F24D37BA343FCD10379042B05D0082B64
:103510000BD01720002B0BD103E0C9B2117500208E
:1035200006E089B21183002002E091610020FFE7EC
:1035300010BDC046931C9B001950022A04D1027E84
:103540001023134303760CE0032A04D1027E2023C8
:103550001343037605E0012393401A1C037E1A43AC
:10356000027600207047C04638B58000144BC4581E
:103570002268957B237E1D40637E1D40EB0705D5A9
:10358000201CA2689047012322689373AB0705D5DE
:10359000201CE2689047022322689373EB0605D54E
:1035A000201C22699047102322689373AB0605D52F
:1035B000201C62699047236820229A7338BDC04658
:1035C0002C03002008B50020014B984708BDC046D9
:1035D0006935000008B50120014B984708BDC04679
:1035E0006935000008B50220014B984708BDC04668
:1035F00069350000F0B5254B188900283AD09F7A2C
:103600005A680023451E214EAB4206D01178FF298F
:1036100003D0B94201D27118CB720133403299B252
:103620008842F1D83F218723184AD15486082CD0EC
:10363000546800210023012501380027AC4601E031
:103640003B1C65468A009A1892B2824203D09201CE
:10365000125DFF2A13D10133DBB2032BF2D9002D07
:1036600003D08723094AD1540FE0013189B2B14216
:10367000E6D30AE03F218723044AD15405E0013311
:10368000DBB23D1C032BDDD9EFE7F0BD300100209C
:10369000F8B50F1C8601054D054C6B689819391C4F
:1036A0004022A0470528F8D0F8BDC04630010020D0
:1036B0005D1B000070B50602034D044C6B68981941
:1036C000A0470528FAD070BD30010020CD1B0000B6
:1036D000F8B50F1C8601054D054C6B689819391C0F
:1036E0004022A0470528F8D0F8BDC0463001002090
:1036F000D11A000070B58601044D054C6B6899190C
:1037000004200022A0470528F8D070BD3001002019
:103710004D1A000030B599B016AB00221A702E4930
:103720004968C906090F9970DA701A7101225A7036
:103730002A4C16A8A0470528FBD013A8284B984769
:10374000149B16200B2B44D9264C23811A1C083AB3
:103750005208A2721B049B0A5B428020C0021B1805
:1037600063600022C823E2541F4B98478723E35C21
:103770001A203F2B2DD06B461C4A31CA31C3194B3E
:103780001889013880B203A9194B9847039A009B06
:103790009A4219D1049C019DAC4217D10598029A16
:1037A000904215D103ABDB7B1020012B11D103AB71
:1037B0001B7B012B0DD103AB5B7B002B09D10122BD
:1037C000084B1A70002004E01A2002E01A2000E0E2
:1037D0001A2019B030BDC04600400041C919000090
:1037E000151C000030010020F53500003CA0000051
:1037F0009136000070B594B02E4C00228723E2541D
:1038000000202D4B98472589042D24D90026042417
:10381000013DAC4219D00323234004D1A008C0B21B
:10382000254B984701E0012B0FD804AD281CFF2140
:103830004022224B98472E70201C291C204B984771
:10384000201C204988470136B6B20134A4B2194B76
:103850001D89A542DCD801AE1B4B321C13CB13C211
:1038600004AC201CFF213D22144B9847019B04937C
:1038700070686060B668A6600123E3732373002359
:103880006373A373013DE817800F4519A810C0B2F8
:10389000094B9847074D2889013880B2211C084BF5
:1038A00098472889013880B2064B9847074B9847BC
:1038B00014B070BD30010020B53600009B450000FB
:1038C000D1360000F53600003CA00000F5350000C0
:1038D00010B590B00C1C154B1A781F23002A21D06C
:1038E000124B9A7A182382421CD9C8230F4AD35C00
:1038F000002B0BD08823D35C834207D1081C111CFA
:103900008C313C220A4B984700230BE0074B1818D8
:10391000C07A6946074B9847201C01A93C22044BFA
:1039200098470023181C10B010BDC046300100207D
:10393000894500009136000010B5C823074AD35CC2
:10394000002B09D0141C8823D35CD318D87A044BDD
:1039500098470022C823E254002010BD3001002007
:10396000F5360000F0B55F4656464D464446F0B485
:1039700085B0041C0D1C5B4B1B781F20002B00D155
:10398000A8E0584B9B7A1820A34200D8A2E0C82395
:10399000544AD35C002B05D08823D35CA34201D0CA
:1039A000514B98474F4B1B19DB7A9E08032213405B
:1039B000032B75D8B000C718FFB24A4A5168BA0144
:1039C000525CFF2A06D156E0C718FFB2BA01525C1A
:1039D000FF2A50D00133DBB2042BF5D160E04A70EE
:1039E0000233634509D0191C1878B84201D15046FA
:1039F000587008784845F3D1F1E7002739498831F4
:103A00000091384A8C320192B346A1464446AA46F8
:103A100087233448C65CB600F61933498847A04668
:103A200023784B4509D1882348462E4AD054019823
:103A300051463C222D4B984703E0607800992C4B6F
:103A40009847B0B2274D291C88312A4B98474146E8
:103A50000B78EB18DE720122C823EA5401370234D6
:103A6000022FD5D15E465846234B984787231D4ADF
:103A7000D65400202EE01B4E8823F454301C8C308A
:103A8000291C3C22194B9847311C8831381C194B92
:103A900098473419E7720122C823F254002019E034
:103AA0003102104B5B68591803AB0A781A70B200E8
:103AB0005A704020085C9870501CD870984604A832
:103AC000844680200F5CC020085C8146911C8A4699
:103AD000033288E705B03CBC90469946A246AB4607
:103AE000F0BDC04630010020393900008945000092
:103AF00091360000D1360000B5360000FEE7C04622
:103B000070B52C4B2C4A9A4203D02C4B294A9A422E
:103B100004D32B4B2B4A9A4210D31BE02A4B274845
:103B20000330C01A80080130800000232149224A56
:103B3000D458CC5004338342FAD1EAE7214B1A1D02
:103B40001F490331891A890889005218002102C3CC
:103B50009342FCD11D4BFF211D4A8A439A600221EA
:103B600090235B001B4AD1501B4BD878032188431C
:103B700002221043D870DD780C24A54308200543A9
:103B8000DD70164B9E7B3025AE43202535439D735B
:103B90009D7BA54328439873987B884302439A737F
:103BA0000F4B596880220A435A600E4B98470E4BC0
:103BB0009847FEE70000002084A30000AC0000202E
:103BC000181D0020AC0000200400002000ED00E0E3
:103BD000000000000070004100500041004800411A
:103BE000004000413D450000493D0000F0B547461A
:103BF00080B40C1C904600280CD1002A0DDD8F18D3
:103C0000094E0A4D3068211C2B6898470134BC428C
:103C1000F8D104E00120404202E0002000E04046EC
:103C200004BC9046F0BDC04640030020380300208D
:103C3000F0B5474680B40E1C151C0138022810D878
:103C4000002A11D000240D4B98460D4F43461868AA
:103C5000315D3B689847002808DB0134A542F5D167
:103C600007E00120404205E0002003E0012040423F
:103C700000E0201C04BC9046F0BDC046400300207C
:103C80003C030020064B1B68002B02D1054A044B65
:103C90001A60034A136818181060181C7047C04651
:103CA000FC010020183D0020012040427047C04622
:103CB00080239B014B6000207047C0460120704765
:103CC00000207047014B18807047C0461802002042
:103CD000014B58807047C04618020020014B988065
:103CE0007047C0461802002080225202014BDA6160
:103CF0007047C0460044004108B5014B984708BDD5
:103D0000B90A000070B582B0051C0E1C00226B467B
:103D1000DA80064C281C69460631A0470028F9D1F4
:103D20006B4606331B88337002B070BDB1290000AA
:103D300070B5061C0D1C034C301C291CA047002824
:103D4000FAD170BD8529000070B596B0454B9847F3
:103D5000454B98478023DB05009300230193FF2206
:103D60006846028100228372C372012124206C46BE
:103D700021542520215426216354272163540A937A
:103D80008821490303912C21635405932382E37610
:103D90002276227762761323A376627703222D237D
:103DA000E254324B0C93324B0D9301235B420E9342
:103DB0000F93304B0893304E304D314C301C291C42
:103DC0006A46A0470028F9D12B4C2E4B1C602E4A86
:103DD0002E4B1A602E4A2F4B1A60201C27496A4628
:103DE000274B98472C4E3368986800212B4DA847E5
:103DF000336858680021A8472568281C284B984735
:103E00001F22104001228240264B1A602368DA6983
:103E1000002AFCD12A68022313432B602248234B3B
:103E20009847234B98472348234B984700231393E5
:103E300014931593214B1093214B1193214B129303
:103E4000032010A9204B9847204B98472048214B2E
:103E5000984701202049214B9847214D214CA847E4
:103E6000A047FCE725320000C5130000020018003F
:103E700002001700EC2C0000540300200014004244
:103E80008D26000040030020313D00003C0300204F
:103E9000053D00003803002070000020E1450000CF
:103EA000AD25000000E100E048A00000AD450000A5
:103EB00069130000F93C000079130000DD3C0000AC
:103EC000D13C0000C53C000081060000650A0000EE
:103ED0000002002051040000E93C0000250D000014
:103EE00011010000F10A0000F8B556464D4644465F
:103EF0005F46C54BF0B44E00814688468A46760838
:103F00009E420CDDC14B9E4200DDA7E000D1A2E045
:103F10005046BF4A002800DCE3E0BE4BA6E0BE4BA3
:103F20009E4200DDB8E0BD4B9E4200DCA6E00124CD
:103F30006442A3464A4643464846414604F0A0FE32
:103F4000061C0F1C321C3B1C04F09AFE8F4B8E4A41
:103F5000041C0D1C04F094FE8D4A8E4B03F004FFEC
:103F6000221C2B1C04F08CFE8B4A8C4B03F0FCFEB5
:103F7000221C2B1C04F084FE894A8A4B03F0F4FEB9
:103F8000221C2B1C04F07CFE874A884B03F0ECFEBD
:103F9000221C2B1C04F074FE854A864B03F0E4FEC1
:103FA000321C3B1C04F06CFE834A844B061C0F1C25
:103FB000201C291C04F064FE814A824B05F0F0F8B5
:103FC000221C2B1C04F05CFE7F4A804B05F0E8F8B5
:103FD000221C2B1C04F054FE7D4A7E4B05F0E0F8B9
:103FE000221C2B1C04F04CFE7B4A7C4B05F0D8F8BD
:103FF000221C2B1C04F044FE021C58460B1C0130F2
:1040000000D170E05946CC00301C391C03F0ACFEE6
:104010004A46434604F034FE814D0B1C81492D195C
:10402000021C0C19101C191C2268636805F0B8F8F2
:104030004A46434605F0B4F8021C0B1C2868696820
:1040400005F0AEF8021C50460B1C00280EDA80204A
:1040500000060B180AE0002800D159E74A464346FB
:104060004846414603F080FE021C0B1C101C191C24
:104070003CBC90469946A246AB46F8BD584A594BBF
:1040800003F072FE584A594B02F02AFF002800D173
:104090004DE74A464346E9E700F0CEF8624B041C80
:1040A0000D1C9E4230DC614B9E4256DC221C2B1CB8
:1040B00003F05AFE4C4A4D4B05F072F84C4A4D4BFA
:1040C000061C0F1C201C291C03F04EFE021C0B1C9E
:1040D000301C391C04F06AF98846002181468B4661
:1040E00028E7534BC2E7301C391C03F03DFE4A461B
:1040F000434604F0C5FD021C0B1C4846414605F032
:104100004FF8021C0B1CB1E74A4B9E421ADC3A4A9C
:104110003A4B05F045F8384A384B061C0F1C201C5A
:10412000291C04F0ADFD304A304B03F01DFE021C8B
:104130000B1C301C391C04F039F9814602208846DA
:104140008346F7E62E482F49221C2B1C04F02EF93B
:104150008846032181468B46ECE6234A234B05F033
:104160001FF8214A214B061C0F1C201C291C03F0A0
:10417000FBFD0B1C021C391C301C04F017F9012339
:10418000814688469B46D5E611DA22E33AAD903F58
:10419000EB0D76244B7BA93F513DD0A0660DB13F7E
:1041A0006E204CC5CD45B73FFF8300922449C23FE6
:1041B0000D5555555555D53F2F6C6A2C44B4A2BFAB
:1041C0009AFDDE522DDEAD3F6D9A74AFF2B0B33F73
:1041D000711623FEC671BC3FC4EB98999999C93FEB
:1041E0009C7500883CE4377E000000000000F03F32
:1041F0000000000000000040000000000000F83F48
:10420000000000000000F0BFFFFF0F440000F07F3F
:10421000182D4454FB21F93FFFFFDB3FFFFF1F3EFA
:1042200078A0000058A00000FFFFF23FFFFFE53F2D
:10423000FB21F9BFFF7F03404B0059087047C04680
:10424000F0B5474680B48AB0041C0D1C00F058F845
:10425000294A0023D3569046061C0F1C01330DD06B
:10426000201C291C00F032F9002807D0201C291C32
:10427000204B1F4A02F020FE002805D1301C391CBB
:104280000AB004BC9046F0BD012300931B4B04947C
:1042900005950193002308934346029403951C78E7
:1042A000002C0ED1134B124A06920793684600F079
:1042B0003DF900280FD0089B002B11D1069E079FC7
:1042C000DCE70C490A48021C0B1C04F06FF806904E
:1042D0000791022CEAD100F02BF921230360EAE7D1
:1042E00000F026F9089C0460E8E7C046C046C046D6
:1042F00000000000000000000D00002098A0000059
:10430000F0B55F4656464D464446F0B46C4E0D1C23
:10431000371C83B0041C021C0B1C2F40B74200D179
:10432000ADE0002900DC8BE02F1500D194E0654D55
:1043300009038023090B5B037F190B43FE0700D59C
:1043400070E07F10C20FB8465B00002780219B18E9
:104350001624420000970020890345189D4204DC82
:1043600068185B1B009D6D180095D50F5B00013C24
:104370005B1952004908002CEFD180210026090664
:1043800020250196B446894609E0834246D0D40FE1
:104390005B00013D1B1952004908002D1CD06646E8
:1043A0008C198342F1DD6718E60FBC46F60782469A
:1043B0004E452CD01B1AA24280414042019F1B1A3D
:1043C000121B7F18D40F5B00013D019750461B194B
:1043D00052004908002DE2D1134328D10198430827
:1043E000009D394E6A109219ED0702D58021090609
:1043F0000B4340460705B9181C1C0D1C201C291C2A
:1044000003B03CBC90469946A246AB46F0BDFF0FB8
:10441000FF077E427E41B2468244CBE79442C2D936
:10442000181CB4E7C20F5B009B18400089E7019994
:1044300001312FD0019C012323401B195B08CFE7DA
:104440006B005B081A43D9D0002700292BD1C10A81
:10445000153F40050029FAD08022520311421ED197
:104460000023490001331142FBD001242022E41A29
:10447000D21A3F19041CD4402143984057E7201C0E
:10448000291C04F0FDFB221C2B1C03F06DFC041CFA
:104490000D1CB3E7009A002301320092A0E720220E
:1044A00001240023E5E7221C2B1C201C291C04F0FE
:1044B00077FE021C0B1C03F079FF041C0D1C9DE70A
:1044C0000000F07F01FCFFFF0000E03F0B1C011C1F
:1044D000021C30B519430220002900D130BD8021D3
:1044E00009068B4216D00D4904205C180C498C42F9
:1044F000F4D90C4D5C198C42F0D90B4C5900490889
:104500000320A142EAD9074C0020A142E6D1504243
:104510005041E3E7002AE1D0EFE7C0460000F0FF9A
:10452000FFFFDF7F0000F07FFFFF0F0000207047DC
:10453000014B18687047C0467000002070B50E4BE4
:104540000E4D0024ED1AAD101E1CAC4204D0A30089
:10455000F35898470134F8E705F004FF084B094D7C
:104560000024ED1AAD101E1CAC4204D0A300F35879
:1045700098470134F8E770BD70A3000070A30000F5
:1045800070A3000074A3000010B50023934203D071
:10459000CC5CC4540133F9E710BD031C821893426C
:1045A00002D019700133FAE7704700000FB40B4BCB
:1045B00013B51C68002C05D0A369002B02D1201C68
:1045C00001F060FE05ABA168201C049A019300F085
:1045D000BFF816BC08BC04B01847C04670000020E5
:1045E00008B54A424A4180235200DB0000F002F83D
:1045F00008BD0000F7B51E1C3C4B041C1D680F1CB9
:104600000192002D05D0AA69002A02D1281C01F0D0
:1046100039FE374B9C4201D16C6808E0354B9C4217
:1046200001D1AC6803E0344B9C4200D1EC68019BA3
:10463000022B57D8002E55DB281C211C01F0A2FDAF
:1046400000236360A361A3891A0603D5281C21698E
:1046500002F0EEF9A38983229343A381019B022BED
:1046600013D0002F25D1002E01D18026F600301C5A
:1046700001F0CCFE071E18D18020C00001F0C6FE5C
:10468000071E10D10120404200E00020A389022231
:104690001343A3810023A360231C473323602361BA
:1046A0000123636120E08026F600A3898022134362
:1046B000A381019A012A04D1A3891343A3817342E0
:1046C000A3610E4B0020AB62A3892760276166615E
:1046D0001A0709D5032213405A4253415B421E4038
:1046E000A66001E001204042FEBDC04670000020EF
:1046F000FCA000001CA100003CA10000DD61000046
:10470000936810B5013B9360002B05DA9469A342CE
:1047100008DBCBB20A2B05D01368581C1060197047
:10472000C8B201E000F072FD10BDF8B5061C0F1C08
:10473000141CD518AC4208D02178301C3A1CFFF765
:10474000DFFF0134431CF5D100E00020F8BD00007C
:10475000F0B59FB0061C0F1C03920593002804D0EF
:104760008169002901D101F08DFD754B9F4201D176
:10477000776808E0734B9F4201D1B76803E0724B42
:104780009F4200D1F768BB891A070AD53B69002B05
:1047900007D006AD00236B6120236B763023AB7608
:1047A0003BE0301C391C00F089FD0028F1D00120CD
:1047B0004042C2E0059A111D12680591002A76DB7D
:1047C0000992013423782E2B00D181E021785F48B3
:1047D000032201F025FE002807D05C492A68431A0D
:1047E000402098401043286001342178631C5848C9
:1047F00006220393297601F013FE002800D18AE0F7
:10480000544B002B7ED1059B07220733934308337B
:1048100005936A69049953186B61039C2378002BF4
:1048200004D10399611A029110D003E0252BF8D02E
:104830000134F3E7301C391C039A029BFFF775FF24
:10484000013075D06A69029953186B612378002B87
:104850006ED0012252426A606A4600235B32013404
:104860002B60EB60AB601370AB6521783A48052292
:1048700001F0D6FD002808D0374A0134831A012000
:1048800098402B6818432860EFE72B68D90603D5BA
:104890006A4620215B3211701A0703D56A462B2124
:1048A0005B32117022782A2A84D0099B05E052429B
:1048B000EA60022213432B6083E72278303A092A08
:1048C00004D80A214B4301349B18F6E7099379E792
:1048D00063782A2B09D1059B02341A1D1B680592A7
:1048E000002B0DDA01235B420AE001340023227819
:1048F000303A092A04D80A214B4301349B18F6E7C1
:10490000079363E705AB0093301C291C3A1C134B3B
:1049100000F0C6F807E005AB0093301C291C3A1CD8
:104920000E4B00F05DFB04900499013100D070E75C
:10493000BB895A0600D53AE70B981FB0F0BDC046B8
:10494000FCA000001CA100003CA10000AEA00000E3
:10495000B2A00000A14A0000A8A000002B47000060
:10496000F0B58BB0161C1C1C129904D580221206BF
:10497000A4182D2300E00023149F0B7020239F43D5
:10498000462F08D03A1C453A51424A411099022319
:104990008918109100E003230093139B109A02934F
:1049A00008AB039309AB01920493321C231C00F063
:1049B00083FD051C472F02D11199C9072CD51099E9
:1049C00069180791462F14D12B78302B0CD1301C4D
:1049D000211C164B144A02F069FA002804D1109ADF
:1049E000012313999B1A0B60139A07991368C9182E
:1049F0000791301C211C0D4B0B4A02F057FA00287E
:104A000001D0079A0992099B07998B4204D25A1C3C
:104A1000099230221A70F6E7099B281C5A1B159B35
:104A20001A600BB0F0BDC04600000000000000009E
:104A3000F0B52B2385B0051C0C1C0270861C0029C8
:104A400001DA4C422D236B70092C1EDD6F460E37A8
:104A5000201C0A21019702F00DFA30313970201C18
:104A60000A2102F0B1F9013F041E092CF0DC019B80
:104A70003034013B1C706A460F32301C934209D21D
:104A80001A78013332700136F5E73023E4183370B9
:104A9000B01C7470401B05B0F0BD000000000000A9
:104AA000F0B593B00C1C0A920B93189E051C01F0F4
:104AB00059FC00680C9002F0B5F80023109333689D
:104AC0000722073393431A1C08320D90277E18687B
:104AD00059683260A064E164FFF7F8FC012819D13D
:104AE000A06CE16CB94BB84A02F0E6F9002803D09B
:104AF000231C2D2243331A70472F01D8B44E00E0F7
:104B0000B44E0323206823610423984300212060CE
:104B1000099191E0A06CE16CFFF7D8FC23680028B4
:104B20000CD1472F01D8AC4E00E0AC4E03222261DD
:104B3000042293430022236009927DE06268561CA0
:104B400001D1062207E02021381C8843472803D1E1
:104B5000002A01D1012262608022D2001343236027
:104B600001936B463B3302930FAB6168039310AB29
:104B700005930023009106930497A26CE36C281C14
:104B8000FFF7EEFE20233A1C061C9A430F99472A92
:104B900007D1CB1C02DB606881422EDD023FFFB2F1
:104BA00001E0652F12D8201C01393A1C50300F91BA
:104BB000FFF73EFF109B0990C2182261012B02DC17
:104BC0002168C9072FD5013222612CE0662F15D14B
:104BD0006368002908DD2161002B02D12268D20719
:104BE0001DD50133C91811E0002B03D12068012223
:104BF000104200D09A1C226111E06727109A91425E
:104C000006DB22682161D20709D50131216106E066
:104C10000123002901DC02235B1AD31823610F9BB7
:104C20000020A36509906B463B331B78002B03D013
:104C3000231C2D2243331A700B99281C009111AAB2
:104C4000211C0A9B00F058F9013002D1012040429A
:104C50004CE12268530504D4281C0A99321C2369AC
:104C600067E0652F00D8E0E0A06CE16C574B564A36
:104C700002F01CF900282BD0281C0A99584A01235D
:104C80000B9EB0470130E1D00F9F1098874207DBA1
:104C90002168C90704D42768BF0700D50EE113E1D6
:104CA000281C0A990C9A0D9B0B9EB0470130CDD061
:104CB0000026109B013B9E42EDDA221C281C0A991B
:104CC0001A3201230B9FB8470130BFD00136F0E7FD
:104CD0000F98002830DC281C0A99414A01230B9FB9
:104CE000B8470130B2D00F98002805D1109900299B
:104CF00002D12268D207CED5281C0A990C9A0D9BA6
:104D00000B9FB8470130A1D000270F980997099F42
:104D100043420A99281C9F4209DA221C1A320123B5
:104D20000B9FB847013091D0099F0137EDE7109BE9
:104D3000321C0B9EB047B5E0109FA36D08979F42B1
:104D400000DD0893089F002F01DC002714E0281CD9
:104D50000A99321C089B0B9FB8470130F5D175E7C3
:104D6000221C281C0A991A3201230B9FB8470130D4
:104D700000D16BE7099F01370997089FA36DFA439C
:104D8000D2173A40099F9A1A9742E9DB0F98109977
:104D9000F318099388420EDB2268D2070BD4109BCC
:104DA0000F9FF618DB1B099FF61B9E4200DD1E1CA1
:104DB000002E17DC1FE0281C0A990C9A0D9B0B9FF4
:104DC000B8470130EBD141E70000000000000000CF
:104DD000B9A00000BDA00000C1A00000C5A0000057
:104DE000C9A00000281C0A99099A331C0B9FB847D8
:104DF000013000D12AE700270BE0221C281C0A9969
:104E00001A3201230B9FB847013000D11EE7099FDA
:104E10000137099710980F99F343DB17099F421A3E
:104E20003340D31A9F42E8DB35E71098012802DCB3
:104E300001231A423AD0281C0A99321C01230B9FE5
:104E4000B847013000D101E7281C0A990C9A0D9B44
:104E5000B847013000D1F9E6A06CE16C254B244A3B
:104E600002F024F8002801D0002610E0109B721CEC
:104E7000013B281C0A991CE0221C281C0A991A32A2
:104E800001230B9FB847013000D1DFE60136109BAC
:104E9000013B9E42F0DB221C281C0A995032099BE0
:104EA0000B9FB847013000D0F5E6CFE60A99281CE1
:104EB000321C0B9EB0470130EDD1C7E60026E068FA
:104EC0001199431A9E4205DB119BE06898420DDA66
:104ED000181C0BE0221C281C0A99193201230B9F75
:104EE000B847013000D1B1E60136E8E713B0F0BDB4
:104EF0000000000000000000F7B5151C01930A69CE
:104F00008B68061C0C1C934200DA131C221C2B60BD
:104F100043321278002A01D001332B6020688006CA
:104F200002D52B6802332B60216806270F401FD063
:104F3000231C43331B785A1E9341226892061FD5C7
:104F4000E11840313020C870211C5A1C45310978C5
:104F5000A21840320233D17012E0221C301C019999
:104F600019320123089FB847013011D0009F013743
:104F70000097E0682968009F431A9F42EDDBD7E75E
:104F8000221C301C01994332089FB847013002D1DE
:104F90000120404223E0206806212B68E26801409E
:104FA0000025042903D1D51AEB43DB171D40A26865
:104FB00023699A4201DDD31AED1800270097009F5C
:104FC000AF420BDA221C301C01991A320123089FD0
:104FD000B8470130DCD0009F0137EFE70020FEBD6D
:104FE000F0B50D1C8BB043350692059007930495E0
:104FF0000B7E0C1C109A6E2B00D1A7E011D8632BEE
:1050000022D009D8002B00D1B0E0582B00D0C0E04E
:1050100045310B707B4D4EE0642B1CD0692B1AD0B0
:10502000B7E0732B00D1A5E009D86F2B29D0702BE6
:1050300000D0AEE00E68202333430B6036E0752BC2
:105040001FD0782B32D0A4E013680D1C191D4235F7
:1050500011601B689FE0216813680E0603D5191DB7
:1050600011601E6805E04806F9D5191D1160002180
:105070005E5E644B002E3BDA049D2D2276422A7040
:1050800036E0216813680E0603D5191D11601E68ED
:1050900004E04806F9D5191D1E881160594B227E7F
:1050A000039308276F2A1ED00A271CE0231C7821AF
:1050B0004533554D197011682368081D039510601C
:1050C0001E0601D50E6802E05806FBD50E88D907EA
:1050D00002D52022134323601027002E03D122681B
:1050E00020239A432260231C002243331A7001E0DC
:1050F00003930A276368A360002B03DB256804225F
:1051000095432560002E02D1049D002B0ED0049DF6
:10511000301C391C01F04EFE0398013D435C301CED
:105120002B70391C01F002FE061EF1D1082F09D1A7
:105130002168C90706D5626823699A4202DC013DED
:1051400030232B70049E731B23612AE008681368C8
:105150004969050604D5181D10601B68196005E033
:105160004606F8D5181D10601B68198000232361BE
:10517000049D16E01368191D11601D68281C01F0BC
:1051800051FD63682061984200D923612069606005
:1051900004E0251C42352B7001232361049E00236B
:1051A0003370079E05980096211C09AA069BFFF7FD
:1051B000A3FE013002D10120404221E02A1C0598C3
:1051C00006992369079DA8470130F4D02668B607E1
:1051D00005D4099BE068984212DA181C10E00025FB
:1051E000E0680999431A9D42F3DA221C0598069952
:1051F00019320123079EB0470130DCD00135EFE7BB
:105200000BB0F0BDCBA00000DCA0000070B5051C09
:105210000E1C141C002804D08269002A01D101F060
:1052200031F8234B9C4201D16C6808E0214B9C4231
:1052300001D1AC6803E0204B9C4200D1EC68A3692B
:10524000A360A3891A070AD52369002B07D0226817
:105250002369F6B2D01A626990420FDB08E0281C7D
:10526000211C00F02BF80028F1D0012040421DE065
:10527000281C211C00F086FF0028F6D1A36801300D
:10528000013BA36023685A1C22601E706369984228
:1052900005D0A389301CDA0708D50A2E06D1281CB0
:1052A000211C00F06FFF0028DFD1301C70BDC0460C
:1052B000FCA000001CA100003CA10000344B70B514
:1052C0001D68061C0C1C002D05D0A969002902D1FF
:1052D000281C00F0D7FF2F4B9C4201D16C6808E0DE
:1052E0002D4B9C4201D1AC6803E02C4B9C4200D179
:1052F000EC68A28993B2190721D4D90605D40923F1
:10530000336040231A43A2813FE05A0713D5616BF3
:10531000002908D0231C4433994202D0301C01F0EC
:1053200087FB00236363A38924229343A381002383
:10533000636023692360A38908221343A381216941
:1053400000290BD1A389A02292001A4080239B0040
:105350009A4203D0301C211C01F008F8A3890122D5
:105360001A4005D061690022A2604A42A26103E0AE
:10537000990700D46269A26022690020824206D1A6
:10538000190604D540221343A3810120404270BD79
:1053900070000020FCA000001CA100003CA1000047
:1053A000F0B589B006910B690169051C0026994288
:1053B0007FDB069C5F1E143404940499BC00091919
:1053C000021C0B68143205911419191C0131206854
:1053D000039201F0ABFC0290B04238D00499039BD9
:1053E0008C4601960796624604329446043A40CAB7
:1053F0000299B0B24843310C029E019A71431018D1
:10540000020C51180A0C01921A6880B296B2079ADF
:1054100089B2B618301A1E68320C521A0614921944
:10542000111480B21204059E1043079101C3664512
:10543000D9D2216800290AD1039E043CB44201D884
:105440002F6104E021680029FAD1013FF4E7281C0C
:10545000069901F005FA00282ADB029C039A013420
:10546000049B02940024116840CB88B20019146890
:10547000B1B2401A360C210C891B041409190C1402
:1054800080B20904059E014302C29E42EBD2039CF6
:10549000BB00E3181E68002E0AD1039C043BA34204
:1054A00001D82F6104E01E68002EFAD1013FF4E715
:1054B000029E301C09B0F0BDF0B5446A9BB0079065
:1054C000239D04920593002C08D1102000F09EFF2C
:1054D00007994862446084600460C460079C636A02
:1054E000196800290AD05B6801229A404B608A60E3
:1054F000201C00F0D8FF636A00221A60059800287B
:1055000005DA01232B6043005B08059301E00023CB
:105510002B60059EBE4B321C1A409A4218D1BD4BDF
:10552000229C049D2360002D01D1360301D0BA488E
:1055300000E0BA48249C002C01D100F093FDC27811
:10554000C31C002A00D00533249D2B6000F08AFD87
:10555000049C059DA54BA44A201C291C01F0A6FC17
:10556000071E0CD0229C249D01232360002D01D115
:1055700000F075FDAA482860013800F073FD19ABF2
:10558000009318AB019307982B1C221C01F0EAF939
:1055900073000A905B0D09D0201CA24C2A03120B49
:1055A000211C1143A04A16979E181BE0189B199CBA
:1055B0001D199E4B9D4209DB9D49049A9D4B68181D
:1055C000C2405B1B101C9E40304304E09A48049B81
:1055D000401B8340181C04F089F9984C6E1E01256D
:1055E00009191695824A834B03F0DAFD824A834BF0
:1055F00003F046FB824A834B02F0B6FB041C301CCE
:105600000D1C04F035F9804A804B03F039FB021C75
:105610000B1C201C291C02F0A7FB041C0D1C04F011
:10562000F3F8724B704A0690291C201C01F044FCD0
:1056300000280DD0069804F01BF90B1C021C291C35
:10564000201C01F033FC069C43424341E41A0694BB
:10565000069C01251395162C10D8794AE300D3181F
:1056600018685968049A059B01F03AFC002804D098
:10567000013C00250694139500E01390189800242F
:10568000861B351C0294013D099504D5099C002513
:10569000644202940995069C002C06DB099D129435
:1056A0002D19002409950D9407E0069C029D2D1BE1
:1056B0000295654200240D951294209D0124092D28
:1056C00024D8052D02DD043D2095002420980238C1
:1056D000032823D801F020FB060E0204012502E076
:1056E000012508E000251095219D002D1FDD0C955A
:1056F000089509E0002510950698219D2D180C9518
:1057000001350895002D18DD2B1C17E0634200259C
:105710000C93089320951094122306E001256B4208
:1057200010950C93089300251223219506E001257E
:105730000C9508952B1C219500E001230798002269
:10574000456A6A600422101C14306968984203D8C4
:10575000013169605200F6E7079800F06CFE28609E
:10576000079D6B6A089D1B680B930E2D00D987E17E
:10577000002C00D184E1049C059D14941595069D90
:10578000002D61DD2A1C0F231A402D49D2008A18F2
:10579000146855680E940F95069D2A4C2F1102250A
:1057A000F80617D51F4014981599226A636A02F00B
:1057B000FDFD0325049005910CE0F90708D50E982E
:1057C0000F992268636803F05BFA0E900F91013520
:1057D0007F100834002FF0D1049805990E9A0F9B82
:1057E00002F0E4FD4EE0C0460000000000000000B2
:1057F000000000000000F83F61436F63A787D23FBD
:10580000B3C8608B288AC63FFB799F501344D33FAF
:105810000000F07F0F270000F6A00000EDA00000C0
:10582000CAA000000000F03F01FCFFFFEFFBFFFFFC
:10583000120400000EFCFFFFEEFBFFFF000010FE55
:1058400068A1000030A20000069C02256742002FDC
:105850001AD00F233B40CC4ADB00D318149815997B
:105860001A685B6803F00CFAC84E3F11002F09D08C
:10587000FA0704D532687368013503F001FA7F1026
:105880000836F3E704900591139C002C1ED0049E6B
:10589000059FB44BB24A301C391C01F00DFB0028A7
:1058A00014D0089C002C11D00C9C002C00DCE3E0F0
:1058B000069C301C013C391CAB4AAC4B119403F0E4
:1058C000DFF90135049005910C9C02E0069C1194CF
:1058D000089C281C049E059F0E9403F0C9FF321CEF
:1058E0003B1C03F0CDF9A24AA24B02F03DFA041C86
:1058F000A74808180E990490051C00291BD19E4A40
:105900009E4B301C391C03F04BFC221C049B061CD4
:105910000F1C01F0E5FA002800D05CE2221C802573
:10592000049C2D06301C391C631901F0C5FA0028AF
:1059300000D047E2A0E00E9A934B013A1098D200B3
:105940009B18002849D01A685B688D488D4902F081
:105950002DFD2B1C221C03F023FC049005910B9DB4
:10596000391C301C03F050FF041C03F081FF021CA3
:105970000B1C301C391C03F013FC01356B1E30343A
:105980001C70049A059B061C0F1C01F095FA002858
:1059900000D053E3321C3B1C7249714803F000FCF9
:1059A000049A059B01F088FA002800D0CBE00B9CFC
:1059B0002B1B0E9CA3425FDA049805996A4A6B4B35
:1059C00003F05EF9684A694B04900591301C391C5C
:1059D00003F056F9061C0F1CC2E718685968221C10
:1059E0002B1C03F04DF90B9C0E9D0490059165193D
:1059F0001795391C301C03F007FF051C03F038FF16
:105A0000021C0B1C301C391C03F0CAFB30352570FE
:105A1000179D0134061C0F1CAC4226D10E980B9C1E
:105A2000574A584B25180498059902F09DF9021C15
:105A30000B1C301C391C01F053FA002800D082E006
:105A4000049A059B4E484F4903F0AAFB021C0B1C0D
:105A5000301C391C01F030FA00280DD06B1E1A786A
:105A6000302A00D0EAE21D1CF8E73F4A3F4B03F022
:105A700007F9061C0F1CBCE7149C159D04940595A2
:105A8000199B002B00DA9FE0069D0E2D00DD9BE0A8
:105A90003D4AEB00D3181C685D6802940395219D74
:105AA000002D14DA089C002C11DC00D08CE1324A65
:105AB000324B0298039903F0E3F8049A059B01F036
:105AC00019FA089F3E1C002800D07FE187E10B9D5A
:105AD000049E059F029A039B301C391C02F066FC51
